{
  "address": "0x69B029B7EF2468c2B546556022be2DD66cd20777",
  "abi": "[{\"type\":\"constructor\",\"payable\":false,\"inputs\":[{\"type\":\"address\",\"name\":\"_initialOwner\"}]},{\"type\":\"error\",\"name\":\"ChainAlreadyRegistered\",\"inputs\":[{\"type\":\"uint16\",\"name\":\"chainId\"}]},{\"type\":\"error\",\"name\":\"ChainNotRegistered\",\"inputs\":[{\"type\":\"uint16\",\"name\":\"chainId\"}]},{\"type\":\"error\",\"name\":\"OwnableInvalidOwner\",\"inputs\":[{\"type\":\"address\",\"name\":\"owner\"}]},{\"type\":\"error\",\"name\":\"OwnableUnauthorizedAccount\",\"inputs\":[{\"type\":\"address\",\"name\":\"account\"}]},{\"type\":\"error\",\"name\":\"ZeroAddress\",\"inputs\":[]},{\"type\":\"event\",\"anonymous\":false,\"name\":\"ChainRegistered\",\"inputs\":[{\"type\":\"uint16\",\"name\":\"chainId\",\"indexed\":true},{\"type\":\"string\",\"name\":\"chainName\",\"indexed\":false}]},{\"type\":\"event\",\"anonymous\":false,\"name\":\"ChainStatusChanged\",\"inputs\":[{\"type\":\"uint16\",\"name\":\"chainId\",\"indexed\":true},{\"type\":\"bool\",\"name\":\"isActive\",\"indexed\":false}]},{\"type\":\"event\",\"anonymous\":false,\"name\":\"ChainUpdated\",\"inputs\":[{\"type\":\"uint16\",\"name\":\"chainId\",\"indexed\":true}]},{\"type\":\"event\",\"anonymous\":false,\"name\":\"CurrentChainSet\",\"inputs\":[{\"type\":\"uint16\",\"name\":\"chainId\",\"indexed\":true}]},{\"type\":\"event\",\"anonymous\":false,\"name\":\"LayerZeroConfigured\",\"inputs\":[{\"type\":\"address\",\"name\":\"oapp\",\"indexed\":true},{\"type\":\"uint32\",\"name\":\"eid\",\"indexed\":true},{\"type\":\"string\",\"name\":\"configType\",\"indexed\":false}]},{\"type\":\"event\",\"anonymous\":false,\"name\":\"LayerZeroLibrarySet\",\"inputs\":[{\"type\":\"address\",\"name\":\"oapp\",\"indexed\":true},{\"type\":\"uint32\",\"name\":\"eid\",\"indexed\":true},{\"type\":\"address\",\"name\":\"lib\",\"indexed\":false},{\"type\":\"string\",\"name\":\"libraryType\",\"indexed\":false}]},{\"type\":\"event\",\"anonymous\":false,\"name\":\"OwnershipTransferred\",\"inputs\":[{\"type\":\"address\",\"name\":\"previousOwner\",\"indexed\":true},{\"type\":\"address\",\"name\":\"newOwner\",\"indexed\":true}]},{\"type\":\"function\",\"name\":\"MAX_SUPPORTED_CHAINS\",\"constant\":true,\"stateMutability\":\"view\",\"payable\":false,\"inputs\":[],\"outputs\":[{\"type\":\"uint256\"}]},{\"type\":\"function\",\"name\":\"batchConfigureLayerZero\",\"constant\":false,\"payable\":false,\"inputs\":[{\"type\":\"address\",\"name\":\"_oapp\"},{\"type\":\"uint32\",\"name\":\"_eid\"},{\"type\":\"address\",\"name\":\"_sendLib\"},{\"type\":\"address\",\"name\":\"_receiveLib\"},{\"type\":\"uint64\",\"name\":\"_confirmations\"},{\"type\":\"address[]\",\"name\":\"_requiredDVNs\"}],\"outputs\":[]},{\"type\":\"function\",\"name\":\"calculateOmniDragonAddress\",\"constant\":true,\"stateMutability\":\"pure\",\"payable\":false,\"inputs\":[{\"type\":\"address\",\"name\":\"_deployer\"},{\"type\":\"bytes32\",\"name\":\"_salt\"},{\"type\":\"bytes32\",\"name\":\"_bytecodeHash\"}],\"outputs\":[{\"type\":\"address\"}]},{\"type\":\"function\",\"name\":\"chainIdToEid\",\"constant\":true,\"stateMutability\":\"view\",\"payable\":false,\"inputs\":[{\"type\":\"uint256\"}],\"outputs\":[{\"type\":\"uint32\"}]},{\"type\":\"function\",\"name\":\"configureOmniDragonEnforcedOptions\",\"constant\":false,\"payable\":false,\"inputs\":[{\"type\":\"address\",\"name\":\"_oapp\"},{\"type\":\"bytes[]\",\"name\":\"_enforcedOptions\"}],\"outputs\":[]},{\"type\":\"function\",\"name\":\"configureOmniDragonPeer\",\"constant\":false,\"payable\":false,\"inputs\":[{\"type\":\"address\",\"name\":\"_oapp\"},{\"type\":\"uint32\",\"name\":\"_eid\"},{\"type\":\"bytes32\",\"name\":\"_peer\"}],\"outputs\":[]},{\"type\":\"function\",\"name\":\"configureReceiveLibrary\",\"constant\":false,\"payable\":false,\"inputs\":[{\"type\":\"address\",\"name\":\"_oapp\"},{\"type\":\"uint32\",\"name\":\"_eid\"},{\"type\":\"address\",\"name\":\"_receiveLib\"},{\"type\":\"uint256\",\"name\":\"_gracePeriod\"}],\"outputs\":[]},{\"type\":\"function\",\"name\":\"configureSendLibrary\",\"constant\":false,\"payable\":false,\"inputs\":[{\"type\":\"address\",\"name\":\"_oapp\"},{\"type\":\"uint32\",\"name\":\"_eid\"},{\"type\":\"address\",\"name\":\"_sendLib\"}],\"outputs\":[]},{\"type\":\"function\",\"name\":\"configureULNConfig\",\"constant\":false,\"payable\":false,\"inputs\":[{\"type\":\"address\",\"name\":\"_oapp\"},{\"type\":\"address\",\"name\":\"_lib\"},{\"type\":\"uint32\",\"name\":\"_eid\"},{\"type\":\"uint64\",\"name\":\"_confirmations\"},{\"type\":\"address[]\",\"name\":\"_requiredDVNs\"},{\"type\":\"address[]\",\"name\":\"_optionalDVNs\"},{\"type\":\"uint8\",\"name\":\"_optionalDVNsThreshold\"}],\"outputs\":[]},{\"type\":\"function\",\"name\":\"eidToChainId\",\"constant\":true,\"stateMutability\":\"view\",\"payable\":false,\"inputs\":[{\"type\":\"uint32\"}],\"outputs\":[{\"type\":\"uint256\"}]},{\"type\":\"function\",\"name\":\"getChainConfig\",\"constant\":true,\"stateMutability\":\"view\",\"payable\":false,\"inputs\":[{\"type\":\"uint16\",\"name\":\"_chainId\"}],\"outputs\":[{\"type\":\"tuple\",\"components\":[{\"type\":\"uint16\",\"name\":\"chainId\"},{\"type\":\"string\",\"name\":\"chainName\"},{\"type\":\"address\",\"name\":\"wrappedNativeToken\"},{\"type\":\"string\",\"name\":\"wrappedNativeSymbol\"},{\"type\":\"address\",\"name\":\"lotteryManager\"},{\"type\":\"address\",\"name\":\"randomnessProvider\"},{\"type\":\"address\",\"name\":\"priceOracle\"},{\"type\":\"address\",\"name\":\"vrfConsumer\"},{\"type\":\"address\",\"name\":\"dragonToken\"},{\"type\":\"address\",\"name\":\"jackpotVault\"},{\"type\":\"bool\",\"name\":\"isActive\"}]}]},{\"type\":\"function\",\"name\":\"getCurrentChainId\",\"constant\":true,\"stateMutability\":\"view\",\"payable\":false,\"inputs\":[],\"outputs\":[{\"type\":\"uint16\"}]},{\"type\":\"function\",\"name\":\"getDragonToken\",\"constant\":true,\"stateMutability\":\"view\",\"payable\":false,\"inputs\":[{\"type\":\"uint16\",\"name\":\"_chainId\"}],\"outputs\":[{\"type\":\"address\"}]},{\"type\":\"function\",\"name\":\"getJackpotVault\",\"constant\":true,\"stateMutability\":\"view\",\"payable\":false,\"inputs\":[{\"type\":\"uint16\",\"name\":\"_chainId\"}],\"outputs\":[{\"type\":\"address\"}]},{\"type\":\"function\",\"name\":\"getLayerZeroEndpoint\",\"constant\":true,\"stateMutability\":\"view\",\"payable\":false,\"inputs\":[{\"type\":\"uint16\",\"name\":\"_chainId\"}],\"outputs\":[{\"type\":\"address\"}]},{\"type\":\"function\",\"name\":\"getLotteryManager\",\"constant\":true,\"stateMutability\":\"view\",\"payable\":false,\"inputs\":[{\"type\":\"uint16\",\"name\":\"_chainId\"}],\"outputs\":[{\"type\":\"address\"}]},{\"type\":\"function\",\"name\":\"getPriceOracle\",\"constant\":true,\"stateMutability\":\"view\",\"payable\":false,\"inputs\":[{\"type\":\"uint16\",\"name\":\"_chainId\"}],\"outputs\":[{\"type\":\"address\"}]},{\"type\":\"function\",\"name\":\"getRandomnessProvider\",\"constant\":true,\"stateMutability\":\"view\",\"payable\":false,\"inputs\":[{\"type\":\"uint16\",\"name\":\"_chainId\"}],\"outputs\":[{\"type\":\"address\"}]},{\"type\":\"function\",\"name\":\"getSupportedChainAt\",\"constant\":true,\"stateMutability\":\"view\",\"payable\":false,\"inputs\":[{\"type\":\"uint256\",\"name\":\"index\"}],\"outputs\":[{\"type\":\"uint16\"}]},{\"type\":\"function\",\"name\":\"getSupportedChains\",\"constant\":true,\"stateMutability\":\"view\",\"payable\":false,\"inputs\":[],\"outputs\":[{\"type\":\"uint16[]\"}]},{\"type\":\"function\",\"name\":\"getSupportedChainsCount\",\"constant\":true,\"stateMutability\":\"view\",\"payable\":false,\"inputs\":[],\"outputs\":[{\"type\":\"uint256\"}]},{\"type\":\"function\",\"name\":\"getSupportedChainsPaginated\",\"constant\":true,\"stateMutability\":\"view\",\"payable\":false,\"inputs\":[{\"type\":\"uint256\",\"name\":\"offset\"},{\"type\":\"uint256\",\"name\":\"limit\"}],\"outputs\":[{\"type\":\"uint16[]\",\"name\":\"chains\"},{\"type\":\"bool\",\"name\":\"hasMore\"}]},{\"type\":\"function\",\"name\":\"getSwapTrigger\",\"constant\":true,\"stateMutability\":\"view\",\"payable\":false,\"inputs\":[{\"type\":\"uint16\",\"name\":\"_chainId\"}],\"outputs\":[{\"type\":\"address\"}]},{\"type\":\"function\",\"name\":\"getVRFConsumer\",\"constant\":true,\"stateMutability\":\"view\",\"payable\":false,\"inputs\":[{\"type\":\"uint16\",\"name\":\"_chainId\"}],\"outputs\":[{\"type\":\"address\"}]},{\"type\":\"function\",\"name\":\"getWrappedNativeInfo\",\"constant\":true,\"stateMutability\":\"view\",\"payable\":false,\"inputs\":[{\"type\":\"uint16\",\"name\":\"_chainId\"}],\"outputs\":[{\"type\":\"address\",\"name\":\"tokenAddress\"},{\"type\":\"string\",\"name\":\"symbol\"}]},{\"type\":\"function\",\"name\":\"getWrappedNativeSymbol\",\"constant\":true,\"stateMutability\":\"view\",\"payable\":false,\"inputs\":[{\"type\":\"uint16\",\"name\":\"_chainId\"}],\"outputs\":[{\"type\":\"string\"}]},{\"type\":\"function\",\"name\":\"getWrappedNativeToken\",\"constant\":true,\"stateMutability\":\"view\",\"payable\":false,\"inputs\":[{\"type\":\"uint16\",\"name\":\"_chainId\"}],\"outputs\":[{\"type\":\"address\"}]},{\"type\":\"function\",\"name\":\"isChainSupported\",\"constant\":true,\"stateMutability\":\"view\",\"payable\":false,\"inputs\":[{\"type\":\"uint16\",\"name\":\"_chainId\"}],\"outputs\":[{\"type\":\"bool\"}]},{\"type\":\"function\",\"name\":\"isEndpointUpdated\",\"constant\":true,\"stateMutability\":\"pure\",\"payable\":false,\"inputs\":[],\"outputs\":[{\"type\":\"bool\"}]},{\"type\":\"function\",\"name\":\"isSupportedChain\",\"constant\":true,\"stateMutability\":\"view\",\"payable\":false,\"inputs\":[{\"type\":\"uint16\"}],\"outputs\":[{\"type\":\"bool\"}]},{\"type\":\"function\",\"name\":\"layerZeroEndpoints\",\"constant\":true,\"stateMutability\":\"view\",\"payable\":false,\"inputs\":[{\"type\":\"uint16\"}],\"outputs\":[{\"type\":\"address\"}]},{\"type\":\"function\",\"name\":\"owner\",\"constant\":true,\"stateMutability\":\"view\",\"payable\":false,\"inputs\":[],\"outputs\":[{\"type\":\"address\"}]},{\"type\":\"function\",\"name\":\"registerChain\",\"constant\":false,\"payable\":false,\"inputs\":[{\"type\":\"uint16\",\"name\":\"_chainId\"},{\"type\":\"string\",\"name\":\"_chainName\"},{\"type\":\"address\",\"name\":\"_wrappedNativeToken\"},{\"type\":\"string\",\"name\":\"_wrappedNativeSymbol\"},{\"type\":\"address\",\"name\":\"_lotteryManager\"},{\"type\":\"address\",\"name\":\"_randomnessProvider\"},{\"type\":\"address\",\"name\":\"_priceOracle\"},{\"type\":\"address\",\"name\":\"_vrfConsumer\"},{\"type\":\"address\",\"name\":\"_dragonToken\"},{\"type\":\"address\",\"name\":\"_jackpotVault\"}],\"outputs\":[]},{\"type\":\"function\",\"name\":\"renounceOwnership\",\"constant\":false,\"payable\":false,\"inputs\":[],\"outputs\":[]},{\"type\":\"function\",\"name\":\"setChainActive\",\"constant\":false,\"payable\":false,\"inputs\":[{\"type\":\"uint16\",\"name\":\"_chainId\"},{\"type\":\"bool\",\"name\":\"_isActive\"}],\"outputs\":[]},{\"type\":\"function\",\"name\":\"setChainIdToEid\",\"constant\":false,\"payable\":false,\"inputs\":[{\"type\":\"uint256\",\"name\":\"_chainId\"},{\"type\":\"uint32\",\"name\":\"_eid\"}],\"outputs\":[]},{\"type\":\"function\",\"name\":\"setCurrentChainId\",\"constant\":false,\"payable\":false,\"inputs\":[{\"type\":\"uint16\",\"name\":\"_chainId\"}],\"outputs\":[]},{\"type\":\"function\",\"name\":\"setLayerZeroEndpoint\",\"constant\":false,\"payable\":false,\"inputs\":[{\"type\":\"uint16\",\"name\":\"_chainId\"},{\"type\":\"address\",\"name\":\"_endpoint\"}],\"outputs\":[]},{\"type\":\"function\",\"name\":\"transferContractOwnership\",\"constant\":false,\"payable\":false,\"inputs\":[{\"type\":\"address\",\"name\":\"_contract\"},{\"type\":\"address\",\"name\":\"_newOwner\"}],\"outputs\":[]},{\"type\":\"function\",\"name\":\"transferOwnership\",\"constant\":false,\"payable\":false,\"inputs\":[{\"type\":\"address\",\"name\":\"newOwner\"}],\"outputs\":[]},{\"type\":\"function\",\"name\":\"updateChain\",\"constant\":false,\"payable\":false,\"inputs\":[{\"type\":\"uint16\",\"name\":\"_chainId\"},{\"type\":\"address\",\"name\":\"_wrappedNativeToken\"},{\"type\":\"string\",\"name\":\"_wrappedNativeSymbol\"},{\"type\":\"address\",\"name\":\"_lotteryManager\"},{\"type\":\"address\",\"name\":\"_randomnessProvider\"},{\"type\":\"address\",\"name\":\"_priceOracle\"},{\"type\":\"address\",\"name\":\"_vrfConsumer\"},{\"type\":\"address\",\"name\":\"_dragonToken\"},{\"type\":\"address\",\"name\":\"_jackpotVault\"}],\"outputs\":[]},{\"type\":\"function\",\"name\":\"updateDeadline\",\"constant\":true,\"stateMutability\":\"pure\",\"payable\":false,\"inputs\":[],\"outputs\":[{\"type\":\"uint256\"}]},{\"type\":\"function\",\"name\":\"updateEndpoint\",\"constant\":true,\"stateMutability\":\"view\",\"payable\":false,\"inputs\":[{\"type\":\"address\"}],\"outputs\":[]}]",
  "numDeployments": 1,
  "bytecode": "0x60806040523480156200001157600080fd5b5060405162003aba38038062003aba83398101604081905262000034916200017e565b806001600160a01b0381166200006457604051631e4fbdf760e01b81526000600482015260240160405180910390fd5b6200006f816200012e565b50506003805461ffff1916609217905560076020527f6158b6df9f3d7178cf0df15ead8155214868eab5a79e7108878471a4bfa6c65c80546001600160a01b0319908116731a44076050125825900e736c501f859c50fe728c9081179092557fa7540f530be45c6674dd99d492017379fb77c281d9721ac80290a13fa9877508805482168317905561a86a6000527fa4356065248d86930c73e944e85f9d029fb0f52c0b8312d1a61bfbc9797ef51480549091169091179055620001b0565b600080546001600160a01b038381166001600160a01b0319831681178455604051919092169283917f8be0079c531659141344cd1fd0a4f28419497f9722a3daafe3b4186f6b6457e09190a35050565b6000602082840312156200019157600080fd5b81516001600160a01b0381168114620001a957600080fd5b9392505050565b6138fa80620001c06000396000f3fe608060405234801561001057600080fd5b50600436106102695760003560e01c80638cb3aaa311610151578063d533fe1e116100c3578063f0a594a911610087578063f0a594a9146106a2578063f151e497146106cb578063f2fde38b14610706578063f747c55214610719578063f98fbebd1461072c578063fc9753ed1461073f57600080fd5b8063d533fe1e1461061c578063d59d005d14610564578063debafd5a1461064c578063decb1d9a1461065f578063ed1568be1461067257600080fd5b80639d3b89ba116101155780639d3b89ba14610564578063a158fa7a14610594578063a7170d48146105a7578063b87f29e1146105ba578063c17786a0146105e7578063c4bffe2b1461060757600080fd5b80638cb3aaa3146104cd5780638da5cb5b146104e057806393029fa7146104f157806396e78aef1461052157806399d72ac01461055157600080fd5b80634af91330116101ea578063715018a6116101ae578063715018a614610448578063788ba924146104505780637d7f7e07146104715780637da670a014610492578063846ce1a41461049a5780638b42babd146104ad57600080fd5b80634af913301461035b57806359f5a1641461038b5780635c4f4e751461039e5780635cf0e8a4146103c157806370577124146103dc57600080fd5b80631bbe6220116102315780631bbe6220146102c75780631e459ab8146102da57806324bb7293146102ed57806328f41de3146103005780633a07b8301461031357600080fd5b80630214cafc1461026e57806302ce7eba1461028457806305fa92d91461028c5780630721ed461461029f578063147ca92b146102b4575b600080fd5b60005b6040519081526020015b60405180910390f35b600254610271565b60015b604051901515815260200161027b565b6102b26102ad366004612af1565b61075f565b005b6102b26102c2366004612b58565b610815565b6102b26102d5366004612bfe565b610a7f565b6102b26102e8366004612cd5565b610cb5565b6102b26102fb366004612d9e565b610ed3565b61028f61030e366004612d9e565b610f1b565b610343610321366004612d9e565b61ffff166000908152600160205260409020600801546001600160a01b031690565b6040516001600160a01b03909116815260200161027b565b610343610369366004612d9e565b61ffff166000908152600160205260409020600601546001600160a01b031690565b6102b2610399366004612db9565b610f63565b61028f6103ac366004612d9e565b60046020526000908152604090205460ff1681565b60035461ffff165b60405161ffff909116815260200161027b565b6103436103ea366004612dec565b6040516001600160f81b031960208201526bffffffffffffffffffffffff19606085901b166021820152603581018390526055810182905260009060750160408051601f198184030181529190528051602090910120949350505050565b6102b2611185565b61046361045e366004612e1f565b611199565b60405161027b929190612e81565b61048461047f366004612d9e565b6112c7565b60405161027b929190612ef5565b610271603281565b6102b26104a8366004612f21565b6114dc565b6102716104bb366004612f73565b60066020526000908152604090205481565b6102b26104db366004612f8e565b6116c4565b6000546001600160a01b0316610343565b6103436104ff366004612d9e565b61ffff166000908152600160205260409020600201546001600160a01b031690565b61034361052f366004612d9e565b61ffff166000908152600160205260409020600901546001600160a01b031690565b6102b261055f366004612fb1565b6116ff565b610343610572366004612d9e565b61ffff166000908152600160205260409020600401546001600160a01b031690565b6102b26105a2366004612fed565b6118c2565b6102b26105b53660046130b7565b611b64565b6103436105c8366004612d9e565b61ffff166000908152600760205260409020546001600160a01b031690565b6105fa6105f5366004612d9e565b611bbf565b60405161027b91906130d2565b61060f611de5565b60405161027b91906131eb565b61034361062a366004612d9e565b61ffff166000908152600160205260409020600701546001600160a01b031690565b6103c961065a3660046131fe565b611f0f565b6102b261066d366004613217565b611f97565b610343610680366004612d9e565b61ffff166000908152600160205260409020600501546001600160a01b031690565b6103436106b0366004612d9e565b6007602052600090815260409020546001600160a01b031681565b6106f16106d93660046131fe565b60056020526000908152604090205463ffffffff1681565b60405163ffffffff909116815260200161027b565b6102b26107143660046130b7565b611ffa565b6102b2610727366004613233565b612038565b6102b261073a366004613276565b61228c565b61075261074d366004612d9e565b61267f565b60405161027b9190613372565b61076761287a565b61ffff808316600081815260016020526040902054909116146107a857604051635112327760e01b815261ffff831660048201526024015b60405180910390fd5b61ffff8216600081815260016020526040908190206009018054841515600160a01b0260ff60a01b19909116179055517f8a2e7bc3935fd57632299c1b85c1f2a2ca6b83577ced6c12e0516eb9d809c9d29061080990841515815260200190565b60405180910390a25050565b61081d61287a565b6001600160a01b0384166108435760405162461bcd60e51b815260040161079f90613385565b6001600160a01b0382166108995760405162461bcd60e51b815260206004820152601f60248201527f496e76616c69642072656365697665206c696272617279206164647265737300604482015260640161079f565b60035461ffff166000908152600760205260409020546001600160a01b0316806108d55760405162461bcd60e51b815260040161079f906133b3565b6040516001600160a01b03808716602483015263ffffffff86166044830152841660648201526084810183905260009060a40160408051601f198184030181529181526020820180516001600160e01b0316636a14d71560e01b1790525190915060009081906001600160a01b038516906109519085906133e3565b6000604051808303816000865af19150503d806000811461098e576040519150601f19603f3d011682016040523d82523d6000602084013e610993565b606091505b5091509150816109ff578051156109ac57805160208201fd5b60405162461bcd60e51b815260206004820152602260248201527f4c617965725a65726f20736574526563656976654c696272617279206661696c604482015261195960f21b606482015260840161079f565b8663ffffffff16886001600160a01b03167f12bb5858ebd0acff7053c07ef178b5b616da4f0e0ee08eb918b6baa0694d002688604051610a6d91906001600160a01b03919091168152604060208201819052600790820152665265636569766560c81b606082015260800190565b60405180910390a35050505050505050565b610a8761287a565b604051637ba3e2a960e11b81526001600160a01b03808916600483015263ffffffff8816602483015286166044820152309063f747c55290606401600060405180830381600087803b158015610adc57600080fd5b505af1158015610af0573d6000803e3d6000fd5b505060405163147ca92b60e01b81526001600160a01b03808b16600483015263ffffffff8a166024830152871660448201526000606482015230925063147ca92b9150608401600060405180830381600087803b158015610b5057600080fd5b505af1158015610b64573d6000803e3d6000fd5b5060009250829150610b739050565b604051908082528060200260200182016040528015610b9c578160200160208202803683370190505b506040516350ac7d3d60e11b8152909150309063a158fa7a90610bd2908b908a908c908a908a908a908a90600090600401613451565b600060405180830381600087803b158015610bec57600080fd5b505af1158015610c00573d6000803e3d6000fd5b50506040516350ac7d3d60e11b815230925063a158fa7a9150610c36908b9089908c908a908a908a908a90600090600401613451565b600060405180830381600087803b158015610c5057600080fd5b505af1158015610c64573d6000803e3d6000fd5b505050508663ffffffff16886001600160a01b03166000805160206138a5833981519152604051610a6d906020808252600c908201526b42415443485f434f4e46494760a01b604082015260600190565b610cbd61287a565b61ffff808b1660008181526001602052604090205490911614610cf957604051635112327760e01b815261ffff8b16600482015260240161079f565b6001600160a01b038916610d205760405163d92e233d60e01b815260040160405180910390fd5b61ffff8a1660009081526001602052604090206002810180546001600160a01b0319166001600160a01b038c161790558715610d6b5760038101610d65898b8361357d565b50610d89565b610d788b61ffff166128a7565b6003820190610d87908261363d565b505b6001600160a01b03871615610db6576004810180546001600160a01b0319166001600160a01b0389161790555b6001600160a01b03861615610de3576005810180546001600160a01b0319166001600160a01b0388161790555b6001600160a01b03851615610e10576006810180546001600160a01b0319166001600160a01b0387161790555b6001600160a01b03841615610e3d576007810180546001600160a01b0319166001600160a01b0386161790555b6001600160a01b03831615610e6a576008810180546001600160a01b0319166001600160a01b0385161790555b6001600160a01b03821615610e97576009810180546001600160a01b0319166001600160a01b0384161790555b60405161ffff8c16907fe8242d0dc51110feb37170760dbf7f8f2f68ca3b7e0c076130099f0376e01df290600090a25050505050505050505050565b610edb61287a565b6003805461ffff191661ffff83169081179091556040517ff6549dcfe73f8bc1cc6508ff53d144c3df78d7b2a4f3d670dd1cd6bb1752d3be90600090a250565b61ffff808216600081815260016020526040812054909216148015610f5d575061ffff8216600090815260016020526040902060090154600160a01b900460ff165b92915050565b610f6b61287a565b6001600160a01b038216610fc15760405162461bcd60e51b815260206004820152601860248201527f496e76616c696420636f6e747261637420616464726573730000000000000000604482015260640161079f565b6001600160a01b0381166110175760405162461bcd60e51b815260206004820152601960248201527f496e76616c6964206e6577206f776e6572206164647265737300000000000000604482015260640161079f565b6040516001600160a01b038216602482015260009060440160408051601f198184030181529181526020820180516001600160e01b031663f2fde38b60e01b1790525190915060009081906001600160a01b038616906110789085906133e3565b6000604051808303816000865af19150503d80600081146110b5576040519150601f19603f3d011682016040523d82523d6000602084013e6110ba565b606091505b509150915081611125578051156110d357805160208201fd5b60405162461bcd60e51b815260206004820152602160248201527f436f6e7472616374207472616e736665724f776e657273686970206661696c656044820152601960fa1b606482015260840161079f565b6000856001600160a01b03166000805160206138a58339815191526040516111769060208082526015908201527413d5d3915494d2125417d514905394d19154949151605a1b604082015260600190565b60405180910390a35050505050565b61118d61287a565b6111976000612a8a565b565b6002546060906000908085106111c25750506040805160008082526020820190925291506112c0565b60328411156111d057603293505b60006111dc8683613712565b905060008582106111ed57856111ef565b815b9050806001600160401b03811115611209576112096133ff565b604051908082528060200260200182016040528015611232578160200160208202803683370190505b50945060005b818110156112ad57600261124c828a613725565b8154811061125c5761125c613738565b90600052602060002090601091828204019190066002029054906101000a900461ffff1686828151811061129257611292613738565b61ffff90921660209283029190910190910152600101611238565b50826112b98289613725565b1093505050505b9250929050565b61ffff80821660009081526001602081815260408084208151610160810190925280549095168152918401805493946060948694939192918401919061130c906134f2565b80601f0160208091040260200160405190810160405280929190818152602001828054611338906134f2565b80156113855780601f1061135a57610100808354040283529160200191611385565b820191906000526020600020905b81548152906001019060200180831161136857829003601f168201915b505050918352505060028201546001600160a01b031660208201526003820180546040909201916113b5906134f2565b80601f01602080910402602001604051908101604052809291908181526020018280546113e1906134f2565b801561142e5780601f106114035761010080835404028352916020019161142e565b820191906000526020600020905b81548152906001019060200180831161141157829003601f168201915b505050918352505060048201546001600160a01b03908116602083015260058301548116604080840191909152600684015482166060808501919091526007850154831660808501526008850154831660a085015260099094015491821660c0840152600160a01b90910460ff16151560e0909201919091528201519082015151909450909150156114c657806060015191506114d6565b6114d38461ffff166128a7565b91505b50915091565b6114e461287a565b6001600160a01b03831661150a5760405162461bcd60e51b815260040161079f90613385565b806115575760405162461bcd60e51b815260206004820152601c60248201527f4e6f20656e666f72636564206f7074696f6e732070726f766964656400000000604482015260640161079f565b6000828260405160240161156c929190613777565b60408051601f198184030181529181526020820180516001600160e01b0316630b98bd0760e41b1790525190915060009081906001600160a01b038716906115b59085906133e3565b6000604051808303816000865af19150503d80600081146115f2576040519150601f19603f3d011682016040523d82523d6000602084013e6115f7565b606091505b5091509150816116645780511561161057805160208201fd5b60405162461bcd60e51b8152602060048201526024808201527f6f6d6e69445241474f4e20736574456e666f726365644f7074696f6e732066616044820152631a5b195960e21b606482015260840161079f565b6000866001600160a01b03166000805160206138a58339815191526040516116b49060208082526014908201527311539193d490d15117d3d4151253d394d7d4d15560621b604082015260600190565b60405180910390a3505050505050565b6116cc61287a565b6000828152600560209081526040808320805463ffffffff90951663ffffffff1990951685179055928252600690522055565b61170761287a565b6001600160a01b03831661172d5760405162461bcd60e51b815260040161079f90613385565b806117715760405162461bcd60e51b8152602060048201526014602482015273496e76616c69642070656572206164647265737360601b604482015260640161079f565b60405163ffffffff831660248201526044810182905260009060640160408051601f198184030181529181526020820180516001600160e01b0316633400288b60e01b1790525190915060009081906001600160a01b038716906117d69085906133e3565b6000604051808303816000865af19150503d8060008114611813576040519150601f19603f3d011682016040523d82523d6000602084013e611818565b606091505b5091509150816118795780511561183157805160208201fd5b60405162461bcd60e51b815260206004820152601960248201527f6f6d6e69445241474f4e2073657450656572206661696c656400000000000000604482015260640161079f565b8463ffffffff16866001600160a01b03166000805160206138a58339815191526040516116b4906020808252600890820152671411515497d4d15560c21b604082015260600190565b6118ca61287a565b6001600160a01b0389166118f05760405162461bcd60e51b815260040161079f90613385565b6001600160a01b0388166119465760405162461bcd60e51b815260206004820152601760248201527f496e76616c6964206c6962726172792061646472657373000000000000000000604482015260640161079f565b836119935760405162461bcd60e51b815260206004820181905260248201527f4174206c65617374206f6e652072657175697265642044564e206e6565646564604482015260640161079f565b60035461ffff166000908152600760205260409020546001600160a01b0316806119cf5760405162461bcd60e51b815260040161079f906133b3565b60008787878787876040516020016119ec96959493929190613812565b6040516020818303038152906040529050600089600283604051602401611a159392919061385f565b60408051601f198184030181529181526020820180516001600160e01b031663296ca73560e21b1790525190915060009081906001600160a01b03861690611a5e9085906133e3565b6000604051808303816000865af19150503d8060008114611a9b576040519150601f19603f3d011682016040523d82523d6000602084013e611aa0565b606091505b509150915081611b0157805115611ab957805160208201fd5b60405162461bcd60e51b815260206004820152601a60248201527f4c617965725a65726f20736574436f6e666967206661696c6564000000000000604482015260640161079f565b8b63ffffffff168e6001600160a01b03166000805160206138a5833981519152604051611b4c906020808252600a9082015269554c4e5f434f4e46494760b01b604082015260600190565b60405180910390a35050505050505050505050505050565b611b6c61287a565b60405162461bcd60e51b815260206004820152602260248201527f4e6f7420696d706c656d656e74656420696e2068796272696420726567697374604482015261727960f01b606482015260840161079f565b604080516101608082018352600080835260606020808501829052848601839052818501919091526080840182905260a0840182905260c0840182905260e0840182905261010084018290526101208401829052610140840182905261ffff86811683526001808352928690208651948501909652855416835290840180549394929391840191611c4f906134f2565b80601f0160208091040260200160405190810160405280929190818152602001828054611c7b906134f2565b8015611cc85780601f10611c9d57610100808354040283529160200191611cc8565b820191906000526020600020905b815481529060010190602001808311611cab57829003601f168201915b505050918352505060028201546001600160a01b03166020820152600382018054604090920191611cf8906134f2565b80601f0160208091040260200160405190810160405280929190818152602001828054611d24906134f2565b8015611d715780601f10611d4657610100808354040283529160200191611d71565b820191906000526020600020905b815481529060010190602001808311611d5457829003601f168201915b505050918352505060048201546001600160a01b0390811660208301526005830154811660408301526006830154811660608301526007830154811660808301526008830154811660a083015260099092015491821660c0820152600160a01b90910460ff16151560e09091015292915050565b6002546060906014811115611e90576040805160148082526102a08201909252600091602082016102808036833701905050905060005b6014811015611e895760028181548110611e3857611e38613738565b90600052602060002090601091828204019190066002029054906101000a900461ffff16828281518110611e6e57611e6e613738565b61ffff90921660209283029190910190910152600101611e1c565b5092915050565b6002805480602002602001604051908101604052809291908181526020018280548015611f0457602002820191906000526020600020906000905b82829054906101000a900461ffff1661ffff1681526020019060020190602082600101049283019260010382029150808411611ecb5790505b505050505091505090565b6002546000908210611f595760405162461bcd60e51b8152602060048201526013602482015272496e646578206f7574206f6620626f756e647360681b604482015260640161079f565b60028281548110611f6c57611f6c613738565b90600052602060002090601091828204019190066002029054906101000a900461ffff169050919050565b611f9f61287a565b6001600160a01b038116611fc65760405163d92e233d60e01b815260040160405180910390fd5b61ffff91909116600090815260076020526040902080546001600160a01b0319166001600160a01b03909216919091179055565b61200261287a565b6001600160a01b03811661202c57604051631e4fbdf760e01b81526000600482015260240161079f565b61203581612a8a565b50565b61204061287a565b6001600160a01b0383166120665760405162461bcd60e51b815260040161079f90613385565b6001600160a01b0381166120bc5760405162461bcd60e51b815260206004820152601c60248201527f496e76616c69642073656e64206c696272617279206164647265737300000000604482015260640161079f565b60035461ffff166000908152600760205260409020546001600160a01b0316806120f85760405162461bcd60e51b815260040161079f906133b3565b6040516001600160a01b03808616602483015263ffffffff851660448301528316606482015260009060840160408051601f198184030181529181526020820180516001600160e01b03166309535ff360e41b1790525190915060009081906001600160a01b0385169061216d9085906133e3565b6000604051808303816000865af19150503d80600081146121aa576040519150601f19603f3d011682016040523d82523d6000602084013e6121af565b606091505b509150915081612210578051156121c857805160208201fd5b60405162461bcd60e51b815260206004820152601f60248201527f4c617965725a65726f2073657453656e644c696272617279206661696c656400604482015260640161079f565b8563ffffffff16876001600160a01b03167f12bb5858ebd0acff7053c07ef178b5b616da4f0e0ee08eb918b6baa0694d00268760405161227b91906001600160a01b039190911681526040602082018190526004908201526314d95b9960e21b606082015260800190565b60405180910390a350505050505050565b61229461287a565b61ffff808d16600081815260016020526040902054909116036122d057604051630b4ab72d60e21b815261ffff8d16600482015260240161079f565b6001600160a01b0389166122f75760405163d92e233d60e01b815260040160405180910390fd5b6000876123105761230b8d61ffff166128a7565b612347565b88888080601f0160208091040260200160405190810160405280939291908181526020018383808284376000920191909152505050505b90506040518061016001604052808e61ffff1681526020018d8d8080601f016020809104026020016040519081016040528093929190818152602001838380828437600081840152601f19601f8201169050808301925050505050505081526020018b6001600160a01b03168152602001828152602001886001600160a01b03168152602001876001600160a01b03168152602001866001600160a01b03168152602001856001600160a01b03168152602001846001600160a01b03168152602001836001600160a01b0316815260200160011515815250600160008f61ffff1661ffff16815260200190815260200160002060008201518160000160006101000a81548161ffff021916908361ffff1602179055506020820151816001019081612472919061363d565b5060408201516002820180546001600160a01b0319166001600160a01b03909216919091179055606082015160038201906124ad908261363d565b5060808201516004820180546001600160a01b03199081166001600160a01b039384161790915560a0840151600584018054831691841691909117905560c0840151600684018054831691841691909117905560e084015160078401805483169184169190911790556101008401516008840180549092169083161790556101208301516009909201805461014090940151929091166001600160a81b031990931692909217600160a01b911515919091021790556002546032116125b45760405162461bcd60e51b815260206004820152601960248201527f546f6f206d616e7920737570706f7274656420636861696e7300000000000000604482015260640161079f565b60028d90806001815401808255809150506001900390600052602060002090601091828204019190066002029091909190916101000a81548161ffff021916908361ffff1602179055506001600460008f61ffff1661ffff16815260200190815260200160002060006101000a81548160ff0219169083151502179055508c61ffff167f62bb0ad0b7a8956c331b58a2677c0309932bd3f9ff9275b0d913ee6f544a8a568d8d604051612668929190613890565b60405180910390a250505050505050505050505050565b61ffff80821660009081526001602081815260408084208151610160810190925280549095168152918401805460609592840191906126bd906134f2565b80601f01602080910402602001604051908101604052809291908181526020018280546126e9906134f2565b80156127365780601f1061270b57610100808354040283529160200191612736565b820191906000526020600020905b81548152906001019060200180831161271957829003601f168201915b505050918352505060028201546001600160a01b03166020820152600382018054604090920191612766906134f2565b80601f0160208091040260200160405190810160405280929190818152602001828054612792906134f2565b80156127df5780601f106127b4576101008083540402835291602001916127df565b820191906000526020600020905b8154815290600101906020018083116127c257829003601f168201915b505050918352505060048201546001600160a01b039081166020830152600583015481166040830152600683015481166060808401919091526007840154821660808401526008840154821660a084015260099093015490811660c0830152600160a01b900460ff16151560e0909101528101515190915015612866576060015192915050565b6128738361ffff166128a7565b9392505050565b6000546001600160a01b031633146111975760405163118cdaa760e01b815233600482015260240161079f565b6060816092036128cf575050604080518082019091526002815261575360f01b602082015290565b8161a86a036128f95750506040805180820190915260058152640ae82ac82b60db1b602082015290565b8161a4b1036129225750506040805180820190915260048152630ae8aa8960e31b602082015290565b8160fa0361294a5750506040805180820190915260048152635746544d60e01b602082015290565b81608903612974575050604080518082019091526006815265574d4154494360d01b602082015290565b8160010361299c5750506040805180820190915260048152630ae8aa8960e31b602082015290565b816038036129c45750506040805180820190915260048152632ba1272160e11b602082015290565b81600a036129ec5750506040805180820190915260048152630ae8aa8960e31b602082015290565b8161210503612a155750506040805180820190915260048152630ae8aa8960e31b602082015290565b8161e70803612a3e5750506040805180820190915260048152630ae8aa8960e31b602082015290565b8161138803612a675750506040805180820190915260048152630ae8aa8960e31b602082015290565b5050604080518082019091526007815266574e415449564560c81b602082015290565b600080546001600160a01b038381166001600160a01b0319831681178455604051919092169283917f8be0079c531659141344cd1fd0a4f28419497f9722a3daafe3b4186f6b6457e09190a35050565b803561ffff81168114612aec57600080fd5b919050565b60008060408385031215612b0457600080fd5b612b0d83612ada565b915060208301358015158114612b2257600080fd5b809150509250929050565b80356001600160a01b0381168114612aec57600080fd5b803563ffffffff81168114612aec57600080fd5b60008060008060808587031215612b6e57600080fd5b612b7785612b2d565b9350612b8560208601612b44565b9250612b9360408601612b2d565b9396929550929360600135925050565b80356001600160401b0381168114612aec57600080fd5b60008083601f840112612bcc57600080fd5b5081356001600160401b03811115612be357600080fd5b6020830191508360208260051b85010111156112c057600080fd5b600080600080600080600060c0888a031215612c1957600080fd5b612c2288612b2d565b9650612c3060208901612b44565b9550612c3e60408901612b2d565b9450612c4c60608901612b2d565b9350612c5a60808901612ba3565b925060a08801356001600160401b03811115612c7557600080fd5b612c818a828b01612bba565b989b979a50959850939692959293505050565b60008083601f840112612ca657600080fd5b5081356001600160401b03811115612cbd57600080fd5b6020830191508360208285010111156112c057600080fd5b6000806000806000806000806000806101208b8d031215612cf557600080fd5b612cfe8b612ada565b9950612d0c60208c01612b2d565b985060408b01356001600160401b03811115612d2757600080fd5b612d338d828e01612c94565b9099509750612d46905060608c01612b2d565b9550612d5460808c01612b2d565b9450612d6260a08c01612b2d565b9350612d7060c08c01612b2d565b9250612d7e60e08c01612b2d565b9150612d8d6101008c01612b2d565b90509295989b9194979a5092959850565b600060208284031215612db057600080fd5b61287382612ada565b60008060408385031215612dcc57600080fd5b612dd583612b2d565b9150612de360208401612b2d565b90509250929050565b600080600060608486031215612e0157600080fd5b612e0a84612b2d565b95602085013595506040909401359392505050565b60008060408385031215612e3257600080fd5b50508035926020909101359150565b60008151808452602080850194506020840160005b83811015612e7657815161ffff1687529582019590820190600101612e56565b509495945050505050565b604081526000612e946040830185612e41565b905082151560208301529392505050565b60005b83811015612ec0578181015183820152602001612ea8565b50506000910152565b60008151808452612ee1816020860160208601612ea5565b601f01601f19169290920160200192915050565b6001600160a01b0383168152604060208201819052600090612f1990830184612ec9565b949350505050565b600080600060408486031215612f3657600080fd5b612f3f84612b2d565b925060208401356001600160401b03811115612f5a57600080fd5b612f6686828701612bba565b9497909650939450505050565b600060208284031215612f8557600080fd5b61287382612b44565b60008060408385031215612fa157600080fd5b82359150612de360208401612b44565b600080600060608486031215612fc657600080fd5b612fcf84612b2d565b9250612fdd60208501612b44565b9150604084013590509250925092565b600080600080600080600080600060e08a8c03121561300b57600080fd5b6130148a612b2d565b985061302260208b01612b2d565b975061303060408b01612b44565b965061303e60608b01612ba3565b955060808a01356001600160401b038082111561305a57600080fd5b6130668d838e01612bba565b909750955060a08c013591508082111561307f57600080fd5b5061308c8c828d01612bba565b90945092505060c08a013560ff811681146130a657600080fd5b809150509295985092959850929598565b6000602082840312156130c957600080fd5b61287382612b2d565b602081526130e760208201835161ffff169052565b60006020830151610160806040850152613105610180850183612ec9565b9150604085015161312160608601826001600160a01b03169052565b506060850151848303601f1901608086015261313d8382612ec9565b925050608085015161315a60a08601826001600160a01b03169052565b5060a08501516001600160a01b03811660c08601525060c08501516001600160a01b03811660e08601525060e08501516101006131a1818701836001600160a01b03169052565b86015190506101206131bd868201836001600160a01b03169052565b86015190506101406131d9868201836001600160a01b03169052565b90950151151593019290925250919050565b6020815260006128736020830184612e41565b60006020828403121561321057600080fd5b5035919050565b6000806040838503121561322a57600080fd5b612dd583612ada565b60008060006060848603121561324857600080fd5b61325184612b2d565b925061325f60208501612b44565b915061326d60408501612b2d565b90509250925092565b6000806000806000806000806000806000806101408d8f03121561329957600080fd5b6132a28d612ada565b9b506001600160401b0360208e013511156132bc57600080fd5b6132cc8e60208f01358f01612c94565b909b5099506132dd60408e01612b2d565b98506001600160401b0360608e013511156132f757600080fd5b6133078e60608f01358f01612c94565b909850965061331860808e01612b2d565b955061332660a08e01612b2d565b945061333460c08e01612b2d565b935061334260e08e01612b2d565b92506133516101008e01612b2d565b91506133606101208e01612b2d565b90509295989b509295989b509295989b565b6020815260006128736020830184612ec9565b602080825260149082015273496e76616c6964204f417070206164647265737360601b604082015260600190565b602080825260169082015275139bc8195b991c1bda5b9d0818dbdb999a59dd5c995960521b604082015260600190565b600082516133f5818460208701612ea5565b9190910192915050565b634e487b7160e01b600052604160045260246000fd5b8183526000602080850194508260005b85811015612e76576001600160a01b0361343e83612b2d565b1687529582019590820190600101613425565b600060018060a01b03808b1683526020818b16602085015263ffffffff8a1660408501526001600160401b038916606085015260e0608085015261349960e08501888a613415565b84810360a08601528651808252602080890192019060005b818110156134cf5783518616835292840192918401916001016134b1565b505060ff871660c087015293506134e592505050565b9998505050505050505050565b600181811c9082168061350657607f821691505b60208210810361352657634e487b7160e01b600052602260045260246000fd5b50919050565b601f821115613578576000816000526020600020601f850160051c810160208610156135555750805b601f850160051c820191505b8181101561357457828155600101613561565b5050505b505050565b6001600160401b03831115613594576135946133ff565b6135a8836135a283546134f2565b8361352c565b6000601f8411600181146135dc57600085156135c45750838201355b600019600387901b1c1916600186901b178355613636565b600083815260209020601f19861690835b8281101561360d57868501358255602094850194600190920191016135ed565b508682101561362a5760001960f88860031b161c19848701351681555b505060018560011b0183555b5050505050565b81516001600160401b03811115613656576136566133ff565b61366a8161366484546134f2565b8461352c565b602080601f83116001811461369f57600084156136875750858301515b600019600386901b1c1916600185901b178555613574565b600085815260208120601f198616915b828110156136ce578886015182559484019460019091019084016136af565b50858210156136ec5787850151600019600388901b60f8161c191681555b5050505050600190811b01905550565b634e487b7160e01b600052601160045260246000fd5b81810381811115610f5d57610f5d6136fc565b80820180821115610f5d57610f5d6136fc565b634e487b7160e01b600052603260045260246000fd5b81835281816020850137506000828201602090810191909152601f909101601f19169091010190565b60208082528181018390526000906040600585901b8401810190840186845b8781101561380557868403603f190183528135368a9003601e190181126137bc57600080fd5b890185810190356001600160401b038111156137d757600080fd5b8036038213156137e657600080fd5b6137f186828461374e565b955050509184019190840190600101613796565b5091979650505050505050565b6001600160401b0387168152608060208201526000613835608083018789613415565b8281036040840152613848818688613415565b91505060ff83166060830152979650505050505050565b63ffffffff8416815260ff831660208201526060604082015260006138876060830184612ec9565b95945050505050565b602081526000612f1960208301848661374e56fe79e9965c0300757dfcd8b13acb16fd53a18e322fd9aa016353434bd82b375ddfa26469706673582212203f2b7f9a95e990487047c723393165a3818230b6552aff8e294d5ff0c4c9a89764736f6c63430008160033"
}