{
  "address": "0xE481621C393C622fE27a6DBBD94380F7ecb2a584",
  "abi": [
    {
      "inputs": [
        {
          "internalType": "address",
          "name": "_endpoint",
          "type": "address"
        },
        {
          "internalType": "address",
          "name": "_owner",
          "type": "address"
        },
        {
          "internalType": "address",
          "name": "_vrfCoordinator",
          "type": "address"
        },
        {
          "internalType": "uint256",
          "name": "_subscriptionId",
          "type": "uint256"
        },
        {
          "internalType": "bytes32",
          "name": "_keyHash",
          "type": "bytes32"
        }
      ],
      "stateMutability": "nonpayable",
      "type": "constructor"
    },
    {
      "inputs": [
        {
          "internalType": "address",
          "name": "target",
          "type": "address"
        }
      ],
      "name": "AddressEmptyCode",
      "type": "error"
    },
    {
      "inputs": [
        {
          "internalType": "address",
          "name": "account",
          "type": "address"
        }
      ],
      "name": "AddressInsufficientBalance",
      "type": "error"
    },
    {
      "inputs": [],
      "name": "FailedInnerCall",
      "type": "error"
    },
    {
      "inputs": [],
      "name": "InvalidDelegate",
      "type": "error"
    },
    {
      "inputs": [],
      "name": "InvalidEndpointCall",
      "type": "error"
    },
    {
      "inputs": [
        {
          "internalType": "uint16",
          "name": "optionType",
          "type": "uint16"
        }
      ],
      "name": "InvalidOptionType",
      "type": "error"
    },
    {
      "inputs": [
        {
          "internalType": "bytes",
          "name": "options",
          "type": "bytes"
        }
      ],
      "name": "InvalidOptions",
      "type": "error"
    },
    {
      "inputs": [],
      "name": "LzTokenUnavailable",
      "type": "error"
    },
    {
      "inputs": [
        {
          "internalType": "uint32",
          "name": "eid",
          "type": "uint32"
        }
      ],
      "name": "NoPeer",
      "type": "error"
    },
    {
      "inputs": [
        {
          "internalType": "uint256",
          "name": "msgValue",
          "type": "uint256"
        }
      ],
      "name": "NotEnoughNative",
      "type": "error"
    },
    {
      "inputs": [
        {
          "internalType": "address",
          "name": "addr",
          "type": "address"
        }
      ],
      "name": "OnlyEndpoint",
      "type": "error"
    },
    {
      "inputs": [
        {
          "internalType": "uint32",
          "name": "eid",
          "type": "uint32"
        },
        {
          "internalType": "bytes32",
          "name": "sender",
          "type": "bytes32"
        }
      ],
      "name": "OnlyPeer",
      "type": "error"
    },
    {
      "inputs": [
        {
          "internalType": "address",
          "name": "owner",
          "type": "address"
        }
      ],
      "name": "OwnableInvalidOwner",
      "type": "error"
    },
    {
      "inputs": [
        {
          "internalType": "address",
          "name": "account",
          "type": "address"
        }
      ],
      "name": "OwnableUnauthorizedAccount",
      "type": "error"
    },
    {
      "inputs": [
        {
          "internalType": "uint8",
          "name": "bits",
          "type": "uint8"
        },
        {
          "internalType": "uint256",
          "name": "value",
          "type": "uint256"
        }
      ],
      "name": "SafeCastOverflowedUintDowncast",
      "type": "error"
    },
    {
      "inputs": [
        {
          "internalType": "address",
          "name": "token",
          "type": "address"
        }
      ],
      "name": "SafeERC20FailedOperation",
      "type": "error"
    },
    {
      "anonymous": false,
      "inputs": [
        {
          "indexed": false,
          "internalType": "uint32",
          "name": "chainEid",
          "type": "uint32"
        },
        {
          "indexed": false,
          "internalType": "bool",
          "name": "supported",
          "type": "bool"
        },
        {
          "indexed": false,
          "internalType": "uint32",
          "name": "gasLimit",
          "type": "uint32"
        }
      ],
      "name": "ChainSupportUpdated",
      "type": "event"
    },
    {
      "anonymous": false,
      "inputs": [
        {
          "indexed": true,
          "internalType": "address",
          "name": "funder",
          "type": "address"
        },
        {
          "indexed": false,
          "internalType": "uint256",
          "name": "amount",
          "type": "uint256"
        },
        {
          "indexed": false,
          "internalType": "uint256",
          "name": "newBalance",
          "type": "uint256"
        }
      ],
      "name": "ContractFunded",
      "type": "event"
    },
    {
      "anonymous": false,
      "inputs": [
        {
          "components": [
            {
              "internalType": "uint32",
              "name": "eid",
              "type": "uint32"
            },
            {
              "internalType": "uint16",
              "name": "msgType",
              "type": "uint16"
            },
            {
              "internalType": "bytes",
              "name": "options",
              "type": "bytes"
            }
          ],
          "indexed": false,
          "internalType": "struct EnforcedOptionParam[]",
          "name": "_enforcedOptions",
          "type": "tuple[]"
        }
      ],
      "name": "EnforcedOptionSet",
      "type": "event"
    },
    {
      "anonymous": false,
      "inputs": [
        {
          "indexed": false,
          "internalType": "uint256",
          "name": "oldBalance",
          "type": "uint256"
        },
        {
          "indexed": false,
          "internalType": "uint256",
          "name": "newBalance",
          "type": "uint256"
        }
      ],
      "name": "MinimumBalanceUpdated",
      "type": "event"
    },
    {
      "anonymous": false,
      "inputs": [
        {
          "indexed": true,
          "internalType": "address",
          "name": "previousOwner",
          "type": "address"
        },
        {
          "indexed": true,
          "internalType": "address",
          "name": "newOwner",
          "type": "address"
        }
      ],
      "name": "OwnershipTransferred",
      "type": "event"
    },
    {
      "anonymous": false,
      "inputs": [
        {
          "indexed": false,
          "internalType": "uint32",
          "name": "eid",
          "type": "uint32"
        },
        {
          "indexed": false,
          "internalType": "bytes32",
          "name": "peer",
          "type": "bytes32"
        }
      ],
      "name": "PeerSet",
      "type": "event"
    },
    {
      "anonymous": false,
      "inputs": [
        {
          "indexed": true,
          "internalType": "uint256",
          "name": "requestId",
          "type": "uint256"
        },
        {
          "indexed": true,
          "internalType": "uint32",
          "name": "srcEid",
          "type": "uint32"
        },
        {
          "indexed": true,
          "internalType": "bytes32",
          "name": "requester",
          "type": "bytes32"
        },
        {
          "indexed": false,
          "internalType": "uint64",
          "name": "sequence",
          "type": "uint64"
        },
        {
          "indexed": false,
          "internalType": "uint256",
          "name": "timestamp",
          "type": "uint256"
        }
      ],
      "name": "RandomWordsRequested",
      "type": "event"
    },
    {
      "anonymous": false,
      "inputs": [
        {
          "indexed": true,
          "internalType": "uint256",
          "name": "requestId",
          "type": "uint256"
        },
        {
          "indexed": false,
          "internalType": "uint256[]",
          "name": "randomWords",
          "type": "uint256[]"
        },
        {
          "indexed": false,
          "internalType": "uint32",
          "name": "targetChain",
          "type": "uint32"
        }
      ],
      "name": "RandomnessFulfilled",
      "type": "event"
    },
    {
      "anonymous": false,
      "inputs": [
        {
          "indexed": true,
          "internalType": "uint64",
          "name": "sequence",
          "type": "uint64"
        },
        {
          "indexed": true,
          "internalType": "uint256",
          "name": "requestId",
          "type": "uint256"
        },
        {
          "indexed": false,
          "internalType": "uint32",
          "name": "targetChain",
          "type": "uint32"
        },
        {
          "indexed": false,
          "internalType": "string",
          "name": "reason",
          "type": "string"
        }
      ],
      "name": "ResponsePending",
      "type": "event"
    },
    {
      "anonymous": false,
      "inputs": [
        {
          "indexed": true,
          "internalType": "uint64",
          "name": "sequence",
          "type": "uint64"
        },
        {
          "indexed": false,
          "internalType": "uint256",
          "name": "randomWord",
          "type": "uint256"
        },
        {
          "indexed": false,
          "internalType": "uint32",
          "name": "targetChain",
          "type": "uint32"
        },
        {
          "indexed": false,
          "internalType": "uint256",
          "name": "fee",
          "type": "uint256"
        }
      ],
      "name": "ResponseSentToChain",
      "type": "event"
    },
    {
      "anonymous": false,
      "inputs": [
        {
          "indexed": false,
          "internalType": "uint256",
          "name": "subscriptionId",
          "type": "uint256"
        },
        {
          "indexed": false,
          "internalType": "bytes32",
          "name": "keyHash",
          "type": "bytes32"
        },
        {
          "indexed": false,
          "internalType": "uint32",
          "name": "callbackGasLimit",
          "type": "uint32"
        },
        {
          "indexed": false,
          "internalType": "uint16",
          "name": "requestConfirmations",
          "type": "uint16"
        }
      ],
      "name": "VRFConfigUpdated",
      "type": "event"
    },
    {
      "anonymous": false,
      "inputs": [
        {
          "indexed": true,
          "internalType": "uint256",
          "name": "originalRequestId",
          "type": "uint256"
        },
        {
          "indexed": true,
          "internalType": "uint256",
          "name": "vrfRequestId",
          "type": "uint256"
        },
        {
          "indexed": false,
          "internalType": "uint32",
          "name": "sourceChain",
          "type": "uint32"
        }
      ],
      "name": "VRFRequestSent",
      "type": "event"
    },
    {
      "inputs": [],
      "name": "AVALANCHE_EID",
      "outputs": [
        {
          "internalType": "uint32",
          "name": "",
          "type": "uint32"
        }
      ],
      "stateMutability": "view",
      "type": "function"
    },
    {
      "inputs": [],
      "name": "BASE_EID",
      "outputs": [
        {
          "internalType": "uint32",
          "name": "",
          "type": "uint32"
        }
      ],
      "stateMutability": "view",
      "type": "function"
    },
    {
      "inputs": [],
      "name": "BSC_EID",
      "outputs": [
        {
          "internalType": "uint32",
          "name": "",
          "type": "uint32"
        }
      ],
      "stateMutability": "view",
      "type": "function"
    },
    {
      "inputs": [],
      "name": "ETHEREUM_EID",
      "outputs": [
        {
          "internalType": "uint32",
          "name": "",
          "type": "uint32"
        }
      ],
      "stateMutability": "view",
      "type": "function"
    },
    {
      "inputs": [],
      "name": "OPTIMISM_EID",
      "outputs": [
        {
          "internalType": "uint32",
          "name": "",
          "type": "uint32"
        }
      ],
      "stateMutability": "view",
      "type": "function"
    },
    {
      "inputs": [],
      "name": "POLYGON_EID",
      "outputs": [
        {
          "internalType": "uint32",
          "name": "",
          "type": "uint32"
        }
      ],
      "stateMutability": "view",
      "type": "function"
    },
    {
      "inputs": [],
      "name": "SONIC_EID",
      "outputs": [
        {
          "internalType": "uint32",
          "name": "",
          "type": "uint32"
        }
      ],
      "stateMutability": "view",
      "type": "function"
    },
    {
      "inputs": [
        {
          "internalType": "uint32",
          "name": "chainEid",
          "type": "uint32"
        },
        {
          "internalType": "string",
          "name": "chainName",
          "type": "string"
        },
        {
          "internalType": "uint32",
          "name": "gasLimit",
          "type": "uint32"
        }
      ],
      "name": "addNewChain",
      "outputs": [],
      "stateMutability": "nonpayable",
      "type": "function"
    },
    {
      "inputs": [
        {
          "components": [
            {
              "internalType": "uint32",
              "name": "srcEid",
              "type": "uint32"
            },
            {
              "internalType": "bytes32",
              "name": "sender",
              "type": "bytes32"
            },
            {
              "internalType": "uint64",
              "name": "nonce",
              "type": "uint64"
            }
          ],
          "internalType": "struct Origin",
          "name": "origin",
          "type": "tuple"
        }
      ],
      "name": "allowInitializePath",
      "outputs": [
        {
          "internalType": "bool",
          "name": "",
          "type": "bool"
        }
      ],
      "stateMutability": "view",
      "type": "function"
    },
    {
      "inputs": [],
      "name": "callbackGasLimit",
      "outputs": [
        {
          "internalType": "uint32",
          "name": "",
          "type": "uint32"
        }
      ],
      "stateMutability": "view",
      "type": "function"
    },
    {
      "inputs": [
        {
          "internalType": "uint32",
          "name": "",
          "type": "uint32"
        }
      ],
      "name": "chainGasLimits",
      "outputs": [
        {
          "internalType": "uint32",
          "name": "",
          "type": "uint32"
        }
      ],
      "stateMutability": "view",
      "type": "function"
    },
    {
      "inputs": [
        {
          "internalType": "uint32",
          "name": "",
          "type": "uint32"
        }
      ],
      "name": "chainNames",
      "outputs": [
        {
          "internalType": "string",
          "name": "",
          "type": "string"
        }
      ],
      "stateMutability": "view",
      "type": "function"
    },
    {
      "inputs": [
        {
          "internalType": "uint32",
          "name": "_eid",
          "type": "uint32"
        },
        {
          "internalType": "uint16",
          "name": "_msgType",
          "type": "uint16"
        },
        {
          "internalType": "bytes",
          "name": "_extraOptions",
          "type": "bytes"
        }
      ],
      "name": "combineOptions",
      "outputs": [
        {
          "internalType": "bytes",
          "name": "",
          "type": "bytes"
        }
      ],
      "stateMutability": "view",
      "type": "function"
    },
    {
      "inputs": [],
      "name": "defaultGasLimit",
      "outputs": [
        {
          "internalType": "uint32",
          "name": "",
          "type": "uint32"
        }
      ],
      "stateMutability": "view",
      "type": "function"
    },
    {
      "inputs": [],
      "name": "endpoint",
      "outputs": [
        {
          "internalType": "contract ILayerZeroEndpointV2",
          "name": "",
          "type": "address"
        }
      ],
      "stateMutability": "view",
      "type": "function"
    },
    {
      "inputs": [
        {
          "internalType": "uint32",
          "name": "eid",
          "type": "uint32"
        },
        {
          "internalType": "uint16",
          "name": "msgType",
          "type": "uint16"
        }
      ],
      "name": "enforcedOptions",
      "outputs": [
        {
          "internalType": "bytes",
          "name": "enforcedOption",
          "type": "bytes"
        }
      ],
      "stateMutability": "view",
      "type": "function"
    },
    {
      "inputs": [],
      "name": "fundContract",
      "outputs": [],
      "stateMutability": "payable",
      "type": "function"
    },
    {
      "inputs": [],
      "name": "getAllChainsWithNames",
      "outputs": [
        {
          "internalType": "uint32[]",
          "name": "eids",
          "type": "uint32[]"
        },
        {
          "internalType": "string[]",
          "name": "names",
          "type": "string[]"
        },
        {
          "internalType": "bool[]",
          "name": "supported",
          "type": "bool[]"
        },
        {
          "internalType": "uint32[]",
          "name": "gasLimits",
          "type": "uint32[]"
        }
      ],
      "stateMutability": "view",
      "type": "function"
    },
    {
      "inputs": [],
      "name": "getContractStatus",
      "outputs": [
        {
          "internalType": "uint256",
          "name": "balance",
          "type": "uint256"
        },
        {
          "internalType": "uint256",
          "name": "minBalance",
          "type": "uint256"
        },
        {
          "internalType": "bool",
          "name": "canSendResponses",
          "type": "bool"
        },
        {
          "internalType": "uint32",
          "name": "gasLimit",
          "type": "uint32"
        },
        {
          "internalType": "uint256",
          "name": "supportedChainsCount",
          "type": "uint256"
        }
      ],
      "stateMutability": "view",
      "type": "function"
    },
    {
      "inputs": [
        {
          "internalType": "uint256",
          "name": "requestId",
          "type": "uint256"
        }
      ],
      "name": "getRequestById",
      "outputs": [
        {
          "internalType": "uint64",
          "name": "sequence",
          "type": "uint64"
        },
        {
          "internalType": "bool",
          "name": "exists",
          "type": "bool"
        },
        {
          "internalType": "bool",
          "name": "fulfilled",
          "type": "bool"
        },
        {
          "internalType": "bool",
          "name": "responseSent",
          "type": "bool"
        },
        {
          "internalType": "uint256",
          "name": "randomWord",
          "type": "uint256"
        },
        {
          "internalType": "uint32",
          "name": "sourceChainEid",
          "type": "uint32"
        },
        {
          "internalType": "uint256",
          "name": "timestamp",
          "type": "uint256"
        }
      ],
      "stateMutability": "view",
      "type": "function"
    },
    {
      "inputs": [
        {
          "internalType": "uint64",
          "name": "sequence",
          "type": "uint64"
        }
      ],
      "name": "getRequestBySequence",
      "outputs": [
        {
          "internalType": "uint256",
          "name": "requestId",
          "type": "uint256"
        },
        {
          "internalType": "bool",
          "name": "exists",
          "type": "bool"
        },
        {
          "internalType": "bool",
          "name": "fulfilled",
          "type": "bool"
        },
        {
          "internalType": "bool",
          "name": "responseSent",
          "type": "bool"
        },
        {
          "internalType": "uint256",
          "name": "randomWord",
          "type": "uint256"
        },
        {
          "internalType": "uint32",
          "name": "sourceChainEid",
          "type": "uint32"
        },
        {
          "internalType": "uint256",
          "name": "timestamp",
          "type": "uint256"
        }
      ],
      "stateMutability": "view",
      "type": "function"
    },
    {
      "inputs": [],
      "name": "getSupportedChains",
      "outputs": [
        {
          "internalType": "uint32[]",
          "name": "eids",
          "type": "uint32[]"
        },
        {
          "internalType": "bool[]",
          "name": "supported",
          "type": "bool[]"
        },
        {
          "internalType": "uint32[]",
          "name": "gasLimits",
          "type": "uint32[]"
        }
      ],
      "stateMutability": "view",
      "type": "function"
    },
    {
      "inputs": [
        {
          "components": [
            {
              "internalType": "uint32",
              "name": "srcEid",
              "type": "uint32"
            },
            {
              "internalType": "bytes32",
              "name": "sender",
              "type": "bytes32"
            },
            {
              "internalType": "uint64",
              "name": "nonce",
              "type": "uint64"
            }
          ],
          "internalType": "struct Origin",
          "name": "",
          "type": "tuple"
        },
        {
          "internalType": "bytes",
          "name": "",
          "type": "bytes"
        },
        {
          "internalType": "address",
          "name": "_sender",
          "type": "address"
        }
      ],
      "name": "isComposeMsgSender",
      "outputs": [
        {
          "internalType": "bool",
          "name": "",
          "type": "bool"
        }
      ],
      "stateMutability": "view",
      "type": "function"
    },
    {
      "inputs": [],
      "name": "keyHash",
      "outputs": [
        {
          "internalType": "bytes32",
          "name": "",
          "type": "bytes32"
        }
      ],
      "stateMutability": "view",
      "type": "function"
    },
    {
      "inputs": [
        {
          "components": [
            {
              "internalType": "uint32",
              "name": "srcEid",
              "type": "uint32"
            },
            {
              "internalType": "bytes32",
              "name": "sender",
              "type": "bytes32"
            },
            {
              "internalType": "uint64",
              "name": "nonce",
              "type": "uint64"
            }
          ],
          "internalType": "struct Origin",
          "name": "_origin",
          "type": "tuple"
        },
        {
          "internalType": "bytes32",
          "name": "_guid",
          "type": "bytes32"
        },
        {
          "internalType": "bytes",
          "name": "_message",
          "type": "bytes"
        },
        {
          "internalType": "address",
          "name": "_executor",
          "type": "address"
        },
        {
          "internalType": "bytes",
          "name": "_extraData",
          "type": "bytes"
        }
      ],
      "name": "lzReceive",
      "outputs": [],
      "stateMutability": "payable",
      "type": "function"
    },
    {
      "inputs": [],
      "name": "minimumBalance",
      "outputs": [
        {
          "internalType": "uint256",
          "name": "",
          "type": "uint256"
        }
      ],
      "stateMutability": "view",
      "type": "function"
    },
    {
      "inputs": [],
      "name": "nativePayment",
      "outputs": [
        {
          "internalType": "bool",
          "name": "",
          "type": "bool"
        }
      ],
      "stateMutability": "view",
      "type": "function"
    },
    {
      "inputs": [
        {
          "internalType": "uint32",
          "name": "",
          "type": "uint32"
        },
        {
          "internalType": "bytes32",
          "name": "",
          "type": "bytes32"
        }
      ],
      "name": "nextNonce",
      "outputs": [
        {
          "internalType": "uint64",
          "name": "nonce",
          "type": "uint64"
        }
      ],
      "stateMutability": "view",
      "type": "function"
    },
    {
      "inputs": [],
      "name": "numWords",
      "outputs": [
        {
          "internalType": "uint32",
          "name": "",
          "type": "uint32"
        }
      ],
      "stateMutability": "view",
      "type": "function"
    },
    {
      "inputs": [],
      "name": "oAppVersion",
      "outputs": [
        {
          "internalType": "uint64",
          "name": "senderVersion",
          "type": "uint64"
        },
        {
          "internalType": "uint64",
          "name": "receiverVersion",
          "type": "uint64"
        }
      ],
      "stateMutability": "pure",
      "type": "function"
    },
    {
      "inputs": [],
      "name": "owner",
      "outputs": [
        {
          "internalType": "address",
          "name": "",
          "type": "address"
        }
      ],
      "stateMutability": "view",
      "type": "function"
    },
    {
      "inputs": [
        {
          "internalType": "uint32",
          "name": "eid",
          "type": "uint32"
        }
      ],
      "name": "peers",
      "outputs": [
        {
          "internalType": "bytes32",
          "name": "peer",
          "type": "bytes32"
        }
      ],
      "stateMutability": "view",
      "type": "function"
    },
    {
      "inputs": [
        {
          "internalType": "uint64",
          "name": "",
          "type": "uint64"
        }
      ],
      "name": "pendingResponses",
      "outputs": [
        {
          "internalType": "bool",
          "name": "",
          "type": "bool"
        }
      ],
      "stateMutability": "view",
      "type": "function"
    },
    {
      "inputs": [
        {
          "internalType": "uint32",
          "name": "targetChainEid",
          "type": "uint32"
        }
      ],
      "name": "quoteSendToChain",
      "outputs": [
        {
          "components": [
            {
              "internalType": "uint256",
              "name": "nativeFee",
              "type": "uint256"
            },
            {
              "internalType": "uint256",
              "name": "lzTokenFee",
              "type": "uint256"
            }
          ],
          "internalType": "struct MessagingFee",
          "name": "fee",
          "type": "tuple"
        }
      ],
      "stateMutability": "view",
      "type": "function"
    },
    {
      "inputs": [
        {
          "internalType": "uint256",
          "name": "requestId",
          "type": "uint256"
        },
        {
          "internalType": "uint256[]",
          "name": "randomWords",
          "type": "uint256[]"
        }
      ],
      "name": "rawFulfillRandomWords",
      "outputs": [],
      "stateMutability": "nonpayable",
      "type": "function"
    },
    {
      "inputs": [
        {
          "internalType": "uint256",
          "name": "",
          "type": "uint256"
        }
      ],
      "name": "registeredChainEids",
      "outputs": [
        {
          "internalType": "uint32",
          "name": "",
          "type": "uint32"
        }
      ],
      "stateMutability": "view",
      "type": "function"
    },
    {
      "inputs": [],
      "name": "renounceOwnership",
      "outputs": [],
      "stateMutability": "nonpayable",
      "type": "function"
    },
    {
      "inputs": [],
      "name": "requestConfirmations",
      "outputs": [
        {
          "internalType": "uint16",
          "name": "",
          "type": "uint16"
        }
      ],
      "stateMutability": "view",
      "type": "function"
    },
    {
      "inputs": [
        {
          "internalType": "uint64",
          "name": "sequence",
          "type": "uint64"
        }
      ],
      "name": "retryPendingResponse",
      "outputs": [],
      "stateMutability": "payable",
      "type": "function"
    },
    {
      "inputs": [
        {
          "internalType": "uint64",
          "name": "",
          "type": "uint64"
        }
      ],
      "name": "sequenceToRequestId",
      "outputs": [
        {
          "internalType": "uint256",
          "name": "",
          "type": "uint256"
        }
      ],
      "stateMutability": "view",
      "type": "function"
    },
    {
      "inputs": [
        {
          "internalType": "uint32",
          "name": "_gasLimit",
          "type": "uint32"
        }
      ],
      "name": "setDefaultGasLimit",
      "outputs": [],
      "stateMutability": "nonpayable",
      "type": "function"
    },
    {
      "inputs": [
        {
          "internalType": "address",
          "name": "_delegate",
          "type": "address"
        }
      ],
      "name": "setDelegate",
      "outputs": [],
      "stateMutability": "nonpayable",
      "type": "function"
    },
    {
      "inputs": [
        {
          "components": [
            {
              "internalType": "uint32",
              "name": "eid",
              "type": "uint32"
            },
            {
              "internalType": "uint16",
              "name": "msgType",
              "type": "uint16"
            },
            {
              "internalType": "bytes",
              "name": "options",
              "type": "bytes"
            }
          ],
          "internalType": "struct EnforcedOptionParam[]",
          "name": "_enforcedOptions",
          "type": "tuple[]"
        }
      ],
      "name": "setEnforcedOptions",
      "outputs": [],
      "stateMutability": "nonpayable",
      "type": "function"
    },
    {
      "inputs": [
        {
          "internalType": "uint256",
          "name": "_minimumBalance",
          "type": "uint256"
        }
      ],
      "name": "setMinimumBalance",
      "outputs": [],
      "stateMutability": "nonpayable",
      "type": "function"
    },
    {
      "inputs": [
        {
          "internalType": "uint32",
          "name": "_eid",
          "type": "uint32"
        },
        {
          "internalType": "bytes32",
          "name": "_peer",
          "type": "bytes32"
        }
      ],
      "name": "setPeer",
      "outputs": [],
      "stateMutability": "nonpayable",
      "type": "function"
    },
    {
      "inputs": [
        {
          "internalType": "uint32",
          "name": "chainEid",
          "type": "uint32"
        },
        {
          "internalType": "bool",
          "name": "supported",
          "type": "bool"
        },
        {
          "internalType": "uint32",
          "name": "gasLimit",
          "type": "uint32"
        }
      ],
      "name": "setSupportedChain",
      "outputs": [],
      "stateMutability": "nonpayable",
      "type": "function"
    },
    {
      "inputs": [
        {
          "internalType": "uint256",
          "name": "_subscriptionId",
          "type": "uint256"
        },
        {
          "internalType": "bytes32",
          "name": "_keyHash",
          "type": "bytes32"
        },
        {
          "internalType": "uint32",
          "name": "_callbackGasLimit",
          "type": "uint32"
        },
        {
          "internalType": "uint16",
          "name": "_requestConfirmations",
          "type": "uint16"
        },
        {
          "internalType": "bool",
          "name": "_nativePayment",
          "type": "bool"
        }
      ],
      "name": "setVRFConfig",
      "outputs": [],
      "stateMutability": "nonpayable",
      "type": "function"
    },
    {
      "inputs": [],
      "name": "subscriptionId",
      "outputs": [
        {
          "internalType": "uint256",
          "name": "",
          "type": "uint256"
        }
      ],
      "stateMutability": "view",
      "type": "function"
    },
    {
      "inputs": [
        {
          "internalType": "uint32",
          "name": "",
          "type": "uint32"
        }
      ],
      "name": "supportedChains",
      "outputs": [
        {
          "internalType": "bool",
          "name": "",
          "type": "bool"
        }
      ],
      "stateMutability": "view",
      "type": "function"
    },
    {
      "inputs": [
        {
          "internalType": "address",
          "name": "newOwner",
          "type": "address"
        }
      ],
      "name": "transferOwnership",
      "outputs": [],
      "stateMutability": "nonpayable",
      "type": "function"
    },
    {
      "inputs": [],
      "name": "vrfCoordinator",
      "outputs": [
        {
          "internalType": "contract IVRFCoordinatorV2Plus",
          "name": "",
          "type": "address"
        }
      ],
      "stateMutability": "view",
      "type": "function"
    },
    {
      "inputs": [
        {
          "internalType": "uint256",
          "name": "",
          "type": "uint256"
        }
      ],
      "name": "vrfRequests",
      "outputs": [
        {
          "internalType": "uint64",
          "name": "sequence",
          "type": "uint64"
        },
        {
          "internalType": "uint32",
          "name": "sourceChainEid",
          "type": "uint32"
        },
        {
          "internalType": "bytes32",
          "name": "sourcePeer",
          "type": "bytes32"
        },
        {
          "internalType": "uint256",
          "name": "randomWord",
          "type": "uint256"
        },
        {
          "internalType": "bool",
          "name": "fulfilled",
          "type": "bool"
        },
        {
          "internalType": "bool",
          "name": "responseSent",
          "type": "bool"
        },
        {
          "internalType": "uint256",
          "name": "timestamp",
          "type": "uint256"
        }
      ],
      "stateMutability": "view",
      "type": "function"
    },
    {
      "inputs": [],
      "name": "withdraw",
      "outputs": [],
      "stateMutability": "nonpayable",
      "type": "function"
    },
    {
      "stateMutability": "payable",
      "type": "receive"
    }
  ],
  "transactionHash": "0xd7e1bcf5c124a3d66bee5d6f537f6c6e74981f9f945df711136112099b2fc6c7",
  "args": [
    "0x1a44076050125825900e736c501f859c50fE728c",
    "0xDDd0050d1E084dFc72d5d06447Cc10bcD3fEF60F",
    "0x3C0Ca683b403E37668AE3DC4FB62F4B29B6f7a3e",
    "76197290230634444536112874207591481868701552347170354938929514079949640872745",
    "0xe9f223d7d83ec85c4f78042a4845af3a1c8df7757b4997b815ce4b8d07aca68c"
  ],
  "numDeployments": 2,
  "solcInputHash": "04773fff36e3f47fb84de92bce2215b6",
  "bytecode": "0x60c0806040523461033d57600060a08261437d80380380916100218285610342565b83398101031261033a576100348261037b565b916100416020820161037b565b9061004e6040820161037b565b6060820151608090920151926001600160a01b031680156103265784546001600160a01b0319811682178655604051969082906001600160a01b03167f8be0079c531659141344cd1fd0a4f28419497f9722a3daafe3b4186f6b6457e08880a36001600160a01b0316608081905290813b1561032257602487878094829463ca5eb5e160e01b845260048401525af194851561031757604095610303575b5066010000000000006403002625a060018060581b03196009541617176009556611c37937e08000600d55622625a063ffffffff19600e541617600e5560018060a01b031660a05260075560085561767c81526003602052818120600160ff1982541617905561767c81526004602052818120622625a063ffffffff1982541617905560008051602061435d8339815191526060835161767c815260016020820152622625a085820152a161759a81526003602052818120600160ff19825416179055600061759a82526004602052828220622625a063ffffffff1982541617905560008051602061435d8339815191526060845161759a815260016020820152622625a086820152a16175e882526003602052828220600160ff19825416179055506175e881526004602052818120622625a063ffffffff1982541617905560008051602061435d833981519152606083516175e8815260016020820152622625a085820152a161759581526003602052818120600160ff198254161790556175958152600460205220622625a063ffffffff1982541617905560008051602061435d8339815191526060604051617595815260016020820152622625a06040820152a1604051613fcd9081610390823960805181818161063f015281816112db01528181611de60152818161371501528181613d070152613dbb015260a0518181816116f20152818161231e01526133070152f35b8461031091959295610342565b92386100ec565b6040513d86823e3d90fd5b8580fd5b631e4fbdf760e01b85526004859052602485fd5b80fd5b600080fd5b601f909101601f19168101906001600160401b0382119082101761036557604052565b634e487b7160e01b600052604160045260246000fd5b51906001600160a01b038216820361033d5756fe6080604052600436101561001b575b361561001957600080fd5b005b60003560e01c80630361cc851461036b57806309c1ba2e1461036657806313137d651461036157806315f88c921461035c57806317442b70146103575780631901abb8146103525780631a1d92521461034d5780631fe543e314610348578063212c896914610343578063248514dd1461033e57806324f746971461033957806326757b731461033457806328f038c51461032f5780633400288b1461032a5780633446e4b4146103255780633ccfd60b14610320578063403813ec1461031b57806347258206146103165780634dc8549214610311578063524b6f701461030c5780635394cd9e146103075780635535d4611461030257806357d4dcf9146102fd5780635a175710146102f85780635e280f11146102f357806361728f39146102ee5780636c9a0e66146102e9578063715018a6146102e45780637ccfd7fc146102df5780637d25a05e146102da57806382413eac146102d557806387b96a52146102d05780638da5cb5b146102cb5780638e2f1bd0146102c657806395368d2e146102c1578063a3e56fa8146102bc578063a8c33194146102b7578063aea051e9146102b2578063b0fb162f146102ad578063b28783a8146102a8578063b98bd070146102a3578063b9d1d49b1461029e578063bb0b6a5314610299578063bc70b35414610294578063bd097e211461028f578063c032846b1461028a578063c2b0b9f314610285578063c4bffe2b14610280578063ca5eb5e11461027b578063e3d400bf14610276578063e603acfc14610271578063f2fde38b1461026c5763ff7bd03d0361000e576121b6565b612129565b611fa6565b611e69565b611dbc565b611c3c565b611bc2565b611a65565b6119da565b611986565b61194b565b61192d565b611828565b6117ea565b6117c6565b611764565b611721565b6116dc565b6116b8565b611517565b6114e4565b6114c7565b611469565b611442565b61141b565b6113c2565b611384565b61130a565b6112c5565b61129f565b61125e565b611209565b6111bb565b61115a565b61113d565b611120565b611009565b610f84565b610ed1565b610e62565b610afe565b610991565b61096d565b61092d565b61082c565b6107f0565b610732565b610715565b6106f3565b6106d6565b6105db565b61056e565b61051b565b63ffffffff81160361037e57565b600080fd5b90600182811c921680156103b3575b602083101461039d57565b634e487b7160e01b600052602260045260246000fd5b91607f1691610392565b634e487b7160e01b600052604160045260246000fd5b606081019081106001600160401b038211176103ee57604052565b6103bd565b604081019081106001600160401b038211176103ee57604052565b90601f801991011681019081106001600160401b038211176103ee57604052565b906040519182600082549261044384610383565b80845293600181169081156104b1575060011461046a575b506104689250038361040e565b565b90506000929192526020600020906000915b818310610495575050906020610468928201013861045b565b602091935080600191548385890101520191019091849261047c565b90506020925061046894915060ff191682840152151560051b8201013861045b565b60005b8381106104e65750506000910152565b81810151838201526020016104d6565b9060209161050f815180928185528580860191016104d3565b601f01601f1916010190565b3461037e57602036600319011261037e5763ffffffff60043561053d81610370565b16600052600660205261056a610556604060002061042f565b6040519182916020835260208301906104f6565b0390f35b3461037e57600036600319011261037e576020600754604051908152f35b606090600319011261037e57600490565b9181601f8401121561037e578235916001600160401b03831161037e576020838186019501011161037e57565b6001600160a01b0381160361037e57565b60e036600319011261037e576105f03661058c565b6084356001600160401b03811161037e5761060f90369060040161059d565b9061061b60a4356105ca565b60c4356001600160401b03811161037e5761063a90369060040161059d565b5050337f00000000000000000000000000000000000000000000000000000000000000006001600160a01b0316036106c15782359261067884610370565b6106818461300c565b936020820135809503610699575061001993506131d5565b63ffffffff816106a98793610370565b63309afaf360e21b6000521660045260245260446000fd5b6391ac5e4f60e01b6000523360045260246000fd5b3461037e57600036600319011261037e5760206040516175e88152f35b3461037e57600036600319011261037e57604080516001815260026020820152f35b3461037e57600036600319011261037e5760206040516175968152f35b3461037e57602036600319011261037e576004356000908152600a6020908152604091829020805460018201546002830154600384015460049094015486516001600160401b038516815263ffffffff94881c949094169584019590955294820152606081019390935260ff8082161515608085015260089190911c16151560a083015260c082015260e090f35b9181601f8401121561037e578235916001600160401b03831161037e576020808501948460051b01011161037e57565b3461037e57604036600319011261037e576024356004356001600160401b03821161037e576108266100199236906004016107c0565b91612317565b3461037e57602036600319011261037e5761056a61090160043561084f81610370565b6108576125ba565b5063ffffffff8116600052600360205261087f61087a604060002060ff90541690565b6125d3565b6108a661089c8263ffffffff166000526004602052604060002090565b5463ffffffff1690565b63ffffffff81161561091e575b6108fb604051916108e6836108d8602082019061303960206040840193600181520152565b03601f19810185528461040e565b63ffffffff6108f36134ce565b9116906134ea565b916136b1565b604051918291829190916020806040830194805184520151910152565b50600e5463ffffffff166108b3565b3461037e57602036600319011261037e5763ffffffff60043561094f81610370565b166000526003602052602060ff604060002054166040519015158152f35b3461037e57600036600319011261037e57602063ffffffff60095416604051908152f35b3461037e57602036600319011261037e5760e063ffffffff6109b4600435612615565b9596946001600160401b036040959295949394519816885215156020880152151560408701521515606086015260808501521660a083015260c0820152f35b906020808351928381520192019060005b818110610a115750505090565b825163ffffffff16845260209384019390920191600101610a04565b906020808351928381520192019060005b818110610a4b5750505090565b82511515845260209384019390920191600101610a3e565b9294939190610a7a906080855260808501906109f3565b948386036020850152815180875260208701906020808260051b8a01019401916000905b828210610ad25750505050610acf94955090610ac1918482036040860152610a2d565b9160608184039101526109f3565b90565b90919294602080610af06001938d601f1990820301865289516104f6565b970192019201909291610a9e565b3461037e57600036600319011261037e57610b1761268d565b610b2a610b23826126e2565b61767c9052565b610b3d610b36826126ef565b61759a9052565b610b50610b49826126ff565b6175e89052565b610b63610b5c8261270f565b6175959052565b610b76610b6f8261271f565b61759d9052565b610b89610b828261272f565b6175969052565b610b9c610b958261273f565b61759f9052565b610ba4612763565b90610bad612804565b610bb6836126e2565b52610bc0826126e2565b50610bc9612827565b610bd2836126ef565b52610bdc826126ef565b50610be561284e565b610bee836126ff565b52610bf8826126ff565b50610c01612870565b610c0a8361270f565b52610c148261270f565b50610c1d612896565b610c268361271f565b52610c308261271f565b50610c396128bb565b610c428361272f565b52610c4c8261272f565b50610c556128dc565b610c5e8361273f565b52610c688261273f565b50805190610c796005548093612918565b90610c83826126b0565b91610c8d8161279f565b94610ca0610c9a836126b0565b926126b0565b9360005b8451811015610d805780610cdf610cca610cc06001948961274f565b5163ffffffff1690565b610cd4838661274f565b9063ffffffff169052565b610ce9818561274f565b51610cf4828b61274f565b52610cff818a61274f565b50610d44610d33610d2c610d16610cc0858b61274f565b63ffffffff166000526003602052604060002090565b5460ff1690565b610d3d838861274f565b9015159052565b610d7a610d7061089c610d5a610cc0858b61274f565b63ffffffff166000526004602052604060002090565b610cd4838a61274f565b01610ca4565b50949192905060005b828110610da4575050509061056a9160405194859485610a63565b80610e5c610db56001938551612918565b610dde610dd4610dc48561133e565b905463ffffffff9160031b1c1690565b610cd4838c61274f565b610e0b610e06610df0610dc48661133e565b63ffffffff166000526006602052604060002090565b61042f565b610e15828c61274f565b52610e20818b61274f565b50610e40610e36610d2c610d16610dc48761133e565b610d3d838a61274f565b610cd4610e5561089c610d5a610dc48761133e565b918961274f565b01610d89565b3461037e57604036600319011261037e577f238399d427b947898edb290f5ff0f9109849b1c3ba196a42e35f00c50a54b98b6040600435610ea281610370565b63ffffffff60243591610eb36138cb565b169081600052600160205280836000205582519182526020820152a1005b3461037e57602036600319011261037e57600435610eed6138cb565b670de0b6b3a76400008111610f3f57600d8054908290556040805191825260208201929092527fc2ed71504bd70e947d9a514f52be4f28827ef83859c414054d0874ab910844a191819081015b0390a1005b60405162461bcd60e51b815260206004820152601860248201527f4d696e696d756d2062616c616e636520746f6f206869676800000000000000006044820152606490fd5b3461037e57600036600319011261037e57610f9d6138cb565b478015610fcb5760008054610019928291829182916001600160a01b03165af1610fc561292a565b5061295a565b60405162461bcd60e51b81526020600482015260166024820152754e6f2062616c616e636520746f20776974686472617760501b6044820152606490fd5b3461037e57606036600319011261037e5760043561102681610370565b6024356001600160401b03811161037e5761104590369060040161059d565b90916044359161105483610370565b61105c6138cb565b63ffffffff82169384600052600360205261108c611087611083604060002060ff90541690565b1590565b61299a565b6110978215156129e6565b600554600095865b8281106110eb575b505050906110d89161001995156110dd575b6110d38463ffffffff166000526006602052604060002090565b612acc565b6138f4565b6110e684612a28565b6110b9565b8163ffffffff6110fd610dc48461133e565b161461110b5760010161109f565b506001965082915061001990506110d86110a7565b3461037e57600036600319011261037e57602060405161759f8152f35b3461037e57600036600319011261037e5760206040516175958152f35b3461037e57602036600319011261037e5763ffffffff60043561117c81610370565b6111846138cb565b16620186a0811015806111ae575b61119b90612b9a565b63ffffffff19600e541617600e55600080f35b5062989680811115611192565b3461037e57600036600319011261037e57602060405161759a8152f35b6024359061ffff8216820361037e57565b6064359061ffff8216820361037e57565b359061ffff8216820361037e57565b3461037e57604036600319011261037e5761056a610556610e0660043561122f81610370565b63ffffffff61123c6111d8565b9116600052600260205260406000209061ffff16600052602052604060002090565b3461037e57602036600319011261037e5763ffffffff60043561128081610370565b166000526004602052602063ffffffff60406000205416604051908152f35b3461037e57600036600319011261037e57602060ff60095460501c166040519015158152f35b3461037e57600036600319011261037e576040517f00000000000000000000000000000000000000000000000000000000000000006001600160a01b03168152602090f35b3461037e57600036600319011261037e576020600854604051908152f35b634e487b7160e01b600052603260045260246000fd5b9060055482101561137f576005600052600382901c7f036b6384b5eca791c62761152d0c79bb0604c104a5fb6f4eb0703f3154bb3db0019160021b601c1690565b611328565b3461037e57602036600319011261037e5760043560055481101561037e5763ffffffff6113b260209261133e565b90549060031b1c16604051908152f35b3461037e57600036600319011261037e576113db6138cb565b600080546001600160a01b0319811682556001600160a01b03167f8be0079c531659141344cd1fd0a4f28419497f9722a3daafe3b4186f6b6457e08280a3005b3461037e57600036600319011261037e57602063ffffffff60095460301c16604051908152f35b3461037e57604036600319011261037e5761145e600435610370565b602060405160008152f35b3461037e5760a036600319011261037e576114833661058c565b506064356001600160401b03811161037e576114a390369060040161059d565b505060206084356114b3816105ca565b6040516001600160a01b0390911630148152f35b3461037e57600036600319011261037e57602060405161759d8152f35b3461037e57600036600319011261037e576000546040516001600160a01b039091168152602090f35b8015150361037e57565b3461037e5760a036600319011261037e5760443560243560043561153a83610370565b6115426111e9565b6084359061154f8261150d565b6115576138cb565b8215611673577f93dcb896219f0103f48ceb69144937f0d0712ae244d21815ac5e425422a1e86d9461162a610f3a93611591871515612bda565b6115ae63ffffffff8416619c408110159081611665575b50612c19565b6115c861ffff851660038110159081611659575b50612c65565b6115d186600755565b6115da87600855565b6115f48363ffffffff1663ffffffff196009541617600955565b60098054602086901b65ffff00000000166aff00000000ffff00000000199091161791151560501b60ff60501b16919091179055565b60405194859485929363ffffffff61ffff92969560609460808701988752602087015216604085015216910152565b60c891501115386115c2565b622625a091501115386115a8565b60405162461bcd60e51b815260206004820152601760248201527f496e76616c696420737562736372697074696f6e2049440000000000000000006044820152606490fd5b3461037e57600036600319011261037e57602063ffffffff600e5416604051908152f35b3461037e57600036600319011261037e576040517f00000000000000000000000000000000000000000000000000000000000000006001600160a01b03168152602090f35b3461037e57600036600319011261037e57602060405161767c8152f35b6001600160401b0381160361037e57565b9081602091031261037e5735610acf8161173e565b3461037e57602036600319011261037e5760e063ffffffff61179060043561178b8161173e565b612cb1565b95969460409491949392935197885215156020880152151560408701521515606086015260808501521660a083015260c0820152f35b3461037e57600036600319011261037e57602061ffff600954821c16604051908152f35b3461037e57602036600319011261037e576001600160401b0360043561180f8161173e565b16600052600b6020526020604060002054604051908152f35b3461037e57602036600319011261037e576004356001600160401b03811161037e576118589036906004016107c0565b906118616138cb565b61186a82612676565b90611878604051928361040e565b828252602082019260051b81019036821161037e5780935b8285106118a05761001984613aa6565b84356001600160401b03811161037e5782019060608236031261037e57604051916118ca836103d3565b80356118d581610370565b83526118e3602082016111fa565b60208401526040810135906001600160401b03821161037e57019036601f8301121561037e5760209261191d849336908581359101612d1e565b6040820152815201940193611890565b3461037e57600036600319011261037e576020600d54604051908152f35b3461037e57602036600319011261037e5763ffffffff60043561196d81610370565b1660005260016020526020604060002054604051908152f35b3461037e57606036600319011261037e576004356119a381610370565b6119ab6111d8565b604435906001600160401b03821161037e5761056a926119d261055693369060040161059d565b929091612dba565b600036600319011261037e573415611a20576040805134815247602082015233917f3b31cbadfd3fd939750f09d3bdbd6c0531dde23f05d55dcc202798f39d09089591a2005b60405162461bcd60e51b815260206004820152601e60248201527f4d7573742073656e642045544820746f2066756e6420636f6e747261637400006044820152606490fd5b3461037e57600036600319011261037e5747600d5461056a63ffffffff600e541660009061767c82526003602052611aa26040832060ff90541690565b611bb9575b61759a6000526003602052611adb7f700ed869ddb2102ef13117c5d57be7c1f3f2466a36521d63493a9ea023c4e439610d2c565b611ba9575b6175e86000526003602052611b147fdeb4a23120fded29a6337d8b295dfc6ca1d93989dd0ba98cbf218df98b464c1a610d2c565b611b99575b6175956000526003602052611b4d7fa86cf3a3ce73ca8ef44a41967d8ac73fae17ecef26cdb73ae696d106e3ac646d610d2c565b611b89575b604051948486958210159186919360809363ffffffff9297969560a085019885526020850152151560408401521660608201520152565b90611b9390612e6c565b90611b52565b90611ba390612e6c565b90611b19565b90611bb390612e6c565b90611ae0565b60019150611aa7565b3461037e57602036600319011261037e576001600160401b03600435611be78161173e565b16600052600c602052602060ff604060002054166040519015158152f35b91611c2e90611c20610acf95936060865260608601906109f3565b908482036020860152610a2d565b9160408184039101526109f3565b3461037e57600036600319011261037e57611c5561268d565b611c61610b23826126e2565b611c6d610b36826126ef565b611c79610b49826126ff565b611c85610b5c8261270f565b611c91610b6f8261271f565b611c9d610b828261272f565b611ca9610b958261273f565b8051611cb86005548092612918565b91611cc2836126b0565b90611cd5611ccf856126b0565b946126b0565b9160005b8251811015611d315780611cf5610cca610cc06001948761274f565b611d0b610e36610d2c610d16610cc0858961274f565b611d2b611d2161089c610d5a610cc0858961274f565b610cd4838861274f565b01611cd9565b50929060005b828110611d515750505061056a9060405193849384611c05565b80611db6611d626001938551612918565b611d7b611d71610dc48561133e565b610cd4838b61274f565b611d9a611d90610d2c610d16610dc48761133e565b610d3d838c61274f565b610cd4611daf61089c610d5a610dc48761133e565b918861274f565b01611d37565b3461037e5760006020366003190112611e665780600435611ddc816105ca565b611de46138cb565b7f00000000000000000000000000000000000000000000000000000000000000006001600160a01b0316803b15611e625760405163ca5eb5e160e01b81526001600160a01b0390921660048301529091908290602490829084905af18015611e5d578290611e4f5780f35b611e589161040e565b388180f35b612e7b565b5050fd5b80fd5b3461037e57606036600319011261037e577f6a257ec2468c24e520c72c0196611555ab662517a8d2396e7202a13f25599e0d600435611ea781610370565b60243590611eb48261150d565b610f3a604435611ec381610370565b611ecb6138cb565b63ffffffff8316806000526003602052611ef58560406000209060ff801983541691151516179055565b8415611f845750611f1a63ffffffff8216620186a08110159081611f76575b50612b9a565b611f4d81611f388563ffffffff166000526004602052604060002090565b9063ffffffff1663ffffffff19825416179055565b6040519384938491604091949363ffffffff918260608601971685521515602085015216910152565b629896809150111538611f14565b6000526004602052611fa1604060002063ffffffff198154169055565b611f4d565b602036600319011261037e57610019600435611fc18161173e565b611fe9611fe4610d2c836001600160401b0316600052600c602052604060002090565b612e87565b612025612009826001600160401b0316600052600b602052604060002090565b54612015811515612ee1565b600052600a602052604060002090565b61205361204e61108360038401546120456120408260ff1690565b612f20565b60081c60ff1690565b612f64565b6121046120fa6120d3835461206f8163ffffffff9060401c1690565b9061208d61089c8363ffffffff166000526004602052604060002090565b9063ffffffff821615612109575b6108fb906001600160401b03165b6002880154604080516001600160401b039093166020840152820152916108e683606081016108d8565b936120e14786511115612fa8565b6001600160401b0316600052600c602052604060002090565b805460ff19169055565b61377a565b90506108fb6120a9612120600e5463ffffffff1690565b9291505061209b565b3461037e57602036600319011261037e57600435612146816105ca565b61214e6138cb565b6001600160a01b031680156121a057600080546001600160a01b03198116831782556001600160a01b0316907f8be0079c531659141344cd1fd0a4f28419497f9722a3daafe3b4186f6b6457e09080a3005b631e4fbdf760e01b600052600060045260246000fd5b3461037e57606036600319011261037e5760206121d23661058c565b63ffffffff81356121e281610370565b16600052600182528160406000205491013560405191148152f35b35610acf81610370565b1561220e57565b606460405162461bcd60e51b815260206004820152602060248201527f4f6e6c792056524620436f6f7264696e61746f722063616e2066756c66696c6c6044820152fd5b1561225957565b60405162461bcd60e51b8152602060048201526012602482015271125b9d985b1a59081c995c5d595cdd08125160721b6044820152606490fd5b1561229a57565b60405162461bcd60e51b8152602060048201526011602482015270105b1c9958591e48199d5b199a5b1b1959607a1b6044820152606490fd5b901561137f5790565b6040808252810183905292939291906001600160fb1b03821161037e57606063ffffffff9160209360051b8091838701378401019416910152565b9161234c337f00000000000000000000000000000000000000000000000000000000000000006001600160a01b031614612207565b61236083600052600a602052604060002090565b916123856001600160401b0361237d85546001600160401b031690565b161515612252565b6123af600384016123a261239d611083835460ff1690565b612293565b805460ff19166001179055565b6123b982826122d3565b356002840190815561243d84546108d86108fb6123dd8363ffffffff9060401c1690565b926123fb61089c8563ffffffff166000526004602052604060002090565b9063ffffffff82161561255e575b6108e6906001600160401b03165b9654604080516001600160401b038a166020820152908101919091529384906060820190565b9047825111612497575061248684612479612492937f8b9858deebdff025dbc2c181daee2661d05b08e45c441dcf16b0bdecbe9600009761377a565b5460401c63ffffffff1690565b604051938493846122dc565b0390a2565b90506124bc92506123a291506001600160401b0316600052600c602052604060002090565b547f4fdfe35ce22ceb31be6af9548351f205f08b537fad4b1a63464761c4c7f29b8c6001600160401b036124f98184169360401c63ffffffff1690565b9261255960405192839216948263ffffffff60a09216815260406020820152602760408201527f496e73756666696369656e742062616c616e636520666f72204c617965725a65606082015266726f206665657360c81b60808201520190565b0390a3565b90506108e6612417612575600e5463ffffffff1690565b92915050612409565b6040519061046860208361040e565b6040519061046860c08361040e565b6040519061046860e08361040e565b6040519061046860a08361040e565b604051906125c7826103f3565b60006020838281520152565b156125da57565b60405162461bcd60e51b815260206004820152601360248201527210da185a5b881b9bdd081cdd5c1c1bdc9d1959606a1b6044820152606490fd5b600052600a60205260406000209081546001600160401b038116928315612662576003810154916004600283015492015460019463ffffffff60ff8087169660081c16949360401c169190565b506000925082918291508190819081908190565b6001600160401b0381116103ee5760051b60200190565b604051610120919061269f838261040e565b6008815291601f1901366020840137565b906126ba82612676565b6126c7604051918261040e565b82815280926126d8601f1991612676565b0190602036910137565b80511561137f5760200190565b80516001101561137f5760400190565b80516002101561137f5760600190565b80516003101561137f5760800190565b80516004101561137f5760a00190565b80516005101561137f5760c00190565b80516006101561137f5760e00190565b805182101561137f5760209160051b010190565b6040516101209190612775838261040e565b6008815291601f19018260005b82811061278e57505050565b806060602080938501015201612782565b906127a982612676565b6127b6604051918261040e565b82815280926127c7601f1991612676565b019060005b8281106127d857505050565b8060606020809385010152016127cc565b6001600160401b0381116103ee57601f01601f191660200190565b6040519061281360408361040e565b6005825264536f6e696360d81b6020830152565b6040519061283660408361040e565b60098252684176616c616e63686560b81b6020830152565b6040519061285d60408361040e565b60048252634261736560e01b6020830152565b6040519061287f60408361040e565b6008825267457468657265756d60c01b6020830152565b604051906128a560408361040e565b60078252662837b63cb3b7b760c91b6020830152565b604051906128ca60408361040e565b600382526242534360e81b6020830152565b604051906128eb60408361040e565b60088252674f7074696d69736d60c01b6020830152565b634e487b7160e01b600052601160045260246000fd5b9190820180921161292557565b612902565b3d15612955573d9061293b826127e9565b91612949604051938461040e565b82523d6000602084013e565b606090565b1561296157565b60405162461bcd60e51b815260206004820152601160248201527015da5d1a191c985dd85b0819985a5b1959607a1b6044820152606490fd5b156129a157565b60405162461bcd60e51b815260206004820152601760248201527f436861696e20616c726561647920737570706f727465640000000000000000006044820152606490fd5b156129ed57565b60405162461bcd60e51b815260206004820152601360248201527210da185a5b881b985b59481c995c5d5a5c9959606a1b6044820152606490fd5b60055490680100000000000000008210156103ee5760018201600555600060055483101561137f5780600560209252208260031c019163ffffffff8060e085549360051b169316831b921b1916179055565b601f8211612a8757505050565b6000526020600020906020601f840160051c83019310612ac2575b601f0160051c01905b818110612ab6575050565b60008155600101612aab565b9091508190612aa2565b9092916001600160401b0381116103ee57612af181612aeb8454610383565b84612a7a565b6000601f8211600114612b32578190612b23939495600092612b27575b50508160011b916000199060031b1c19161790565b9055565b013590503880612b0e565b601f19821694612b4784600052602060002090565b91805b878110612b82575083600195969710612b68575b505050811b019055565b0135600019600384901b60f8161c19169055388080612b5e565b90926020600181928686013581550194019101612b4a565b15612ba157565b60405162461bcd60e51b8152602060048201526011602482015270125b9d985b1a590819d85cc81b1a5b5a5d607a1b6044820152606490fd5b15612be157565b60405162461bcd60e51b815260206004820152601060248201526f092dcecc2d8d2c840d6caf240d0c2e6d60831b6044820152606490fd5b15612c2057565b60405162461bcd60e51b815260206004820152601a60248201527f496e76616c69642063616c6c6261636b20676173206c696d69740000000000006044820152606490fd5b15612c6c57565b60405162461bcd60e51b815260206004820152601d60248201527f496e76616c6964207265717565737420636f6e6669726d6174696f6e730000006044820152606490fd5b6001600160401b0316600052600b602052604060002054908115612d0c5781600052600a6020526040600020600381015490600281015490600463ffffffff825460401c1691015460019460ff8086169560081c1693929190565b60009150819081908190819081908190565b929192612d2a826127e9565b91612d38604051938461040e565b82948184528183011161037e578281602093846000960137010152565b602083610468939594956040519684612d77899651809287808a0191016104d3565b8501918483013701016000815203601f19810184528361040e565b90918060409360208452816020850152848401376000828201840152601f01601f1916010190565b612dec9163ffffffff610e06929694959616600052600260205260406000209061ffff16600052602052604060002090565b805115612e5e578315612e58576002841015612e24575050612e20604051928392639a6d49cd60e01b845260048401612d92565b0390fd5b909192612e3a612e35368387612d1e565b613b68565b600081600211611e6657506002610acf939401906001190191612d55565b92509050565b509190610acf913691612d1e565b60001981146129255760010190565b6040513d6000823e3d90fd5b15612e8e57565b60405162461bcd60e51b815260206004820152602560248201527f4e6f2070656e64696e6720726573706f6e736520666f7220746869732073657160448201526475656e636560d81b6064820152608490fd5b15612ee857565b60405162461bcd60e51b815260206004820152601060248201526f496e76616c69642073657175656e636560801b6044820152606490fd5b15612f2757565b60405162461bcd60e51b8152602060048201526015602482015274159491881b9bdd08199d5b199a5b1b1959081e595d605a1b6044820152606490fd5b15612f6b57565b60405162461bcd60e51b815260206004820152601560248201527414995cdc1bdb9cd948185b1c9958591e481cd95b9d605a1b6044820152606490fd5b15612faf57565b60405162461bcd60e51b815260206004820152602f60248201527f496e73756666696369656e7420636f6e74726163742062616c616e636520666f60448201526e72204c617965725a65726f2066656560881b6064820152608490fd5b63ffffffff1680600052600160205260406000205490811561302c575090565b63f6ff4fb760e01b60005260045260246000fd5b1561304757565b60405162461bcd60e51b815260206004820152601360248201527224b73b30b634b21039b7bab931b2903832b2b960691b6044820152606490fd5b1561308957565b60405162461bcd60e51b81526020600482015260126024820152714475706c69636174652073657175656e636560701b6044820152606490fd5b9081602091031261037e575190565b60e060a0610acf9360208452805160208501526020810151604085015261ffff604082015116606085015263ffffffff606082015116608085015263ffffffff6080820151168285015201519160c08082015201906104f6565b9060c06004916001600160401b038151166001600160401b031985541617845563ffffffff60208201511663ffffffff60401b85549160401b169063ffffffff60401b191617845560408101516001850155606081015160028501556131ce600385016131b161319f6080850151151590565b829060ff801983541691151516179055565b60a08301511515815461ff00191690151560081b61ff0016179055565b0151910155565b9061322b613301916131ef61087a610d2c610d16876121fd565b6132116131fb856121fd565b63ffffffff166000526001602052604060002090565b54946132236020860135809714613040565b81019061174f565b9161325361324c846001600160401b0316600052600b602052604060002090565b5415613082565b60206009546132806132698260ff9060501c1690565b61327b61327461257e565b9115158252565b613ba0565b6132e2600854926132d5600754916132c86132a08261ffff9060201c1690565b63ffffffff8381169360301c16946132b661258d565b9889528989015261ffff166040880152565b63ffffffff166060860152565b63ffffffff166080840152565b60a082015260405180948192634d8e1c2f60e11b8352600483016130d2565b038160007f00000000000000000000000000000000000000000000000000000000000000006001600160a01b03165af1918215611e5d5760009261346d575b5061346863ffffffff613446836133d961337a7fd3510f10ff680c9036c5ce988154f0c85864d5bfef3145a87afbc76c774b85a5966121fd565b61339f61338561259c565b6001600160401b038b1681529163ffffffff166020830152565b8960408201526000606082015260006080820152600060a08201524260c08201526133d488600052600a602052604060002090565b61312c565b856133f7886001600160401b0316600052600b602052604060002090565b5585613402826121fd565b60405163ffffffff9190911681526001600160401b038916907f3250ff00efd6be9d7cd1aff3a571c4438eaca6177b003b960446054bfe3fd99490602090a36121fd565b604080516001600160401b039097168752426020880152911694918291820190565b0390a4565b7fd3510f10ff680c9036c5ce988154f0c85864d5bfef3145a87afbc76c774b85a591925063ffffffff6134466134bd6134689360203d6020116134c7575b6134b5818361040e565b8101906130c3565b9493505050613340565b503d6134ab565b604051600360f01b602082015260028152610acf60228261040e565b600361ffff6134f883613bc8565b16036135e657604051916fffffffffffffffffffffffffffffffff199060801b1660208301526010825261352d60308361040e565b600361ffff61353b83613bc8565b16036135e657815161ffff81116135cd5761ffff60019116019161ffff831161292557610acf916020600492604051958361357f88955180928680890191016104d3565b600160f81b90850184810182905260f09290921b6001600160f01b031916602183015260238201528151916135bc908390602484019086016104d3565b01010301601f19810183528261040e565b6306dfcc6560e41b600052601060045260245260446000fd5b6135f261ffff91613bc8565b633a51740d60e01b6000521660045260246000fd5b919082604091031261037e5760405161361f816103f3565b6020808294805184520151910152565b9060408282031261037e57610acf91613607565b906020909392936040835263ffffffff81511660408401528181015160608401526080613697613681604084015160a08488015260e08701906104f6565b6060840151868203603f190160a08801526104f6565b910151151560c08401526001600160a01b03909416910152565b613711926040926136c06125ba565b506136ca8361300c565b6136e16136d56125ab565b63ffffffff9095168552565b602084015283830152606082015260006080820152815180938192631bb8518b60e31b8352309060048401613643565b03817f00000000000000000000000000000000000000000000000000000000000000006001600160a01b03165afa908115611e5d57600091613751575090565b610acf915060403d604011613773575b61376b818361040e565b81019061362f565b503d613761565b6001600160401b037f2ca2c51f832d9f7f0adffb85be66ed33d38379367a2f942c846a17ff8691c4e5918054906137be61089c610d5a8463ffffffff9060401c1690565b9063ffffffff8216156138a8575b6138616137e361249293946001600160401b031690565b600283018054604080516001600160401b03949094166020850152838101919091528252948890613819906108e660608561040e565b60038501805461ff001916610100179055845460401c63ffffffff1660005490939061385b9061384f906001600160a01b031681565b6001600160a01b031690565b93613c7e565b5054946138806001600160401b03871693549660401c63ffffffff1690565b90519060405194859416968463ffffffff604092959493606083019683521660208201520152565b61249291506138616137e36138c2600e5463ffffffff1690565b935050506137cc565b6000546001600160a01b031633036138df57565b63118cdaa760e01b6000523360045260246000fd5b6001906139577f6a257ec2468c24e520c72c0196611555ab662517a8d2396e7202a13f25599e0d9363ffffffff8316600052600360205260406000208460ff19825416179055611f1a63ffffffff8216620186a08110159081611f765750612b9a565b0390a1565b91909182516001600160401b0381116103ee5761397d81612aeb8454610383565b6020601f82116001146139b9578190612b239394956000926139ae5750508160011b916000199060031b1c19161790565b015190503880612b0e565b601f198216906139ce84600052602060002090565b9160005b818110613a09575095836001959697106139f057505050811b019055565b015160001960f88460031b161c19169055388080612b5e565b9192602060018192868b0151815501940192016139d2565b602081016020825282518091526040820191602060408360051b8301019401926000915b838310613a5457505050505090565b9091929394602080613a97600193603f19868203018752606060408b5163ffffffff815116845261ffff86820151168685015201519181604082015201906104f6565b97019301930191939290613a45565b60005b8151811015613b365780613acc6040613ac46001948661274f565b510151613b68565b613b306040613adb838661274f565b51015163ffffffff613aed848761274f565b5151166000526002602052613b2b6040600020613b196020613b0f878a61274f565b51015161ffff1690565b61ffff16600052602052604060002090565b61395c565b01613aa9565b506139577fbe4864a8e820971c0247f5992e2da559595f7bf076a21cb5928d443d2a13b6749160405191829182613a21565b600361ffff60028301511603613b7b5750565b604051639a6d49cd60e01b815260206004820152908190612e209060248301906104f6565b6040519063125fa26760e31b6020830152511515602482015260248152610acf60448261040e565b6002815110613bd8576002015190565b60405162461bcd60e51b8152602060048201526014602482015273746f55696e7431365f6f75744f66426f756e647360601b6044820152606490fd5b60405190613c21826103d3565b8160008152600060208201526040613c376125ba565b910152565b9060808282031261037e57613c76906040805193613c59856103d3565b805185526020810151613c6b8161173e565b602086015201613607565b604082015290565b613ce760809492613d039694613c92613c14565b506020613c9f8651613d7b565b950191825180613d6c575b50613cb48561300c565b9251151592613cd0613cc46125ab565b63ffffffff9097168752565b602086015260408501526060840152151585830152565b6040518095819482936302637a4560e41b845260048401613643565b03917f00000000000000000000000000000000000000000000000000000000000000006001600160a01b03165af1908115611e5d57600091613d43575090565b610acf915060803d608011613d65575b613d5d818361040e565b810190613c3c565b503d613d53565b613d7590613dac565b38613caa565b3415613da057803403613d8b5790565b6304fb820960e51b6000523460045260246000fd5b610acf81471015612fa8565b60405163393f876560e21b81527f00000000000000000000000000000000000000000000000000000000000000006001600160a01b03169190602081600481865afa908115611e5d57600091613e2a575b506001600160a01b0316918215613e1957610468923390613e65565b6329b99a9560e11b60005260046000fd5b90506020813d602011613e5d575b81613e456020938361040e565b8101031261037e5751613e57816105ca565b38613dfd565b3d9150613e38565b6040516323b872dd60e01b602082019081526001600160a01b03938416602483015293909216604483015260648083019490945292815291613ed091600091829190613eb260848761040e565b60018060a01b031694519082865af1613ec961292a565b9083613f36565b8051908115159182613f03575b5050613ee65750565b635274afe760e01b6000526001600160a01b031660045260246000fd5b613f1a925090602080611083938301019101613f21565b3880613edd565b9081602091031261037e5751610acf8161150d565b90613f5c5750805115613f4b57805190602001fd5b630a12f52160e11b60005260046000fd5b81511580613f8e575b613f6d575090565b639996b31560e01b60009081526001600160a01b0391909116600452602490fd5b50803b15613f6556fea2646970667358221220e735249e82b575b7931889eeeb746f57e6f09cdecab6854992b9787566508f9264736f6c634300081c00336a257ec2468c24e520c72c0196611555ab662517a8d2396e7202a13f25599e0d",
  "devdoc": {
    "errors": {
      "AddressEmptyCode(address)": [
        {
          "details": "There's no code at `target` (it is not a contract)."
        }
      ],
      "AddressInsufficientBalance(address)": [
        {
          "details": "The ETH balance of the account is not enough to perform the operation."
        }
      ],
      "FailedInnerCall()": [
        {
          "details": "A call to an address target failed. The target may have reverted."
        }
      ],
      "OwnableInvalidOwner(address)": [
        {
          "details": "The owner is not a valid owner account. (eg. `address(0)`)"
        }
      ],
      "OwnableUnauthorizedAccount(address)": [
        {
          "details": "The caller account is not authorized to perform an operation."
        }
      ],
      "SafeCastOverflowedUintDowncast(uint8,uint256)": [
        {
          "details": "Value doesn't fit in an uint of `bits` size."
        }
      ],
      "SafeERC20FailedOperation(address)": [
        {
          "details": "An operation with an ERC20 token failed."
        }
      ]
    },
    "kind": "dev",
    "methods": {
      "addNewChain(uint32,string,uint32)": {
        "params": {
          "chainEid": "The LayerZero endpoint ID of the chain",
          "chainName": "Human-readable name for the chain",
          "gasLimit": "Gas limit for responses to this chain"
        }
      },
      "allowInitializePath((uint32,bytes32,uint64))": {
        "details": "This indicates to the endpoint that the OApp has enabled msgs for this particular path to be received.This defaults to assuming if a peer has been set, its initialized. Can be overridden by the OApp if there is other logic to determine this.",
        "params": {
          "origin": "The origin information containing the source endpoint and sender address."
        },
        "returns": {
          "_0": "Whether the path has been initialized."
        }
      },
      "combineOptions(uint32,uint16,bytes)": {
        "details": "If there is an enforced lzReceive option: - {gasLimit: 200k, msg.value: 1 ether} AND a caller supplies a lzReceive option: {gasLimit: 100k, msg.value: 0.5 ether} - The resulting options will be {gasLimit: 300k, msg.value: 1.5 ether} when the message is executed on the remote lzReceive() function.This presence of duplicated options is handled off-chain in the verifier/executor.",
        "params": {
          "_eid": "The endpoint ID.",
          "_extraOptions": "Additional options passed by the caller.",
          "_msgType": "The OAPP message type."
        },
        "returns": {
          "_0": "options The combination of caller specified options AND enforced options."
        }
      },
      "fundContract()": {
        "details": "Fund contract with ETH for LayerZero fees"
      },
      "getContractStatus()": {
        "details": "Check contract status"
      },
      "getRequestById(uint256)": {
        "details": "Get request details by VRF request ID"
      },
      "getRequestBySequence(uint64)": {
        "details": "Get request details by sequence"
      },
      "isComposeMsgSender((uint32,bytes32,uint64),bytes,address)": {
        "details": "_origin The origin information containing the source endpoint and sender address.  - srcEid: The source chain endpoint ID.  - sender: The sender address on the src chain.  - nonce: The nonce of the message._message The lzReceive payload.Applications can optionally choose to implement separate composeMsg senders that are NOT the bridging layer.The default sender IS the OAppReceiver implementer.",
        "params": {
          "_sender": "The sender address."
        },
        "returns": {
          "_0": "isSender Is a valid sender."
        }
      },
      "lzReceive((uint32,bytes32,uint64),bytes32,bytes,address,bytes)": {
        "details": "Entry point for receiving messages or packets from the endpoint.Entry point for receiving msg/packet from the LayerZero endpoint.",
        "params": {
          "_executor": "The address of the executor for the received message.",
          "_extraData": "Additional arbitrary data provided by the corresponding executor.",
          "_guid": "The unique identifier for the received LayerZero message.",
          "_message": "The payload of the received message.",
          "_origin": "The origin information containing the source endpoint and sender address.  - srcEid: The source chain endpoint ID.  - sender: The sender address on the src chain.  - nonce: The nonce of the message."
        }
      },
      "nextNonce(uint32,bytes32)": {
        "details": "_srcEid The source endpoint ID._sender The sender address.The path nonce starts from 1. If 0 is returned it means that there is NO nonce ordered enforcement.Is required by the off-chain executor to determine the OApp expects msg execution is ordered.This is also enforced by the OApp.By default this is NOT enabled. ie. nextNonce is hardcoded to return 0.",
        "returns": {
          "nonce": "The next nonce."
        }
      },
      "oAppVersion()": {
        "returns": {
          "receiverVersion": "The version of the OAppReceiver.sol implementation.",
          "senderVersion": "The version of the OAppSender.sol implementation."
        }
      },
      "owner()": {
        "details": "Returns the address of the current owner."
      },
      "quoteSendToChain(uint32)": {
        "params": {
          "targetChainEid": "The chain to send the response to"
        }
      },
      "rawFulfillRandomWords(uint256,uint256[])": {
        "details": "This function is called by the VRF Coordinator when randomness is ready",
        "params": {
          "randomWords": "Array of random words",
          "requestId": "The request ID"
        }
      },
      "renounceOwnership()": {
        "details": "Leaves the contract without owner. It will not be possible to call `onlyOwner` functions. Can only be called by the current owner. NOTE: Renouncing ownership will leave the contract without an owner, thereby disabling any functionality that is only available to the owner."
      },
      "retryPendingResponse(uint64)": {
        "details": "Call this after funding the contract to retry failed responses.",
        "params": {
          "sequence": "The sequence number to retry"
        }
      },
      "setDefaultGasLimit(uint32)": {
        "details": "Set default gas limit (owner only)"
      },
      "setDelegate(address)": {
        "details": "Only the owner/admin of the OApp can call this function.Provides the ability for a delegate to set configs, on behalf of the OApp, directly on the Endpoint contract.",
        "params": {
          "_delegate": "The address of the delegate to be set."
        }
      },
      "setEnforcedOptions((uint32,uint16,bytes)[])": {
        "details": "Sets the enforced options for specific endpoint and message type combinations.Only the owner/admin of the OApp can call this function.Provides a way for the OApp to enforce things like paying for PreCrime, AND/OR minimum dst lzReceive gas amounts etc.These enforced options can vary as the potential options/execution on the remote may differ as per the msgType. eg. Amount of lzReceive() gas necessary to deliver a lzCompose() message adds overhead you dont want to pay if you are only making a standard LayerZero message ie. lzReceive() WITHOUT sendCompose().",
        "params": {
          "_enforcedOptions": "An array of EnforcedOptionParam structures specifying enforced options."
        }
      },
      "setMinimumBalance(uint256)": {
        "details": "Set minimum balance for responses (owner only)"
      },
      "setPeer(uint32,bytes32)": {
        "details": "Set peer for a specific endpoint ID (owner only)",
        "params": {
          "_eid": "The endpoint ID to set the peer for",
          "_peer": "The peer address (as bytes32)"
        }
      },
      "setSupportedChain(uint32,bool,uint32)": {
        "params": {
          "chainEid": "The LayerZero endpoint ID of the chain",
          "gasLimit": "Gas limit for responses to this chain",
          "supported": "Whether the chain should be supported"
        }
      },
      "setVRFConfig(uint256,bytes32,uint32,uint16,bool)": {
        "details": "Set VRF 2.5 configuration (owner only)"
      },
      "transferOwnership(address)": {
        "details": "Transfers ownership of the contract to a new account (`newOwner`). Can only be called by the current owner."
      },
      "withdraw()": {
        "details": "Withdraw ETH (owner only)"
      }
    },
    "stateVariables": {
      "minimumBalance": {
        "details": "Minimum ETH balance threshold for monitoring purposes only."
      }
    },
    "version": 1
  },
  "userdoc": {
    "kind": "user",
    "methods": {
      "addNewChain(uint32,string,uint32)": {
        "notice": "Add a new chain with name (for better UX)"
      },
      "allowInitializePath((uint32,bytes32,uint64))": {
        "notice": "Checks if the path initialization is allowed based on the provided origin."
      },
      "combineOptions(uint32,uint16,bytes)": {
        "notice": "Combines options for a given endpoint and message type."
      },
      "endpoint()": {
        "notice": "Retrieves the LayerZero endpoint associated with the OApp."
      },
      "getAllChainsWithNames()": {
        "notice": "Get all registered chains with names"
      },
      "getSupportedChains()": {
        "notice": "Get supported chains info (EXPANDABLE VERSION)"
      },
      "isComposeMsgSender((uint32,bytes32,uint64),bytes,address)": {
        "notice": "Indicates whether an address is an approved composeMsg sender to the Endpoint."
      },
      "nextNonce(uint32,bytes32)": {
        "notice": "Retrieves the next nonce for a given source endpoint and sender address."
      },
      "oAppVersion()": {
        "notice": "Retrieves the OApp version information."
      },
      "peers(uint32)": {
        "notice": "Retrieves the peer (OApp) associated with a corresponding endpoint."
      },
      "quoteSendToChain(uint32)": {
        "notice": "Quote LayerZero fee for sending response to any supported chain"
      },
      "rawFulfillRandomWords(uint256,uint256[])": {
        "notice": "Callback function used by VRF Coordinator"
      },
      "retryPendingResponse(uint64)": {
        "notice": "Manual retry for pending responses"
      },
      "setDelegate(address)": {
        "notice": "Sets the delegate address for the OApp."
      },
      "setSupportedChain(uint32,bool,uint32)": {
        "notice": "Add or remove support for a chain"
      }
    },
    "version": 1
  },
  "storageLayout": {
    "storage": [
      {
        "astId": 42109,
        "contract": "contracts/core/external/chainlink/OmniDragonVRFConsumerV2_5.sol:OmniDragonVRFConsumerV2_5",
        "label": "_owner",
        "offset": 0,
        "slot": "0",
        "type": "t_address"
      },
      {
        "astId": 39575,
        "contract": "contracts/core/external/chainlink/OmniDragonVRFConsumerV2_5.sol:OmniDragonVRFConsumerV2_5",
        "label": "peers",
        "offset": 0,
        "slot": "1",
        "type": "t_mapping(t_uint32,t_bytes32)"
      },
      {
        "astId": 40171,
        "contract": "contracts/core/external/chainlink/OmniDragonVRFConsumerV2_5.sol:OmniDragonVRFConsumerV2_5",
        "label": "enforcedOptions",
        "offset": 0,
        "slot": "2",
        "type": "t_mapping(t_uint32,t_mapping(t_uint16,t_bytes_storage))"
      },
      {
        "astId": 1694,
        "contract": "contracts/core/external/chainlink/OmniDragonVRFConsumerV2_5.sol:OmniDragonVRFConsumerV2_5",
        "label": "supportedChains",
        "offset": 0,
        "slot": "3",
        "type": "t_mapping(t_uint32,t_bool)"
      },
      {
        "astId": 1698,
        "contract": "contracts/core/external/chainlink/OmniDragonVRFConsumerV2_5.sol:OmniDragonVRFConsumerV2_5",
        "label": "chainGasLimits",
        "offset": 0,
        "slot": "4",
        "type": "t_mapping(t_uint32,t_uint32)"
      },
      {
        "astId": 1701,
        "contract": "contracts/core/external/chainlink/OmniDragonVRFConsumerV2_5.sol:OmniDragonVRFConsumerV2_5",
        "label": "registeredChainEids",
        "offset": 0,
        "slot": "5",
        "type": "t_array(t_uint32)dyn_storage"
      },
      {
        "astId": 1705,
        "contract": "contracts/core/external/chainlink/OmniDragonVRFConsumerV2_5.sol:OmniDragonVRFConsumerV2_5",
        "label": "chainNames",
        "offset": 0,
        "slot": "6",
        "type": "t_mapping(t_uint32,t_string_storage)"
      },
      {
        "astId": 1707,
        "contract": "contracts/core/external/chainlink/OmniDragonVRFConsumerV2_5.sol:OmniDragonVRFConsumerV2_5",
        "label": "subscriptionId",
        "offset": 0,
        "slot": "7",
        "type": "t_uint256"
      },
      {
        "astId": 1709,
        "contract": "contracts/core/external/chainlink/OmniDragonVRFConsumerV2_5.sol:OmniDragonVRFConsumerV2_5",
        "label": "keyHash",
        "offset": 0,
        "slot": "8",
        "type": "t_bytes32"
      },
      {
        "astId": 1712,
        "contract": "contracts/core/external/chainlink/OmniDragonVRFConsumerV2_5.sol:OmniDragonVRFConsumerV2_5",
        "label": "callbackGasLimit",
        "offset": 0,
        "slot": "9",
        "type": "t_uint32"
      },
      {
        "astId": 1715,
        "contract": "contracts/core/external/chainlink/OmniDragonVRFConsumerV2_5.sol:OmniDragonVRFConsumerV2_5",
        "label": "requestConfirmations",
        "offset": 4,
        "slot": "9",
        "type": "t_uint16"
      },
      {
        "astId": 1718,
        "contract": "contracts/core/external/chainlink/OmniDragonVRFConsumerV2_5.sol:OmniDragonVRFConsumerV2_5",
        "label": "numWords",
        "offset": 6,
        "slot": "9",
        "type": "t_uint32"
      },
      {
        "astId": 1721,
        "contract": "contracts/core/external/chainlink/OmniDragonVRFConsumerV2_5.sol:OmniDragonVRFConsumerV2_5",
        "label": "nativePayment",
        "offset": 10,
        "slot": "9",
        "type": "t_bool"
      },
      {
        "astId": 1741,
        "contract": "contracts/core/external/chainlink/OmniDragonVRFConsumerV2_5.sol:OmniDragonVRFConsumerV2_5",
        "label": "vrfRequests",
        "offset": 0,
        "slot": "10",
        "type": "t_mapping(t_uint256,t_struct(VRFRequest)1736_storage)"
      },
      {
        "astId": 1745,
        "contract": "contracts/core/external/chainlink/OmniDragonVRFConsumerV2_5.sol:OmniDragonVRFConsumerV2_5",
        "label": "sequenceToRequestId",
        "offset": 0,
        "slot": "11",
        "type": "t_mapping(t_uint64,t_uint256)"
      },
      {
        "astId": 1749,
        "contract": "contracts/core/external/chainlink/OmniDragonVRFConsumerV2_5.sol:OmniDragonVRFConsumerV2_5",
        "label": "pendingResponses",
        "offset": 0,
        "slot": "12",
        "type": "t_mapping(t_uint64,t_bool)"
      },
      {
        "astId": 1753,
        "contract": "contracts/core/external/chainlink/OmniDragonVRFConsumerV2_5.sol:OmniDragonVRFConsumerV2_5",
        "label": "minimumBalance",
        "offset": 0,
        "slot": "13",
        "type": "t_uint256"
      },
      {
        "astId": 1756,
        "contract": "contracts/core/external/chainlink/OmniDragonVRFConsumerV2_5.sol:OmniDragonVRFConsumerV2_5",
        "label": "defaultGasLimit",
        "offset": 0,
        "slot": "14",
        "type": "t_uint32"
      }
    ],
    "types": {
      "t_address": {
        "encoding": "inplace",
        "label": "address",
        "numberOfBytes": "20"
      },
      "t_array(t_uint32)dyn_storage": {
        "base": "t_uint32",
        "encoding": "dynamic_array",
        "label": "uint32[]",
        "numberOfBytes": "32"
      },
      "t_bool": {
        "encoding": "inplace",
        "label": "bool",
        "numberOfBytes": "1"
      },
      "t_bytes32": {
        "encoding": "inplace",
        "label": "bytes32",
        "numberOfBytes": "32"
      },
      "t_bytes_storage": {
        "encoding": "bytes",
        "label": "bytes",
        "numberOfBytes": "32"
      },
      "t_mapping(t_uint16,t_bytes_storage)": {
        "encoding": "mapping",
        "key": "t_uint16",
        "label": "mapping(uint16 => bytes)",
        "numberOfBytes": "32",
        "value": "t_bytes_storage"
      },
      "t_mapping(t_uint256,t_struct(VRFRequest)1736_storage)": {
        "encoding": "mapping",
        "key": "t_uint256",
        "label": "mapping(uint256 => struct OmniDragonVRFConsumerV2_5.VRFRequest)",
        "numberOfBytes": "32",
        "value": "t_struct(VRFRequest)1736_storage"
      },
      "t_mapping(t_uint32,t_bool)": {
        "encoding": "mapping",
        "key": "t_uint32",
        "label": "mapping(uint32 => bool)",
        "numberOfBytes": "32",
        "value": "t_bool"
      },
      "t_mapping(t_uint32,t_bytes32)": {
        "encoding": "mapping",
        "key": "t_uint32",
        "label": "mapping(uint32 => bytes32)",
        "numberOfBytes": "32",
        "value": "t_bytes32"
      },
      "t_mapping(t_uint32,t_mapping(t_uint16,t_bytes_storage))": {
        "encoding": "mapping",
        "key": "t_uint32",
        "label": "mapping(uint32 => mapping(uint16 => bytes))",
        "numberOfBytes": "32",
        "value": "t_mapping(t_uint16,t_bytes_storage)"
      },
      "t_mapping(t_uint32,t_string_storage)": {
        "encoding": "mapping",
        "key": "t_uint32",
        "label": "mapping(uint32 => string)",
        "numberOfBytes": "32",
        "value": "t_string_storage"
      },
      "t_mapping(t_uint32,t_uint32)": {
        "encoding": "mapping",
        "key": "t_uint32",
        "label": "mapping(uint32 => uint32)",
        "numberOfBytes": "32",
        "value": "t_uint32"
      },
      "t_mapping(t_uint64,t_bool)": {
        "encoding": "mapping",
        "key": "t_uint64",
        "label": "mapping(uint64 => bool)",
        "numberOfBytes": "32",
        "value": "t_bool"
      },
      "t_mapping(t_uint64,t_uint256)": {
        "encoding": "mapping",
        "key": "t_uint64",
        "label": "mapping(uint64 => uint256)",
        "numberOfBytes": "32",
        "value": "t_uint256"
      },
      "t_string_storage": {
        "encoding": "bytes",
        "label": "string",
        "numberOfBytes": "32"
      },
      "t_struct(VRFRequest)1736_storage": {
        "encoding": "inplace",
        "label": "struct OmniDragonVRFConsumerV2_5.VRFRequest",
        "members": [
          {
            "astId": 1723,
            "contract": "contracts/core/external/chainlink/OmniDragonVRFConsumerV2_5.sol:OmniDragonVRFConsumerV2_5",
            "label": "sequence",
            "offset": 0,
            "slot": "0",
            "type": "t_uint64"
          },
          {
            "astId": 1725,
            "contract": "contracts/core/external/chainlink/OmniDragonVRFConsumerV2_5.sol:OmniDragonVRFConsumerV2_5",
            "label": "sourceChainEid",
            "offset": 8,
            "slot": "0",
            "type": "t_uint32"
          },
          {
            "astId": 1727,
            "contract": "contracts/core/external/chainlink/OmniDragonVRFConsumerV2_5.sol:OmniDragonVRFConsumerV2_5",
            "label": "sourcePeer",
            "offset": 0,
            "slot": "1",
            "type": "t_bytes32"
          },
          {
            "astId": 1729,
            "contract": "contracts/core/external/chainlink/OmniDragonVRFConsumerV2_5.sol:OmniDragonVRFConsumerV2_5",
            "label": "randomWord",
            "offset": 0,
            "slot": "2",
            "type": "t_uint256"
          },
          {
            "astId": 1731,
            "contract": "contracts/core/external/chainlink/OmniDragonVRFConsumerV2_5.sol:OmniDragonVRFConsumerV2_5",
            "label": "fulfilled",
            "offset": 0,
            "slot": "3",
            "type": "t_bool"
          },
          {
            "astId": 1733,
            "contract": "contracts/core/external/chainlink/OmniDragonVRFConsumerV2_5.sol:OmniDragonVRFConsumerV2_5",
            "label": "responseSent",
            "offset": 1,
            "slot": "3",
            "type": "t_bool"
          },
          {
            "astId": 1735,
            "contract": "contracts/core/external/chainlink/OmniDragonVRFConsumerV2_5.sol:OmniDragonVRFConsumerV2_5",
            "label": "timestamp",
            "offset": 0,
            "slot": "4",
            "type": "t_uint256"
          }
        ],
        "numberOfBytes": "160"
      },
      "t_uint16": {
        "encoding": "inplace",
        "label": "uint16",
        "numberOfBytes": "2"
      },
      "t_uint256": {
        "encoding": "inplace",
        "label": "uint256",
        "numberOfBytes": "32"
      },
      "t_uint32": {
        "encoding": "inplace",
        "label": "uint32",
        "numberOfBytes": "4"
      },
      "t_uint64": {
        "encoding": "inplace",
        "label": "uint64",
        "numberOfBytes": "8"
      }
    }
  }
}