{
  "address": "0xd703FFB355fcE93AFD73387A2BE11d8819CAF791",
  "abi": [
    {
      "inputs": [
        {
          "internalType": "address",
          "name": "_endpoint",
          "type": "address"
        },
        {
          "internalType": "address",
          "name": "_owner",
          "type": "address"
        },
        {
          "internalType": "address",
          "name": "_vrfCoordinator",
          "type": "address"
        },
        {
          "internalType": "uint256",
          "name": "_subscriptionId",
          "type": "uint256"
        },
        {
          "internalType": "bytes32",
          "name": "_keyHash",
          "type": "bytes32"
        }
      ],
      "stateMutability": "nonpayable",
      "type": "constructor"
    },
    {
      "inputs": [],
      "name": "InvalidDelegate",
      "type": "error"
    },
    {
      "inputs": [],
      "name": "InvalidEndpointCall",
      "type": "error"
    },
    {
      "inputs": [
        {
          "internalType": "uint16",
          "name": "optionType",
          "type": "uint16"
        }
      ],
      "name": "InvalidOptionType",
      "type": "error"
    },
    {
      "inputs": [
        {
          "internalType": "bytes",
          "name": "options",
          "type": "bytes"
        }
      ],
      "name": "InvalidOptions",
      "type": "error"
    },
    {
      "inputs": [],
      "name": "LzTokenUnavailable",
      "type": "error"
    },
    {
      "inputs": [
        {
          "internalType": "uint32",
          "name": "eid",
          "type": "uint32"
        }
      ],
      "name": "NoPeer",
      "type": "error"
    },
    {
      "inputs": [
        {
          "internalType": "uint256",
          "name": "msgValue",
          "type": "uint256"
        }
      ],
      "name": "NotEnoughNative",
      "type": "error"
    },
    {
      "inputs": [
        {
          "internalType": "address",
          "name": "addr",
          "type": "address"
        }
      ],
      "name": "OnlyEndpoint",
      "type": "error"
    },
    {
      "inputs": [
        {
          "internalType": "uint32",
          "name": "eid",
          "type": "uint32"
        },
        {
          "internalType": "bytes32",
          "name": "sender",
          "type": "bytes32"
        }
      ],
      "name": "OnlyPeer",
      "type": "error"
    },
    {
      "inputs": [
        {
          "internalType": "address",
          "name": "owner",
          "type": "address"
        }
      ],
      "name": "OwnableInvalidOwner",
      "type": "error"
    },
    {
      "inputs": [
        {
          "internalType": "address",
          "name": "account",
          "type": "address"
        }
      ],
      "name": "OwnableUnauthorizedAccount",
      "type": "error"
    },
    {
      "inputs": [
        {
          "internalType": "uint8",
          "name": "bits",
          "type": "uint8"
        },
        {
          "internalType": "uint256",
          "name": "value",
          "type": "uint256"
        }
      ],
      "name": "SafeCastOverflowedUintDowncast",
      "type": "error"
    },
    {
      "inputs": [
        {
          "internalType": "address",
          "name": "token",
          "type": "address"
        }
      ],
      "name": "SafeERC20FailedOperation",
      "type": "error"
    },
    {
      "anonymous": false,
      "inputs": [
        {
          "components": [
            {
              "internalType": "uint32",
              "name": "eid",
              "type": "uint32"
            },
            {
              "internalType": "uint16",
              "name": "msgType",
              "type": "uint16"
            },
            {
              "internalType": "bytes",
              "name": "options",
              "type": "bytes"
            }
          ],
          "indexed": false,
          "internalType": "struct EnforcedOptionParam[]",
          "name": "_enforcedOptions",
          "type": "tuple[]"
        }
      ],
      "name": "EnforcedOptionSet",
      "type": "event"
    },
    {
      "anonymous": false,
      "inputs": [
        {
          "indexed": false,
          "internalType": "uint256",
          "name": "oldBalance",
          "type": "uint256"
        },
        {
          "indexed": false,
          "internalType": "uint256",
          "name": "newBalance",
          "type": "uint256"
        }
      ],
      "name": "MinimumBalanceUpdated",
      "type": "event"
    },
    {
      "anonymous": false,
      "inputs": [
        {
          "indexed": true,
          "internalType": "address",
          "name": "previousOwner",
          "type": "address"
        },
        {
          "indexed": true,
          "internalType": "address",
          "name": "newOwner",
          "type": "address"
        }
      ],
      "name": "OwnershipTransferred",
      "type": "event"
    },
    {
      "anonymous": false,
      "inputs": [
        {
          "indexed": false,
          "internalType": "uint32",
          "name": "eid",
          "type": "uint32"
        },
        {
          "indexed": false,
          "internalType": "bytes32",
          "name": "peer",
          "type": "bytes32"
        }
      ],
      "name": "PeerSet",
      "type": "event"
    },
    {
      "anonymous": false,
      "inputs": [
        {
          "indexed": true,
          "internalType": "uint256",
          "name": "requestId",
          "type": "uint256"
        },
        {
          "indexed": true,
          "internalType": "uint32",
          "name": "srcEid",
          "type": "uint32"
        },
        {
          "indexed": true,
          "internalType": "bytes32",
          "name": "requester",
          "type": "bytes32"
        },
        {
          "indexed": false,
          "internalType": "uint256",
          "name": "timestamp",
          "type": "uint256"
        }
      ],
      "name": "RandomWordsRequested",
      "type": "event"
    },
    {
      "anonymous": false,
      "inputs": [
        {
          "indexed": true,
          "internalType": "uint256",
          "name": "requestId",
          "type": "uint256"
        },
        {
          "indexed": false,
          "internalType": "uint256[]",
          "name": "randomWords",
          "type": "uint256[]"
        }
      ],
      "name": "RandomnessFulfilled",
      "type": "event"
    },
    {
      "anonymous": false,
      "inputs": [
        {
          "indexed": true,
          "internalType": "uint64",
          "name": "sequence",
          "type": "uint64"
        },
        {
          "indexed": true,
          "internalType": "uint256",
          "name": "requestId",
          "type": "uint256"
        },
        {
          "indexed": false,
          "internalType": "string",
          "name": "reason",
          "type": "string"
        }
      ],
      "name": "ResponsePending",
      "type": "event"
    },
    {
      "anonymous": false,
      "inputs": [
        {
          "indexed": true,
          "internalType": "uint64",
          "name": "sequence",
          "type": "uint64"
        },
        {
          "indexed": false,
          "internalType": "uint256",
          "name": "randomWord",
          "type": "uint256"
        },
        {
          "indexed": false,
          "internalType": "uint256",
          "name": "fee",
          "type": "uint256"
        }
      ],
      "name": "ResponseSentToSonic",
      "type": "event"
    },
    {
      "anonymous": false,
      "inputs": [
        {
          "indexed": false,
          "internalType": "uint32",
          "name": "oldLimit",
          "type": "uint32"
        },
        {
          "indexed": false,
          "internalType": "uint32",
          "name": "newLimit",
          "type": "uint32"
        }
      ],
      "name": "SonicGasLimitUpdated",
      "type": "event"
    },
    {
      "anonymous": false,
      "inputs": [
        {
          "indexed": false,
          "internalType": "uint256",
          "name": "subscriptionId",
          "type": "uint256"
        },
        {
          "indexed": false,
          "internalType": "bytes32",
          "name": "keyHash",
          "type": "bytes32"
        },
        {
          "indexed": false,
          "internalType": "uint32",
          "name": "callbackGasLimit",
          "type": "uint32"
        },
        {
          "indexed": false,
          "internalType": "uint16",
          "name": "requestConfirmations",
          "type": "uint16"
        }
      ],
      "name": "VRFConfigUpdated",
      "type": "event"
    },
    {
      "anonymous": false,
      "inputs": [
        {
          "indexed": true,
          "internalType": "uint256",
          "name": "originalRequestId",
          "type": "uint256"
        },
        {
          "indexed": true,
          "internalType": "uint256",
          "name": "vrfRequestId",
          "type": "uint256"
        }
      ],
      "name": "VRFRequestSent",
      "type": "event"
    },
    {
      "inputs": [],
      "name": "SONIC_EID",
      "outputs": [
        {
          "internalType": "uint32",
          "name": "",
          "type": "uint32"
        }
      ],
      "stateMutability": "view",
      "type": "function"
    },
    {
      "inputs": [
        {
          "components": [
            {
              "internalType": "uint32",
              "name": "srcEid",
              "type": "uint32"
            },
            {
              "internalType": "bytes32",
              "name": "sender",
              "type": "bytes32"
            },
            {
              "internalType": "uint64",
              "name": "nonce",
              "type": "uint64"
            }
          ],
          "internalType": "struct Origin",
          "name": "origin",
          "type": "tuple"
        }
      ],
      "name": "allowInitializePath",
      "outputs": [
        {
          "internalType": "bool",
          "name": "",
          "type": "bool"
        }
      ],
      "stateMutability": "view",
      "type": "function"
    },
    {
      "inputs": [],
      "name": "callbackGasLimit",
      "outputs": [
        {
          "internalType": "uint32",
          "name": "",
          "type": "uint32"
        }
      ],
      "stateMutability": "view",
      "type": "function"
    },
    {
      "inputs": [
        {
          "components": [
            {
              "internalType": "uint32",
              "name": "srcEid",
              "type": "uint32"
            },
            {
              "internalType": "bytes32",
              "name": "sender",
              "type": "bytes32"
            },
            {
              "internalType": "uint64",
              "name": "nonce",
              "type": "uint64"
            }
          ],
          "internalType": "struct Origin",
          "name": "_origin",
          "type": "tuple"
        },
        {
          "internalType": "bytes32",
          "name": "_guid",
          "type": "bytes32"
        },
        {
          "internalType": "bytes",
          "name": "_message",
          "type": "bytes"
        }
      ],
      "name": "clearStuckMessage",
      "outputs": [],
      "stateMutability": "nonpayable",
      "type": "function"
    },
    {
      "inputs": [
        {
          "internalType": "uint32",
          "name": "_eid",
          "type": "uint32"
        },
        {
          "internalType": "uint16",
          "name": "_msgType",
          "type": "uint16"
        },
        {
          "internalType": "bytes",
          "name": "_extraOptions",
          "type": "bytes"
        }
      ],
      "name": "combineOptions",
      "outputs": [
        {
          "internalType": "bytes",
          "name": "",
          "type": "bytes"
        }
      ],
      "stateMutability": "view",
      "type": "function"
    },
    {
      "inputs": [],
      "name": "endpoint",
      "outputs": [
        {
          "internalType": "contract ILayerZeroEndpointV2",
          "name": "",
          "type": "address"
        }
      ],
      "stateMutability": "view",
      "type": "function"
    },
    {
      "inputs": [
        {
          "internalType": "uint32",
          "name": "eid",
          "type": "uint32"
        },
        {
          "internalType": "uint16",
          "name": "msgType",
          "type": "uint16"
        }
      ],
      "name": "enforcedOptions",
      "outputs": [
        {
          "internalType": "bytes",
          "name": "enforcedOption",
          "type": "bytes"
        }
      ],
      "stateMutability": "view",
      "type": "function"
    },
    {
      "inputs": [],
      "name": "fundContract",
      "outputs": [],
      "stateMutability": "payable",
      "type": "function"
    },
    {
      "inputs": [],
      "name": "getContractStatus",
      "outputs": [
        {
          "internalType": "uint256",
          "name": "balance",
          "type": "uint256"
        },
        {
          "internalType": "uint256",
          "name": "minBalance",
          "type": "uint256"
        },
        {
          "internalType": "bool",
          "name": "canSendResponses",
          "type": "bool"
        },
        {
          "internalType": "uint32",
          "name": "gasLimit",
          "type": "uint32"
        }
      ],
      "stateMutability": "view",
      "type": "function"
    },
    {
      "inputs": [
        {
          "internalType": "uint256",
          "name": "requestId",
          "type": "uint256"
        }
      ],
      "name": "getRequestById",
      "outputs": [
        {
          "internalType": "uint64",
          "name": "sequence",
          "type": "uint64"
        },
        {
          "internalType": "bool",
          "name": "exists",
          "type": "bool"
        },
        {
          "internalType": "bool",
          "name": "fulfilled",
          "type": "bool"
        },
        {
          "internalType": "bool",
          "name": "responseSent",
          "type": "bool"
        },
        {
          "internalType": "uint256",
          "name": "randomWord",
          "type": "uint256"
        },
        {
          "internalType": "uint256",
          "name": "timestamp",
          "type": "uint256"
        }
      ],
      "stateMutability": "view",
      "type": "function"
    },
    {
      "inputs": [
        {
          "internalType": "uint64",
          "name": "sequence",
          "type": "uint64"
        }
      ],
      "name": "getRequestBySequence",
      "outputs": [
        {
          "internalType": "uint256",
          "name": "requestId",
          "type": "uint256"
        },
        {
          "internalType": "bool",
          "name": "exists",
          "type": "bool"
        },
        {
          "internalType": "bool",
          "name": "fulfilled",
          "type": "bool"
        },
        {
          "internalType": "bool",
          "name": "responseSent",
          "type": "bool"
        },
        {
          "internalType": "uint256",
          "name": "randomWord",
          "type": "uint256"
        },
        {
          "internalType": "uint256",
          "name": "timestamp",
          "type": "uint256"
        }
      ],
      "stateMutability": "view",
      "type": "function"
    },
    {
      "inputs": [],
      "name": "getVRFConfig",
      "outputs": [
        {
          "internalType": "uint256",
          "name": "_subscriptionId",
          "type": "uint256"
        },
        {
          "internalType": "bytes32",
          "name": "_keyHash",
          "type": "bytes32"
        },
        {
          "internalType": "uint32",
          "name": "_callbackGasLimit",
          "type": "uint32"
        },
        {
          "internalType": "uint16",
          "name": "_requestConfirmations",
          "type": "uint16"
        },
        {
          "internalType": "bool",
          "name": "_nativePayment",
          "type": "bool"
        }
      ],
      "stateMutability": "view",
      "type": "function"
    },
    {
      "inputs": [
        {
          "components": [
            {
              "internalType": "uint32",
              "name": "srcEid",
              "type": "uint32"
            },
            {
              "internalType": "bytes32",
              "name": "sender",
              "type": "bytes32"
            },
            {
              "internalType": "uint64",
              "name": "nonce",
              "type": "uint64"
            }
          ],
          "internalType": "struct Origin",
          "name": "",
          "type": "tuple"
        },
        {
          "internalType": "bytes",
          "name": "",
          "type": "bytes"
        },
        {
          "internalType": "address",
          "name": "_sender",
          "type": "address"
        }
      ],
      "name": "isComposeMsgSender",
      "outputs": [
        {
          "internalType": "bool",
          "name": "",
          "type": "bool"
        }
      ],
      "stateMutability": "view",
      "type": "function"
    },
    {
      "inputs": [],
      "name": "keyHash",
      "outputs": [
        {
          "internalType": "bytes32",
          "name": "",
          "type": "bytes32"
        }
      ],
      "stateMutability": "view",
      "type": "function"
    },
    {
      "inputs": [
        {
          "components": [
            {
              "internalType": "uint32",
              "name": "srcEid",
              "type": "uint32"
            },
            {
              "internalType": "bytes32",
              "name": "sender",
              "type": "bytes32"
            },
            {
              "internalType": "uint64",
              "name": "nonce",
              "type": "uint64"
            }
          ],
          "internalType": "struct Origin",
          "name": "_origin",
          "type": "tuple"
        },
        {
          "internalType": "bytes32",
          "name": "_guid",
          "type": "bytes32"
        },
        {
          "internalType": "bytes",
          "name": "_message",
          "type": "bytes"
        },
        {
          "internalType": "address",
          "name": "_executor",
          "type": "address"
        },
        {
          "internalType": "bytes",
          "name": "_extraData",
          "type": "bytes"
        }
      ],
      "name": "lzReceive",
      "outputs": [],
      "stateMutability": "payable",
      "type": "function"
    },
    {
      "inputs": [],
      "name": "minimumBalance",
      "outputs": [
        {
          "internalType": "uint256",
          "name": "",
          "type": "uint256"
        }
      ],
      "stateMutability": "view",
      "type": "function"
    },
    {
      "inputs": [],
      "name": "nativePayment",
      "outputs": [
        {
          "internalType": "bool",
          "name": "",
          "type": "bool"
        }
      ],
      "stateMutability": "view",
      "type": "function"
    },
    {
      "inputs": [
        {
          "internalType": "uint32",
          "name": "",
          "type": "uint32"
        },
        {
          "internalType": "bytes32",
          "name": "",
          "type": "bytes32"
        }
      ],
      "name": "nextNonce",
      "outputs": [
        {
          "internalType": "uint64",
          "name": "nonce",
          "type": "uint64"
        }
      ],
      "stateMutability": "view",
      "type": "function"
    },
    {
      "inputs": [],
      "name": "numWords",
      "outputs": [
        {
          "internalType": "uint32",
          "name": "",
          "type": "uint32"
        }
      ],
      "stateMutability": "view",
      "type": "function"
    },
    {
      "inputs": [],
      "name": "oAppVersion",
      "outputs": [
        {
          "internalType": "uint64",
          "name": "senderVersion",
          "type": "uint64"
        },
        {
          "internalType": "uint64",
          "name": "receiverVersion",
          "type": "uint64"
        }
      ],
      "stateMutability": "pure",
      "type": "function"
    },
    {
      "inputs": [],
      "name": "owner",
      "outputs": [
        {
          "internalType": "address",
          "name": "",
          "type": "address"
        }
      ],
      "stateMutability": "view",
      "type": "function"
    },
    {
      "inputs": [
        {
          "internalType": "uint32",
          "name": "eid",
          "type": "uint32"
        }
      ],
      "name": "peers",
      "outputs": [
        {
          "internalType": "bytes32",
          "name": "peer",
          "type": "bytes32"
        }
      ],
      "stateMutability": "view",
      "type": "function"
    },
    {
      "inputs": [
        {
          "internalType": "uint64",
          "name": "",
          "type": "uint64"
        }
      ],
      "name": "pendingResponses",
      "outputs": [
        {
          "internalType": "bool",
          "name": "",
          "type": "bool"
        }
      ],
      "stateMutability": "view",
      "type": "function"
    },
    {
      "inputs": [],
      "name": "quoteSendToSonic",
      "outputs": [
        {
          "components": [
            {
              "internalType": "uint256",
              "name": "nativeFee",
              "type": "uint256"
            },
            {
              "internalType": "uint256",
              "name": "lzTokenFee",
              "type": "uint256"
            }
          ],
          "internalType": "struct MessagingFee",
          "name": "fee",
          "type": "tuple"
        }
      ],
      "stateMutability": "view",
      "type": "function"
    },
    {
      "inputs": [
        {
          "internalType": "uint256",
          "name": "requestId",
          "type": "uint256"
        },
        {
          "internalType": "uint256[]",
          "name": "randomWords",
          "type": "uint256[]"
        }
      ],
      "name": "rawFulfillRandomWords",
      "outputs": [],
      "stateMutability": "nonpayable",
      "type": "function"
    },
    {
      "inputs": [],
      "name": "renounceOwnership",
      "outputs": [],
      "stateMutability": "nonpayable",
      "type": "function"
    },
    {
      "inputs": [],
      "name": "requestConfirmations",
      "outputs": [
        {
          "internalType": "uint16",
          "name": "",
          "type": "uint16"
        }
      ],
      "stateMutability": "view",
      "type": "function"
    },
    {
      "inputs": [
        {
          "internalType": "uint64",
          "name": "sequence",
          "type": "uint64"
        }
      ],
      "name": "retryPendingResponse",
      "outputs": [],
      "stateMutability": "payable",
      "type": "function"
    },
    {
      "inputs": [
        {
          "internalType": "uint256",
          "name": "requestId",
          "type": "uint256"
        }
      ],
      "name": "sendResponseToSonic",
      "outputs": [],
      "stateMutability": "payable",
      "type": "function"
    },
    {
      "inputs": [
        {
          "internalType": "uint64",
          "name": "",
          "type": "uint64"
        }
      ],
      "name": "sequenceToRequestId",
      "outputs": [
        {
          "internalType": "uint256",
          "name": "",
          "type": "uint256"
        }
      ],
      "stateMutability": "view",
      "type": "function"
    },
    {
      "inputs": [
        {
          "internalType": "address",
          "name": "_delegate",
          "type": "address"
        }
      ],
      "name": "setDelegate",
      "outputs": [],
      "stateMutability": "nonpayable",
      "type": "function"
    },
    {
      "inputs": [
        {
          "components": [
            {
              "internalType": "uint32",
              "name": "eid",
              "type": "uint32"
            },
            {
              "internalType": "uint16",
              "name": "msgType",
              "type": "uint16"
            },
            {
              "internalType": "bytes",
              "name": "options",
              "type": "bytes"
            }
          ],
          "internalType": "struct EnforcedOptionParam[]",
          "name": "_enforcedOptions",
          "type": "tuple[]"
        }
      ],
      "name": "setEnforcedOptions",
      "outputs": [],
      "stateMutability": "nonpayable",
      "type": "function"
    },
    {
      "inputs": [
        {
          "internalType": "uint256",
          "name": "_minimumBalance",
          "type": "uint256"
        }
      ],
      "name": "setMinimumBalance",
      "outputs": [],
      "stateMutability": "nonpayable",
      "type": "function"
    },
    {
      "inputs": [
        {
          "internalType": "uint32",
          "name": "_eid",
          "type": "uint32"
        },
        {
          "internalType": "bytes32",
          "name": "_peer",
          "type": "bytes32"
        }
      ],
      "name": "setPeer",
      "outputs": [],
      "stateMutability": "nonpayable",
      "type": "function"
    },
    {
      "inputs": [
        {
          "internalType": "uint32",
          "name": "_gasLimit",
          "type": "uint32"
        }
      ],
      "name": "setSonicGasLimit",
      "outputs": [],
      "stateMutability": "nonpayable",
      "type": "function"
    },
    {
      "inputs": [
        {
          "internalType": "uint256",
          "name": "_subscriptionId",
          "type": "uint256"
        },
        {
          "internalType": "bytes32",
          "name": "_keyHash",
          "type": "bytes32"
        },
        {
          "internalType": "uint32",
          "name": "_callbackGasLimit",
          "type": "uint32"
        },
        {
          "internalType": "uint16",
          "name": "_requestConfirmations",
          "type": "uint16"
        },
        {
          "internalType": "bool",
          "name": "_nativePayment",
          "type": "bool"
        }
      ],
      "name": "setVRFConfig",
      "outputs": [],
      "stateMutability": "nonpayable",
      "type": "function"
    },
    {
      "inputs": [],
      "name": "sonicGasLimit",
      "outputs": [
        {
          "internalType": "uint32",
          "name": "",
          "type": "uint32"
        }
      ],
      "stateMutability": "view",
      "type": "function"
    },
    {
      "inputs": [],
      "name": "subscriptionId",
      "outputs": [
        {
          "internalType": "uint256",
          "name": "",
          "type": "uint256"
        }
      ],
      "stateMutability": "view",
      "type": "function"
    },
    {
      "inputs": [],
      "name": "testVRFRequest",
      "outputs": [
        {
          "internalType": "uint256",
          "name": "requestId",
          "type": "uint256"
        }
      ],
      "stateMutability": "nonpayable",
      "type": "function"
    },
    {
      "inputs": [
        {
          "internalType": "address",
          "name": "newOwner",
          "type": "address"
        }
      ],
      "name": "transferOwnership",
      "outputs": [],
      "stateMutability": "nonpayable",
      "type": "function"
    },
    {
      "inputs": [],
      "name": "vrfCoordinator",
      "outputs": [
        {
          "internalType": "contract IVRFCoordinatorV2Plus",
          "name": "",
          "type": "address"
        }
      ],
      "stateMutability": "view",
      "type": "function"
    },
    {
      "inputs": [
        {
          "internalType": "uint256",
          "name": "",
          "type": "uint256"
        }
      ],
      "name": "vrfRequests",
      "outputs": [
        {
          "internalType": "uint64",
          "name": "sequence",
          "type": "uint64"
        },
        {
          "internalType": "bytes32",
          "name": "sonicPeer",
          "type": "bytes32"
        },
        {
          "internalType": "uint256",
          "name": "randomWord",
          "type": "uint256"
        },
        {
          "internalType": "bool",
          "name": "fulfilled",
          "type": "bool"
        },
        {
          "internalType": "bool",
          "name": "responseSent",
          "type": "bool"
        },
        {
          "internalType": "uint256",
          "name": "timestamp",
          "type": "uint256"
        }
      ],
      "stateMutability": "view",
      "type": "function"
    },
    {
      "inputs": [],
      "name": "withdraw",
      "outputs": [],
      "stateMutability": "nonpayable",
      "type": "function"
    },
    {
      "stateMutability": "payable",
      "type": "receive"
    }
  ],
  "transactionHash": "0xa2725da874273723649a2eeae525e45b3135763082a1005c45080d122cc478a8",
  "args": [
    "0x1a44076050125825900e736c501f859c50fE728c",
    "0xDDd0050d1E084dFc72d5d06447Cc10bcD3fEF60F",
    "0x3C0Ca683b403E37668AE3DC4FB62F4B29B6f7a3e",
    "76197290230634444536112874207591481868701552347170354938929514079949640872745",
    "0xe9f223d7d83ec85c4f78042a4845af3a1c8df7757b4997b815ce4b8d07aca68c"
  ],
  "numDeployments": 1,
  "solcInputHash": "c77f39ee84dc6c767dd7b8c112fb3718",
  "bytecode": "0x60c0604052600580546001600160581b03191666010003000a88f4179055662386f26fc10000600955600a805463ffffffff1916620a88f41790553480156200004757600080fd5b5060405162003aba38038062003aba8339810160408190526200006a91620001ca565b84848181806001600160a01b0381166200009e57604051631e4fbdf760e01b81526000600482015260240160405180910390fd5b620000a9816200015d565b506001600160a01b038083166080528116620000d857604051632d618d8160e21b815260040160405180910390fd5b60805160405163ca5eb5e160e01b81526001600160a01b0383811660048301529091169063ca5eb5e190602401600060405180830381600087803b1580156200012057600080fd5b505af115801562000135573d6000803e3d6000fd5b5050506001600160a01b0390971660a052505050600392909255600455506200022792505050565b600080546001600160a01b038381166001600160a01b0319831681178455604051919092169283917f8be0079c531659141344cd1fd0a4f28419497f9722a3daafe3b4186f6b6457e09190a35050565b80516001600160a01b0381168114620001c557600080fd5b919050565b600080600080600060a08688031215620001e357600080fd5b620001ee86620001ad565b9450620001fe60208701620001ad565b93506200020e60408701620001ad565b6060870151608090970151959894975095949392505050565b60805160a05161382762000293600039600081816106b401528181610a5c0152818161139e01526121060152600081816105110152818161099301528181610f03015281816119630152818161235b015281816124d40152818161291801526129d101526138276000f3fe6080604052600436106102605760003560e01c80638da5cb5b11610144578063bb0b6a53116100b6578063ca5eb5e11161007a578063ca5eb5e1146108d1578063d4da9f2f146108f1578063e603acfc1461090e578063e62c0f2014610921578063f2fde38b14610951578063ff7bd03d1461097157600080fd5b8063bb0b6a53146107fa578063bc70b35414610827578063bd097e2114610847578063c032846b1461084f578063c2b0b9f3146108a157600080fd5b8063a8c3319411610108578063a8c33194146106f6578063aea051e91461070c578063b0fb162f14610761578063b28783a814610797578063b98bd070146107c4578063b9d1d49b146107e457600080fd5b80638da5cb5b146106075780638e2f1bd0146106255780639a5ea6a014610645578063a3e56fa8146106a2578063a70e54e5146106d657600080fd5b80633ccfd60b116101dd57806361728f39116101a157806361728f391461054b5780636a22de2914610561578063715018a6146105765780637ccfd7fc1461058b5780637d25a05e146105af57806382413eac146105e757600080fd5b80633ccfd60b1461047957806354cc0fca1461048e5780635535d461146104a15780635a175710146104ce5780635e280f11146104ff57600080fd5b806324f746971161022457806324f746971461038857806326757b73146103ba57806332f1b9bd146104195780633400288b146104395780633446e4b41461045957600080fd5b806309c1ba2e1461026c57806313137d651461029557806317442b70146102aa5780631a1d9252146102cc5780631fe543e31461036857600080fd5b3661026757005b600080fd5b34801561027857600080fd5b5061028260035481565b6040519081526020015b60405180910390f35b6102a86102a3366004612bb2565b610991565b005b3480156102b657600080fd5b506040805160018152600260208201520161028c565b3480156102d857600080fd5b5061032d6102e7366004612c51565b600660205260009081526040902080546001820154600283015460038401546004909401546001600160401b03909316939192909160ff80821692610100909204169086565b604080516001600160401b039097168752602087019590955293850192909252151560608401521515608083015260a082015260c00161028c565b34801561037457600080fd5b506102a8610383366004612cae565b610a51565b34801561039457600080fd5b506005546103a59063ffffffff1681565b60405163ffffffff909116815260200161028c565b3480156103c657600080fd5b506103da6103d5366004612c51565b610e5d565b604080516001600160401b03909716875294151560208701529215159385019390935215156060840152608083019190915260a082015260c00161028c565b34801561042557600080fd5b506102a8610434366004612cf9565b610ee4565b34801561044557600080fd5b506102a8610454366004612d6c565b610f78565b34801561046557600080fd5b506102a8610474366004612c51565b610f8e565b34801561048557600080fd5b506102a8610fdc565b6102a861049c366004612c51565b611021565b3480156104ad57600080fd5b506104c16104bc366004612da8565b611261565b60405161028c9190612e2b565b3480156104da57600080fd5b506005546104ef90600160501b900460ff1681565b604051901515815260200161028c565b34801561050b57600080fd5b506105337f000000000000000000000000000000000000000000000000000000000000000081565b6040516001600160a01b03909116815260200161028c565b34801561055757600080fd5b5061028260045481565b34801561056d57600080fd5b50610282611306565b34801561058257600080fd5b506102a8611531565b34801561059757600080fd5b506005546103a590600160301b900463ffffffff1681565b3480156105bb57600080fd5b506105cf6105ca366004612d6c565b611545565b6040516001600160401b03909116815260200161028c565b3480156105f357600080fd5b506104ef610602366004612e3e565b61154e565b34801561061357600080fd5b506000546001600160a01b0316610533565b34801561063157600080fd5b506102a8610640366004612ea4565b611563565b34801561065157600080fd5b5060035460045460055460408051938452602084019290925263ffffffff811691830191909152640100000000810461ffff166060830152600160501b900460ff161515608082015260a00161028c565b3480156106ae57600080fd5b506105337f000000000000000000000000000000000000000000000000000000000000000081565b3480156106e257600080fd5b506102a86106f1366004612f04565b611604565b34801561070257600080fd5b506103a561767c81565b34801561071857600080fd5b5061072c610727366004612f34565b6116c2565b6040805196875294151560208701529215159385019390935215156060840152608083019190915260a082015260c00161028c565b34801561076d57600080fd5b5060055461078490640100000000900461ffff1681565b60405161ffff909116815260200161028c565b3480156107a357600080fd5b506102826107b2366004612f34565b60076020526000908152604090205481565b3480156107d057600080fd5b506102a86107df366004612f51565b61173a565b3480156107f057600080fd5b5061028260095481565b34801561080657600080fd5b50610282610815366004612f04565b60016020526000908152604090205481565b34801561083357600080fd5b506104c1610842366004612f92565b611754565b6102a86118fc565b34801561085b57600080fd5b50610875600954600a544792828410159163ffffffff1690565b6040805194855260208501939093529015159183019190915263ffffffff16606082015260800161028c565b3480156108ad57600080fd5b506104ef6108bc366004612f34565b60086020526000908152604090205460ff1681565b3480156108dd57600080fd5b506102a86108ec366004612fda565b61193c565b3480156108fd57600080fd5b50600a546103a59063ffffffff1681565b6102a861091c366004612f34565b6119c2565b34801561092d57600080fd5b50610936611e28565b6040805182518152602092830151928101929092520161028c565b34801561095d57600080fd5b506102a861096c366004612fda565b611e92565b34801561097d57600080fd5b506104ef61098c366004612ff7565b611ecd565b7f00000000000000000000000000000000000000000000000000000000000000006001600160a01b031633146109e1576040516391ac5e4f60e01b81523360048201526024015b60405180910390fd5b602087018035906109fb906109f6908a612f04565b611f03565b14610a3957610a0d6020880188612f04565b60405163309afaf360e21b815263ffffffff9091166004820152602088013560248201526044016109d8565b610a4887878787878787611f3f565b50505050505050565b336001600160a01b037f00000000000000000000000000000000000000000000000000000000000000001614610ac95760405162461bcd60e51b815260206004820181905260248201527f4f6e6c792056524620436f6f7264696e61746f722063616e2066756c66696c6c60448201526064016109d8565b6000838152600660205260408120805490916001600160401b039091169003610b295760405162461bcd60e51b8152602060048201526012602482015271125b9d985b1a59081c995c5d595cdd08125160721b60448201526064016109d8565b600381015460ff1615610b725760405162461bcd60e51b8152602060048201526011602482015270105b1c9958591e48199d5b199a5b1b1959607a1b60448201526064016109d8565b60038101805460ff191660011790558282600081610b9257610b92613013565b60209081029290920135600284018190558354604080516001600160401b039092169482019490945280840191909152825180820384018152606090910190925250600a54600090610bf49063ffffffff1682610bed6122ba565b91906122dd565b90506000610c0761767c84846000612345565b8051909150471015610cc45783546001600160401b0390811660009081526008602052604090819020805460ff1916600117905585549051899291909116907ff8af62cce42685a313f86025890fc41c70e5d8d5e4c32ed3e3e32cd987c0f2a090610cb39060208082526027908201527f496e73756666696369656e742062616c616e636520666f72204c617965725a65604082015266726f206665657360c81b606082015260800190565b60405180910390a350505050505050565b80516040805160248082018b905282518083039091018152604490910182526020810180516001600160e01b0316632a6607e560e11b179052905160009283923092610d109190613029565b60006040518083038185875af1925050503d8060008114610d4d576040519150601f19603f3d011682016040523d82523d6000602084013e610d52565b606091505b50915091508115610d9c57887f67578974dcd1e9cdb0ebe63163f817c9866d397c48bc125393551f78f33b515f8989604051610d8f929190613045565b60405180910390a2610e52565b85546001600160401b03166000908152600860205260409020805460ff19166001179055805160609015610dd4575060208101610e0a565b5060408051808201909152601f81527f556e6b6e6f776e206572726f7220696e204c617965725a65726f2073656e640060208201525b86546040518b916001600160401b0316907ff8af62cce42685a313f86025890fc41c70e5d8d5e4c32ed3e3e32cd987c0f2a090610e48908590612e2b565b60405180910390a3505b505050505050505050565b6000818152600660205260408120805482918291829182918291906001600160401b03168203610ea25760008060008060008096509650965096509650965050610edb565b8054600382015460028301546004909301546001600160401b0390921698506001975060ff808216975061010090910416945090925090505b91939550919395565b610eec612426565b6040516302a56c1b60e41b81526001600160a01b037f00000000000000000000000000000000000000000000000000000000000000001690632a56c1b090610f4090309088908890889088906004016130a7565b600060405180830381600087803b158015610f5a57600080fd5b505af1158015610f6e573d6000803e3d6000fd5b5050505050505050565b610f80612426565b610f8a8282612453565b5050565b610f96612426565b600980549082905560408051828152602081018490527fc2ed71504bd70e947d9a514f52be4f28827ef83859c414054d0874ab910844a191015b60405180910390a15050565b610fe4612426565b600080546040516001600160a01b03909116914780156108fc02929091818181858888f1935050505015801561101e573d6000803e3d6000fd5b50565b3330148061103957506000546001600160a01b031633145b6110745760405162461bcd60e51b815260206004820152600c60248201526b155b985d5d1a1bdc9a5e995960a21b60448201526064016109d8565b6000818152600660205260408120805490916001600160401b0390911690036110d45760405162461bcd60e51b8152602060048201526012602482015271125b9d985b1a59081c995c5d595cdd08125160721b60448201526064016109d8565b600381015460ff166111205760405162461bcd60e51b815260206004820152601560248201527414995c5d595cdd081b9bdd08199d5b199a5b1b1959605a1b60448201526064016109d8565b6003810154610100900460ff16156111725760405162461bcd60e51b815260206004820152601560248201527414995cdc1bdb9cd948185b1c9958591e481cd95b9d605a1b60448201526064016109d8565b80546002820154604080516001600160401b0390931660208401528281019190915280518083038201815260609092019052600a546000906111bd9063ffffffff1682610bed6122ba565b60408051808201909152348152600060208201529091506111f461767c8484846111ef6000546001600160a01b031690565b6124a1565b5060038401805461ff0019166101001790558354600285015482516040516001600160401b03909316927f374eb8dbdd0580fe8508f5d572f99d50bef89b40098e8e3ff3db6c8ac9acad2f9261125292908252602082015260400190565b60405180910390a25050505050565b6002602090815260009283526040808420909152908252902080546112859061310c565b80601f01602080910402602001604051908101604052809291908181526020018280546112b19061310c565b80156112fe5780601f106112d3576101008083540402835291602001916112fe565b820191906000526020600020905b8154815290600101906020018083116112e157829003601f168201915b505050505081565b6000611310612426565b6040805160208101909152600554600160501b900460ff1615158152600090611338906125ac565b6040805160c081018252600480548252600354602083015260055461ffff6401000000008204168385015263ffffffff8082166060850152600160301b90910416608083015260a082018490529151634d8e1c2f60e11b81529293506001600160a01b037f00000000000000000000000000000000000000000000000000000000000000001692639b1c385e926113d0929101613140565b6020604051808303816000875af11580156113ef573d6000803e3d6000fd5b505050506040513d601f19601f82011682018060405250810190611413919061319d565b6040805160c0810182526001600160401b03428181168084523360208086019182526000868801818152606088018281526080890183815260a08a018881528c8552600686528b85209a518b549a1667ffffffffffffffff19909a16999099178a55945160018a01559051600289015551600388018054945115156101000261ff00199215159290921661ffff19909516949094171790925593516004909501949094558084526007909252838320859055925193955091928592917fa509c57cc6793520828d4e42612854fbbc9257b411d07deb0cc5931a8ee6b41b91a3604051428152339060009085907f7fc7c1f75c0d3ca1a88b3205e7f4529473a7a55956e03288ea4db943d997b9459060200160405180910390a4505090565b611539612426565b6115436000612614565b565b60005b92915050565b6001600160a01b03811630145b949350505050565b61156b612426565b600385905560048490556005805463ffffffff851665ffffffffffff19909116811764010000000061ffff86169081029190911760ff60501b1916600160501b851515021790925560408051888152602081018890529081019190915260608101919091527f93dcb896219f0103f48ceb69144937f0d0712ae244d21815ac5e425422a1e86d9060800160405180910390a15050505050565b61160c612426565b620186a08163ffffffff161015801561162e5750629896808163ffffffff1611155b61166e5760405162461bcd60e51b8152602060048201526011602482015270125b9d985b1a590819d85cc81b1a5b5a5d607a1b60448201526064016109d8565b600a805463ffffffff83811663ffffffff1983168117909355604080519190921680825260208201939093527f13d70ca8a030ffe5da5c5a47ca051321aa705db80eae103c4b068ad3acf9ee9b9101610fd0565b6001600160401b03811660009081526007602052604081205490808080808581036116fe57506000945084935083925082915081905080610edb565b50505060008381526006602052604090206003810154600282015460049092015494966001965060ff8083169661010090930416945091925090565b611742612426565b610f8a61174f8284613224565b612664565b63ffffffff8416600090815260026020908152604080832061ffff871684529091528120805460609291906117889061310c565b80601f01602080910402602001604051908101604052809291908181526020018280546117b49061310c565b80156118015780601f106117d657610100808354040283529160200191611801565b820191906000526020600020905b8154815290600101906020018083116117e457829003601f168201915b5050505050905080516000036118515783838080601f01602080910402602001604051908101604052809392919081815260200183838082843760009201919091525092945061155b9350505050565b600083900361186157905061155b565b600283106118df576118a884848080601f01602080910402602001604051908101604052809392919081815260200183838082843760009201919091525061277692505050565b806118b68460028188613349565b6040516020016118c893929190613373565b60405160208183030381529060405291505061155b565b8383604051639a6d49cd60e01b81526004016109d892919061339b565b600034116115435760405162461bcd60e51b815260206004820152600d60248201526c09aeae6e840e6cadcc8408aa89609b1b60448201526064016109d8565b611944612426565b60405163ca5eb5e160e01b81526001600160a01b0382811660048301527f0000000000000000000000000000000000000000000000000000000000000000169063ca5eb5e190602401600060405180830381600087803b1580156119a757600080fd5b505af11580156119bb573d6000803e3d6000fd5b5050505050565b6001600160401b03811660009081526008602052604090205460ff16611a385760405162461bcd60e51b815260206004820152602560248201527f4e6f2070656e64696e6720726573706f6e736520666f7220746869732073657160448201526475656e636560d81b60648201526084016109d8565b6001600160401b03811660009081526007602052604081205490819003611a945760405162461bcd60e51b815260206004820152601060248201526f496e76616c69642073657175656e636560801b60448201526064016109d8565b6000818152600660205260409020600381015460ff16611aee5760405162461bcd60e51b8152602060048201526015602482015274159491881b9bdd08199d5b199a5b1b1959081e595d605a1b60448201526064016109d8565b6003810154610100900460ff1615611b405760405162461bcd60e51b815260206004820152601560248201527414995cdc1bdb9cd948185b1c9958591e481cd95b9d605a1b60448201526064016109d8565b80546002820154604080516001600160401b0390931660208401528281019190915280518083038201815260609092019052600a54600090611b8b9063ffffffff1682610bed6122ba565b90506000611b9e61767c84846000612345565b90506000611bac47346133c5565b8251909150811015611c0b5760405162461bcd60e51b815260206004820152602260248201527f496e73756666696369656e742045544820666f72204c617965725a65726f2066604482015261656560f01b60648201526084016109d8565b600954811015611c5d5760405162461bcd60e51b815260206004820152601e60248201527f496e73756666696369656e742062616c616e636520616674657220666565000060448201526064016109d8565b81516040805160248082018a905282518083039091018152604490910182526020810180516001600160e01b0316632a6607e560e11b179052905160009283923092611ca99190613029565b60006040518083038185875af1925050503d8060008114611ce6576040519150601f19603f3d011682016040523d82523d6000602084013e611ceb565b606091505b50915091508115611d99576001600160401b038916600090815260086020526040808220805460ff191690558051600180825281830190925290816020016020820280368337019050509050876002015481600081518110611d4f57611d4f613013565b602002602001018181525050887f67578974dcd1e9cdb0ebe63163f817c9866d397c48bc125393551f78f33b515f82604051611d8b91906133d8565b60405180910390a250610e52565b805160609015611de05760208201905080604051602001611dba919061341c565b60408051601f198184030181529082905262461bcd60e51b82526109d891600401612e2b565b60405162461bcd60e51b815260206004820152601b60248201527f5265747279206661696c65643a20756e6b6e6f776e206572726f72000000000060448201526064016109d8565b604080518082018252600080825260208083018290528351600191810191909152613039818501528351808203850181526060909101909352600a54919291611e7a9063ffffffff1682610bed6122ba565b9050611e8b61767c83836000612345565b9250505090565b611e9a612426565b6001600160a01b038116611ec457604051631e4fbdf760e01b8152600060048201526024016109d8565b61101e81612614565b6000602082018035906001908390611ee59086612f04565b63ffffffff1681526020810191909152604001600020541492915050565b63ffffffff8116600090815260016020526040812054806115485760405163f6ff4fb760e01b815263ffffffff841660048201526024016109d8565b60208701803590600190600090611f56908b612f04565b63ffffffff1663ffffffff1681526020019081526020016000205414611faf5760405162461bcd60e51b815260206004820152600e60248201526d496e76616c696420736f7572636560901b60448201526064016109d8565b61767c611fbf6020890189612f04565b63ffffffff16146120095760405162461bcd60e51b815260206004820152601460248201527324b73b30b634b21039b7bab931b29031b430b4b760611b60448201526064016109d8565b600061201785870187612f34565b6001600160401b038116600090815260076020526040902054909150156120755760405162461bcd60e51b81526020600482015260126024820152714475706c69636174652073657175656e636560701b60448201526064016109d8565b6040805160208101909152600554600160501b900460ff161515815260009061209d906125ac565b6040805160c081018252600480548252600354602083015260055461ffff6401000000008204168385015263ffffffff8082166060850152600160301b90910416608083015260a082018490529151634d8e1c2f60e11b81529293506000926001600160a01b037f00000000000000000000000000000000000000000000000000000000000000001692639b1c385e9261213992909101613140565b6020604051808303816000875af1158015612158573d6000803e3d6000fd5b505050506040513d601f19601f8201168201806040525081019061217c919061319d565b6040805160c0810182526001600160401b0380871680835260208f810135818501908152600085870181815260608701828152608088018381524260a08a019081528b8552600687528a852099518a54991667ffffffffffffffff19909916989098178955935160018901559051600288015551600387018054935115156101000261ff00199215159290921661ffff199094169390931717909155925160049094019390935580825260079092528281208490559151929350839290917fa509c57cc6793520828d4e42612854fbbc9257b411d07deb0cc5931a8ee6b41b91a360208a0180359061226e908c612f04565b63ffffffff16827f7fc7c1f75c0d3ca1a88b3205e7f4529473a7a55956e03288ea4db943d997b945426040516122a691815260200190565b60405180910390a450505050505050505050565b60408051600360f01b602082015281516002818303018152602290910190915290565b60608360036122ed8260006127a2565b61ffff1614612321576123018160006127a2565b604051633a51740d60e01b815261ffff90911660048201526024016109d8565b600061232d85856127ff565b905061233b86600183612881565b9695505050505050565b60408051808201909152600080825260208201527f00000000000000000000000000000000000000000000000000000000000000006001600160a01b031663ddc28c586040518060a001604052808863ffffffff1681526020016123a889611f03565b8152602001878152602001868152602001851515815250306040518363ffffffff1660e01b81526004016123dd929190613452565b6040805180830381865afa1580156123f9573d6000803e3d6000fd5b505050506040513d601f19601f8201168201806040525081019061241d9190613519565b95945050505050565b6000546001600160a01b031633146115435760405163118cdaa760e01b81523360048201526024016109d8565b63ffffffff8216600081815260016020908152604091829020849055815192835282018390527f238399d427b947898edb290f5ff0f9109849b1c3ba196a42e35f00c50a54b98b9101610fd0565b6124a9612af6565b60006124b884600001516128ec565b6020850151909150156124d2576124d28460200151612914565b7f00000000000000000000000000000000000000000000000000000000000000006001600160a01b0316632637a450826040518060a001604052808b63ffffffff1681526020016125228c611f03565b81526020018a815260200189815260200160008960200151111515815250866040518463ffffffff1660e01b815260040161255e929190613452565b60806040518083038185885af115801561257c573d6000803e3d6000fd5b50505050506040513d601f19601f820116820180604052508101906125a19190613535565b979650505050505050565b80516040805191151560208301526060917f92fd13387c7fe7befbc38d303d6468778fb9731bc4583f17d92989c6fcfdeaaa910160408051601f19818403018152908290526125fe929160200161357f565b6040516020818303038152906040529050919050565b600080546001600160a01b038381166001600160a01b0319831681178455604051919092169283917f8be0079c531659141344cd1fd0a4f28419497f9722a3daafe3b4186f6b6457e09190a35050565b60005b815181101561273b5761269682828151811061268557612685613013565b602002602001015160400151612776565b8181815181106126a8576126a8613013565b602002602001015160400151600260008484815181106126ca576126ca613013565b60200260200101516000015163ffffffff1663ffffffff168152602001908152602001600020600084848151811061270457612704613013565b60200260200101516020015161ffff1661ffff16815260200190815260200160002090816127329190613601565b50600101612667565b507fbe4864a8e820971c0247f5992e2da559595f7bf076a21cb5928d443d2a13b6748160405161276b91906136c0565b60405180910390a150565b600281015161ffff8116600314610f8a5781604051639a6d49cd60e01b81526004016109d89190612e2b565b60006127af8260026133c5565b835110156127f65760405162461bcd60e51b8152602060048201526014602482015273746f55696e7431365f6f75744f66426f756e647360601b60448201526064016109d8565b50016002015190565b60606fffffffffffffffffffffffffffffffff82161561285057604080516001600160801b0319608086811b8216602084015285901b1660308201520160405160208183030381529060405261287a565b6040516001600160801b0319608085901b1660208201526030016040516020818303038152906040525b9392505050565b60608360036128918260006127a2565b61ffff16146128a5576123018160006127a2565b8460016128b285516129f6565b6128bd90600161374b565b86866040516020016128d395949392919061376d565b6040516020818303038152906040529150509392505050565b6000813414612910576040516304fb820960e51b81523460048201526024016109d8565b5090565b60007f00000000000000000000000000000000000000000000000000000000000000006001600160a01b031663e4fe1d946040518163ffffffff1660e01b8152600401602060405180830381865afa158015612974573d6000803e3d6000fd5b505050506040513d601f19601f8201168201806040525081019061299891906137d4565b90506001600160a01b0381166129c1576040516329b99a9560e11b815260040160405180910390fd5b610f8a6001600160a01b038216337f000000000000000000000000000000000000000000000000000000000000000085612a25565b600061ffff821115612910576040516306dfcc6560e41b815260106004820152602481018390526044016109d8565b604080516001600160a01b0385811660248301528416604482015260648082018490528251808303909101815260849091019091526020810180516001600160e01b03166323b872dd60e01b179052612a7f908590612a85565b50505050565b600080602060008451602086016000885af180612aa8576040513d6000823e3d81fd5b50506000513d91508115612ac0578060011415612acd565b6001600160a01b0384163b155b15612a7f57604051635274afe760e01b81526001600160a01b03851660048201526024016109d8565b60405180606001604052806000801916815260200160006001600160401b03168152602001612b38604051806040016040528060008152602001600081525090565b905290565b600060608284031215612b4f57600080fd5b50919050565b60008083601f840112612b6757600080fd5b5081356001600160401b03811115612b7e57600080fd5b602083019150836020828501011115612b9657600080fd5b9250929050565b6001600160a01b038116811461101e57600080fd5b600080600080600080600060e0888a031215612bcd57600080fd5b612bd78989612b3d565b96506060880135955060808801356001600160401b0380821115612bfa57600080fd5b612c068b838c01612b55565b909750955060a08a01359150612c1b82612b9d565b90935060c08901359080821115612c3157600080fd5b50612c3e8a828b01612b55565b989b979a50959850939692959293505050565b600060208284031215612c6357600080fd5b5035919050565b60008083601f840112612c7c57600080fd5b5081356001600160401b03811115612c9357600080fd5b6020830191508360208260051b8501011115612b9657600080fd5b600080600060408486031215612cc357600080fd5b8335925060208401356001600160401b03811115612ce057600080fd5b612cec86828701612c6a565b9497909650939450505050565b60008060008060a08587031215612d0f57600080fd5b612d198686612b3d565b93506060850135925060808501356001600160401b03811115612d3b57600080fd5b612d4787828801612b55565b95989497509550505050565b803563ffffffff81168114612d6757600080fd5b919050565b60008060408385031215612d7f57600080fd5b612d8883612d53565b946020939093013593505050565b803561ffff81168114612d6757600080fd5b60008060408385031215612dbb57600080fd5b612dc483612d53565b9150612dd260208401612d96565b90509250929050565b60005b83811015612df6578181015183820152602001612dde565b50506000910152565b60008151808452612e17816020860160208601612ddb565b601f01601f19169290920160200192915050565b60208152600061287a6020830184612dff565b60008060008060a08587031215612e5457600080fd5b612e5e8686612b3d565b935060608501356001600160401b03811115612e7957600080fd5b612e8587828801612b55565b9094509250506080850135612e9981612b9d565b939692955090935050565b600080600080600060a08688031215612ebc57600080fd5b8535945060208601359350612ed360408701612d53565b9250612ee160608701612d96565b915060808601358015158114612ef657600080fd5b809150509295509295909350565b600060208284031215612f1657600080fd5b61287a82612d53565b6001600160401b038116811461101e57600080fd5b600060208284031215612f4657600080fd5b813561287a81612f1f565b60008060208385031215612f6457600080fd5b82356001600160401b03811115612f7a57600080fd5b612f8685828601612c6a565b90969095509350505050565b60008060008060608587031215612fa857600080fd5b612fb185612d53565b9350612fbf60208601612d96565b925060408501356001600160401b03811115612d3b57600080fd5b600060208284031215612fec57600080fd5b813561287a81612b9d565b60006060828403121561300957600080fd5b61287a8383612b3d565b634e487b7160e01b600052603260045260246000fd5b6000825161303b818460208701612ddb565b9190910192915050565b6020808252810182905260006001600160fb1b0383111561306557600080fd5b8260051b80856040850137919091016040019392505050565b81835281816020850137506000828201602090810191909152601f909101601f19169091010190565b6001600160a01b038616815263ffffffff6130c186612d53565b16602082015260208501356040820152600060408601356130e181612f1f565b6001600160401b03811660608401525084608083015260c060a08301526125a160c08301848661307e565b600181811c9082168061312057607f821691505b602082108103612b4f57634e487b7160e01b600052602260045260246000fd5b60208152815160208201526020820151604082015261ffff60408301511660608201526000606083015163ffffffff80821660808501528060808601511660a0850152505060a083015160c08084015261155b60e0840182612dff565b6000602082840312156131af57600080fd5b5051919050565b634e487b7160e01b600052604160045260246000fd5b604051606081016001600160401b03811182821017156131ee576131ee6131b6565b60405290565b604051601f8201601f191681016001600160401b038111828210171561321c5761321c6131b6565b604052919050565b60006001600160401b038084111561323e5761323e6131b6565b8360051b602061324f8183016131f4565b86815291850191818101903684111561326757600080fd5b865b8481101561333d578035868111156132815760008081fd5b880160603682900312156132955760008081fd5b61329d6131cc565b6132a682612d53565b81526132b3868301612d96565b86820152604080830135898111156132cb5760008081fd5b9290920191601f36818501126132e15760008081fd5b83358a8111156132f3576132f36131b6565b613304818301601f19168a016131f4565b9150808252368982870101111561331b5760008081fd5b808986018a840137600090820189015290820152845250918301918301613269565b50979650505050505050565b6000808585111561335957600080fd5b8386111561336657600080fd5b5050820193919092039150565b60008451613385818460208901612ddb565b8201838582376000930192835250909392505050565b60208152600061155b60208301848661307e565b634e487b7160e01b600052601160045260246000fd5b80820180821115611548576115486133af565b6020808252825182820181905260009190848201906040850190845b81811015613410578351835292840192918401916001016133f4565b50909695505050505050565b6d02932ba393c903330b4b632b21d160951b81526000825161344581600e850160208701612ddb565b91909101600e0192915050565b6040815263ffffffff8351166040820152602083015160608201526000604084015160a0608084015261348860e0840182612dff565b90506060850151603f198483030160a08501526134a58282612dff565b60809690960151151560c08501525050506001600160a01b039190911660209091015290565b6000604082840312156134dd57600080fd5b604051604081018181106001600160401b03821117156134ff576134ff6131b6565b604052825181526020928301519281019290925250919050565b60006040828403121561352b57600080fd5b61287a83836134cb565b60006080828403121561354757600080fd5b61354f6131cc565b82518152602083015161356181612f1f565b602082015261357384604085016134cb565b60408201529392505050565b6001600160e01b03198316815281516000906135a2816004850160208701612ddb565b919091016004019392505050565b601f8211156135fc576000816000526020600020601f850160051c810160208610156135d95750805b601f850160051c820191505b818110156135f8578281556001016135e5565b5050505b505050565b81516001600160401b0381111561361a5761361a6131b6565b61362e81613628845461310c565b846135b0565b602080601f831160018114613663576000841561364b5750858301515b600019600386901b1c1916600185901b1785556135f8565b600085815260208120601f198616915b8281101561369257888601518255948401946001909101908401613673565b50858210156136b05787850151600019600388901b60f8161c191681555b5050505050600190811b01905550565b600060208083018184528085518083526040925060408601915060408160051b87010184880160005b8381101561373d57888303603f190185528151805163ffffffff1684528781015161ffff1688850152860151606087850181905261372981860183612dff565b9689019694505050908601906001016136e9565b509098975050505050505050565b61ffff818116838216019080821115613766576137666133af565b5092915050565b6000865161377f818460208b01612ddb565b6001600160f81b031960f888811b82169285019283526001600160f01b031960f089901b16600184015286901b16600382015283516137c5816004840160208801612ddb565b01600401979650505050505050565b6000602082840312156137e657600080fd5b815161287a81612b9d56fea26469706673582212204838096f13a9718002e2e65659ee68283aaa70dd123cf82c18f9f563c3d2dabf64736f6c63430008160033",
  "devdoc": {
    "errors": {
      "OwnableInvalidOwner(address)": [
        {
          "details": "The owner is not a valid owner account. (eg. `address(0)`)"
        }
      ],
      "OwnableUnauthorizedAccount(address)": [
        {
          "details": "The caller account is not authorized to perform an operation."
        }
      ],
      "SafeCastOverflowedUintDowncast(uint8,uint256)": [
        {
          "details": "Value doesn't fit in an uint of `bits` size."
        }
      ],
      "SafeERC20FailedOperation(address)": [
        {
          "details": "An operation with an ERC-20 token failed."
        }
      ]
    },
    "kind": "dev",
    "methods": {
      "allowInitializePath((uint32,bytes32,uint64))": {
        "details": "This indicates to the endpoint that the OApp has enabled msgs for this particular path to be received.This defaults to assuming if a peer has been set, its initialized. Can be overridden by the OApp if there is other logic to determine this.",
        "params": {
          "origin": "The origin information containing the source endpoint and sender address."
        },
        "returns": {
          "_0": "Whether the path has been initialized."
        }
      },
      "clearStuckMessage((uint32,bytes32,uint64),bytes32,bytes)": {
        "details": "Use this if messages get stuck and need manual clearing",
        "params": {
          "_guid": "Message GUID",
          "_message": "Original message content",
          "_origin": "Original message origin"
        }
      },
      "combineOptions(uint32,uint16,bytes)": {
        "details": "If there is an enforced lzReceive option: - {gasLimit: 200k, msg.value: 1 ether} AND a caller supplies a lzReceive option: {gasLimit: 100k, msg.value: 0.5 ether} - The resulting options will be {gasLimit: 300k, msg.value: 1.5 ether} when the message is executed on the remote lzReceive() function.This presence of duplicated options is handled off-chain in the verifier/executor.",
        "params": {
          "_eid": "The endpoint ID.",
          "_extraOptions": "Additional options passed by the caller.",
          "_msgType": "The OAPP message type."
        },
        "returns": {
          "_0": "options The combination of caller specified options AND enforced options."
        }
      },
      "fundContract()": {
        "details": "Emergency funding function"
      },
      "getContractStatus()": {
        "details": "Check contract status"
      },
      "getRequestById(uint256)": {
        "details": "Get request details by VRF request ID"
      },
      "getRequestBySequence(uint64)": {
        "details": "Get request details by sequence"
      },
      "getVRFConfig()": {
        "details": "Get VRF configuration"
      },
      "isComposeMsgSender((uint32,bytes32,uint64),bytes,address)": {
        "details": "_origin The origin information containing the source endpoint and sender address.  - srcEid: The source chain endpoint ID.  - sender: The sender address on the src chain.  - nonce: The nonce of the message._message The lzReceive payload.Applications can optionally choose to implement separate composeMsg senders that are NOT the bridging layer.The default sender IS the OAppReceiver implementer.",
        "params": {
          "_sender": "The sender address."
        },
        "returns": {
          "_0": "isSender Is a valid sender."
        }
      },
      "lzReceive((uint32,bytes32,uint64),bytes32,bytes,address,bytes)": {
        "details": "Entry point for receiving messages or packets from the endpoint.Entry point for receiving msg/packet from the LayerZero endpoint.",
        "params": {
          "_executor": "The address of the executor for the received message.",
          "_extraData": "Additional arbitrary data provided by the corresponding executor.",
          "_guid": "The unique identifier for the received LayerZero message.",
          "_message": "The payload of the received message.",
          "_origin": "The origin information containing the source endpoint and sender address.  - srcEid: The source chain endpoint ID.  - sender: The sender address on the src chain.  - nonce: The nonce of the message."
        }
      },
      "nextNonce(uint32,bytes32)": {
        "details": "_srcEid The source endpoint ID._sender The sender address.The path nonce starts from 1. If 0 is returned it means that there is NO nonce ordered enforcement.Is required by the off-chain executor to determine the OApp expects msg execution is ordered.This is also enforced by the OApp.By default this is NOT enabled. ie. nextNonce is hardcoded to return 0.",
        "returns": {
          "nonce": "The next nonce."
        }
      },
      "oAppVersion()": {
        "returns": {
          "receiverVersion": "The version of the OAppReceiver.sol implementation.",
          "senderVersion": "The version of the OAppSender.sol implementation."
        }
      },
      "owner()": {
        "details": "Returns the address of the current owner."
      },
      "quoteSendToSonic()": {
        "details": "Provides accurate fee estimation for responses"
      },
      "rawFulfillRandomWords(uint256,uint256[])": {
        "details": "This function is called by the VRF Coordinator when randomness is ready",
        "params": {
          "randomWords": "Array of random words",
          "requestId": "The request ID"
        }
      },
      "renounceOwnership()": {
        "details": "Leaves the contract without owner. It will not be possible to call `onlyOwner` functions. Can only be called by the current owner. NOTE: Renouncing ownership will leave the contract without an owner, thereby disabling any functionality that is only available to the owner."
      },
      "retryPendingResponse(uint64)": {
        "details": "Call this after funding the contract to retry failed responses",
        "params": {
          "sequence": "The sequence number to retry"
        }
      },
      "sendResponseToSonic(uint256)": {
        "details": "Uses proper fee calculation and LayerZero V2 options encoding",
        "params": {
          "requestId": "The VRF request ID"
        }
      },
      "setDelegate(address)": {
        "details": "Only the owner/admin of the OApp can call this function.Provides the ability for a delegate to set configs, on behalf of the OApp, directly on the Endpoint contract.",
        "params": {
          "_delegate": "The address of the delegate to be set."
        }
      },
      "setEnforcedOptions((uint32,uint16,bytes)[])": {
        "details": "Sets the enforced options for specific endpoint and message type combinations.Only the owner/admin of the OApp can call this function.Provides a way for the OApp to enforce things like paying for PreCrime, AND/OR minimum dst lzReceive gas amounts etc.These enforced options can vary as the potential options/execution on the remote may differ as per the msgType. eg. Amount of lzReceive() gas necessary to deliver a lzCompose() message adds overhead you dont want to pay if you are only making a standard LayerZero message ie. lzReceive() WITHOUT sendCompose().",
        "params": {
          "_enforcedOptions": "An array of EnforcedOptionParam structures specifying enforced options."
        }
      },
      "setMinimumBalance(uint256)": {
        "details": "Set minimum balance for responses (owner only)"
      },
      "setPeer(uint32,bytes32)": {
        "details": "Only the owner/admin of the OApp can call this function.Indicates that the peer is trusted to send LayerZero messages to this OApp.Set this to bytes32(0) to remove the peer address.Peer is a bytes32 to accommodate non-evm chains.",
        "params": {
          "_eid": "The endpoint ID.",
          "_peer": "The address of the peer to be associated with the corresponding endpoint."
        }
      },
      "setSonicGasLimit(uint32)": {
        "details": "Set Sonic gas limit (owner only)"
      },
      "setVRFConfig(uint256,bytes32,uint32,uint16,bool)": {
        "details": "Set VRF 2.5 configuration (owner only)"
      },
      "testVRFRequest()": {
        "details": "Test VRF request function (owner only) - for testing purposes Uses the CORRECT VRF 2.5 struct format"
      },
      "transferOwnership(address)": {
        "details": "Transfers ownership of the contract to a new account (`newOwner`). Can only be called by the current owner."
      },
      "withdraw()": {
        "details": "Withdraw ETH (owner only)"
      }
    },
    "title": "OmniDragonVRFConsumerV2_5",
    "version": 1
  },
  "userdoc": {
    "kind": "user",
    "methods": {
      "allowInitializePath((uint32,bytes32,uint64))": {
        "notice": "Checks if the path initialization is allowed based on the provided origin."
      },
      "clearStuckMessage((uint32,bytes32,uint64),bytes32,bytes)": {
        "notice": "LayerZero V2 clear method for manual message recovery"
      },
      "combineOptions(uint32,uint16,bytes)": {
        "notice": "Combines options for a given endpoint and message type."
      },
      "endpoint()": {
        "notice": "Retrieves the LayerZero endpoint associated with the OApp."
      },
      "isComposeMsgSender((uint32,bytes32,uint64),bytes,address)": {
        "notice": "Indicates whether an address is an approved composeMsg sender to the Endpoint."
      },
      "nextNonce(uint32,bytes32)": {
        "notice": "Retrieves the next nonce for a given source endpoint and sender address."
      },
      "oAppVersion()": {
        "notice": "Retrieves the OApp version information."
      },
      "peers(uint32)": {
        "notice": "Retrieves the peer (OApp) associated with a corresponding endpoint."
      },
      "quoteSendToSonic()": {
        "notice": "FIXED: Quote LayerZero fee for sending response to Sonic"
      },
      "rawFulfillRandomWords(uint256,uint256[])": {
        "notice": "Callback function used by VRF Coordinator"
      },
      "retryPendingResponse(uint64)": {
        "notice": "Manual retry for pending responses"
      },
      "sendResponseToSonic(uint256)": {
        "notice": "FIXED: Send response back to Sonic with proper LayerZero V2 options"
      },
      "setDelegate(address)": {
        "notice": "Sets the delegate address for the OApp."
      },
      "setPeer(uint32,bytes32)": {
        "notice": "Sets the peer address (OApp instance) for a corresponding endpoint."
      }
    },
    "notice": "Resides on Arbitrum. Receives requests from Sonic, gets randomness from Chainlink VRF 2.5, and sends it back.",
    "version": 1
  },
  "storageLayout": {
    "storage": [
      {
        "astId": 3065,
        "contract": "contracts/OmniDragonVRFConsumerV2_5.sol:OmniDragonVRFConsumerV2_5",
        "label": "_owner",
        "offset": 0,
        "slot": "0",
        "type": "t_address"
      },
      {
        "astId": 1909,
        "contract": "contracts/OmniDragonVRFConsumerV2_5.sol:OmniDragonVRFConsumerV2_5",
        "label": "peers",
        "offset": 0,
        "slot": "1",
        "type": "t_mapping(t_uint32,t_bytes32)"
      },
      {
        "astId": 2505,
        "contract": "contracts/OmniDragonVRFConsumerV2_5.sol:OmniDragonVRFConsumerV2_5",
        "label": "enforcedOptions",
        "offset": 0,
        "slot": "2",
        "type": "t_mapping(t_uint32,t_mapping(t_uint16,t_bytes_storage))"
      },
      {
        "astId": 6530,
        "contract": "contracts/OmniDragonVRFConsumerV2_5.sol:OmniDragonVRFConsumerV2_5",
        "label": "subscriptionId",
        "offset": 0,
        "slot": "3",
        "type": "t_uint256"
      },
      {
        "astId": 6532,
        "contract": "contracts/OmniDragonVRFConsumerV2_5.sol:OmniDragonVRFConsumerV2_5",
        "label": "keyHash",
        "offset": 0,
        "slot": "4",
        "type": "t_bytes32"
      },
      {
        "astId": 6535,
        "contract": "contracts/OmniDragonVRFConsumerV2_5.sol:OmniDragonVRFConsumerV2_5",
        "label": "callbackGasLimit",
        "offset": 0,
        "slot": "5",
        "type": "t_uint32"
      },
      {
        "astId": 6538,
        "contract": "contracts/OmniDragonVRFConsumerV2_5.sol:OmniDragonVRFConsumerV2_5",
        "label": "requestConfirmations",
        "offset": 4,
        "slot": "5",
        "type": "t_uint16"
      },
      {
        "astId": 6541,
        "contract": "contracts/OmniDragonVRFConsumerV2_5.sol:OmniDragonVRFConsumerV2_5",
        "label": "numWords",
        "offset": 6,
        "slot": "5",
        "type": "t_uint32"
      },
      {
        "astId": 6544,
        "contract": "contracts/OmniDragonVRFConsumerV2_5.sol:OmniDragonVRFConsumerV2_5",
        "label": "nativePayment",
        "offset": 10,
        "slot": "5",
        "type": "t_bool"
      },
      {
        "astId": 6562,
        "contract": "contracts/OmniDragonVRFConsumerV2_5.sol:OmniDragonVRFConsumerV2_5",
        "label": "vrfRequests",
        "offset": 0,
        "slot": "6",
        "type": "t_mapping(t_uint256,t_struct(VRFRequest)6557_storage)"
      },
      {
        "astId": 6566,
        "contract": "contracts/OmniDragonVRFConsumerV2_5.sol:OmniDragonVRFConsumerV2_5",
        "label": "sequenceToRequestId",
        "offset": 0,
        "slot": "7",
        "type": "t_mapping(t_uint64,t_uint256)"
      },
      {
        "astId": 6570,
        "contract": "contracts/OmniDragonVRFConsumerV2_5.sol:OmniDragonVRFConsumerV2_5",
        "label": "pendingResponses",
        "offset": 0,
        "slot": "8",
        "type": "t_mapping(t_uint64,t_bool)"
      },
      {
        "astId": 6573,
        "contract": "contracts/OmniDragonVRFConsumerV2_5.sol:OmniDragonVRFConsumerV2_5",
        "label": "minimumBalance",
        "offset": 0,
        "slot": "9",
        "type": "t_uint256"
      },
      {
        "astId": 6576,
        "contract": "contracts/OmniDragonVRFConsumerV2_5.sol:OmniDragonVRFConsumerV2_5",
        "label": "sonicGasLimit",
        "offset": 0,
        "slot": "10",
        "type": "t_uint32"
      }
    ],
    "types": {
      "t_address": {
        "encoding": "inplace",
        "label": "address",
        "numberOfBytes": "20"
      },
      "t_bool": {
        "encoding": "inplace",
        "label": "bool",
        "numberOfBytes": "1"
      },
      "t_bytes32": {
        "encoding": "inplace",
        "label": "bytes32",
        "numberOfBytes": "32"
      },
      "t_bytes_storage": {
        "encoding": "bytes",
        "label": "bytes",
        "numberOfBytes": "32"
      },
      "t_mapping(t_uint16,t_bytes_storage)": {
        "encoding": "mapping",
        "key": "t_uint16",
        "label": "mapping(uint16 => bytes)",
        "numberOfBytes": "32",
        "value": "t_bytes_storage"
      },
      "t_mapping(t_uint256,t_struct(VRFRequest)6557_storage)": {
        "encoding": "mapping",
        "key": "t_uint256",
        "label": "mapping(uint256 => struct OmniDragonVRFConsumerV2_5.VRFRequest)",
        "numberOfBytes": "32",
        "value": "t_struct(VRFRequest)6557_storage"
      },
      "t_mapping(t_uint32,t_bytes32)": {
        "encoding": "mapping",
        "key": "t_uint32",
        "label": "mapping(uint32 => bytes32)",
        "numberOfBytes": "32",
        "value": "t_bytes32"
      },
      "t_mapping(t_uint32,t_mapping(t_uint16,t_bytes_storage))": {
        "encoding": "mapping",
        "key": "t_uint32",
        "label": "mapping(uint32 => mapping(uint16 => bytes))",
        "numberOfBytes": "32",
        "value": "t_mapping(t_uint16,t_bytes_storage)"
      },
      "t_mapping(t_uint64,t_bool)": {
        "encoding": "mapping",
        "key": "t_uint64",
        "label": "mapping(uint64 => bool)",
        "numberOfBytes": "32",
        "value": "t_bool"
      },
      "t_mapping(t_uint64,t_uint256)": {
        "encoding": "mapping",
        "key": "t_uint64",
        "label": "mapping(uint64 => uint256)",
        "numberOfBytes": "32",
        "value": "t_uint256"
      },
      "t_struct(VRFRequest)6557_storage": {
        "encoding": "inplace",
        "label": "struct OmniDragonVRFConsumerV2_5.VRFRequest",
        "members": [
          {
            "astId": 6546,
            "contract": "contracts/OmniDragonVRFConsumerV2_5.sol:OmniDragonVRFConsumerV2_5",
            "label": "sequence",
            "offset": 0,
            "slot": "0",
            "type": "t_uint64"
          },
          {
            "astId": 6548,
            "contract": "contracts/OmniDragonVRFConsumerV2_5.sol:OmniDragonVRFConsumerV2_5",
            "label": "sonicPeer",
            "offset": 0,
            "slot": "1",
            "type": "t_bytes32"
          },
          {
            "astId": 6550,
            "contract": "contracts/OmniDragonVRFConsumerV2_5.sol:OmniDragonVRFConsumerV2_5",
            "label": "randomWord",
            "offset": 0,
            "slot": "2",
            "type": "t_uint256"
          },
          {
            "astId": 6552,
            "contract": "contracts/OmniDragonVRFConsumerV2_5.sol:OmniDragonVRFConsumerV2_5",
            "label": "fulfilled",
            "offset": 0,
            "slot": "3",
            "type": "t_bool"
          },
          {
            "astId": 6554,
            "contract": "contracts/OmniDragonVRFConsumerV2_5.sol:OmniDragonVRFConsumerV2_5",
            "label": "responseSent",
            "offset": 1,
            "slot": "3",
            "type": "t_bool"
          },
          {
            "astId": 6556,
            "contract": "contracts/OmniDragonVRFConsumerV2_5.sol:OmniDragonVRFConsumerV2_5",
            "label": "timestamp",
            "offset": 0,
            "slot": "4",
            "type": "t_uint256"
          }
        ],
        "numberOfBytes": "160"
      },
      "t_uint16": {
        "encoding": "inplace",
        "label": "uint16",
        "numberOfBytes": "2"
      },
      "t_uint256": {
        "encoding": "inplace",
        "label": "uint256",
        "numberOfBytes": "32"
      },
      "t_uint32": {
        "encoding": "inplace",
        "label": "uint32",
        "numberOfBytes": "4"
      },
      "t_uint64": {
        "encoding": "inplace",
        "label": "uint64",
        "numberOfBytes": "8"
      }
    }
  }
}