{
  "address": "0x3ba704d1C7d3ae29dB6CA1dA3184964FCFe9412E",
  "abi": [
    {
      "inputs": [
        {
          "internalType": "address",
          "name": "_placeholderEndpoint",
          "type": "address"
        },
        {
          "internalType": "address",
          "name": "_feeMAddress",
          "type": "address"
        },
        {
          "internalType": "address",
          "name": "_initialOwner",
          "type": "address"
        }
      ],
      "stateMutability": "nonpayable",
      "type": "constructor"
    },
    {
      "inputs": [
        {
          "internalType": "uint16",
          "name": "chainId",
          "type": "uint16"
        }
      ],
      "name": "ChainAlreadyRegistered",
      "type": "error"
    },
    {
      "inputs": [
        {
          "internalType": "uint16",
          "name": "chainId",
          "type": "uint16"
        }
      ],
      "name": "ChainNotRegistered",
      "type": "error"
    },
    {
      "inputs": [],
      "name": "DelegateCallFailed",
      "type": "error"
    },
    {
      "inputs": [],
      "name": "EndpointAlreadyUpdated",
      "type": "error"
    },
    {
      "inputs": [],
      "name": "EnforcedPause",
      "type": "error"
    },
    {
      "inputs": [],
      "name": "ExpectedPause",
      "type": "error"
    },
    {
      "inputs": [],
      "name": "InsufficientSignatures",
      "type": "error"
    },
    {
      "inputs": [],
      "name": "NoUpdatePending",
      "type": "error"
    },
    {
      "inputs": [
        {
          "internalType": "address",
          "name": "owner",
          "type": "address"
        }
      ],
      "name": "OwnableInvalidOwner",
      "type": "error"
    },
    {
      "inputs": [
        {
          "internalType": "address",
          "name": "account",
          "type": "address"
        }
      ],
      "name": "OwnableUnauthorizedAccount",
      "type": "error"
    },
    {
      "inputs": [],
      "name": "ReentrancyGuardReentrantCall",
      "type": "error"
    },
    {
      "inputs": [],
      "name": "TimelockNotExpired",
      "type": "error"
    },
    {
      "inputs": [],
      "name": "UnauthorizedSigner",
      "type": "error"
    },
    {
      "inputs": [],
      "name": "UpdateAlreadyExecuted",
      "type": "error"
    },
    {
      "inputs": [],
      "name": "UpdatedPeriodExpired",
      "type": "error"
    },
    {
      "inputs": [],
      "name": "ZeroAddress",
      "type": "error"
    },
    {
      "anonymous": false,
      "inputs": [
        {
          "indexed": true,
          "internalType": "uint16",
          "name": "chainId",
          "type": "uint16"
        },
        {
          "indexed": false,
          "internalType": "string",
          "name": "chainName",
          "type": "string"
        }
      ],
      "name": "ChainRegistered",
      "type": "event"
    },
    {
      "anonymous": false,
      "inputs": [
        {
          "indexed": true,
          "internalType": "uint16",
          "name": "chainId",
          "type": "uint16"
        },
        {
          "indexed": false,
          "internalType": "bool",
          "name": "isActive",
          "type": "bool"
        }
      ],
      "name": "ChainStatusChanged",
      "type": "event"
    },
    {
      "anonymous": false,
      "inputs": [
        {
          "indexed": true,
          "internalType": "uint16",
          "name": "chainId",
          "type": "uint16"
        }
      ],
      "name": "ChainUpdated",
      "type": "event"
    },
    {
      "anonymous": false,
      "inputs": [
        {
          "indexed": true,
          "internalType": "uint16",
          "name": "chainId",
          "type": "uint16"
        }
      ],
      "name": "CurrentChainSet",
      "type": "event"
    },
    {
      "anonymous": false,
      "inputs": [
        {
          "indexed": true,
          "internalType": "address",
          "name": "newEndpoint",
          "type": "address"
        },
        {
          "indexed": false,
          "internalType": "uint256",
          "name": "executeAfter",
          "type": "uint256"
        }
      ],
      "name": "EndpointUpdateProposed",
      "type": "event"
    },
    {
      "anonymous": false,
      "inputs": [],
      "name": "EndpointUpdateRevoked",
      "type": "event"
    },
    {
      "anonymous": false,
      "inputs": [
        {
          "indexed": true,
          "internalType": "address",
          "name": "oldEndpoint",
          "type": "address"
        },
        {
          "indexed": true,
          "internalType": "address",
          "name": "newEndpoint",
          "type": "address"
        }
      ],
      "name": "EndpointUpdated",
      "type": "event"
    },
    {
      "anonymous": false,
      "inputs": [
        {
          "indexed": true,
          "internalType": "address",
          "name": "oldAddress",
          "type": "address"
        },
        {
          "indexed": true,
          "internalType": "address",
          "name": "newAddress",
          "type": "address"
        }
      ],
      "name": "FeeMAddressUpdated",
      "type": "event"
    },
    {
      "anonymous": false,
      "inputs": [
        {
          "indexed": true,
          "internalType": "address",
          "name": "previousOwner",
          "type": "address"
        },
        {
          "indexed": true,
          "internalType": "address",
          "name": "newOwner",
          "type": "address"
        }
      ],
      "name": "OwnershipTransferred",
      "type": "event"
    },
    {
      "anonymous": false,
      "inputs": [
        {
          "indexed": false,
          "internalType": "address",
          "name": "account",
          "type": "address"
        }
      ],
      "name": "Paused",
      "type": "event"
    },
    {
      "anonymous": false,
      "inputs": [
        {
          "indexed": false,
          "internalType": "uint256",
          "name": "newRequirement",
          "type": "uint256"
        }
      ],
      "name": "RequiredSignaturesUpdated",
      "type": "event"
    },
    {
      "anonymous": false,
      "inputs": [
        {
          "indexed": true,
          "internalType": "address",
          "name": "signer",
          "type": "address"
        },
        {
          "indexed": false,
          "internalType": "bool",
          "name": "authorized",
          "type": "bool"
        }
      ],
      "name": "SignerAuthorized",
      "type": "event"
    },
    {
      "anonymous": false,
      "inputs": [
        {
          "indexed": false,
          "internalType": "address",
          "name": "account",
          "type": "address"
        }
      ],
      "name": "Unpaused",
      "type": "event"
    },
    {
      "stateMutability": "payable",
      "type": "fallback"
    },
    {
      "inputs": [
        {
          "internalType": "address",
          "name": "",
          "type": "address"
        }
      ],
      "name": "authorizedSigners",
      "outputs": [
        {
          "internalType": "bool",
          "name": "",
          "type": "bool"
        }
      ],
      "stateMutability": "view",
      "type": "function"
    },
    {
      "inputs": [
        {
          "internalType": "uint256",
          "name": "",
          "type": "uint256"
        }
      ],
      "name": "chainIdToEid",
      "outputs": [
        {
          "internalType": "uint32",
          "name": "",
          "type": "uint32"
        }
      ],
      "stateMutability": "view",
      "type": "function"
    },
    {
      "inputs": [],
      "name": "checkFeeMStatus",
      "outputs": [
        {
          "internalType": "bool",
          "name": "isRegistered",
          "type": "bool"
        }
      ],
      "stateMutability": "view",
      "type": "function"
    },
    {
      "inputs": [
        {
          "internalType": "uint32",
          "name": "",
          "type": "uint32"
        }
      ],
      "name": "eidToChainId",
      "outputs": [
        {
          "internalType": "uint256",
          "name": "",
          "type": "uint256"
        }
      ],
      "stateMutability": "view",
      "type": "function"
    },
    {
      "inputs": [],
      "name": "executeEndpointUpdate",
      "outputs": [],
      "stateMutability": "nonpayable",
      "type": "function"
    },
    {
      "inputs": [],
      "name": "feeMAddress",
      "outputs": [
        {
          "internalType": "address",
          "name": "",
          "type": "address"
        }
      ],
      "stateMutability": "view",
      "type": "function"
    },
    {
      "inputs": [
        {
          "internalType": "uint16",
          "name": "_chainId",
          "type": "uint16"
        }
      ],
      "name": "getChainConfig",
      "outputs": [
        {
          "components": [
            {
              "internalType": "uint16",
              "name": "chainId",
              "type": "uint16"
            },
            {
              "internalType": "string",
              "name": "chainName",
              "type": "string"
            },
            {
              "internalType": "address",
              "name": "wrappedNativeToken",
              "type": "address"
            },
            {
              "internalType": "address",
              "name": "lotteryManager",
              "type": "address"
            },
            {
              "internalType": "address",
              "name": "randomnessProvider",
              "type": "address"
            },
            {
              "internalType": "address",
              "name": "priceOracle",
              "type": "address"
            },
            {
              "internalType": "address",
              "name": "vrfConsumer",
              "type": "address"
            },
            {
              "internalType": "address",
              "name": "dragonToken",
              "type": "address"
            },
            {
              "internalType": "bool",
              "name": "isActive",
              "type": "bool"
            }
          ],
          "internalType": "struct IChainRegistry.ChainConfig",
          "name": "",
          "type": "tuple"
        }
      ],
      "stateMutability": "view",
      "type": "function"
    },
    {
      "inputs": [],
      "name": "getCurrentChainId",
      "outputs": [
        {
          "internalType": "uint16",
          "name": "",
          "type": "uint16"
        }
      ],
      "stateMutability": "view",
      "type": "function"
    },
    {
      "inputs": [
        {
          "internalType": "uint16",
          "name": "_chainId",
          "type": "uint16"
        }
      ],
      "name": "getDragonToken",
      "outputs": [
        {
          "internalType": "address",
          "name": "",
          "type": "address"
        }
      ],
      "stateMutability": "view",
      "type": "function"
    },
    {
      "inputs": [
        {
          "internalType": "uint16",
          "name": "_chainId",
          "type": "uint16"
        }
      ],
      "name": "getLotteryManager",
      "outputs": [
        {
          "internalType": "address",
          "name": "",
          "type": "address"
        }
      ],
      "stateMutability": "view",
      "type": "function"
    },
    {
      "inputs": [
        {
          "internalType": "uint16",
          "name": "_chainId",
          "type": "uint16"
        }
      ],
      "name": "getPriceOracle",
      "outputs": [
        {
          "internalType": "address",
          "name": "",
          "type": "address"
        }
      ],
      "stateMutability": "view",
      "type": "function"
    },
    {
      "inputs": [
        {
          "internalType": "uint16",
          "name": "_chainId",
          "type": "uint16"
        }
      ],
      "name": "getRandomnessProvider",
      "outputs": [
        {
          "internalType": "address",
          "name": "",
          "type": "address"
        }
      ],
      "stateMutability": "view",
      "type": "function"
    },
    {
      "inputs": [],
      "name": "getSupportedChains",
      "outputs": [
        {
          "internalType": "uint16[]",
          "name": "",
          "type": "uint16[]"
        }
      ],
      "stateMutability": "view",
      "type": "function"
    },
    {
      "inputs": [
        {
          "internalType": "uint16",
          "name": "_chainId",
          "type": "uint16"
        }
      ],
      "name": "getSwapTrigger",
      "outputs": [
        {
          "internalType": "address",
          "name": "",
          "type": "address"
        }
      ],
      "stateMutability": "view",
      "type": "function"
    },
    {
      "inputs": [
        {
          "internalType": "uint16",
          "name": "_chainId",
          "type": "uint16"
        }
      ],
      "name": "getVRFConsumer",
      "outputs": [
        {
          "internalType": "address",
          "name": "",
          "type": "address"
        }
      ],
      "stateMutability": "view",
      "type": "function"
    },
    {
      "inputs": [
        {
          "internalType": "uint16",
          "name": "_chainId",
          "type": "uint16"
        }
      ],
      "name": "getWrappedNativeToken",
      "outputs": [
        {
          "internalType": "address",
          "name": "",
          "type": "address"
        }
      ],
      "stateMutability": "view",
      "type": "function"
    },
    {
      "inputs": [
        {
          "internalType": "uint16",
          "name": "_chainId",
          "type": "uint16"
        }
      ],
      "name": "isChainSupported",
      "outputs": [
        {
          "internalType": "bool",
          "name": "",
          "type": "bool"
        }
      ],
      "stateMutability": "view",
      "type": "function"
    },
    {
      "inputs": [],
      "name": "isEndpointUpdated",
      "outputs": [
        {
          "internalType": "bool",
          "name": "",
          "type": "bool"
        }
      ],
      "stateMutability": "view",
      "type": "function"
    },
    {
      "inputs": [],
      "name": "lzEndpointAddress",
      "outputs": [
        {
          "internalType": "address",
          "name": "",
          "type": "address"
        }
      ],
      "stateMutability": "view",
      "type": "function"
    },
    {
      "inputs": [],
      "name": "owner",
      "outputs": [
        {
          "internalType": "address",
          "name": "",
          "type": "address"
        }
      ],
      "stateMutability": "view",
      "type": "function"
    },
    {
      "inputs": [],
      "name": "paused",
      "outputs": [
        {
          "internalType": "bool",
          "name": "",
          "type": "bool"
        }
      ],
      "stateMutability": "view",
      "type": "function"
    },
    {
      "inputs": [],
      "name": "pendingEndpointUpdate",
      "outputs": [
        {
          "internalType": "address",
          "name": "newEndpoint",
          "type": "address"
        },
        {
          "internalType": "uint256",
          "name": "proposedAt",
          "type": "uint256"
        },
        {
          "internalType": "bool",
          "name": "executed",
          "type": "bool"
        }
      ],
      "stateMutability": "view",
      "type": "function"
    },
    {
      "inputs": [
        {
          "internalType": "address",
          "name": "_newEndpoint",
          "type": "address"
        }
      ],
      "name": "proposeEndpointUpdate",
      "outputs": [],
      "stateMutability": "nonpayable",
      "type": "function"
    },
    {
      "inputs": [
        {
          "internalType": "uint16",
          "name": "_chainId",
          "type": "uint16"
        },
        {
          "internalType": "string",
          "name": "_chainName",
          "type": "string"
        },
        {
          "internalType": "address",
          "name": "_wrappedNativeToken",
          "type": "address"
        },
        {
          "internalType": "address",
          "name": "_lotteryManager",
          "type": "address"
        },
        {
          "internalType": "address",
          "name": "_randomnessProvider",
          "type": "address"
        },
        {
          "internalType": "address",
          "name": "_priceOracle",
          "type": "address"
        },
        {
          "internalType": "address",
          "name": "_vrfConsumer",
          "type": "address"
        },
        {
          "internalType": "address",
          "name": "_dragonToken",
          "type": "address"
        }
      ],
      "name": "registerChain",
      "outputs": [],
      "stateMutability": "nonpayable",
      "type": "function"
    },
    {
      "inputs": [],
      "name": "renounceOwnership",
      "outputs": [],
      "stateMutability": "nonpayable",
      "type": "function"
    },
    {
      "inputs": [],
      "name": "requiredSignatures",
      "outputs": [
        {
          "internalType": "uint256",
          "name": "",
          "type": "uint256"
        }
      ],
      "stateMutability": "view",
      "type": "function"
    },
    {
      "inputs": [],
      "name": "revokePendingEndpointUpdate",
      "outputs": [],
      "stateMutability": "nonpayable",
      "type": "function"
    },
    {
      "inputs": [
        {
          "internalType": "address",
          "name": "_signer",
          "type": "address"
        },
        {
          "internalType": "bool",
          "name": "_authorized",
          "type": "bool"
        }
      ],
      "name": "setAuthorizedSigner",
      "outputs": [],
      "stateMutability": "nonpayable",
      "type": "function"
    },
    {
      "inputs": [
        {
          "internalType": "uint16",
          "name": "_chainId",
          "type": "uint16"
        },
        {
          "internalType": "bool",
          "name": "_isActive",
          "type": "bool"
        }
      ],
      "name": "setChainActive",
      "outputs": [],
      "stateMutability": "nonpayable",
      "type": "function"
    },
    {
      "inputs": [
        {
          "internalType": "uint16",
          "name": "_chainId",
          "type": "uint16"
        }
      ],
      "name": "setCurrentChainId",
      "outputs": [],
      "stateMutability": "nonpayable",
      "type": "function"
    },
    {
      "inputs": [
        {
          "internalType": "uint256",
          "name": "_required",
          "type": "uint256"
        }
      ],
      "name": "setRequiredSignatures",
      "outputs": [],
      "stateMutability": "nonpayable",
      "type": "function"
    },
    {
      "inputs": [
        {
          "internalType": "bytes32",
          "name": "",
          "type": "bytes32"
        }
      ],
      "name": "signatureCount",
      "outputs": [
        {
          "internalType": "uint256",
          "name": "",
          "type": "uint256"
        }
      ],
      "stateMutability": "view",
      "type": "function"
    },
    {
      "inputs": [
        {
          "internalType": "bytes32",
          "name": "",
          "type": "bytes32"
        },
        {
          "internalType": "address",
          "name": "",
          "type": "address"
        }
      ],
      "name": "signatures",
      "outputs": [
        {
          "internalType": "bool",
          "name": "",
          "type": "bool"
        }
      ],
      "stateMutability": "view",
      "type": "function"
    },
    {
      "inputs": [
        {
          "internalType": "address",
          "name": "newOwner",
          "type": "address"
        }
      ],
      "name": "transferOwnership",
      "outputs": [],
      "stateMutability": "nonpayable",
      "type": "function"
    },
    {
      "inputs": [
        {
          "internalType": "uint16",
          "name": "_chainId",
          "type": "uint16"
        },
        {
          "internalType": "address",
          "name": "_wrappedNativeToken",
          "type": "address"
        },
        {
          "internalType": "address",
          "name": "_lotteryManager",
          "type": "address"
        },
        {
          "internalType": "address",
          "name": "_randomnessProvider",
          "type": "address"
        },
        {
          "internalType": "address",
          "name": "_priceOracle",
          "type": "address"
        },
        {
          "internalType": "address",
          "name": "_vrfConsumer",
          "type": "address"
        },
        {
          "internalType": "address",
          "name": "_dragonToken",
          "type": "address"
        }
      ],
      "name": "updateChain",
      "outputs": [],
      "stateMutability": "nonpayable",
      "type": "function"
    },
    {
      "inputs": [],
      "name": "updateDeadline",
      "outputs": [
        {
          "internalType": "uint256",
          "name": "",
          "type": "uint256"
        }
      ],
      "stateMutability": "view",
      "type": "function"
    },
    {
      "inputs": [
        {
          "internalType": "address",
          "name": "_newEndpoint",
          "type": "address"
        }
      ],
      "name": "updateEndpoint",
      "outputs": [],
      "stateMutability": "nonpayable",
      "type": "function"
    },
    {
      "inputs": [
        {
          "internalType": "address",
          "name": "_newFeeMAddress",
          "type": "address"
        }
      ],
      "name": "updateFeeMAddress",
      "outputs": [],
      "stateMutability": "nonpayable",
      "type": "function"
    },
    {
      "stateMutability": "payable",
      "type": "receive"
    }
  ],
  "transactionHash": "0xd554478d5c76553439873d6f43e2577dc7ead2b78c403a156c163fc9e3a2b7d9",
  "args": [
    "0x6F475642a6e85809B1c36Fa62763669b1b48DD5B",
    "0xDDd0050d1E084dFc72d5d06447Cc10bcD3fEF60F",
    "0xDDd0050d1E084dFc72d5d06447Cc10bcD3fEF60F"
  ],
  "numDeployments": 2,
  "solcInputHash": "7b4a73482a2577a275f25c1fa8d9e216",
  "bytecode": "0x60a06040526001600b553480156200001657600080fd5b50604051620023a3380380620023a38339810160408190526200003991620001cb565b806001600160a01b0381166200006957604051631e4fbdf760e01b81526000600482015260240160405180910390fd5b62000074816200015e565b506000805460ff60a01b19169055600180556004805461ffff191661014c1790556001600160a01b038316620000bd5760405163d92e233d60e01b815260040160405180910390fd5b600480546001600160a01b03808616620100000262010000600160b01b0319909216919091179091558216620001065760405163d92e233d60e01b815260040160405180910390fd5b600580546001600160a01b0319166001600160a01b0384161790556200013062093a804262000215565b6080526001600160a01b03166000908152600a60205260409020805460ff19166001179055506200023d9050565b600080546001600160a01b038381166001600160a01b0319831681178455604051919092169283917f8be0079c531659141344cd1fd0a4f28419497f9722a3daafe3b4186f6b6457e09190a35050565b80516001600160a01b0381168114620001c657600080fd5b919050565b600080600060608486031215620001e157600080fd5b620001ec84620001ae565b9250620001fc60208501620001ae565b91506200020c60408501620001ae565b90509250925092565b808201808211156200023757634e487b7160e01b600052601160045260246000fd5b92915050565b60805161213c62000267600039600081816102d7015281816111710152611600015261213c6000f3fe6080604052600436106102895760003560e01c80638d06804311610153578063bddc6da2116100cb578063d59d005d1161007f578063ed1568be11610064578063ed1568be146107b2578063f151e497146107d2578063f2fde38b1461081a57610290565b8063d59d005d14610607578063dc18fa951461077757610290565b8063c4bffe2b116100b0578063c4bffe2b14610721578063ce65ec1b14610743578063d533fe1e1461075757610290565b8063bddc6da2146106d4578063c17786a0146106f457610290565b8063a7170d4811610122578063addbfbac11610107578063addbfbac14610667578063b3cc026d14610687578063b73e1b61146106b457610290565b8063a7170d4814610627578063aa1782981461064757610290565b80638d068043146105b35780638da5cb5b146105c957806393029fa7146105e75780639d3b89ba1461060757610290565b80633ae718f0116102015780635d2b6a4e116101b5578063768071111161019a57806376807111146105405780637d2b9cc0146105665780638b42babd1461058657610290565b80635d2b6a4e146104fb578063715018a61461052b57610290565b80634af91330116101e65780634af91330146104995780635c975abb146104b95780635cf0e8a4146104d857610290565b80633ae718f01461045957806340ec1b8b1461047957610290565b80631e8d846a116102585780632775b9101161023d5780632775b910146103d557806328f41de3146103ea5780633a07b8301461042157610290565b80631e8d846a146103a057806324bb7293146103b557610290565b80630214cafc146102c857806305fa92d91461030a5780630721ed461461032e578063099010391461034e57610290565b3661029057005b6004546201000090046001600160a01b03163660008037600080366000845af43d6000803e8080156102c1573d6000f35b3d6000fd5b005b3480156102d457600080fd5b507f00000000000000000000000000000000000000000000000000000000000000005b6040519081526020015b60405180910390f35b34801561031657600080fd5b5060095460ff165b6040519015158152602001610301565b34801561033a57600080fd5b506102c6610349366004611b5e565b61083a565b34801561035a57600080fd5b50600654600754600854610379926001600160a01b0316919060ff1683565b604080516001600160a01b0390941684526020840192909252151590820152606001610301565b3480156103ac57600080fd5b506102c661090b565b3480156103c157600080fd5b506102c66103d0366004611b91565b610b71565b3480156103e157600080fd5b506102c6610bb9565b3480156103f657600080fd5b5061031e610405366004611b91565b61ffff9081166000818152600260205260409020549091161490565b34801561042d57600080fd5b5061044161043c366004611b91565b610cb3565b6040516001600160a01b039091168152602001610301565b34801561046557600080fd5b506102c6610474366004611bca565b610d12565b34801561048557600080fd5b506102c6610494366004611be6565b610d99565b3480156104a557600080fd5b506104416104b4366004611b91565b610f4d565b3480156104c557600080fd5b50600054600160a01b900460ff1661031e565b3480156104e457600080fd5b5060045460405161ffff9091168152602001610301565b34801561050757600080fd5b5061031e610516366004611c6c565b600a6020526000908152604090205460ff1681565b34801561053757600080fd5b506102c6610fac565b34801561054c57600080fd5b50600454610441906201000090046001600160a01b031681565b34801561057257600080fd5b506102c6610581366004611c87565b610fc0565b34801561059257600080fd5b506102f76105a1366004611ca0565b600f6020526000908152604090205481565b3480156105bf57600080fd5b506102f7600b5481565b3480156105d557600080fd5b506000546001600160a01b0316610441565b3480156105f357600080fd5b50610441610602366004611b91565b61105d565b34801561061357600080fd5b50610441610622366004611b91565b6110bd565b34801561063357600080fd5b506102c6610642366004611c6c565b61111c565b34801561065357600080fd5b50600554610441906001600160a01b031681565b34801561067357600080fd5b506102c6610682366004611cc6565b611226565b34801561069357600080fd5b506102f76106a2366004611c87565b600d6020526000908152604090205481565b3480156106c057600080fd5b506102c66106cf366004611c6c565b61156e565b3480156106e057600080fd5b506102c66106ef366004611c6c565b61170b565b34801561070057600080fd5b5061071461070f366004611b91565b61178c565b6040516103019190611df3565b34801561072d57600080fd5b5061073661193e565b6040516103019190611ec5565b34801561074f57600080fd5b50600061031e565b34801561076357600080fd5b50610441610772366004611b91565b6119be565b34801561078357600080fd5b5061031e610792366004611f0d565b600c60209081526000928352604080842090915290825290205460ff1681565b3480156107be57600080fd5b506104416107cd366004611b91565b611a1d565b3480156107de57600080fd5b506108056107ed366004611c87565b600e6020526000908152604090205463ffffffff1681565b60405163ffffffff9091168152602001610301565b34801561082657600080fd5b506102c6610835366004611c6c565b611a7c565b610842611aba565b61ffff8083166000818152600260205260409020549091161461088357604051635112327760e01b815261ffff831660048201526024015b60405180910390fd5b61ffff8216600081815260026020526040908190206007018054841515600160a01b027fffffffffffffffffffffff00ffffffffffffffffffffffffffffffffffffffff909116179055517f8a2e7bc3935fd57632299c1b85c1f2a2ca6b83577ced6c12e0516eb9d809c9d2906108ff90841515815260200190565b60405180910390a25050565b600680546001600160a01b03166109355760405163e8907a5560e01b815260040160405180910390fd5b600281015460ff161561095b5760405163b95c660960e01b815260040160405180910390fd5b6202a300816001015461096e9190611f46565b42101561098e5760405163621e25c360e01b815260040160405180910390fd5b8054600182015460405160609290921b6bffffffffffffffffffffffff19166020830152603482015260009060540160408051601f198184030181529181528151602092830120336000908152600a90935291205490915060ff16610a0657604051636518c33d60e11b815260040160405180910390fd5b6000818152600c6020908152604080832033845290915290205460ff1615610a705760405162461bcd60e51b815260206004820152600e60248201527f416c7265616479207369676e6564000000000000000000000000000000000000604482015260640161087a565b6000818152600c602090815260408083203384528252808320805460ff19166001179055838352600d9091528120805491610aaa83611f5f565b9091555050600b546000828152600d60205260409020541015610ae057604051633724e34360e11b815260040160405180910390fd5b6004805483546001600160a01b039081166201000090810275ffffffffffffffffffffffffffffffffffffffff00001984161790935560028501805460ff191660011790556000848152600d60205260408082208290558654905194909304821693929091169183917f241827194635b544bceb965d0e124305c0968051403ae83cb99d1ef86bd65f5891a3505050565b610b79611aba565b6004805461ffff191661ffff83169081179091556040517ff6549dcfe73f8bc1cc6508ff53d144c3df78d7b2a4f3d670dd1cd6bb1752d3be90600090a250565b610bc1611aba565b600680546001600160a01b0316610beb5760405163e8907a5560e01b815260040160405180910390fd5b600281015460ff1615610c115760405163b95c660960e01b815260040160405180910390fd5b8054600182015460405160609290921b6bffffffffffffffffffffffff19166020830152603482015260009060540160408051601f1981840301815282825280516020918201206000818152600d90925291812081905584546001600160a01b03191685556001850181905560028501805460ff191690559092507f4b25600df6caa21596b414d6592d2d65a1a07c64cd520a05e59b004cc9dc771491a15050565b61ffff80821660008181526002602052604081205490921614610cef57604051635112327760e01b815261ffff8316600482015260240161087a565b5061ffff166000908152600260205260409020600701546001600160a01b031690565b610d1a611aba565b6001600160a01b038216610d415760405163d92e233d60e01b815260040160405180910390fd5b6001600160a01b0382166000818152600a6020908152604091829020805460ff191685151590811790915591519182527fd71d7c88579d0d5858da8cb9f6c4ce94826a5391ff03edf44f6a431180a1a6f591016108ff565b610da1611aba565b61ffff80881660008181526002602052604090205490911614610ddd57604051635112327760e01b815261ffff8816600482015260240161087a565b6001600160a01b038616610e045760405163d92e233d60e01b815260040160405180910390fd5b61ffff8716600090815260026020819052604090912090810180546001600160a01b0319166001600160a01b0389811691909117909155861615610e60576003810180546001600160a01b0319166001600160a01b0388161790555b6001600160a01b03851615610e8d576004810180546001600160a01b0319166001600160a01b0387161790555b6001600160a01b03841615610eba576005810180546001600160a01b0319166001600160a01b0386161790555b6001600160a01b03831615610ee7576006810180546001600160a01b0319166001600160a01b0385161790555b6001600160a01b03821615610f14576007810180546001600160a01b0319166001600160a01b0384161790555b60405161ffff8916907fe8242d0dc51110feb37170760dbf7f8f2f68ca3b7e0c076130099f0376e01df290600090a25050505050505050565b61ffff80821660008181526002602052604081205490921614610f8957604051635112327760e01b815261ffff8316600482015260240161087a565b5061ffff166000908152600260205260409020600501546001600160a01b031690565b610fb4611aba565b610fbe6000611ae7565b565b610fc8611aba565b600081116110225760405162461bcd60e51b815260206004820152602160248201527f4d7573742072657175697265206174206c656173742031207369676e617475726044820152606560f81b606482015260840161087a565b600b8190556040518181527f2d465bb3608d42a9f6601f7adf1e33540314b62582a6cd3e329dd32ff8b5d1959060200160405180910390a150565b61ffff8082166000818152600260205260408120549092161461109957604051635112327760e01b815261ffff8316600482015260240161087a565b5061ffff16600090815260026020819052604090912001546001600160a01b031690565b61ffff808216600081815260026020526040812054909216146110f957604051635112327760e01b815261ffff8316600482015260240161087a565b5061ffff166000908152600260205260409020600301546001600160a01b031690565b611124611aba565b6001600160a01b03811661114b5760405163d92e233d60e01b815260040160405180910390fd5b60095460ff161561116f57604051630f583be160e21b815260040160405180910390fd5b7f00000000000000000000000000000000000000000000000000000000000000004211156111b0576040516326239b0b60e21b815260040160405180910390fd5b600480546001600160a01b038381166201000081810275ffffffffffffffffffffffffffffffffffffffff0000198516179094556009805460ff1916600117905560405193909204169182907f241827194635b544bceb965d0e124305c0968051403ae83cb99d1ef86bd65f5890600090a35050565b61122e611aba565b61ffff808a166000818152600260205260409020549091160361126a57604051630b4ab72d60e21b815261ffff8a16600482015260240161087a565b6001600160a01b0386166112915760405163d92e233d60e01b815260040160405180910390fd5b6040518061012001604052808a61ffff16815260200189898080601f01602080910402602001604051908101604052809392919081815260200183838082843760009201829052509385525050506001600160a01b038981166020808501919091528982166040808601919091528983166060860152888316608086015287831660a086015291861660c0850152600160e090940184905261ffff8e8116845260028252919092208451815461ffff1916921691909117815590830151909182019061135d9082612017565b5060408201518160020160006101000a8154816001600160a01b0302191690836001600160a01b0316021790555060608201518160030160006101000a8154816001600160a01b0302191690836001600160a01b0316021790555060808201518160040160006101000a8154816001600160a01b0302191690836001600160a01b0316021790555060a08201518160050160006101000a8154816001600160a01b0302191690836001600160a01b0316021790555060c08201518160060160006101000a8154816001600160a01b0302191690836001600160a01b0316021790555060e08201518160070160006101000a8154816001600160a01b0302191690836001600160a01b031602179055506101008201518160070160146101000a81548160ff02191690831515021790555090505060038990806001815401808255809150506001900390600052602060002090601091828204019190066002029091909190916101000a81548161ffff021916908361ffff160217905550600380549050600103611525576004805461ffff191661ffff8b169081179091556040517ff6549dcfe73f8bc1cc6508ff53d144c3df78d7b2a4f3d670dd1cd6bb1752d3be90600090a25b8861ffff167f62bb0ad0b7a8956c331b58a2677c0309932bd3f9ff9275b0d913ee6f544a8a56898960405161155b9291906120d7565b60405180910390a2505050505050505050565b611576611aba565b6001600160a01b03811661159d5760405163d92e233d60e01b815260040160405180910390fd5b60095460ff166115fe5760405162461bcd60e51b815260206004820152602660248201527f55736520757064617465456e64706f696e7420647572696e67207365747570206044820152651c195c9a5bd960d21b606482015260840161087a565b7f0000000000000000000000000000000000000000000000000000000000000000421161167c5760405162461bcd60e51b815260206004820152602660248201527f55736520757064617465456e64706f696e7420647572696e67207365747570206044820152651c195c9a5bd960d21b606482015260840161087a565b604080516060810182526001600160a01b038316808252426020830181905260009290930191909152600680546001600160a01b0319168217905560078290556008805460ff19169055907f8108b665dfaa72d3e770d481bd0dbfbd301f4730fec2bfef6c892d72cb668a24906116f7906202a30090611f46565b60405190815260200160405180910390a250565b611713611aba565b6001600160a01b03811661173a5760405163d92e233d60e01b815260040160405180910390fd5b600580546001600160a01b038381166001600160a01b0319831681179093556040519116919082907f75e5edf45482e367e6631d4ca082b3b0cd384562d873090aef9df4035898c37890600090a35050565b604080516101208101825260008082526060602083018190529282018190529181018290526080810182905260a0810182905260c0810182905260e0810182905261010081019190915261ffff8083166000818152600260205260409020549091161461181257604051635112327760e01b815261ffff8316600482015260240161087a565b61ffff80831660009081526002602090815260409182902082516101208101909352805490931682526001830180549293929184019161185190611f8e565b80601f016020809104026020016040519081016040528092919081815260200182805461187d90611f8e565b80156118ca5780601f1061189f576101008083540402835291602001916118ca565b820191906000526020600020905b8154815290600101906020018083116118ad57829003601f168201915b505050918352505060028201546001600160a01b0390811660208301526003830154811660408301526004830154811660608301526005830154811660808301526006830154811660a083015260079092015491821660c0820152600160a01b90910460ff16151560e09091015292915050565b606060038054806020026020016040519081016040528092919081815260200182805480156119b457602002820191906000526020600020906000905b82829054906101000a900461ffff1661ffff168152602001906002019060208260010104928301926001038202915080841161197b5790505b5050505050905090565b61ffff808216600081815260026020526040812054909216146119fa57604051635112327760e01b815261ffff8316600482015260240161087a565b5061ffff166000908152600260205260409020600601546001600160a01b031690565b61ffff80821660008181526002602052604081205490921614611a5957604051635112327760e01b815261ffff8316600482015260240161087a565b5061ffff166000908152600260205260409020600401546001600160a01b031690565b611a84611aba565b6001600160a01b038116611aae57604051631e4fbdf760e01b81526000600482015260240161087a565b611ab781611ae7565b50565b6000546001600160a01b03163314610fbe5760405163118cdaa760e01b815233600482015260240161087a565b600080546001600160a01b038381166001600160a01b0319831681178455604051919092169283917f8be0079c531659141344cd1fd0a4f28419497f9722a3daafe3b4186f6b6457e09190a35050565b803561ffff81168114611b4957600080fd5b919050565b80358015158114611b4957600080fd5b60008060408385031215611b7157600080fd5b611b7a83611b37565b9150611b8860208401611b4e565b90509250929050565b600060208284031215611ba357600080fd5b611bac82611b37565b9392505050565b80356001600160a01b0381168114611b4957600080fd5b60008060408385031215611bdd57600080fd5b611b7a83611bb3565b600080600080600080600060e0888a031215611c0157600080fd5b611c0a88611b37565b9650611c1860208901611bb3565b9550611c2660408901611bb3565b9450611c3460608901611bb3565b9350611c4260808901611bb3565b9250611c5060a08901611bb3565b9150611c5e60c08901611bb3565b905092959891949750929550565b600060208284031215611c7e57600080fd5b611bac82611bb3565b600060208284031215611c9957600080fd5b5035919050565b600060208284031215611cb257600080fd5b813563ffffffff81168114611bac57600080fd5b60008060008060008060008060006101008a8c031215611ce557600080fd5b611cee8a611b37565b985060208a013567ffffffffffffffff80821115611d0b57600080fd5b818c0191508c601f830112611d1f57600080fd5b813581811115611d2e57600080fd5b8d6020828501011115611d4057600080fd5b602083019a50809950505050611d5860408b01611bb3565b9550611d6660608b01611bb3565b9450611d7460808b01611bb3565b9350611d8260a08b01611bb3565b9250611d9060c08b01611bb3565b9150611d9e60e08b01611bb3565b90509295985092959850929598565b6000815180845260005b81811015611dd357602081850181015186830182015201611db7565b506000602082860101526020601f19601f83011685010191505092915050565b60208152611e0860208201835161ffff169052565b60006020830151610120806040850152611e26610140850183611dad565b91506040850151611e4260608601826001600160a01b03169052565b5060608501516001600160a01b03811660808601525060808501516001600160a01b03811660a08601525060a08501516001600160a01b03811660c08601525060c08501516001600160a01b03811660e08601525060e0850151610100611eb3818701836001600160a01b03169052565b90950151151593019290925250919050565b6020808252825182820181905260009190848201906040850190845b81811015611f0157835161ffff1683529284019291840191600101611ee1565b50909695505050505050565b60008060408385031215611f2057600080fd5b82359150611b8860208401611bb3565b634e487b7160e01b600052601160045260246000fd5b80820180821115611f5957611f59611f30565b92915050565b600060018201611f7157611f71611f30565b5060010190565b634e487b7160e01b600052604160045260246000fd5b600181811c90821680611fa257607f821691505b602082108103611fc257634e487b7160e01b600052602260045260246000fd5b50919050565b601f82111561201257600081815260208120601f850160051c81016020861015611fef5750805b601f850160051c820191505b8181101561200e57828155600101611ffb565b5050505b505050565b815167ffffffffffffffff81111561203157612031611f78565b6120458161203f8454611f8e565b84611fc8565b602080601f83116001811461207a57600084156120625750858301515b600019600386901b1c1916600185901b17855561200e565b600085815260208120601f198616915b828110156120a95788860151825594840194600190910190840161208a565b50858210156120c75787850151600019600388901b60f8161c191681555b5050505050600190811b01905550565b60208152816020820152818360408301376000818301604090810191909152601f909201601f1916010191905056fea2646970667358221220c7e73f7b924aa1815c76c931b90bf045221ed01800f4818dfcbf29172c56d75e64736f6c63430008140033",
  "devdoc": {
    "details": "AUDIT-COMPLIANT Central registry for cross-chain configuration and chain-specific parameters CRITICAL AUDIT FIXES: - CRITICAL: Added onlyOwner protection to registerMe() function - MAJOR: Added timelock mechanism for updateEndpoint() with 48-hour delay - MAJOR: Added multi-signature requirement for critical endpoint updates - MINOR: Added event emission for setCurrentChainId() - INFORMATIONAL: Pinned Solidity version to 0.8.20 - INFORMATIONAL: Added comprehensive NatSpec documentation Manages supported chains, LayerZero endpoints, and chain-specific token addresses Essential for secure cross-chain operations in the OmniDragon ecosystem https://x.com/sonicreddragon https://t.me/sonicreddragon",
    "errors": {
      "EnforcedPause()": [
        {
          "details": "The operation failed because the contract is paused."
        }
      ],
      "ExpectedPause()": [
        {
          "details": "The operation failed because the contract is not paused."
        }
      ],
      "OwnableInvalidOwner(address)": [
        {
          "details": "The owner is not a valid owner account. (eg. `address(0)`)"
        }
      ],
      "OwnableUnauthorizedAccount(address)": [
        {
          "details": "The caller account is not authorized to perform an operation."
        }
      ],
      "ReentrancyGuardReentrantCall()": [
        {
          "details": "Unauthorized reentrant call."
        }
      ]
    },
    "events": {
      "Paused(address)": {
        "details": "Emitted when the pause is triggered by `account`."
      },
      "Unpaused(address)": {
        "details": "Emitted when the pause is lifted by `account`."
      }
    },
    "kind": "dev",
    "methods": {
      "checkFeeMStatus()": {
        "returns": {
          "isRegistered": "Whether the contract is registered for fee monetization"
        }
      },
      "constructor": {
        "details": "Constructor",
        "params": {
          "_feeMAddress": "The Sonic FeeM contract address (configurable)",
          "_initialOwner": "The initial owner of the contract",
          "_placeholderEndpoint": "A placeholder endpoint address (same for all chains)"
        }
      },
      "executeEndpointUpdate()": {
        "details": "Only for emergency updates after initial setup period      Requires multi-signature approval for critical security"
      },
      "getChainConfig(uint16)": {
        "params": {
          "_chainId": "The LayerZero chain ID"
        },
        "returns": {
          "_0": "Chain configuration struct"
        }
      },
      "getCurrentChainId()": {
        "details": "Get the current chain's LayerZero ID",
        "returns": {
          "_0": "The LayerZero chain ID of the current chain"
        }
      },
      "getDragonToken(uint16)": {
        "params": {
          "_chainId": "The LayerZero chain ID"
        },
        "returns": {
          "_0": "The Dragon token address"
        }
      },
      "getLotteryManager(uint16)": {
        "params": {
          "_chainId": "The LayerZero chain ID"
        },
        "returns": {
          "_0": "The lottery manager address"
        }
      },
      "getPriceOracle(uint16)": {
        "params": {
          "_chainId": "The LayerZero chain ID"
        },
        "returns": {
          "_0": "The price oracle address"
        }
      },
      "getRandomnessProvider(uint16)": {
        "params": {
          "_chainId": "The LayerZero chain ID"
        },
        "returns": {
          "_0": "The randomness provider address"
        }
      },
      "getSupportedChains()": {
        "returns": {
          "_0": "Array of supported chain IDs"
        }
      },
      "getSwapTrigger(uint16)": {
        "params": {
          "_chainId": "The LayerZero chain ID"
        },
        "returns": {
          "_0": "The lottery manager address (for backward compatibility)"
        }
      },
      "getVRFConsumer(uint16)": {
        "params": {
          "_chainId": "The LayerZero chain ID"
        },
        "returns": {
          "_0": "The VRF consumer address"
        }
      },
      "getWrappedNativeToken(uint16)": {
        "details": "Get the wrapped native token address for a specific chain",
        "params": {
          "_chainId": "The LayerZero chain ID"
        },
        "returns": {
          "_0": "The wrapped native token address for the specified chain"
        }
      },
      "isChainSupported(uint16)": {
        "details": "Check if a chain is supported",
        "params": {
          "_chainId": "The LayerZero chain ID to check"
        },
        "returns": {
          "_0": "True if the chain is supported, false otherwise"
        }
      },
      "isEndpointUpdated()": {
        "details": "Returns whether the endpoint has been updated",
        "returns": {
          "_0": "True if updated, false otherwise"
        }
      },
      "owner()": {
        "details": "Returns the address of the current owner."
      },
      "paused()": {
        "details": "Returns true if the contract is paused, and false otherwise."
      },
      "proposeEndpointUpdate(address)": {
        "details": "This function is for emergency endpoint updates after the initial setup period      Requires timelock for security. Only available after the endpoint has been      initially set using updateEndpoint during the setup period, and after the      initial setup period (7 days) has expired.",
        "params": {
          "_newEndpoint": "The new chain-specific LZ endpoint address"
        }
      },
      "registerChain(uint16,string,address,address,address,address,address,address)": {
        "params": {
          "_chainId": "The LayerZero chain ID",
          "_chainName": "The human-readable chain name",
          "_dragonToken": "The Dragon token address on this chain",
          "_lotteryManager": "The chain-specific lottery manager address",
          "_priceOracle": "The chain-specific price oracle address",
          "_randomnessProvider": "The chain-specific randomness provider address",
          "_vrfConsumer": "The chain-specific VRF consumer address",
          "_wrappedNativeToken": "The wrapped native token address (WETH, WrappedNativeToken, WSOL, WBERA, etc.)"
        }
      },
      "renounceOwnership()": {
        "details": "Leaves the contract without owner. It will not be possible to call `onlyOwner` functions. Can only be called by the current owner. NOTE: Renouncing ownership will leave the contract without an owner, thereby disabling any functionality that is only available to the owner."
      },
      "revokePendingEndpointUpdate()": {
        "details": "Allows canceling a pending update before execution"
      },
      "setAuthorizedSigner(address,bool)": {
        "params": {
          "_authorized": "Whether the signer is authorized",
          "_signer": "The signer address"
        }
      },
      "setChainActive(uint16,bool)": {
        "params": {
          "_chainId": "The LayerZero chain ID",
          "_isActive": "Whether the chain is active"
        }
      },
      "setCurrentChainId(uint16)": {
        "params": {
          "_chainId": "The current chain's LayerZero ID"
        }
      },
      "setRequiredSignatures(uint256)": {
        "params": {
          "_required": "Number of required signatures"
        }
      },
      "transferOwnership(address)": {
        "details": "Transfers ownership of the contract to a new account (`newOwner`). Can only be called by the current owner."
      },
      "updateChain(uint16,address,address,address,address,address,address)": {
        "params": {
          "_chainId": "The LayerZero chain ID to update",
          "_dragonToken": "The Dragon token address on this chain",
          "_lotteryManager": "The chain-specific lottery manager address",
          "_priceOracle": "The chain-specific price oracle address",
          "_randomnessProvider": "The chain-specific randomness provider address",
          "_vrfConsumer": "The chain-specific VRF consumer address",
          "_wrappedNativeToken": "The wrapped native token address"
        }
      },
      "updateDeadline()": {
        "details": "Returns the deadline for updating the endpoint",
        "returns": {
          "_0": "Timestamp of the update deadline"
        }
      },
      "updateEndpoint(address)": {
        "details": "This function allows immediate updates during the initial setup period (7 days)      After the setup period expires, must use proposeEndpointUpdate + executeEndpointUpdate",
        "params": {
          "_newEndpoint": "The new chain-specific LZ endpoint address"
        }
      },
      "updateFeeMAddress(address)": {
        "params": {
          "_newFeeMAddress": "The new FeeM contract address"
        }
      }
    },
    "title": "ChainRegistry",
    "version": 1
  },
  "userdoc": {
    "kind": "user",
    "methods": {
      "checkFeeMStatus()": {
        "notice": "Check if this contract is registered for Sonic FeeM"
      },
      "executeEndpointUpdate()": {
        "notice": "AUDIT FIX: Execute endpoint update after timelock with multi-signature protection"
      },
      "getChainConfig(uint16)": {
        "notice": "Get chain configuration"
      },
      "getDragonToken(uint16)": {
        "notice": "Get Dragon token address for a specific chain"
      },
      "getLotteryManager(uint16)": {
        "notice": "Get lottery manager address for a specific chain"
      },
      "getPriceOracle(uint16)": {
        "notice": "Get price oracle address for a specific chain"
      },
      "getRandomnessProvider(uint16)": {
        "notice": "Get randomness provider address for a specific chain"
      },
      "getSupportedChains()": {
        "notice": "Get all supported chain IDs"
      },
      "getSwapTrigger(uint16)": {
        "notice": "Get swap trigger address for a specific chain (deprecated - returns lottery manager)"
      },
      "getVRFConsumer(uint16)": {
        "notice": "Get VRF consumer address for a specific chain"
      },
      "proposeEndpointUpdate(address)": {
        "notice": "AUDIT FIX: Propose endpoint update with timelock (for post-setup changes)"
      },
      "registerChain(uint16,string,address,address,address,address,address,address)": {
        "notice": "Register a new chain configuration"
      },
      "revokePendingEndpointUpdate()": {
        "notice": "AUDIT FIX: Revoke pending endpoint update"
      },
      "setAuthorizedSigner(address,bool)": {
        "notice": "AUDIT FIX: Add/remove authorized signers for multi-sig operations"
      },
      "setChainActive(uint16,bool)": {
        "notice": "Set chain active status"
      },
      "setCurrentChainId(uint16)": {
        "notice": "Set the current chain ID"
      },
      "setRequiredSignatures(uint256)": {
        "notice": "AUDIT FIX: Set required signatures for critical operations"
      },
      "updateChain(uint16,address,address,address,address,address,address)": {
        "notice": "Update an existing chain configuration"
      },
      "updateEndpoint(address)": {
        "notice": "AUDIT FIX: Update endpoint immediately during initial setup period"
      },
      "updateFeeMAddress(address)": {
        "notice": "AUDIT FIX: Update FeeM contract address"
      }
    },
    "version": 1
  },
  "storageLayout": {
    "storage": [
      {
        "astId": 1545,
        "contract": "contracts/core/config/ChainRegistry.sol:ChainRegistry",
        "label": "_owner",
        "offset": 0,
        "slot": "0",
        "type": "t_address"
      },
      {
        "astId": 1715,
        "contract": "contracts/core/config/ChainRegistry.sol:ChainRegistry",
        "label": "_paused",
        "offset": 20,
        "slot": "0",
        "type": "t_bool"
      },
      {
        "astId": 1834,
        "contract": "contracts/core/config/ChainRegistry.sol:ChainRegistry",
        "label": "_status",
        "offset": 0,
        "slot": "1",
        "type": "t_uint256"
      },
      {
        "astId": 22,
        "contract": "contracts/core/config/ChainRegistry.sol:ChainRegistry",
        "label": "chainConfigs",
        "offset": 0,
        "slot": "2",
        "type": "t_mapping(t_uint16,t_struct(ChainConfig)1169_storage)"
      },
      {
        "astId": 25,
        "contract": "contracts/core/config/ChainRegistry.sol:ChainRegistry",
        "label": "supportedChains",
        "offset": 0,
        "slot": "3",
        "type": "t_array(t_uint16)dyn_storage"
      },
      {
        "astId": 27,
        "contract": "contracts/core/config/ChainRegistry.sol:ChainRegistry",
        "label": "currentChainId",
        "offset": 0,
        "slot": "4",
        "type": "t_uint16"
      },
      {
        "astId": 29,
        "contract": "contracts/core/config/ChainRegistry.sol:ChainRegistry",
        "label": "lzEndpointAddress",
        "offset": 2,
        "slot": "4",
        "type": "t_address"
      },
      {
        "astId": 31,
        "contract": "contracts/core/config/ChainRegistry.sol:ChainRegistry",
        "label": "feeMAddress",
        "offset": 0,
        "slot": "5",
        "type": "t_address"
      },
      {
        "astId": 41,
        "contract": "contracts/core/config/ChainRegistry.sol:ChainRegistry",
        "label": "pendingEndpointUpdate",
        "offset": 0,
        "slot": "6",
        "type": "t_struct(EndpointUpdate)38_storage"
      },
      {
        "astId": 43,
        "contract": "contracts/core/config/ChainRegistry.sol:ChainRegistry",
        "label": "_endpointUpdated",
        "offset": 0,
        "slot": "9",
        "type": "t_bool"
      },
      {
        "astId": 55,
        "contract": "contracts/core/config/ChainRegistry.sol:ChainRegistry",
        "label": "authorizedSigners",
        "offset": 0,
        "slot": "10",
        "type": "t_mapping(t_address,t_bool)"
      },
      {
        "astId": 58,
        "contract": "contracts/core/config/ChainRegistry.sol:ChainRegistry",
        "label": "requiredSignatures",
        "offset": 0,
        "slot": "11",
        "type": "t_uint256"
      },
      {
        "astId": 64,
        "contract": "contracts/core/config/ChainRegistry.sol:ChainRegistry",
        "label": "signatures",
        "offset": 0,
        "slot": "12",
        "type": "t_mapping(t_bytes32,t_mapping(t_address,t_bool))"
      },
      {
        "astId": 68,
        "contract": "contracts/core/config/ChainRegistry.sol:ChainRegistry",
        "label": "signatureCount",
        "offset": 0,
        "slot": "13",
        "type": "t_mapping(t_bytes32,t_uint256)"
      },
      {
        "astId": 1141,
        "contract": "contracts/core/config/ChainRegistry.sol:ChainRegistry",
        "label": "chainIdToEid",
        "offset": 0,
        "slot": "14",
        "type": "t_mapping(t_uint256,t_uint32)"
      },
      {
        "astId": 1145,
        "contract": "contracts/core/config/ChainRegistry.sol:ChainRegistry",
        "label": "eidToChainId",
        "offset": 0,
        "slot": "15",
        "type": "t_mapping(t_uint32,t_uint256)"
      }
    ],
    "types": {
      "t_address": {
        "encoding": "inplace",
        "label": "address",
        "numberOfBytes": "20"
      },
      "t_array(t_uint16)dyn_storage": {
        "base": "t_uint16",
        "encoding": "dynamic_array",
        "label": "uint16[]",
        "numberOfBytes": "32"
      },
      "t_bool": {
        "encoding": "inplace",
        "label": "bool",
        "numberOfBytes": "1"
      },
      "t_bytes32": {
        "encoding": "inplace",
        "label": "bytes32",
        "numberOfBytes": "32"
      },
      "t_mapping(t_address,t_bool)": {
        "encoding": "mapping",
        "key": "t_address",
        "label": "mapping(address => bool)",
        "numberOfBytes": "32",
        "value": "t_bool"
      },
      "t_mapping(t_bytes32,t_mapping(t_address,t_bool))": {
        "encoding": "mapping",
        "key": "t_bytes32",
        "label": "mapping(bytes32 => mapping(address => bool))",
        "numberOfBytes": "32",
        "value": "t_mapping(t_address,t_bool)"
      },
      "t_mapping(t_bytes32,t_uint256)": {
        "encoding": "mapping",
        "key": "t_bytes32",
        "label": "mapping(bytes32 => uint256)",
        "numberOfBytes": "32",
        "value": "t_uint256"
      },
      "t_mapping(t_uint16,t_struct(ChainConfig)1169_storage)": {
        "encoding": "mapping",
        "key": "t_uint16",
        "label": "mapping(uint16 => struct IChainRegistry.ChainConfig)",
        "numberOfBytes": "32",
        "value": "t_struct(ChainConfig)1169_storage"
      },
      "t_mapping(t_uint256,t_uint32)": {
        "encoding": "mapping",
        "key": "t_uint256",
        "label": "mapping(uint256 => uint32)",
        "numberOfBytes": "32",
        "value": "t_uint32"
      },
      "t_mapping(t_uint32,t_uint256)": {
        "encoding": "mapping",
        "key": "t_uint32",
        "label": "mapping(uint32 => uint256)",
        "numberOfBytes": "32",
        "value": "t_uint256"
      },
      "t_string_storage": {
        "encoding": "bytes",
        "label": "string",
        "numberOfBytes": "32"
      },
      "t_struct(ChainConfig)1169_storage": {
        "encoding": "inplace",
        "label": "struct IChainRegistry.ChainConfig",
        "members": [
          {
            "astId": 1152,
            "contract": "contracts/core/config/ChainRegistry.sol:ChainRegistry",
            "label": "chainId",
            "offset": 0,
            "slot": "0",
            "type": "t_uint16"
          },
          {
            "astId": 1154,
            "contract": "contracts/core/config/ChainRegistry.sol:ChainRegistry",
            "label": "chainName",
            "offset": 0,
            "slot": "1",
            "type": "t_string_storage"
          },
          {
            "astId": 1156,
            "contract": "contracts/core/config/ChainRegistry.sol:ChainRegistry",
            "label": "wrappedNativeToken",
            "offset": 0,
            "slot": "2",
            "type": "t_address"
          },
          {
            "astId": 1158,
            "contract": "contracts/core/config/ChainRegistry.sol:ChainRegistry",
            "label": "lotteryManager",
            "offset": 0,
            "slot": "3",
            "type": "t_address"
          },
          {
            "astId": 1160,
            "contract": "contracts/core/config/ChainRegistry.sol:ChainRegistry",
            "label": "randomnessProvider",
            "offset": 0,
            "slot": "4",
            "type": "t_address"
          },
          {
            "astId": 1162,
            "contract": "contracts/core/config/ChainRegistry.sol:ChainRegistry",
            "label": "priceOracle",
            "offset": 0,
            "slot": "5",
            "type": "t_address"
          },
          {
            "astId": 1164,
            "contract": "contracts/core/config/ChainRegistry.sol:ChainRegistry",
            "label": "vrfConsumer",
            "offset": 0,
            "slot": "6",
            "type": "t_address"
          },
          {
            "astId": 1166,
            "contract": "contracts/core/config/ChainRegistry.sol:ChainRegistry",
            "label": "dragonToken",
            "offset": 0,
            "slot": "7",
            "type": "t_address"
          },
          {
            "astId": 1168,
            "contract": "contracts/core/config/ChainRegistry.sol:ChainRegistry",
            "label": "isActive",
            "offset": 20,
            "slot": "7",
            "type": "t_bool"
          }
        ],
        "numberOfBytes": "256"
      },
      "t_struct(EndpointUpdate)38_storage": {
        "encoding": "inplace",
        "label": "struct ChainRegistry.EndpointUpdate",
        "members": [
          {
            "astId": 33,
            "contract": "contracts/core/config/ChainRegistry.sol:ChainRegistry",
            "label": "newEndpoint",
            "offset": 0,
            "slot": "0",
            "type": "t_address"
          },
          {
            "astId": 35,
            "contract": "contracts/core/config/ChainRegistry.sol:ChainRegistry",
            "label": "proposedAt",
            "offset": 0,
            "slot": "1",
            "type": "t_uint256"
          },
          {
            "astId": 37,
            "contract": "contracts/core/config/ChainRegistry.sol:ChainRegistry",
            "label": "executed",
            "offset": 0,
            "slot": "2",
            "type": "t_bool"
          }
        ],
        "numberOfBytes": "96"
      },
      "t_uint16": {
        "encoding": "inplace",
        "label": "uint16",
        "numberOfBytes": "2"
      },
      "t_uint256": {
        "encoding": "inplace",
        "label": "uint256",
        "numberOfBytes": "32"
      },
      "t_uint32": {
        "encoding": "inplace",
        "label": "uint32",
        "numberOfBytes": "4"
      }
    }
  }
}