{
  "address": "0xd91bc1b66a89E8f62F3525D996d3FAb36650B805",
  "abi": [
    {
      "inputs": [
        {
          "internalType": "address",
          "name": "_endpoint",
          "type": "address"
        },
        {
          "internalType": "address",
          "name": "_initialOwner",
          "type": "address"
        }
      ],
      "stateMutability": "nonpayable",
      "type": "constructor"
    },
    {
      "inputs": [
        {
          "internalType": "address",
          "name": "target",
          "type": "address"
        }
      ],
      "name": "AddressEmptyCode",
      "type": "error"
    },
    {
      "inputs": [
        {
          "internalType": "address",
          "name": "account",
          "type": "address"
        }
      ],
      "name": "AddressInsufficientBalance",
      "type": "error"
    },
    {
      "inputs": [],
      "name": "FailedInnerCall",
      "type": "error"
    },
    {
      "inputs": [],
      "name": "InvalidDelegate",
      "type": "error"
    },
    {
      "inputs": [],
      "name": "InvalidEndpointCall",
      "type": "error"
    },
    {
      "inputs": [
        {
          "internalType": "uint16",
          "name": "optionType",
          "type": "uint16"
        }
      ],
      "name": "InvalidOptionType",
      "type": "error"
    },
    {
      "inputs": [
        {
          "internalType": "bytes",
          "name": "options",
          "type": "bytes"
        }
      ],
      "name": "InvalidOptions",
      "type": "error"
    },
    {
      "inputs": [],
      "name": "LzTokenUnavailable",
      "type": "error"
    },
    {
      "inputs": [
        {
          "internalType": "uint32",
          "name": "eid",
          "type": "uint32"
        }
      ],
      "name": "NoPeer",
      "type": "error"
    },
    {
      "inputs": [
        {
          "internalType": "uint256",
          "name": "msgValue",
          "type": "uint256"
        }
      ],
      "name": "NotEnoughNative",
      "type": "error"
    },
    {
      "inputs": [
        {
          "internalType": "address",
          "name": "addr",
          "type": "address"
        }
      ],
      "name": "OnlyEndpoint",
      "type": "error"
    },
    {
      "inputs": [
        {
          "internalType": "uint32",
          "name": "eid",
          "type": "uint32"
        },
        {
          "internalType": "bytes32",
          "name": "sender",
          "type": "bytes32"
        }
      ],
      "name": "OnlyPeer",
      "type": "error"
    },
    {
      "inputs": [
        {
          "internalType": "address",
          "name": "owner",
          "type": "address"
        }
      ],
      "name": "OwnableInvalidOwner",
      "type": "error"
    },
    {
      "inputs": [
        {
          "internalType": "address",
          "name": "account",
          "type": "address"
        }
      ],
      "name": "OwnableUnauthorizedAccount",
      "type": "error"
    },
    {
      "inputs": [
        {
          "internalType": "uint8",
          "name": "bits",
          "type": "uint8"
        },
        {
          "internalType": "uint256",
          "name": "value",
          "type": "uint256"
        }
      ],
      "name": "SafeCastOverflowedUintDowncast",
      "type": "error"
    },
    {
      "inputs": [
        {
          "internalType": "address",
          "name": "token",
          "type": "address"
        }
      ],
      "name": "SafeERC20FailedOperation",
      "type": "error"
    },
    {
      "anonymous": false,
      "inputs": [
        {
          "indexed": true,
          "internalType": "uint64",
          "name": "sequence",
          "type": "uint64"
        },
        {
          "indexed": true,
          "internalType": "address",
          "name": "provider",
          "type": "address"
        },
        {
          "indexed": false,
          "internalType": "string",
          "name": "reason",
          "type": "string"
        }
      ],
      "name": "CallbackFailed",
      "type": "event"
    },
    {
      "anonymous": false,
      "inputs": [
        {
          "indexed": true,
          "internalType": "uint64",
          "name": "sequence",
          "type": "uint64"
        },
        {
          "indexed": true,
          "internalType": "address",
          "name": "provider",
          "type": "address"
        }
      ],
      "name": "CallbackSucceeded",
      "type": "event"
    },
    {
      "anonymous": false,
      "inputs": [
        {
          "indexed": true,
          "internalType": "address",
          "name": "funder",
          "type": "address"
        },
        {
          "indexed": false,
          "internalType": "uint256",
          "name": "amount",
          "type": "uint256"
        },
        {
          "indexed": false,
          "internalType": "uint256",
          "name": "newBalance",
          "type": "uint256"
        }
      ],
      "name": "ContractFunded",
      "type": "event"
    },
    {
      "anonymous": false,
      "inputs": [
        {
          "components": [
            {
              "internalType": "uint32",
              "name": "eid",
              "type": "uint32"
            },
            {
              "internalType": "uint16",
              "name": "msgType",
              "type": "uint16"
            },
            {
              "internalType": "bytes",
              "name": "options",
              "type": "bytes"
            }
          ],
          "indexed": false,
          "internalType": "struct EnforcedOptionParam[]",
          "name": "_enforcedOptions",
          "type": "tuple[]"
        }
      ],
      "name": "EnforcedOptionSet",
      "type": "event"
    },
    {
      "anonymous": false,
      "inputs": [
        {
          "indexed": true,
          "internalType": "address",
          "name": "contractAddress",
          "type": "address"
        },
        {
          "indexed": true,
          "internalType": "uint256",
          "name": "feeId",
          "type": "uint256"
        }
      ],
      "name": "FeeMRegistered",
      "type": "event"
    },
    {
      "anonymous": false,
      "inputs": [
        {
          "indexed": false,
          "internalType": "uint32",
          "name": "oldLimit",
          "type": "uint32"
        },
        {
          "indexed": false,
          "internalType": "uint32",
          "name": "newLimit",
          "type": "uint32"
        }
      ],
      "name": "GasLimitUpdated",
      "type": "event"
    },
    {
      "anonymous": false,
      "inputs": [
        {
          "indexed": true,
          "internalType": "uint64",
          "name": "requestId",
          "type": "uint64"
        },
        {
          "indexed": true,
          "internalType": "uint32",
          "name": "dstEid",
          "type": "uint32"
        },
        {
          "indexed": false,
          "internalType": "bytes",
          "name": "message",
          "type": "bytes"
        }
      ],
      "name": "MessageSent",
      "type": "event"
    },
    {
      "anonymous": false,
      "inputs": [
        {
          "indexed": true,
          "internalType": "address",
          "name": "previousOwner",
          "type": "address"
        },
        {
          "indexed": true,
          "internalType": "address",
          "name": "newOwner",
          "type": "address"
        }
      ],
      "name": "OwnershipTransferred",
      "type": "event"
    },
    {
      "anonymous": false,
      "inputs": [
        {
          "indexed": false,
          "internalType": "uint32",
          "name": "eid",
          "type": "uint32"
        },
        {
          "indexed": false,
          "internalType": "bytes32",
          "name": "peer",
          "type": "bytes32"
        }
      ],
      "name": "PeerSet",
      "type": "event"
    },
    {
      "anonymous": false,
      "inputs": [
        {
          "indexed": false,
          "internalType": "uint256[]",
          "name": "randomWords",
          "type": "uint256[]"
        },
        {
          "indexed": true,
          "internalType": "uint64",
          "name": "sequence",
          "type": "uint64"
        },
        {
          "indexed": true,
          "internalType": "address",
          "name": "provider",
          "type": "address"
        }
      ],
      "name": "RandomWordsReceived",
      "type": "event"
    },
    {
      "anonymous": false,
      "inputs": [
        {
          "indexed": true,
          "internalType": "uint64",
          "name": "requestId",
          "type": "uint64"
        },
        {
          "indexed": true,
          "internalType": "address",
          "name": "requester",
          "type": "address"
        },
        {
          "indexed": false,
          "internalType": "uint32",
          "name": "dstEid",
          "type": "uint32"
        }
      ],
      "name": "RandomWordsRequested",
      "type": "event"
    },
    {
      "anonymous": false,
      "inputs": [
        {
          "indexed": true,
          "internalType": "uint64",
          "name": "sequence",
          "type": "uint64"
        },
        {
          "indexed": true,
          "internalType": "address",
          "name": "provider",
          "type": "address"
        }
      ],
      "name": "RequestExpired",
      "type": "event"
    },
    {
      "anonymous": false,
      "inputs": [
        {
          "indexed": false,
          "internalType": "uint256",
          "name": "oldTimeout",
          "type": "uint256"
        },
        {
          "indexed": false,
          "internalType": "uint256",
          "name": "newTimeout",
          "type": "uint256"
        }
      ],
      "name": "RequestTimeoutUpdated",
      "type": "event"
    },
    {
      "inputs": [
        {
          "components": [
            {
              "internalType": "uint32",
              "name": "srcEid",
              "type": "uint32"
            },
            {
              "internalType": "bytes32",
              "name": "sender",
              "type": "bytes32"
            },
            {
              "internalType": "uint64",
              "name": "nonce",
              "type": "uint64"
            }
          ],
          "internalType": "struct Origin",
          "name": "origin",
          "type": "tuple"
        }
      ],
      "name": "allowInitializePath",
      "outputs": [
        {
          "internalType": "bool",
          "name": "",
          "type": "bool"
        }
      ],
      "stateMutability": "view",
      "type": "function"
    },
    {
      "inputs": [
        {
          "internalType": "uint64",
          "name": "requestId",
          "type": "uint64"
        }
      ],
      "name": "checkRequestStatus",
      "outputs": [
        {
          "internalType": "bool",
          "name": "fulfilled",
          "type": "bool"
        },
        {
          "internalType": "bool",
          "name": "exists",
          "type": "bool"
        },
        {
          "internalType": "address",
          "name": "provider",
          "type": "address"
        },
        {
          "internalType": "uint256",
          "name": "randomWord",
          "type": "uint256"
        },
        {
          "internalType": "uint256",
          "name": "timestamp",
          "type": "uint256"
        },
        {
          "internalType": "bool",
          "name": "expired",
          "type": "bool"
        }
      ],
      "stateMutability": "view",
      "type": "function"
    },
    {
      "inputs": [
        {
          "internalType": "uint64[]",
          "name": "requestIds",
          "type": "uint64[]"
        }
      ],
      "name": "cleanupExpiredRequests",
      "outputs": [],
      "stateMutability": "nonpayable",
      "type": "function"
    },
    {
      "inputs": [
        {
          "internalType": "uint32",
          "name": "_eid",
          "type": "uint32"
        },
        {
          "internalType": "uint16",
          "name": "_msgType",
          "type": "uint16"
        },
        {
          "internalType": "bytes",
          "name": "_extraOptions",
          "type": "bytes"
        }
      ],
      "name": "combineOptions",
      "outputs": [
        {
          "internalType": "bytes",
          "name": "",
          "type": "bytes"
        }
      ],
      "stateMutability": "view",
      "type": "function"
    },
    {
      "inputs": [],
      "name": "defaultGasLimit",
      "outputs": [
        {
          "internalType": "uint32",
          "name": "",
          "type": "uint32"
        }
      ],
      "stateMutability": "view",
      "type": "function"
    },
    {
      "inputs": [],
      "name": "endpoint",
      "outputs": [
        {
          "internalType": "contract ILayerZeroEndpointV2",
          "name": "",
          "type": "address"
        }
      ],
      "stateMutability": "view",
      "type": "function"
    },
    {
      "inputs": [
        {
          "internalType": "uint32",
          "name": "eid",
          "type": "uint32"
        },
        {
          "internalType": "uint16",
          "name": "msgType",
          "type": "uint16"
        }
      ],
      "name": "enforcedOptions",
      "outputs": [
        {
          "internalType": "bytes",
          "name": "enforcedOption",
          "type": "bytes"
        }
      ],
      "stateMutability": "view",
      "type": "function"
    },
    {
      "inputs": [],
      "name": "fundContract",
      "outputs": [],
      "stateMutability": "payable",
      "type": "function"
    },
    {
      "inputs": [
        {
          "internalType": "address",
          "name": "_lib",
          "type": "address"
        },
        {
          "internalType": "uint32",
          "name": "_eid",
          "type": "uint32"
        },
        {
          "internalType": "uint32",
          "name": "_configType",
          "type": "uint32"
        }
      ],
      "name": "getConfig",
      "outputs": [
        {
          "internalType": "bytes",
          "name": "config",
          "type": "bytes"
        }
      ],
      "stateMutability": "view",
      "type": "function"
    },
    {
      "inputs": [],
      "name": "getContractStatus",
      "outputs": [
        {
          "internalType": "uint256",
          "name": "balance",
          "type": "uint256"
        },
        {
          "internalType": "bool",
          "name": "canOperate",
          "type": "bool"
        }
      ],
      "stateMutability": "view",
      "type": "function"
    },
    {
      "inputs": [
        {
          "internalType": "uint64",
          "name": "requestId",
          "type": "uint64"
        }
      ],
      "name": "getRandomWord",
      "outputs": [
        {
          "internalType": "uint256",
          "name": "randomWord",
          "type": "uint256"
        },
        {
          "internalType": "bool",
          "name": "fulfilled",
          "type": "bool"
        }
      ],
      "stateMutability": "view",
      "type": "function"
    },
    {
      "inputs": [
        {
          "components": [
            {
              "internalType": "uint32",
              "name": "srcEid",
              "type": "uint32"
            },
            {
              "internalType": "bytes32",
              "name": "sender",
              "type": "bytes32"
            },
            {
              "internalType": "uint64",
              "name": "nonce",
              "type": "uint64"
            }
          ],
          "internalType": "struct Origin",
          "name": "",
          "type": "tuple"
        },
        {
          "internalType": "bytes",
          "name": "",
          "type": "bytes"
        },
        {
          "internalType": "address",
          "name": "_sender",
          "type": "address"
        }
      ],
      "name": "isComposeMsgSender",
      "outputs": [
        {
          "internalType": "bool",
          "name": "",
          "type": "bool"
        }
      ],
      "stateMutability": "view",
      "type": "function"
    },
    {
      "inputs": [
        {
          "components": [
            {
              "internalType": "uint32",
              "name": "srcEid",
              "type": "uint32"
            },
            {
              "internalType": "bytes32",
              "name": "sender",
              "type": "bytes32"
            },
            {
              "internalType": "uint64",
              "name": "nonce",
              "type": "uint64"
            }
          ],
          "internalType": "struct Origin",
          "name": "_origin",
          "type": "tuple"
        },
        {
          "internalType": "bytes32",
          "name": "_guid",
          "type": "bytes32"
        },
        {
          "internalType": "bytes",
          "name": "_message",
          "type": "bytes"
        },
        {
          "internalType": "address",
          "name": "_executor",
          "type": "address"
        },
        {
          "internalType": "bytes",
          "name": "_extraData",
          "type": "bytes"
        }
      ],
      "name": "lzReceive",
      "outputs": [],
      "stateMutability": "payable",
      "type": "function"
    },
    {
      "inputs": [
        {
          "internalType": "uint32",
          "name": "",
          "type": "uint32"
        },
        {
          "internalType": "bytes32",
          "name": "",
          "type": "bytes32"
        }
      ],
      "name": "nextNonce",
      "outputs": [
        {
          "internalType": "uint64",
          "name": "nonce",
          "type": "uint64"
        }
      ],
      "stateMutability": "view",
      "type": "function"
    },
    {
      "inputs": [],
      "name": "oAppVersion",
      "outputs": [
        {
          "internalType": "uint64",
          "name": "senderVersion",
          "type": "uint64"
        },
        {
          "internalType": "uint64",
          "name": "receiverVersion",
          "type": "uint64"
        }
      ],
      "stateMutability": "pure",
      "type": "function"
    },
    {
      "inputs": [],
      "name": "owner",
      "outputs": [
        {
          "internalType": "address",
          "name": "",
          "type": "address"
        }
      ],
      "stateMutability": "view",
      "type": "function"
    },
    {
      "inputs": [
        {
          "internalType": "uint32",
          "name": "eid",
          "type": "uint32"
        }
      ],
      "name": "peers",
      "outputs": [
        {
          "internalType": "bytes32",
          "name": "peer",
          "type": "bytes32"
        }
      ],
      "stateMutability": "view",
      "type": "function"
    },
    {
      "inputs": [
        {
          "internalType": "uint32",
          "name": "_dstEid",
          "type": "uint32"
        },
        {
          "internalType": "bytes",
          "name": "_options",
          "type": "bytes"
        }
      ],
      "name": "quote",
      "outputs": [
        {
          "components": [
            {
              "internalType": "uint256",
              "name": "nativeFee",
              "type": "uint256"
            },
            {
              "internalType": "uint256",
              "name": "lzTokenFee",
              "type": "uint256"
            }
          ],
          "internalType": "struct MessagingFee",
          "name": "fee",
          "type": "tuple"
        }
      ],
      "stateMutability": "view",
      "type": "function"
    },
    {
      "inputs": [],
      "name": "registerMe",
      "outputs": [],
      "stateMutability": "nonpayable",
      "type": "function"
    },
    {
      "inputs": [],
      "name": "renounceOwnership",
      "outputs": [],
      "stateMutability": "nonpayable",
      "type": "function"
    },
    {
      "inputs": [],
      "name": "requestCounter",
      "outputs": [
        {
          "internalType": "uint64",
          "name": "",
          "type": "uint64"
        }
      ],
      "stateMutability": "view",
      "type": "function"
    },
    {
      "inputs": [
        {
          "internalType": "uint32",
          "name": "_dstEid",
          "type": "uint32"
        },
        {
          "internalType": "bytes",
          "name": "_options",
          "type": "bytes"
        }
      ],
      "name": "requestRandomWords",
      "outputs": [
        {
          "components": [
            {
              "internalType": "bytes32",
              "name": "guid",
              "type": "bytes32"
            },
            {
              "internalType": "uint64",
              "name": "nonce",
              "type": "uint64"
            },
            {
              "components": [
                {
                  "internalType": "uint256",
                  "name": "nativeFee",
                  "type": "uint256"
                },
                {
                  "internalType": "uint256",
                  "name": "lzTokenFee",
                  "type": "uint256"
                }
              ],
              "internalType": "struct MessagingFee",
              "name": "fee",
              "type": "tuple"
            }
          ],
          "internalType": "struct MessagingReceipt",
          "name": "receipt",
          "type": "tuple"
        },
        {
          "internalType": "uint64",
          "name": "requestId",
          "type": "uint64"
        }
      ],
      "stateMutability": "payable",
      "type": "function"
    },
    {
      "inputs": [
        {
          "internalType": "uint32",
          "name": "_dstEid",
          "type": "uint32"
        }
      ],
      "name": "requestRandomWordsSimple",
      "outputs": [
        {
          "components": [
            {
              "internalType": "bytes32",
              "name": "guid",
              "type": "bytes32"
            },
            {
              "internalType": "uint64",
              "name": "nonce",
              "type": "uint64"
            },
            {
              "components": [
                {
                  "internalType": "uint256",
                  "name": "nativeFee",
                  "type": "uint256"
                },
                {
                  "internalType": "uint256",
                  "name": "lzTokenFee",
                  "type": "uint256"
                }
              ],
              "internalType": "struct MessagingFee",
              "name": "fee",
              "type": "tuple"
            }
          ],
          "internalType": "struct MessagingReceipt",
          "name": "receipt",
          "type": "tuple"
        },
        {
          "internalType": "uint64",
          "name": "requestId",
          "type": "uint64"
        }
      ],
      "stateMutability": "payable",
      "type": "function"
    },
    {
      "inputs": [],
      "name": "requestTimeout",
      "outputs": [
        {
          "internalType": "uint256",
          "name": "",
          "type": "uint256"
        }
      ],
      "stateMutability": "view",
      "type": "function"
    },
    {
      "inputs": [
        {
          "internalType": "uint64",
          "name": "",
          "type": "uint64"
        }
      ],
      "name": "s_requests",
      "outputs": [
        {
          "internalType": "bool",
          "name": "fulfilled",
          "type": "bool"
        },
        {
          "internalType": "bool",
          "name": "exists",
          "type": "bool"
        },
        {
          "internalType": "address",
          "name": "provider",
          "type": "address"
        },
        {
          "internalType": "uint256",
          "name": "randomWord",
          "type": "uint256"
        },
        {
          "internalType": "uint256",
          "name": "timestamp",
          "type": "uint256"
        },
        {
          "internalType": "bool",
          "name": "isContract",
          "type": "bool"
        }
      ],
      "stateMutability": "view",
      "type": "function"
    },
    {
      "inputs": [
        {
          "internalType": "address",
          "name": "caller",
          "type": "address"
        },
        {
          "internalType": "bool",
          "name": "authorized",
          "type": "bool"
        }
      ],
      "name": "setAuthorizedCaller",
      "outputs": [],
      "stateMutability": "nonpayable",
      "type": "function"
    },
    {
      "inputs": [
        {
          "internalType": "address",
          "name": "_lib",
          "type": "address"
        },
        {
          "components": [
            {
              "internalType": "uint32",
              "name": "eid",
              "type": "uint32"
            },
            {
              "internalType": "uint32",
              "name": "configType",
              "type": "uint32"
            },
            {
              "internalType": "bytes",
              "name": "config",
              "type": "bytes"
            }
          ],
          "internalType": "struct SetConfigParam[]",
          "name": "_params",
          "type": "tuple[]"
        }
      ],
      "name": "setConfig",
      "outputs": [],
      "stateMutability": "nonpayable",
      "type": "function"
    },
    {
      "inputs": [
        {
          "internalType": "uint32",
          "name": "_newGasLimit",
          "type": "uint32"
        }
      ],
      "name": "setDefaultGasLimit",
      "outputs": [],
      "stateMutability": "nonpayable",
      "type": "function"
    },
    {
      "inputs": [
        {
          "internalType": "address",
          "name": "_delegate",
          "type": "address"
        }
      ],
      "name": "setDelegate",
      "outputs": [],
      "stateMutability": "nonpayable",
      "type": "function"
    },
    {
      "inputs": [
        {
          "components": [
            {
              "internalType": "uint32",
              "name": "eid",
              "type": "uint32"
            },
            {
              "internalType": "uint16",
              "name": "msgType",
              "type": "uint16"
            },
            {
              "internalType": "bytes",
              "name": "options",
              "type": "bytes"
            }
          ],
          "internalType": "struct EnforcedOptionParam[]",
          "name": "_enforcedOptions",
          "type": "tuple[]"
        }
      ],
      "name": "setEnforcedOptions",
      "outputs": [],
      "stateMutability": "nonpayable",
      "type": "function"
    },
    {
      "inputs": [
        {
          "internalType": "uint32",
          "name": "_eid",
          "type": "uint32"
        },
        {
          "internalType": "bytes32",
          "name": "_peer",
          "type": "bytes32"
        }
      ],
      "name": "setPeer",
      "outputs": [],
      "stateMutability": "nonpayable",
      "type": "function"
    },
    {
      "inputs": [
        {
          "internalType": "uint256",
          "name": "_newTimeout",
          "type": "uint256"
        }
      ],
      "name": "setRequestTimeout",
      "outputs": [],
      "stateMutability": "nonpayable",
      "type": "function"
    },
    {
      "inputs": [
        {
          "internalType": "address",
          "name": "newOwner",
          "type": "address"
        }
      ],
      "name": "transferOwnership",
      "outputs": [],
      "stateMutability": "nonpayable",
      "type": "function"
    },
    {
      "inputs": [],
      "name": "withdraw",
      "outputs": [],
      "stateMutability": "nonpayable",
      "type": "function"
    },
    {
      "stateMutability": "payable",
      "type": "receive"
    }
  ],
  "transactionHash": "0x5d585200bdb99d32d120eac5813c26f1a160ea9ed71687601b5a7411ae6d064d",
  "args": [
    "0x6F475642a6e85809B1c36Fa62763669b1b48DD5B",
    "0xDDd0050d1E084dFc72d5d06447Cc10bcD3fEF60F"
  ],
  "numDeployments": 4,
  "solcInputHash": "163865cc55892e8ecff25c8dca601d8f",
  "bytecode": "0x60a0806040523461018957600090604081612e038038038091610022828561018e565b83398101031261016257610035816101c7565b906001600160a01b039061004b906020016101c7565b169081156101755782546001600160a01b031981168317845560405192906001600160a01b03167f8be0079c531659141344cd1fd0a4f28419497f9722a3daafe3b4186f6b6457e08580a36001600160a01b031660808190523015610166578083913b156101625760248383819363ca5eb5e160e01b83523060048401525af1801561015757610147575b6a0aae6000000000000000006bffffffff000000000000000019600354161760035561012c600555604051612c2790816101dc82396080518181816102f8015281816104df0152818161085f01528181610e7c01528181610ef6015281816116c30152818161255901526129c90152f35b816101519161018e565b386100d6565b6040513d84823e3d90fd5b5080fd5b632d618d8160e21b8352600483fd5b631e4fbdf760e01b83526004839052602483fd5b600080fd5b601f909101601f19168101906001600160401b038211908210176101b157604052565b634e487b7160e01b600052604160045260246000fd5b51906001600160a01b03821682036101895756fe6080604052600436101561001b575b361561001957600080fd5b005b60003560e01c806313137d651461023b57806315add09b1461023657806317442b701461023157806320efd7221461022c5780633400288b146102275780633ccfd60b146102225780633f20b4c91461021d5780634214d2e514610218578063454bbd29146102135780634fa902991461020e578063524b6f70146102095780635535d4611461020457806358aac24b146101ff5780635e280f11146101fa578063622b6af4146101f55780636c6ba2e4146101f05780636cc749fa146101eb578063715018a6146101e65780637d25a05e146101e157806382413eac146101dc5780638da5cb5b146101d757806395368d2e146101d2578063973a814e146101cd57806397965200146101c85780639a198d61146101c3578063b98bd070146101be578063bb0b6a53146101b9578063bc70b354146101b4578063bd097e21146101af578063c032846b146101aa578063ca5eb5e1146101a5578063dfc83b85146101a0578063f2fde38b1461019b5763ff7bd03d0361000e576118f2565b611865565b611741565b611699565b611677565b6115ec565b611598565b61155d565b61147a565b6113cf565b61129c565b61124b565b611224565b6111fb565b61119d565b611176565b61111d565b611058565b610f8a565b610f25565b610ee0565b610e02565b610d94565b610b31565b61096b565b6108f8565b61079c565b610740565b6106bb565b61064c565b610498565b610446565b6103a0565b610294565b606090600319011261025157600490565b600080fd5b9181601f84011215610251578235916001600160401b038311610251576020838186019501011161025157565b6001600160a01b0381160361025157565b60e0366003190112610251576102a936610240565b6084356001600160401b038111610251576102c8903690600401610256565b906102d460a435610283565b60c4356001600160401b038111610251576102f3903690600401610256565b5050337f00000000000000000000000000000000000000000000000000000000000000006001600160a01b03160361037a578235926103318461063e565b61033a84611e4f565b9360208201358095036103525750610019935061216b565b63ffffffff81610362879361063e565b63309afaf360e21b6000521660045260245260446000fd5b6391ac5e4f60e01b6000523360045260246000fd5b6001600160401b0381160361025157565b34610251576020366003190112610251576001600160401b036004356103c58161038f565b16600090815260046020908152604091829020805460018201546002830154600390930154855160ff80851615158252600885901c811615159682019690965260109390931c6001600160a01b031695830195909552606082015260808101919091529116151560a08201528060c081015b0390f35b600091031261025157565b3461025157600036600319011261025157604080516001815260026020820152f35b9181601f84011215610251578235916001600160401b038311610251576020808501948460051b01011161025157565b34610251576040366003190112610251576004356104b581610283565b6024356001600160401b038111610251576104d4903690600401610468565b906104dd612411565b7f00000000000000000000000000000000000000000000000000000000000000006001600160a01b031691823b15610251576040516306dbd9f960e41b81523060048201526001600160a01b03909416602485015260606044850152606484018190528391600582901b830160849081019290840160008336819003605e19015b8483106105975787600081808a0381838e5af180156105925761057d57005b8061058c600061001993610c75565b8061043b565b611964565b919395909294965060831989820301855286358281121561025157830163ffffffff81356105c48161063e565b16825263ffffffff60208201356105da8161063e565b1660208301526040810135601e19823603018112156102515701602081359101906001600160401b0381116102515780360382136102515761062c602092839260608681604060019901520191611943565b9801950193019091889695939261055e565b63ffffffff81160361025157565b34610251576040366003190112610251577f238399d427b947898edb290f5ff0f9109849b1c3ba196a42e35f00c50a54b98b604060043561068c8161063e565b63ffffffff6024359161069d612411565b169081600052600160205280836000205582519182526020820152a1005b34610251576000366003190112610251576106d4612411565b4780156107025760008054610019928291829182916001600160a01b03165af16106fc6119b8565b506119e8565b60405162461bcd60e51b81526020600482015260166024820152754e6f2062616c616e636520746f20776974686472617760501b6044820152606490fd5b34610251576000366003190112610251576020600554604051908152f35b906040600319830112610251576004356107778161063e565b91602435906001600160401b0382116102515761079691600401610256565b9091565b565b34610251576107aa3661075e565b916107b3611a28565b5060016001600160401b0360035416016001600160401b0381116108e95761080160409361085b956001600160401b03865194166020850152602084526107fa8685610c75565b3691611a57565b9061080a611a28565b5061081483611e4f565b61082b61081f611970565b63ffffffff9095168552565b602084015283830152606082015260006080820152815180938192631bb8518b60e31b835230906004840161244e565b03817f00000000000000000000000000000000000000000000000000000000000000006001600160a01b03165afa801561059257610437916000916108ba575b5060405191829182815181526020918201519181019190915260400190565b6108dc915060403d6040116108e2575b6108d48183610c75565b81019061243a565b3861089b565b503d6108ca565b611a41565b8015150361025157565b3461025157604036600319011261025157610914600435610283565b61091f6024356108ee565b610019612411565b9092916001600160401b03608091610965604060a0860197805187528460208201511660208801520151604086019060208091805184520151910152565b16910152565b6109743661075e565b919061097e611a8e565b506109a461099c8363ffffffff166000526001602052604060002090565b541515611ab6565b6109dd6109c16109bc6003546001600160401b031690565b611af1565b6001600160401b03166001600160401b03196003541617600355565b610a9a6109f26003546001600160401b031690565b93610a4f333b1515610a2d610a0561197f565b60008152600160208201529133604084015260006060840152426080840152151560a0830152565b610a4a876001600160401b03166000526004602052604060002090565b611b0e565b604080516001600160401b03871660208083019190915281529390610a749085610c75565b610a93610a7f61198e565b913483526000602084015233933691611a57565b84866124d0565b917f3a8744d4061980ac1a6bb5f85c2c53827a65051071a7df168bcd1eb5a4040a8263ffffffff6001600160401b03861692604051847fc692ab66a42de77967f85d085f15bce2d41276a0f35f0b321e599b8750fcc6ec339280610b0b868291909163ffffffff6020820193169052565b0390a3610b1f604051928392169582610d80565b0390a361043760405192839283610927565b34610251576020366003190112610251577f84858bb3fb3ecf87e268ebef250ef9ad9cd53ef7973ef7a0ec9d89470bb00a806040600435610b718161063e565b610b79612411565b63ffffffff6003549163ffffffff60401b81851b1663ffffffff60401b1984161760035581845193851c168352166020820152a1005b6024359061ffff8216820361025157565b359061ffff8216820361025157565b90600182811c92168015610bff575b6020831014610be957565b634e487b7160e01b600052602260045260246000fd5b91607f1691610bde565b634e487b7160e01b600052604160045260246000fd5b60c081019081106001600160401b03821117610c3a57604052565b610c09565b606081019081106001600160401b03821117610c3a57604052565b604081019081106001600160401b03821117610c3a57604052565b90601f801991011681019081106001600160401b03821117610c3a57604052565b9060405191826000825492610caa84610bcf565b8084529360018116908115610d165750600114610ccf575b5061079a92500383610c75565b90506000929192526020600020906000915b818310610cfa57505090602061079a9282010138610cc2565b6020919350806001915483858901015201910190918492610ce1565b90506020925061079a94915060ff191682840152151560051b82010138610cc2565b60005b838110610d4b5750506000910152565b8181015183820152602001610d3b565b90602091610d7481518092818552858086019101610d38565b601f01601f1916010190565b906020610d91928181520190610d5b565b90565b3461025157604036600319011261025157610437610dee610de9600435610dba8161063e565b63ffffffff610dc7610baf565b9116600052600260205260406000209061ffff16600052602052604060002090565b610c96565b604051918291602083526020830190610d5b565b3461025157606036600319011261025157600435610e1f81610283565b63ffffffff602435610e308161063e565b8160443591610e3e8361063e565b604051632b3197b960e01b81523060048201526001600160a01b039586166024820152911660448201529116606482015290600090829060849082907f0000000000000000000000000000000000000000000000000000000000000000165afa80156105925761043791600091610ebd575b5060405191829182610d80565b610eda91503d806000833e610ed28183610c75565b810190611ba6565b38610eb0565b34610251576000366003190112610251576040517f00000000000000000000000000000000000000000000000000000000000000006001600160a01b03168152602090f35b34610251576020366003190112610251577f87a73c061f18ffd513249d1d727921e40e348948b01e2979efb36ef4f5204a63600435610f62612411565b60055481600555610f856040519283928360209093929193604081019481520152565b0390a1005b602036600319011261025157610ffe60a0600435610fa78161063e565b610faf611a8e565b50604051600360f01b602082015260028152610fe290610fd0602282610c75565b60035460401c63ffffffff16906125cd565b604051634fa9029960e01b815293849283929060048401611c8d565b038134305af190811561059257600090600092611026575b5061043760405192839283610927565b905061104a915060a03d60a011611051575b6110428183610c75565b810190611c69565b9038611016565b503d611038565b34610251576020366003190112610251576001600160401b0360043561107d8161038f565b166000526004602052604060002061110b6040519161109b83610c1f565b805460ff80821615158552600882901c16151560208501526110d39060101c6001600160a01b03166001600160a01b03166040850152565b6111036110fa60036001840154936060870194855260028101546080880152015460ff1690565b151560a0850152565b519151151590565b60408051928352901515602083015290f35b3461025157600036600319011261025157611136612411565b600080546001600160a01b0319811682556001600160a01b03167f8be0079c531659141344cd1fd0a4f28419497f9722a3daafe3b4186f6b6457e08280a3005b346102515760403660031901126102515761119260043561063e565b602060405160008152f35b346102515760a0366003190112610251576111b736610240565b506064356001600160401b038111610251576111d7903690600401610256565b505060206084356111e781610283565b6040516001600160a01b0390911630148152f35b34610251576000366003190112610251576000546040516001600160a01b039091168152602090f35b3461025157600036600319011261025157602063ffffffff60035460401c16604051908152f35b346102515760003660031901126102515760206001600160401b0360035416604051908152f35b602060031982011261025157600435906001600160401b0382116102515761079691600401610468565b34610251576112aa36611272565b906112b86032831115611caa565b60005b8281106112c457005b806112da6112d56001938686611d0c565b611d21565b6112f7816001600160401b03166000526004602052604060002090565b805490600882901c60ff1690816113b9575b8161139f575b5061131d575b5050016112bb565b6001600160401b039060101c6001600160a01b031661136a611352846001600160401b03166000526004602052604060002090565b60036000918281558260018201558260028201550155565b848060a01b031691167f5e91efadbe85ae432c787daac558390b5a5b19def94f6401b202b1f46bd785f6600080a33880611315565b6113b191506002015460055490611d2b565b42113861130f565b905060ff8216156113c9565b1590565b90611309565b346102515760003660031901126102515760008060405160208101906307983f4560e21b8252608f60248201526024815261140b604482610c75565b51908273dc2b0d2dd2b7759d97d50db4eabdc369731108305af161142d6119b8565b501561143557005b60405162461bcd60e51b815260206004820152601860248201527f4665654d20726567697374726174696f6e206661696c656400000000000000006044820152606490fd5b346102515761148836611272565b90611491612411565b61149a82611d38565b906114a86040519283610c75565b828252602082019260051b8101903682116102515780935b8285106114d0576100198461289c565b84356001600160401b0381116102515782019060608236031261025157604051916114fa83610c3f565b80356115058161063e565b835261151360208201610bc0565b60208401526040810135906001600160401b03821161025157019036601f830112156102515760209261154d849336908581359101611a57565b60408201528152019401936114c0565b346102515760203660031901126102515763ffffffff60043561157f8161063e565b1660005260016020526020604060002054604051908152f35b34610251576060366003190112610251576004356115b58161063e565b6115bd610baf565b604435906001600160401b03821161025157610437926115e4610dee933690600401610256565b929091611d9d565b6000366003190112610251573415611632576040805134815247602082015233917f3b31cbadfd3fd939750f09d3bdbd6c0531dde23f05d55dcc202798f39d09089591a2005b60405162461bcd60e51b815260206004820152601e60248201527f4d7573742073656e642045544820746f2066756e6420636f6e747261637400006044820152606490fd5b3461025157600036600319011261025157604080514780825215156020820152f35b34610251576000602036600319011261173e57806004356116b981610283565b6116c1612411565b7f00000000000000000000000000000000000000000000000000000000000000006001600160a01b0316803b1561173a5760405163ca5eb5e160e01b81526001600160a01b0390921660048301529091908290602490829084905af1801561059257829061172c5780f35b61173591610c75565b388180f35b5050fd5b80fd5b34610251576020366003190112610251576001600160401b036004356117668161038f565b166000526004602052604060002060405161178081610c1f565b815460ff80821615158352600882901c16151560208301908152916104379160101c6001600160a01b03166001600160a01b031660408201908152936118136118056117fe600184015494606081019586526117f86117ef600360028801549760808501988952015460ff1690565b151560a0830152565b51151590565b9551151590565b95516001600160a01b031690565b915190519061182460055483611d2b565b4211926040519687968794919260a0949197969360c08701981515875215156020870152600180861b03166040860152606085015260808401521515910152565b346102515760203660031901126102515760043561188281610283565b61188a612411565b6001600160a01b031680156118dc57600080546001600160a01b03198116831782556001600160a01b0316907f8be0079c531659141344cd1fd0a4f28419497f9722a3daafe3b4186f6b6457e09080a3005b631e4fbdf760e01b600052600060045260246000fd5b3461025157606036600319011261025157602061190e36610240565b63ffffffff813561191e8161063e565b16600052600182528160406000205491013560405191148152f35b35610d918161063e565b908060209392818452848401376000828201840152601f01601f1916010190565b6040513d6000823e3d90fd5b6040519061079a60a083610c75565b6040519061079a60c083610c75565b6040519061079a604083610c75565b6001600160401b038111610c3a57601f01601f191660200190565b3d156119e3573d906119c98261199d565b916119d76040519384610c75565b82523d6000602084013e565b606090565b156119ef57565b60405162461bcd60e51b815260206004820152601160248201527015da5d1a191c985dd85b0819985a5b1959607a1b6044820152606490fd5b60405190611a3582610c5a565b60006020838281520152565b634e487b7160e01b600052601160045260246000fd5b929192611a638261199d565b91611a716040519384610c75565b829481845281830111610251578281602093846000960137010152565b60405190611a9b82610c3f565b8160008152600060208201526040611ab1611a28565b910152565b15611abd57565b60405162461bcd60e51b815260206004820152600c60248201526b1419595c881b9bdd081cd95d60a21b6044820152606490fd5b6001600160401b03166001600160401b0381146108e95760010190565b6003611b9360a061079a94611b3281511515869060ff801983541691151516179055565b602081015185546040830151610100600160b01b031990911691151560081b61ff001691909117600019600180861b9190910190921660101b62010000600160b01b0316178655606082015190860155608081015160028601550151151590565b91019060ff801983541691151516179055565b602081830312610251578051906001600160401b038211610251570181601f82011215610251578051611bd88161199d565b92611be66040519485610c75565b8184526020828401011161025157610d919160208085019101610d38565b919082604091031261025157604051611c1c81610c5a565b6020808294805184520151910152565b9190608083820312610251576040611ab1815192611c4984610c3f565b828496805186526020810151611c5e8161038f565b602087015201611c04565b919060a08382031261025157611c8160809184611c2c565b920151610d918161038f565b60409063ffffffff610d9194931681528160208201520190610d5b565b15611cb157565b60405162461bcd60e51b815260206004820152601c60248201527f546f6f206d616e7920726571756573747320746f20636c65616e7570000000006044820152606490fd5b634e487b7160e01b600052603260045260246000fd5b9190811015611d1c5760051b0190565b611cf6565b35610d918161038f565b919082018092116108e957565b6001600160401b038111610c3a5760051b60200190565b60208361079a939594956040519684611d71899651809287808a019101610d38565b8501918483013701016000815203601f198101845283610c75565b916020610d91938181520191611943565b611dcf9163ffffffff610de9929694959616600052600260205260406000209061ffff16600052602052604060002090565b805115611e41578315611e3b576002841015611e07575050611e03604051928392639a6d49cd60e01b845260048401611d8c565b0390fd5b909192611e1d611e18368387611a57565b612963565b60008160021161173e57506002610d91939401906001190191611d4f565b92509050565b509190610d91913691611a57565b63ffffffff16806000526001602052604060002054908115611e6f575090565b63f6ff4fb760e01b60005260045260246000fd5b15611e8a57565b60405162461bcd60e51b815260206004820152600c60248201526b155b985d5d1a1bdc9a5e995960a21b6044820152606490fd5b15611ec557565b60405162461bcd60e51b8152602060048201526014602482015273496e76616c6964207061796c6f61642073697a6560601b6044820152606490fd5b91908260409103126102515760208235611f1a8161038f565b92013590565b15611f2757565b60405162461bcd60e51b815260206004820152601160248201527014995c5d595cdd081b9bdd08199bdd5b99607a1b6044820152606490fd5b15611f6757565b60405162461bcd60e51b815260206004820152601960248201527f5265717565737420616c72656164792066756c66696c6c6564000000000000006044820152606490fd5b15611fb357565b60405162461bcd60e51b815260206004820152600f60248201526e14995c5d595cdd08195e1c1a5c9959608a1b6044820152606490fd5b15611ff157565b60405162461bcd60e51b8152602060048201526012602482015271141c9bdd9a59195c881b9bdd08199bdd5b9960721b6044820152606490fd5b6040805190919061203c8382610c75565b6001815291601f1901366020840137565b805115611d1c5760200190565b8051821015611d1c5760209160051b010190565b906020808351928381520192019060005b81811061208c5750505090565b825184526020938401939092019160010161207f565b906020610d9192818152019061206e565b906001600160401b036120d360209295949560408552604085019061206e565b9416910152565b60009060033d116120e757565b905060046000803e60005160e01c90565b600060443d10610d91576040513d600319016004823e8051913d60248401116001600160401b0384111761216557828201928351916001600160401b03831161215d573d8401600319018584016020011161215d5750610d9192910160200190610c75565b949350505050565b92915050565b916121a16121b593602061219761218183611939565b63ffffffff166000526001602052604060002090565b5491013514611e83565b6121ad60288214611ebe565b810190611f01565b906121d3816001600160401b03166000526004602052604060002090565b9081546121ec6121e78260ff9060081c1690565b611f20565b6121f960ff821615611f60565b61221561220d600285015460055490611d2b565b421115611fac565b60101c6001600160a01b03169261222d841515611fea565b825460ff1916600117835580600184015561224661202b565b906122508261204d565b5261229d60036001600160401b0384169486867f449d4271a3c46d512a0312690033b987f3a43884f8aa1fb51059ec52f8f38eb36040518061229289826120a2565b0390a3015460ff1690565b6122a8575b50505050565b833b156102515760405163098d841960e21b815291600091839182916122d29190600484016120b3565b038183875af190816123fc575b506123d25760016122ee6120da565b6308c379a01461237e575b61230a575b50505b388080806122a2565b6123126119b8565b507f192c360218ccd0c8d917f749782e1f90b06e688ad65ec60bfc98713752ab7069604051806123748160609060208152601a60208201527f4c6f772d6c6576656c2063616c6c6261636b206661696c75726500000000000060408201520190565b0390a338806122fe565b6123866120f8565b80612392575b506122f9565b905082827f192c360218ccd0c8d917f749782e1f90b06e688ad65ec60bfc98713752ab70696123c960009460405191829182610d80565b0390a33861238c565b7f681f01c6b08957321237e07e2ea63323b1af5cd76b63a8b4af43f7c9aff310fd600080a3612301565b8061058c600061240b93610c75565b386122df565b6000546001600160a01b0316330361242557565b63118cdaa760e01b6000523360045260246000fd5b9060408282031261025157610d9191611c04565b906020909392936040835263ffffffff815116604084015281810151606084015260806124a261248c604084015160a08488015260e0870190610d5b565b6060840151868203603f190160a0880152610d5b565b910151151560c08401526001600160a01b03909416910152565b9060808282031261025157610d9191611c2c565b6125396080949261255596946124e4611a8e565b5060206124f1865161299b565b9501918251806125be575b5061250685611e4f565b9251151592612522612516611970565b63ffffffff9097168752565b602086015260408501526060840152151585830152565b6040518095819482936302637a4560e41b84526004840161244e565b03917f00000000000000000000000000000000000000000000000000000000000000006001600160a01b03165af190811561059257600091612595575090565b610d91915060803d6080116125b7575b6125af8183610c75565b8101906124bc565b503d6125a5565b6125c7906129ba565b386124fc565b600361ffff6125db83612a73565b16036126e8576040519160208301906fffffffffffffffffffffffffffffffff199060801b16815260108352612612603084610c75565b600361ffff61262084612a73565b16036126c757825161ffff81116126ae5761ffff60019116019161ffff83116108e9576020600492610d919461269d60405197856126678a9751809288808b019101610d38565b600160f81b90870186810182905260f09490941b6001600160f01b03191660218501526023840152519283906024840190610d38565b01010301601f198101835282610c75565b6306dfcc6560e41b600052601060045260245260446000fd5b61ffff6126d383612a73565b633a51740d60e01b6000521660045260246000fd5b6126d361ffff91612a73565b601f821161270157505050565b6000526020600020906020601f840160051c8301931061273c575b601f0160051c01905b818110612730575050565b60008155600101612725565b909150819061271c565b91909182516001600160401b038111610c3a5761276d816127678454610bcf565b846126f4565b6020601f82116001146127ae57819061279f9394956000926127a3575b50508160011b916000199060031b1c19161790565b9055565b01519050388061278a565b601f198216906127c384600052602060002090565b9160005b8181106127ff575095836001959697106127e6575b505050811b019055565b015160001960f88460031b161c191690553880806127dc565b9192602060018192868b0151815501940192016127c7565b602081016020825282518091526040820191602060408360051b8301019401926000915b83831061284a57505050505090565b909192939460208061288d600193603f19868203018752606060408b5163ffffffff815116845261ffff8682015116868501520151918160408201520190610d5b565b9701930193019193929061283b565b60005b815181101561292c57806128c260406128ba6001948661205a565b510151612963565b61292660406128d1838661205a565b51015163ffffffff6128e3848761205a565b5151166000526002602052612921604060002061290f6020612905878a61205a565b51015161ffff1690565b61ffff16600052602052604060002090565b612746565b0161289f565b5061295e7fbe4864a8e820971c0247f5992e2da559595f7bf076a21cb5928d443d2a13b6749160405191829182612817565b0390a1565b600361ffff600283015116036129765750565b604051639a6d49cd60e01b815260206004820152908190611e03906024830190610d5b565b8034036129a55790565b6304fb820960e51b6000523460045260246000fd5b60405163393f876560e21b81527f00000000000000000000000000000000000000000000000000000000000000006001600160a01b03169190602081600481865afa90811561059257600091612a38575b506001600160a01b0316918215612a275761079a923390612abf565b6329b99a9560e11b60005260046000fd5b90506020813d602011612a6b575b81612a5360209383610c75565b810103126102515751612a6581610283565b38612a0b565b3d9150612a46565b6002815110612a83576002015190565b60405162461bcd60e51b8152602060048201526014602482015273746f55696e7431365f6f75744f66426f756e647360601b6044820152606490fd5b6040516323b872dd60e01b602082019081526001600160a01b03938416602483015293909216604483015260648083019490945292815291612b2a91600091829190612b0c608487610c75565b60018060a01b031694519082865af1612b236119b8565b9083612b90565b8051908115159182612b5d575b5050612b405750565b635274afe760e01b6000526001600160a01b031660045260246000fd5b612b749250906020806113c5938301019101612b7b565b3880612b37565b908160209103126102515751610d91816108ee565b90612bb65750805115612ba557805190602001fd5b630a12f52160e11b60005260046000fd5b81511580612be8575b612bc7575090565b639996b31560e01b60009081526001600160a01b0391909116600452602490fd5b50803b15612bbf56fea2646970667358221220f62daa7a9bf230e74718d31dc644e995fe354960c6f4912a08e2a12430c8485864736f6c634300081c0033",
  "devdoc": {
    "errors": {
      "AddressEmptyCode(address)": [
        {
          "details": "There's no code at `target` (it is not a contract)."
        }
      ],
      "AddressInsufficientBalance(address)": [
        {
          "details": "The ETH balance of the account is not enough to perform the operation."
        }
      ],
      "FailedInnerCall()": [
        {
          "details": "A call to an address target failed. The target may have reverted."
        }
      ],
      "OwnableInvalidOwner(address)": [
        {
          "details": "The owner is not a valid owner account. (eg. `address(0)`)"
        }
      ],
      "OwnableUnauthorizedAccount(address)": [
        {
          "details": "The caller account is not authorized to perform an operation."
        }
      ],
      "SafeCastOverflowedUintDowncast(uint8,uint256)": [
        {
          "details": "Value doesn't fit in an uint of `bits` size."
        }
      ],
      "SafeERC20FailedOperation(address)": [
        {
          "details": "An operation with an ERC20 token failed."
        }
      ]
    },
    "kind": "dev",
    "methods": {
      "allowInitializePath((uint32,bytes32,uint64))": {
        "details": "This indicates to the endpoint that the OApp has enabled msgs for this particular path to be received.This defaults to assuming if a peer has been set, its initialized. Can be overridden by the OApp if there is other logic to determine this.",
        "params": {
          "origin": "The origin information containing the source endpoint and sender address."
        },
        "returns": {
          "_0": "Whether the path has been initialized."
        }
      },
      "checkRequestStatus(uint64)": {
        "details": "In LayerZero V2, retry is handled by the executor infrastructure      This function is for administrative purposes and monitoring",
        "params": {
          "requestId": "The request ID that may need attention"
        }
      },
      "cleanupExpiredRequests(uint64[])": {
        "details": "Clean up expired requests (anyone can call)",
        "params": {
          "requestIds": "Array of request IDs to clean up (max 50 per transaction)"
        }
      },
      "combineOptions(uint32,uint16,bytes)": {
        "details": "If there is an enforced lzReceive option: - {gasLimit: 200k, msg.value: 1 ether} AND a caller supplies a lzReceive option: {gasLimit: 100k, msg.value: 0.5 ether} - The resulting options will be {gasLimit: 300k, msg.value: 1.5 ether} when the message is executed on the remote lzReceive() function.This presence of duplicated options is handled off-chain in the verifier/executor.",
        "params": {
          "_eid": "The endpoint ID.",
          "_extraOptions": "Additional options passed by the caller.",
          "_msgType": "The OAPP message type."
        },
        "returns": {
          "_0": "options The combination of caller specified options AND enforced options."
        }
      },
      "fundContract()": {
        "details": "Fund contract with ETH for LayerZero operations"
      },
      "getConfig(address,uint32,uint32)": {
        "details": "Get LayerZero configuration",
        "params": {
          "_configType": "The configuration type",
          "_eid": "The endpoint ID",
          "_lib": "The message library address"
        },
        "returns": {
          "config": "The configuration bytes"
        }
      },
      "getContractStatus()": {
        "details": "Get current contract balance and status",
        "returns": {
          "balance": "Current ETH balance",
          "canOperate": "Whether contract has sufficient funds for operations"
        }
      },
      "getRandomWord(uint64)": {
        "params": {
          "requestId": "The request ID to query"
        },
        "returns": {
          "fulfilled": "Whether the request has been fulfilled",
          "randomWord": "The random word (0 if not fulfilled)"
        }
      },
      "isComposeMsgSender((uint32,bytes32,uint64),bytes,address)": {
        "details": "_origin The origin information containing the source endpoint and sender address.  - srcEid: The source chain endpoint ID.  - sender: The sender address on the src chain.  - nonce: The nonce of the message._message The lzReceive payload.Applications can optionally choose to implement separate composeMsg senders that are NOT the bridging layer.The default sender IS the OAppReceiver implementer.",
        "params": {
          "_sender": "The sender address."
        },
        "returns": {
          "_0": "isSender Is a valid sender."
        }
      },
      "lzReceive((uint32,bytes32,uint64),bytes32,bytes,address,bytes)": {
        "details": "Entry point for receiving messages or packets from the endpoint.Entry point for receiving msg/packet from the LayerZero endpoint.",
        "params": {
          "_executor": "The address of the executor for the received message.",
          "_extraData": "Additional arbitrary data provided by the corresponding executor.",
          "_guid": "The unique identifier for the received LayerZero message.",
          "_message": "The payload of the received message.",
          "_origin": "The origin information containing the source endpoint and sender address.  - srcEid: The source chain endpoint ID.  - sender: The sender address on the src chain.  - nonce: The nonce of the message."
        }
      },
      "nextNonce(uint32,bytes32)": {
        "details": "_srcEid The source endpoint ID._sender The sender address.The path nonce starts from 1. If 0 is returned it means that there is NO nonce ordered enforcement.Is required by the off-chain executor to determine the OApp expects msg execution is ordered.This is also enforced by the OApp.By default this is NOT enabled. ie. nextNonce is hardcoded to return 0.",
        "returns": {
          "nonce": "The next nonce."
        }
      },
      "oAppVersion()": {
        "returns": {
          "receiverVersion": "The version of the OAppReceiver.sol implementation.",
          "senderVersion": "The version of the OAppSender.sol implementation."
        }
      },
      "owner()": {
        "details": "Returns the address of the current owner."
      },
      "quote(uint32,bytes)": {
        "details": "Quote the fee for a random words request.",
        "params": {
          "_dstEid": "The destination endpoint ID.",
          "_options": "LayerZero options for the cross-chain message."
        }
      },
      "registerMe()": {
        "details": "Register my contract on Sonic FeeM"
      },
      "renounceOwnership()": {
        "details": "Leaves the contract without owner. It will not be possible to call `onlyOwner` functions. Can only be called by the current owner. NOTE: Renouncing ownership will leave the contract without an owner, thereby disabling any functionality that is only available to the owner."
      },
      "requestRandomWords(uint32,bytes)": {
        "details": "Main function to request random words from a peer VRF Consumer.",
        "params": {
          "_dstEid": "The destination endpoint ID (e.g., for Arbitrum).",
          "_options": "LayerZero options for the cross-chain message."
        }
      },
      "requestRandomWordsSimple(uint32)": {
        "details": "Convenience function to request random words with a default gas limit.",
        "params": {
          "_dstEid": "The destination endpoint ID (e.g., for Arbitrum)."
        }
      },
      "setAuthorizedCaller(address,bool)": {
        "details": "Authorize/deauthorize callers (owner only)",
        "params": {
          "authorized": "Whether to authorize or deauthorize",
          "caller": "The address to authorize/deauthorize"
        }
      },
      "setConfig(address,(uint32,uint32,bytes)[])": {
        "details": "Set LayerZero configuration (called by LayerZero tooling)",
        "params": {
          "_lib": "The message library address",
          "_params": "Array of configuration parameters"
        }
      },
      "setDefaultGasLimit(uint32)": {
        "details": "Allows the owner to set the default gas limit for simple requests.",
        "params": {
          "_newGasLimit": "The new default gas limit."
        }
      },
      "setDelegate(address)": {
        "details": "Only the owner/admin of the OApp can call this function.Provides the ability for a delegate to set configs, on behalf of the OApp, directly on the Endpoint contract.",
        "params": {
          "_delegate": "The address of the delegate to be set."
        }
      },
      "setEnforcedOptions((uint32,uint16,bytes)[])": {
        "details": "Sets the enforced options for specific endpoint and message type combinations.Only the owner/admin of the OApp can call this function.Provides a way for the OApp to enforce things like paying for PreCrime, AND/OR minimum dst lzReceive gas amounts etc.These enforced options can vary as the potential options/execution on the remote may differ as per the msgType. eg. Amount of lzReceive() gas necessary to deliver a lzCompose() message adds overhead you dont want to pay if you are only making a standard LayerZero message ie. lzReceive() WITHOUT sendCompose().",
        "params": {
          "_enforcedOptions": "An array of EnforcedOptionParam structures specifying enforced options."
        }
      },
      "setPeer(uint32,bytes32)": {
        "details": "Set peer for a specific endpoint ID (owner only)",
        "params": {
          "_eid": "The endpoint ID to set the peer for",
          "_peer": "The peer address (as bytes32)"
        }
      },
      "setRequestTimeout(uint256)": {
        "details": "Allows the owner to set the request timeout duration.",
        "params": {
          "_newTimeout": "The new timeout in seconds."
        }
      },
      "transferOwnership(address)": {
        "details": "Transfers ownership of the contract to a new account (`newOwner`). Can only be called by the current owner."
      },
      "withdraw()": {
        "details": "Emergency withdraw (owner only)"
      }
    },
    "title": "ChainlinkVRFIntegratorV2_5",
    "version": 1
  },
  "userdoc": {
    "kind": "user",
    "methods": {
      "allowInitializePath((uint32,bytes32,uint64))": {
        "notice": "Checks if the path initialization is allowed based on the provided origin."
      },
      "checkRequestStatus(uint64)": {
        "notice": "Manual retry for stuck LayerZero messages"
      },
      "combineOptions(uint32,uint16,bytes)": {
        "notice": "Combines options for a given endpoint and message type."
      },
      "endpoint()": {
        "notice": "Retrieves the LayerZero endpoint associated with the OApp."
      },
      "fundContract()": {
        "notice": "Anyone can fund the contract to ensure smooth VRF operations"
      },
      "getRandomWord(uint64)": {
        "notice": "Get the random word for a fulfilled request"
      },
      "isComposeMsgSender((uint32,bytes32,uint64),bytes,address)": {
        "notice": "Indicates whether an address is an approved composeMsg sender to the Endpoint."
      },
      "nextNonce(uint32,bytes32)": {
        "notice": "Retrieves the next nonce for a given source endpoint and sender address."
      },
      "oAppVersion()": {
        "notice": "Retrieves the OApp version information."
      },
      "peers(uint32)": {
        "notice": "Retrieves the peer (OApp) associated with a corresponding endpoint."
      },
      "setDelegate(address)": {
        "notice": "Sets the delegate address for the OApp."
      }
    },
    "notice": "Resides on a source chain (e.g., Sonic). Called by a provider to get random words from a peer on a destination chain (e.g., Arbitrum).",
    "version": 1
  },
  "storageLayout": {
    "storage": [
      {
        "astId": 42109,
        "contract": "contracts/core/external/chainlink/ChainlinkVRFIntegratorV2_5.sol:ChainlinkVRFIntegratorV2_5",
        "label": "_owner",
        "offset": 0,
        "slot": "0",
        "type": "t_address"
      },
      {
        "astId": 39575,
        "contract": "contracts/core/external/chainlink/ChainlinkVRFIntegratorV2_5.sol:ChainlinkVRFIntegratorV2_5",
        "label": "peers",
        "offset": 0,
        "slot": "1",
        "type": "t_mapping(t_uint32,t_bytes32)"
      },
      {
        "astId": 40171,
        "contract": "contracts/core/external/chainlink/ChainlinkVRFIntegratorV2_5.sol:ChainlinkVRFIntegratorV2_5",
        "label": "enforcedOptions",
        "offset": 0,
        "slot": "2",
        "type": "t_mapping(t_uint32,t_mapping(t_uint16,t_bytes_storage))"
      },
      {
        "astId": 880,
        "contract": "contracts/core/external/chainlink/ChainlinkVRFIntegratorV2_5.sol:ChainlinkVRFIntegratorV2_5",
        "label": "requestCounter",
        "offset": 0,
        "slot": "3",
        "type": "t_uint64"
      },
      {
        "astId": 883,
        "contract": "contracts/core/external/chainlink/ChainlinkVRFIntegratorV2_5.sol:ChainlinkVRFIntegratorV2_5",
        "label": "defaultGasLimit",
        "offset": 8,
        "slot": "3",
        "type": "t_uint32"
      },
      {
        "astId": 901,
        "contract": "contracts/core/external/chainlink/ChainlinkVRFIntegratorV2_5.sol:ChainlinkVRFIntegratorV2_5",
        "label": "s_requests",
        "offset": 0,
        "slot": "4",
        "type": "t_mapping(t_uint64,t_struct(RequestStatus)896_storage)"
      },
      {
        "astId": 904,
        "contract": "contracts/core/external/chainlink/ChainlinkVRFIntegratorV2_5.sol:ChainlinkVRFIntegratorV2_5",
        "label": "requestTimeout",
        "offset": 0,
        "slot": "5",
        "type": "t_uint256"
      }
    ],
    "types": {
      "t_address": {
        "encoding": "inplace",
        "label": "address",
        "numberOfBytes": "20"
      },
      "t_bool": {
        "encoding": "inplace",
        "label": "bool",
        "numberOfBytes": "1"
      },
      "t_bytes32": {
        "encoding": "inplace",
        "label": "bytes32",
        "numberOfBytes": "32"
      },
      "t_bytes_storage": {
        "encoding": "bytes",
        "label": "bytes",
        "numberOfBytes": "32"
      },
      "t_mapping(t_uint16,t_bytes_storage)": {
        "encoding": "mapping",
        "key": "t_uint16",
        "label": "mapping(uint16 => bytes)",
        "numberOfBytes": "32",
        "value": "t_bytes_storage"
      },
      "t_mapping(t_uint32,t_bytes32)": {
        "encoding": "mapping",
        "key": "t_uint32",
        "label": "mapping(uint32 => bytes32)",
        "numberOfBytes": "32",
        "value": "t_bytes32"
      },
      "t_mapping(t_uint32,t_mapping(t_uint16,t_bytes_storage))": {
        "encoding": "mapping",
        "key": "t_uint32",
        "label": "mapping(uint32 => mapping(uint16 => bytes))",
        "numberOfBytes": "32",
        "value": "t_mapping(t_uint16,t_bytes_storage)"
      },
      "t_mapping(t_uint64,t_struct(RequestStatus)896_storage)": {
        "encoding": "mapping",
        "key": "t_uint64",
        "label": "mapping(uint64 => struct ChainlinkVRFIntegratorV2_5.RequestStatus)",
        "numberOfBytes": "32",
        "value": "t_struct(RequestStatus)896_storage"
      },
      "t_struct(RequestStatus)896_storage": {
        "encoding": "inplace",
        "label": "struct ChainlinkVRFIntegratorV2_5.RequestStatus",
        "members": [
          {
            "astId": 885,
            "contract": "contracts/core/external/chainlink/ChainlinkVRFIntegratorV2_5.sol:ChainlinkVRFIntegratorV2_5",
            "label": "fulfilled",
            "offset": 0,
            "slot": "0",
            "type": "t_bool"
          },
          {
            "astId": 887,
            "contract": "contracts/core/external/chainlink/ChainlinkVRFIntegratorV2_5.sol:ChainlinkVRFIntegratorV2_5",
            "label": "exists",
            "offset": 1,
            "slot": "0",
            "type": "t_bool"
          },
          {
            "astId": 889,
            "contract": "contracts/core/external/chainlink/ChainlinkVRFIntegratorV2_5.sol:ChainlinkVRFIntegratorV2_5",
            "label": "provider",
            "offset": 2,
            "slot": "0",
            "type": "t_address"
          },
          {
            "astId": 891,
            "contract": "contracts/core/external/chainlink/ChainlinkVRFIntegratorV2_5.sol:ChainlinkVRFIntegratorV2_5",
            "label": "randomWord",
            "offset": 0,
            "slot": "1",
            "type": "t_uint256"
          },
          {
            "astId": 893,
            "contract": "contracts/core/external/chainlink/ChainlinkVRFIntegratorV2_5.sol:ChainlinkVRFIntegratorV2_5",
            "label": "timestamp",
            "offset": 0,
            "slot": "2",
            "type": "t_uint256"
          },
          {
            "astId": 895,
            "contract": "contracts/core/external/chainlink/ChainlinkVRFIntegratorV2_5.sol:ChainlinkVRFIntegratorV2_5",
            "label": "isContract",
            "offset": 0,
            "slot": "3",
            "type": "t_bool"
          }
        ],
        "numberOfBytes": "128"
      },
      "t_uint16": {
        "encoding": "inplace",
        "label": "uint16",
        "numberOfBytes": "2"
      },
      "t_uint256": {
        "encoding": "inplace",
        "label": "uint256",
        "numberOfBytes": "32"
      },
      "t_uint32": {
        "encoding": "inplace",
        "label": "uint32",
        "numberOfBytes": "4"
      },
      "t_uint64": {
        "encoding": "inplace",
        "label": "uint64",
        "numberOfBytes": "8"
      }
    }
  }
}