{
  "address": "0xe0dFebC010E0680b9B824A51227B2e7cb8C0F747",
  "abi": [
    {
      "inputs": [
        {
          "internalType": "address",
          "name": "_endpoint",
          "type": "address"
        },
        {
          "internalType": "address",
          "name": "_delegate",
          "type": "address"
        }
      ],
      "stateMutability": "nonpayable",
      "type": "constructor"
    },
    {
      "inputs": [],
      "name": "InvalidDelegate",
      "type": "error"
    },
    {
      "inputs": [],
      "name": "InvalidEndpointCall",
      "type": "error"
    },
    {
      "inputs": [
        {
          "internalType": "uint16",
          "name": "optionType",
          "type": "uint16"
        }
      ],
      "name": "InvalidOptionType",
      "type": "error"
    },
    {
      "inputs": [
        {
          "internalType": "bytes",
          "name": "options",
          "type": "bytes"
        }
      ],
      "name": "InvalidOptions",
      "type": "error"
    },
    {
      "inputs": [],
      "name": "LzTokenUnavailable",
      "type": "error"
    },
    {
      "inputs": [
        {
          "internalType": "uint32",
          "name": "eid",
          "type": "uint32"
        }
      ],
      "name": "NoPeer",
      "type": "error"
    },
    {
      "inputs": [
        {
          "internalType": "uint256",
          "name": "msgValue",
          "type": "uint256"
        }
      ],
      "name": "NotEnoughNative",
      "type": "error"
    },
    {
      "inputs": [
        {
          "internalType": "address",
          "name": "addr",
          "type": "address"
        }
      ],
      "name": "OnlyEndpoint",
      "type": "error"
    },
    {
      "inputs": [
        {
          "internalType": "uint32",
          "name": "eid",
          "type": "uint32"
        },
        {
          "internalType": "bytes32",
          "name": "sender",
          "type": "bytes32"
        }
      ],
      "name": "OnlyPeer",
      "type": "error"
    },
    {
      "inputs": [
        {
          "internalType": "address",
          "name": "owner",
          "type": "address"
        }
      ],
      "name": "OwnableInvalidOwner",
      "type": "error"
    },
    {
      "inputs": [
        {
          "internalType": "address",
          "name": "account",
          "type": "address"
        }
      ],
      "name": "OwnableUnauthorizedAccount",
      "type": "error"
    },
    {
      "inputs": [
        {
          "internalType": "uint8",
          "name": "bits",
          "type": "uint8"
        },
        {
          "internalType": "uint256",
          "name": "value",
          "type": "uint256"
        }
      ],
      "name": "SafeCastOverflowedUintDowncast",
      "type": "error"
    },
    {
      "inputs": [
        {
          "internalType": "address",
          "name": "token",
          "type": "address"
        }
      ],
      "name": "SafeERC20FailedOperation",
      "type": "error"
    },
    {
      "anonymous": false,
      "inputs": [
        {
          "indexed": true,
          "internalType": "uint64",
          "name": "sequence",
          "type": "uint64"
        },
        {
          "indexed": true,
          "internalType": "address",
          "name": "provider",
          "type": "address"
        },
        {
          "indexed": false,
          "internalType": "string",
          "name": "reason",
          "type": "string"
        }
      ],
      "name": "CallbackFailed",
      "type": "event"
    },
    {
      "anonymous": false,
      "inputs": [
        {
          "indexed": true,
          "internalType": "uint64",
          "name": "sequence",
          "type": "uint64"
        },
        {
          "indexed": true,
          "internalType": "address",
          "name": "provider",
          "type": "address"
        }
      ],
      "name": "CallbackSucceeded",
      "type": "event"
    },
    {
      "anonymous": false,
      "inputs": [
        {
          "components": [
            {
              "internalType": "uint32",
              "name": "eid",
              "type": "uint32"
            },
            {
              "internalType": "uint16",
              "name": "msgType",
              "type": "uint16"
            },
            {
              "internalType": "bytes",
              "name": "options",
              "type": "bytes"
            }
          ],
          "indexed": false,
          "internalType": "struct EnforcedOptionParam[]",
          "name": "_enforcedOptions",
          "type": "tuple[]"
        }
      ],
      "name": "EnforcedOptionSet",
      "type": "event"
    },
    {
      "anonymous": false,
      "inputs": [
        {
          "indexed": true,
          "internalType": "address",
          "name": "contractAddress",
          "type": "address"
        },
        {
          "indexed": true,
          "internalType": "uint256",
          "name": "feeId",
          "type": "uint256"
        }
      ],
      "name": "FeeMRegistered",
      "type": "event"
    },
    {
      "anonymous": false,
      "inputs": [
        {
          "indexed": false,
          "internalType": "uint32",
          "name": "oldLimit",
          "type": "uint32"
        },
        {
          "indexed": false,
          "internalType": "uint32",
          "name": "newLimit",
          "type": "uint32"
        }
      ],
      "name": "GasLimitUpdated",
      "type": "event"
    },
    {
      "anonymous": false,
      "inputs": [
        {
          "indexed": true,
          "internalType": "uint64",
          "name": "requestId",
          "type": "uint64"
        },
        {
          "indexed": true,
          "internalType": "uint32",
          "name": "dstEid",
          "type": "uint32"
        },
        {
          "indexed": false,
          "internalType": "bytes",
          "name": "message",
          "type": "bytes"
        }
      ],
      "name": "MessageSent",
      "type": "event"
    },
    {
      "anonymous": false,
      "inputs": [
        {
          "indexed": true,
          "internalType": "address",
          "name": "previousOwner",
          "type": "address"
        },
        {
          "indexed": true,
          "internalType": "address",
          "name": "newOwner",
          "type": "address"
        }
      ],
      "name": "OwnershipTransferred",
      "type": "event"
    },
    {
      "anonymous": false,
      "inputs": [
        {
          "indexed": false,
          "internalType": "uint32",
          "name": "eid",
          "type": "uint32"
        },
        {
          "indexed": false,
          "internalType": "bytes32",
          "name": "peer",
          "type": "bytes32"
        }
      ],
      "name": "PeerSet",
      "type": "event"
    },
    {
      "anonymous": false,
      "inputs": [
        {
          "indexed": false,
          "internalType": "uint256[]",
          "name": "randomWords",
          "type": "uint256[]"
        },
        {
          "indexed": true,
          "internalType": "uint64",
          "name": "sequence",
          "type": "uint64"
        },
        {
          "indexed": true,
          "internalType": "address",
          "name": "provider",
          "type": "address"
        }
      ],
      "name": "RandomWordsReceived",
      "type": "event"
    },
    {
      "anonymous": false,
      "inputs": [
        {
          "indexed": true,
          "internalType": "uint64",
          "name": "requestId",
          "type": "uint64"
        },
        {
          "indexed": true,
          "internalType": "address",
          "name": "requester",
          "type": "address"
        },
        {
          "indexed": false,
          "internalType": "uint32",
          "name": "dstEid",
          "type": "uint32"
        }
      ],
      "name": "RandomWordsRequested",
      "type": "event"
    },
    {
      "anonymous": false,
      "inputs": [
        {
          "indexed": true,
          "internalType": "uint64",
          "name": "sequence",
          "type": "uint64"
        },
        {
          "indexed": true,
          "internalType": "address",
          "name": "provider",
          "type": "address"
        }
      ],
      "name": "RequestExpired",
      "type": "event"
    },
    {
      "inputs": [
        {
          "components": [
            {
              "internalType": "uint32",
              "name": "srcEid",
              "type": "uint32"
            },
            {
              "internalType": "bytes32",
              "name": "sender",
              "type": "bytes32"
            },
            {
              "internalType": "uint64",
              "name": "nonce",
              "type": "uint64"
            }
          ],
          "internalType": "struct Origin",
          "name": "origin",
          "type": "tuple"
        }
      ],
      "name": "allowInitializePath",
      "outputs": [
        {
          "internalType": "bool",
          "name": "",
          "type": "bool"
        }
      ],
      "stateMutability": "view",
      "type": "function"
    },
    {
      "inputs": [
        {
          "internalType": "uint64",
          "name": "requestId",
          "type": "uint64"
        }
      ],
      "name": "checkRequestStatus",
      "outputs": [
        {
          "internalType": "bool",
          "name": "fulfilled",
          "type": "bool"
        },
        {
          "internalType": "bool",
          "name": "exists",
          "type": "bool"
        },
        {
          "internalType": "address",
          "name": "provider",
          "type": "address"
        },
        {
          "internalType": "uint256",
          "name": "randomWord",
          "type": "uint256"
        },
        {
          "internalType": "uint256",
          "name": "timestamp",
          "type": "uint256"
        },
        {
          "internalType": "bool",
          "name": "expired",
          "type": "bool"
        }
      ],
      "stateMutability": "view",
      "type": "function"
    },
    {
      "inputs": [
        {
          "internalType": "uint64[]",
          "name": "requestIds",
          "type": "uint64[]"
        }
      ],
      "name": "cleanupExpiredRequests",
      "outputs": [],
      "stateMutability": "nonpayable",
      "type": "function"
    },
    {
      "inputs": [
        {
          "internalType": "uint32",
          "name": "_eid",
          "type": "uint32"
        },
        {
          "internalType": "uint16",
          "name": "_msgType",
          "type": "uint16"
        },
        {
          "internalType": "bytes",
          "name": "_extraOptions",
          "type": "bytes"
        }
      ],
      "name": "combineOptions",
      "outputs": [
        {
          "internalType": "bytes",
          "name": "",
          "type": "bytes"
        }
      ],
      "stateMutability": "view",
      "type": "function"
    },
    {
      "inputs": [],
      "name": "defaultGasLimit",
      "outputs": [
        {
          "internalType": "uint32",
          "name": "",
          "type": "uint32"
        }
      ],
      "stateMutability": "view",
      "type": "function"
    },
    {
      "inputs": [],
      "name": "endpoint",
      "outputs": [
        {
          "internalType": "contract ILayerZeroEndpointV2",
          "name": "",
          "type": "address"
        }
      ],
      "stateMutability": "view",
      "type": "function"
    },
    {
      "inputs": [
        {
          "internalType": "uint32",
          "name": "eid",
          "type": "uint32"
        },
        {
          "internalType": "uint16",
          "name": "msgType",
          "type": "uint16"
        }
      ],
      "name": "enforcedOptions",
      "outputs": [
        {
          "internalType": "bytes",
          "name": "enforcedOption",
          "type": "bytes"
        }
      ],
      "stateMutability": "view",
      "type": "function"
    },
    {
      "inputs": [
        {
          "internalType": "uint64",
          "name": "requestId",
          "type": "uint64"
        }
      ],
      "name": "getRandomWord",
      "outputs": [
        {
          "internalType": "uint256",
          "name": "randomWord",
          "type": "uint256"
        },
        {
          "internalType": "bool",
          "name": "fulfilled",
          "type": "bool"
        }
      ],
      "stateMutability": "view",
      "type": "function"
    },
    {
      "inputs": [
        {
          "components": [
            {
              "internalType": "uint32",
              "name": "srcEid",
              "type": "uint32"
            },
            {
              "internalType": "bytes32",
              "name": "sender",
              "type": "bytes32"
            },
            {
              "internalType": "uint64",
              "name": "nonce",
              "type": "uint64"
            }
          ],
          "internalType": "struct Origin",
          "name": "",
          "type": "tuple"
        },
        {
          "internalType": "bytes",
          "name": "",
          "type": "bytes"
        },
        {
          "internalType": "address",
          "name": "_sender",
          "type": "address"
        }
      ],
      "name": "isComposeMsgSender",
      "outputs": [
        {
          "internalType": "bool",
          "name": "",
          "type": "bool"
        }
      ],
      "stateMutability": "view",
      "type": "function"
    },
    {
      "inputs": [
        {
          "components": [
            {
              "internalType": "uint32",
              "name": "srcEid",
              "type": "uint32"
            },
            {
              "internalType": "bytes32",
              "name": "sender",
              "type": "bytes32"
            },
            {
              "internalType": "uint64",
              "name": "nonce",
              "type": "uint64"
            }
          ],
          "internalType": "struct Origin",
          "name": "_origin",
          "type": "tuple"
        },
        {
          "internalType": "bytes32",
          "name": "_guid",
          "type": "bytes32"
        },
        {
          "internalType": "bytes",
          "name": "_message",
          "type": "bytes"
        },
        {
          "internalType": "address",
          "name": "_executor",
          "type": "address"
        },
        {
          "internalType": "bytes",
          "name": "_extraData",
          "type": "bytes"
        }
      ],
      "name": "lzReceive",
      "outputs": [],
      "stateMutability": "payable",
      "type": "function"
    },
    {
      "inputs": [
        {
          "internalType": "uint32",
          "name": "",
          "type": "uint32"
        },
        {
          "internalType": "bytes32",
          "name": "",
          "type": "bytes32"
        }
      ],
      "name": "nextNonce",
      "outputs": [
        {
          "internalType": "uint64",
          "name": "nonce",
          "type": "uint64"
        }
      ],
      "stateMutability": "view",
      "type": "function"
    },
    {
      "inputs": [],
      "name": "oAppVersion",
      "outputs": [
        {
          "internalType": "uint64",
          "name": "senderVersion",
          "type": "uint64"
        },
        {
          "internalType": "uint64",
          "name": "receiverVersion",
          "type": "uint64"
        }
      ],
      "stateMutability": "pure",
      "type": "function"
    },
    {
      "inputs": [],
      "name": "owner",
      "outputs": [
        {
          "internalType": "address",
          "name": "",
          "type": "address"
        }
      ],
      "stateMutability": "view",
      "type": "function"
    },
    {
      "inputs": [
        {
          "internalType": "uint32",
          "name": "eid",
          "type": "uint32"
        }
      ],
      "name": "peers",
      "outputs": [
        {
          "internalType": "bytes32",
          "name": "peer",
          "type": "bytes32"
        }
      ],
      "stateMutability": "view",
      "type": "function"
    },
    {
      "inputs": [
        {
          "internalType": "bytes",
          "name": "_options",
          "type": "bytes"
        }
      ],
      "name": "quote",
      "outputs": [
        {
          "components": [
            {
              "internalType": "uint256",
              "name": "nativeFee",
              "type": "uint256"
            },
            {
              "internalType": "uint256",
              "name": "lzTokenFee",
              "type": "uint256"
            }
          ],
          "internalType": "struct MessagingFee",
          "name": "fee",
          "type": "tuple"
        }
      ],
      "stateMutability": "view",
      "type": "function"
    },
    {
      "inputs": [],
      "name": "quoteSimple",
      "outputs": [
        {
          "components": [
            {
              "internalType": "uint256",
              "name": "nativeFee",
              "type": "uint256"
            },
            {
              "internalType": "uint256",
              "name": "lzTokenFee",
              "type": "uint256"
            }
          ],
          "internalType": "struct MessagingFee",
          "name": "fee",
          "type": "tuple"
        }
      ],
      "stateMutability": "view",
      "type": "function"
    },
    {
      "inputs": [
        {
          "internalType": "uint32",
          "name": "_gasLimit",
          "type": "uint32"
        }
      ],
      "name": "quoteWithGas",
      "outputs": [
        {
          "components": [
            {
              "internalType": "uint256",
              "name": "nativeFee",
              "type": "uint256"
            },
            {
              "internalType": "uint256",
              "name": "lzTokenFee",
              "type": "uint256"
            }
          ],
          "internalType": "struct MessagingFee",
          "name": "fee",
          "type": "tuple"
        }
      ],
      "stateMutability": "view",
      "type": "function"
    },
    {
      "inputs": [
        {
          "internalType": "uint64",
          "name": "",
          "type": "uint64"
        }
      ],
      "name": "randomWordsProviders",
      "outputs": [
        {
          "internalType": "address",
          "name": "",
          "type": "address"
        }
      ],
      "stateMutability": "view",
      "type": "function"
    },
    {
      "inputs": [],
      "name": "registerMe",
      "outputs": [],
      "stateMutability": "nonpayable",
      "type": "function"
    },
    {
      "inputs": [],
      "name": "renounceOwnership",
      "outputs": [],
      "stateMutability": "nonpayable",
      "type": "function"
    },
    {
      "inputs": [],
      "name": "requestCounter",
      "outputs": [
        {
          "internalType": "uint64",
          "name": "",
          "type": "uint64"
        }
      ],
      "stateMutability": "view",
      "type": "function"
    },
    {
      "inputs": [
        {
          "internalType": "bytes",
          "name": "_options",
          "type": "bytes"
        }
      ],
      "name": "requestRandomWords",
      "outputs": [
        {
          "components": [
            {
              "internalType": "bytes32",
              "name": "guid",
              "type": "bytes32"
            },
            {
              "internalType": "uint64",
              "name": "nonce",
              "type": "uint64"
            },
            {
              "components": [
                {
                  "internalType": "uint256",
                  "name": "nativeFee",
                  "type": "uint256"
                },
                {
                  "internalType": "uint256",
                  "name": "lzTokenFee",
                  "type": "uint256"
                }
              ],
              "internalType": "struct MessagingFee",
              "name": "fee",
              "type": "tuple"
            }
          ],
          "internalType": "struct MessagingReceipt",
          "name": "receipt",
          "type": "tuple"
        },
        {
          "internalType": "uint64",
          "name": "requestId",
          "type": "uint64"
        }
      ],
      "stateMutability": "payable",
      "type": "function"
    },
    {
      "inputs": [],
      "name": "requestRandomWordsSimple",
      "outputs": [
        {
          "components": [
            {
              "internalType": "bytes32",
              "name": "guid",
              "type": "bytes32"
            },
            {
              "internalType": "uint64",
              "name": "nonce",
              "type": "uint64"
            },
            {
              "components": [
                {
                  "internalType": "uint256",
                  "name": "nativeFee",
                  "type": "uint256"
                },
                {
                  "internalType": "uint256",
                  "name": "lzTokenFee",
                  "type": "uint256"
                }
              ],
              "internalType": "struct MessagingFee",
              "name": "fee",
              "type": "tuple"
            }
          ],
          "internalType": "struct MessagingReceipt",
          "name": "receipt",
          "type": "tuple"
        },
        {
          "internalType": "uint64",
          "name": "requestId",
          "type": "uint64"
        }
      ],
      "stateMutability": "payable",
      "type": "function"
    },
    {
      "inputs": [
        {
          "internalType": "uint32",
          "name": "_gasLimit",
          "type": "uint32"
        }
      ],
      "name": "requestRandomWordsWithGas",
      "outputs": [
        {
          "components": [
            {
              "internalType": "bytes32",
              "name": "guid",
              "type": "bytes32"
            },
            {
              "internalType": "uint64",
              "name": "nonce",
              "type": "uint64"
            },
            {
              "components": [
                {
                  "internalType": "uint256",
                  "name": "nativeFee",
                  "type": "uint256"
                },
                {
                  "internalType": "uint256",
                  "name": "lzTokenFee",
                  "type": "uint256"
                }
              ],
              "internalType": "struct MessagingFee",
              "name": "fee",
              "type": "tuple"
            }
          ],
          "internalType": "struct MessagingReceipt",
          "name": "receipt",
          "type": "tuple"
        },
        {
          "internalType": "uint64",
          "name": "requestId",
          "type": "uint64"
        }
      ],
      "stateMutability": "payable",
      "type": "function"
    },
    {
      "inputs": [],
      "name": "requestTimeout",
      "outputs": [
        {
          "internalType": "uint256",
          "name": "",
          "type": "uint256"
        }
      ],
      "stateMutability": "view",
      "type": "function"
    },
    {
      "inputs": [
        {
          "internalType": "uint64",
          "name": "",
          "type": "uint64"
        }
      ],
      "name": "s_requests",
      "outputs": [
        {
          "internalType": "bool",
          "name": "fulfilled",
          "type": "bool"
        },
        {
          "internalType": "bool",
          "name": "exists",
          "type": "bool"
        },
        {
          "internalType": "address",
          "name": "provider",
          "type": "address"
        },
        {
          "internalType": "uint256",
          "name": "randomWord",
          "type": "uint256"
        },
        {
          "internalType": "uint256",
          "name": "timestamp",
          "type": "uint256"
        },
        {
          "internalType": "bool",
          "name": "isContract",
          "type": "bool"
        }
      ],
      "stateMutability": "view",
      "type": "function"
    },
    {
      "inputs": [
        {
          "internalType": "uint32",
          "name": "_gasLimit",
          "type": "uint32"
        }
      ],
      "name": "setDefaultGasLimit",
      "outputs": [],
      "stateMutability": "nonpayable",
      "type": "function"
    },
    {
      "inputs": [
        {
          "internalType": "address",
          "name": "_delegate",
          "type": "address"
        }
      ],
      "name": "setDelegate",
      "outputs": [],
      "stateMutability": "nonpayable",
      "type": "function"
    },
    {
      "inputs": [
        {
          "components": [
            {
              "internalType": "uint32",
              "name": "eid",
              "type": "uint32"
            },
            {
              "internalType": "uint16",
              "name": "msgType",
              "type": "uint16"
            },
            {
              "internalType": "bytes",
              "name": "options",
              "type": "bytes"
            }
          ],
          "internalType": "struct EnforcedOptionParam[]",
          "name": "_enforcedOptions",
          "type": "tuple[]"
        }
      ],
      "name": "setEnforcedOptions",
      "outputs": [],
      "stateMutability": "nonpayable",
      "type": "function"
    },
    {
      "inputs": [
        {
          "internalType": "uint32",
          "name": "_eid",
          "type": "uint32"
        },
        {
          "internalType": "bytes32",
          "name": "_peer",
          "type": "bytes32"
        }
      ],
      "name": "setPeer",
      "outputs": [],
      "stateMutability": "nonpayable",
      "type": "function"
    },
    {
      "inputs": [
        {
          "internalType": "uint256",
          "name": "_timeout",
          "type": "uint256"
        }
      ],
      "name": "setRequestTimeout",
      "outputs": [],
      "stateMutability": "nonpayable",
      "type": "function"
    },
    {
      "inputs": [
        {
          "internalType": "address",
          "name": "newOwner",
          "type": "address"
        }
      ],
      "name": "transferOwnership",
      "outputs": [],
      "stateMutability": "nonpayable",
      "type": "function"
    },
    {
      "inputs": [],
      "name": "withdraw",
      "outputs": [],
      "stateMutability": "nonpayable",
      "type": "function"
    },
    {
      "stateMutability": "payable",
      "type": "receive"
    }
  ],
  "transactionHash": "0x0b4e4334e20db3b436f56c1e9b112da6a312e3c5dacacd65a64baa9604673db3",
  "args": [
    "0x6F475642a6e85809B1c36Fa62763669b1b48DD5B",
    "0xDDd0050d1E084dFc72d5d06447Cc10bcD3fEF60F"
  ],
  "numDeployments": 1,
  "solcInputHash": "c77f39ee84dc6c767dd7b8c112fb3718",
  "bytecode": "0x60a06040526003805463ffffffff60401b19166a0a88f40000000000000000179055610e106006553480156200003457600080fd5b50604051620031103803806200311083398101604081905262000057916200019f565b81818181806001600160a01b0381166200008b57604051631e4fbdf760e01b81526000600482015260240160405180910390fd5b620000968162000132565b506001600160a01b038083166080528116620000c557604051632d618d8160e21b815260040160405180910390fd5b60805160405163ca5eb5e160e01b81526001600160a01b0383811660048301529091169063ca5eb5e190602401600060405180830381600087803b1580156200010d57600080fd5b505af115801562000122573d6000803e3d6000fd5b50505050505050505050620001d7565b600080546001600160a01b038381166001600160a01b0319831681178455604051919092169283917f8be0079c531659141344cd1fd0a4f28419497f9722a3daafe3b4186f6b6457e09190a35050565b80516001600160a01b03811681146200019a57600080fd5b919050565b60008060408385031215620001b357600080fd5b620001be8362000182565b9150620001ce6020840162000182565b90509250929050565b608051612ef36200021d600039600081816103c50152818161078b0152818161134a01528181611b6f01528181611cad0152818161202c01526120e50152612ef36000f3fe6080604052600436106101f25760003560e01c80638da5cb5b1161010d578063b37e7bfa116100a0578063ca5eb5e11161006f578063ca5eb5e1146106e9578063dfc83b8514610709578063edfa356814610729578063f2fde38b14610749578063ff7bd03d1461076957600080fd5b8063b37e7bfa14610646578063b98bd0701461067c578063bb0b6a531461069c578063bc70b354146106c957600080fd5b806395368d2e116100dc57806395368d2e146105b8578063973a814e146105f157806397965200146106115780639a198d611461063157600080fd5b80638da5cb5b146105505780638de39d301461056e578063906bed0d1461059b57806392eef722146105a357600080fd5b80635435ac2e116101855780636cc749fa116101545780636cc749fa1461041f578063715018a6146104d35780637d25a05e146104e857806382413eac1461052057600080fd5b80635435ac2e146103735780635535d461146103865780635e280f11146103b3578063622b6af4146103ff57600080fd5b80633ccfd60b116101c15780633ccfd60b146102f95780633f20b4c91461030e578063524b6f7014610332578063532e5c0d1461035257600080fd5b806313137d65146101fe57806315add09b1461021357806317442b70146102b75780633400288b146102d957600080fd5b366101f957005b600080fd5b61021161020c3660046122c6565b610789565b005b34801561021f57600080fd5b5061027361022e36600461237a565b600460205260009081526040902080546001820154600283015460039093015460ff8084169461010085048216946201000090046001600160a01b0316939290911686565b60408051961515875294151560208701526001600160a01b039093169385019390935260608401526080830191909152151560a082015260c0015b60405180910390f35b3480156102c357600080fd5b50604080516001815260026020820152016102ae565b3480156102e557600080fd5b506102116102f43660046123b0565b610849565b34801561030557600080fd5b5061021161085f565b34801561031a57600080fd5b5061032460065481565b6040519081526020016102ae565b34801561033e57600080fd5b5061021161034d3660046123da565b6108a4565b6103656103603660046123da565b61091b565b6040516102ae9291906123f5565b610365610381366004612445565b6109d4565b34801561039257600080fd5b506103a66103a1366004612498565b610c6b565b6040516102ae919061251b565b3480156103bf57600080fd5b506103e77f000000000000000000000000000000000000000000000000000000000000000081565b6040516001600160a01b0390911681526020016102ae565b34801561040b57600080fd5b5061021161041a36600461252e565b610d10565b34801561042b57600080fd5b506104be61043a36600461237a565b6001600160401b0316600090815260046020908152604091829020825160c081018452815460ff808216151580845261010083048216151595840195909552620100009091046001600160a01b03169482019490945260018201546060820181905260028301546080830152600390920154909316151560a0909301929092529091565b604080519283529015156020830152016102ae565b3480156104df57600080fd5b50610211610d1d565b3480156104f457600080fd5b506105086105033660046123b0565b610d31565b6040516001600160401b0390911681526020016102ae565b34801561052c57600080fd5b5061054061053b366004612547565b610d3a565b60405190151581526020016102ae565b34801561055c57600080fd5b506000546001600160a01b03166103e7565b34801561057a57600080fd5b5061058e6105893660046123da565b610d4f565b6040516102ae91906125ad565b610365610de9565b3480156105af57600080fd5b5061058e610e88565b3480156105c457600080fd5b506003546105dc90600160401b900463ffffffff1681565b60405163ffffffff90911681526020016102ae565b3480156105fd57600080fd5b50600354610508906001600160401b031681565b34801561061d57600080fd5b5061021161062c366004612608565b610f16565b34801561063d57600080fd5b50610211611042565b34801561065257600080fd5b506103e761066136600461237a565b6005602052600090815260409020546001600160a01b031681565b34801561068857600080fd5b50610211610697366004612608565b611161565b3480156106a857600080fd5b506103246106b73660046123da565b60016020526000908152604090205481565b3480156106d557600080fd5b506103a66106e436600461263d565b61117b565b3480156106f557600080fd5b5061021161070436600461269d565b611323565b34801561071557600080fd5b5061027361072436600461237a565b6113a9565b34801561073557600080fd5b5061058e610744366004612445565b61145b565b34801561075557600080fd5b5061021161076436600461269d565b6114ed565b34801561077557600080fd5b506105406107843660046126ba565b611528565b7f00000000000000000000000000000000000000000000000000000000000000006001600160a01b031633146107d9576040516391ac5e4f60e01b81523360048201526024015b60405180910390fd5b602087018035906107f3906107ee908a6123da565b61155e565b146108315761080560208801886123da565b60405163309afaf360e21b815263ffffffff9091166004820152602088013560248201526044016107d0565b6108408787878787878761159a565b50505050505050565b610851611a59565b61085b8282611a86565b5050565b610867611a59565b600080546040516001600160a01b03909116914780156108fc02929091818181858888f193505050501580156108a1573d6000803e3d6000fd5b50565b6108ac611a59565b6003805463ffffffff838116600160401b8181026bffffffff00000000000000001985161790945560408051949093049091168084526020840191909152917f84858bb3fb3ecf87e268ebef250ef9ad9cd53ef7973ef7a0ec9d89470bb00a8091015b60405180910390a15050565b61092361220a565b60008061095f8463ffffffff16600061095860408051600360f01b602082015281516002818303018152602290910190915290565b9190611ad4565b604051632a1ad61760e11b81529091503090635435ac2e90349061098790859060040161251b565b60a06040518083038185885af11580156109a5573d6000803e3d6000fd5b50505050506040513d601f19601f820116820180604052508101906109ca91906127dc565b9250925050915091565b6109dc61220a565b61759e600090815260016020527fcb6ef6d2a10c1df4e0155bc3e67e8423ea6197dc63e5dcc995cd93b05aed15b25480610a505760405162461bcd60e51b8152602060048201526015602482015274105c989a5d1c9d5b481c19595c881b9bdd081cd95d605a1b60448201526064016107d0565b600380546001600160401b0316906000610a698361282a565b825461010092830a6001600160401b03818102199092169282160291909117909255600380546040805160c08101825260008082526001602080840182815233858701818152606087018681524260808901908152833b151560a08a018181529b909e16808952600487528a892099518a549651945161ffff1990971690151561ff00191617931515909d029290921762010000600160b01b031916620100006001600160a01b0390951694909402939093178755915193860193909355516002850155945192909501805460ff1916921515929092179091556005835281812080546001600160a01b0319169094179093558051918201849052929650929350910160408051601f198184030181526020601f8a018190048102840181019092528883529250610bd29161759e918491908b908b908190840183828082843760009201829052506040805180820190915234815260208101919091529250339150611b3c9050565b60405161759e815290955033906001600160401b038616907fc692ab66a42de77967f85d085f15bce2d41276a0f35f0b321e599b8750fcc6ec9060200160405180910390a361759e63ffffffff16846001600160401b03167f3a8744d4061980ac1a6bb5f85c2c53827a65051071a7df168bcd1eb5a4040a8283604051610c59919061251b565b60405180910390a35050509250929050565b600260209081526000928352604080842090915290825290208054610c8f90612850565b80601f0160208091040260200160405190810160405280929190818152602001828054610cbb90612850565b8015610d085780601f10610cdd57610100808354040283529160200191610d08565b820191906000526020600020905b815481529060010190602001808311610ceb57829003601f168201915b505050505081565b610d18611a59565b600655565b610d25611a59565b610d2f6000611c47565b565b60005b92915050565b6001600160a01b03811630145b949350505050565b60408051808201909152600080825260208201526000610d978363ffffffff16600061095860408051600360f01b602082015281516002818303018152602290910190915290565b600354909150600090610db4906001600160401b03166001612884565b604080516001600160401b039092166020830152016040516020818303038152906040529050610d4761759e82846000611c97565b610df161220a565b604080518082018252601681526202a23d60521b64030100110160d01b0160208201529051632a1ad61760e11b8152600091903090635435ac2e903490610e3c90859060040161251b565b60a06040518083038185885af1158015610e5a573d6000803e3d6000fd5b50505050506040513d601f19601f82011682018060405250810190610e7f91906127dc565b92509250509091565b604080518082019091526000808252602082015260408051808201909152601681526202a23d60521b64030100110160d01b016020820152600354600090610eda906001600160401b03166001612884565b604080516001600160401b039092166020830152016040516020818303038152906040529050610f0f61759e82846000611c97565b9250505090565b60005b8181101561103d576000838383818110610f3557610f356128ab565b9050602002016020810190610f4a919061237a565b6001600160401b0381166000908152600460205260409020805491925090610100900460ff168015610f7e5750805460ff16155b8015610f9a57506006548160020154610f9791906128c1565b42115b156110335780546001600160401b038316600081815260046020908152604080832080546001600160b01b03191681556001810184905560028101849055600301805460ff19169055600590915280822080546001600160a01b031916905551620100009093046001600160a01b0316928392917f5e91efadbe85ae432c787daac558390b5a5b19def94f6401b202b1f46bd785f691a3505b5050600101610f19565b505050565b604051608f602482015260009073dc2b0d2dd2b7759d97d50db4eabdc369731108309060440160408051601f198184030181529181526020820180516001600160e01b03166307983f4560e21b1790525161109d91906128d4565b6000604051808303816000865af19150503d80600081146110da576040519150601f19603f3d011682016040523d82523d6000602084013e6110df565b606091505b50509050806111305760405162461bcd60e51b815260206004820152601860248201527f4665654d20726567697374726174696f6e206661696c6564000000000000000060448201526064016107d0565b604051608f9030907f610bd711dd41f340720d51f3763349bd86657a79b62fd3371b8b15e67304e3e290600090a350565b611169611a59565b61085b61117682846128f0565b611d78565b63ffffffff8416600090815260026020908152604080832061ffff871684529091528120805460609291906111af90612850565b80601f01602080910402602001604051908101604052809291908181526020018280546111db90612850565b80156112285780601f106111fd57610100808354040283529160200191611228565b820191906000526020600020905b81548152906001019060200180831161120b57829003601f168201915b5050505050905080516000036112785783838080601f016020809104026020016040519081016040528093929190818152602001838380828437600092019190915250929450610d479350505050565b6000839003611288579050610d47565b60028310611306576112cf84848080601f016020809104026020016040519081016040528093929190818152602001838380828437600092019190915250611e8a92505050565b806112dd8460028188612a23565b6040516020016112ef93929190612a4d565b604051602081830303815290604052915050610d47565b8383604051639a6d49cd60e01b81526004016107d0929190612a75565b61132b611a59565b60405163ca5eb5e160e01b81526001600160a01b0382811660048301527f0000000000000000000000000000000000000000000000000000000000000000169063ca5eb5e190602401600060405180830381600087803b15801561138e57600080fd5b505af11580156113a2573d6000803e3d6000fd5b5050505050565b6001600160401b0381166000908152600460209081526040808320815160c081018352815460ff8082161515808452610100830482161515968401879052620100009092046001600160a01b0316948301859052600184015460608401819052600285015460808501819052600390950154909116151560a0840152600654879687968796879687969095909490919061144390826128c1565b42119650965096509650965096505091939550919395565b6040805180820190915260008082526020820152600354600090611489906001600160401b03166001612884565b604080516001600160401b0390921660208301520160408051601f198184030181526020601f87018190048102840181019092528583529250610d479161759e91849190889088908190840183828082843760009201829052509250611c97915050565b6114f5611a59565b6001600160a01b03811661151f57604051631e4fbdf760e01b8152600060048201526024016107d0565b6108a181611c47565b600060208201803590600190839061154090866123da565b63ffffffff1681526020810191909152604001600020541492915050565b63ffffffff811660009081526001602052604081205480610d345760405163f6ff4fb760e01b815263ffffffff841660048201526024016107d0565b602087018035906001906000906115b1908b6123da565b63ffffffff1663ffffffff16815260200190815260200160002054146116085760405162461bcd60e51b815260206004820152600c60248201526b155b985d5d1a1bdc9a5e995960a21b60448201526064016107d0565b6040841461164f5760405162461bcd60e51b8152602060048201526014602482015273496e76616c6964207061796c6f61642073697a6560601b60448201526064016107d0565b60008061165e86880188612aa4565b6001600160401b0382166000908152600460205260409020805492945090925090610100900460ff166116c75760405162461bcd60e51b815260206004820152601160248201527014995c5d595cdd081b9bdd08199bdd5b99607a1b60448201526064016107d0565b805460ff16156117195760405162461bcd60e51b815260206004820152601960248201527f5265717565737420616c72656164792066756c66696c6c65640000000000000060448201526064016107d0565b600654816002015461172b91906128c1565b42111561176c5760405162461bcd60e51b815260206004820152600f60248201526e14995c5d595cdd08195e1c1a5c9959608a1b60448201526064016107d0565b80546201000090046001600160a01b0316806117bf5760405162461bcd60e51b8152602060048201526012602482015271141c9bdd9a59195c881b9bdd08199bdd5b9960721b60448201526064016107d0565b8154600160ff19909116811783558083018490556001600160401b03851660009081526005602052604080822080546001600160a01b031916905580518381528082019091529091816020016020820280368337019050509050838160008151811061182d5761182d6128ab565b602002602001018181525050816001600160a01b0316856001600160401b03167f449d4271a3c46d512a0312690033b987f3a43884f8aa1fb51059ec52f8f38eb38360405161187c9190612afe565b60405180910390a3600383015460ff1615611a4b5760405163098d841960e21b81526001600160a01b038316906326361064906118bf9084908990600401612b11565b600060405180830381600087803b1580156118d957600080fd5b505af19250505080156118ea575060015b611a0b576118f6612b3c565b806308c379a003611966575061190a612b58565b806119155750611968565b826001600160a01b0316866001600160401b03167f192c360218ccd0c8d917f749782e1f90b06e688ad65ec60bfc98713752ab706983604051611958919061251b565b60405180910390a350611a4b565b505b3d808015611992576040519150601f19603f3d011682016040523d82523d6000602084013e611997565b606091505b50826001600160a01b0316866001600160401b03167f192c360218ccd0c8d917f749782e1f90b06e688ad65ec60bfc98713752ab7069604051611958906020808252601a908201527f4c6f772d6c6576656c2063616c6c6261636b206661696c757265000000000000604082015260600190565b6040516001600160a01b038316906001600160401b038716907f681f01c6b08957321237e07e2ea63323b1af5cd76b63a8b4af43f7c9aff310fd90600090a35b505050505050505050505050565b6000546001600160a01b03163314610d2f5760405163118cdaa760e01b81523360048201526024016107d0565b63ffffffff8216600081815260016020908152604091829020849055815192835282018390527f238399d427b947898edb290f5ff0f9109849b1c3ba196a42e35f00c50a54b98b910161090f565b6060836003611ae4826000611eb6565b61ffff1614611b1857611af8816000611eb6565b604051633a51740d60e01b815261ffff90911660048201526024016107d0565b6000611b248585611f13565b9050611b3286600183611f95565b9695505050505050565b611b4461220a565b6000611b538460000151612000565b602085015190915015611b6d57611b6d8460200151612028565b7f00000000000000000000000000000000000000000000000000000000000000006001600160a01b0316632637a450826040518060a001604052808b63ffffffff168152602001611bbd8c61155e565b81526020018a815260200189815260200160008960200151111515815250866040518463ffffffff1660e01b8152600401611bf9929190612be1565b60806040518083038185885af1158015611c17573d6000803e3d6000fd5b50505050506040513d601f19601f82011682018060405250810190611c3c9190612c5a565b979650505050505050565b600080546001600160a01b038381166001600160a01b0319831681178455604051919092169283917f8be0079c531659141344cd1fd0a4f28419497f9722a3daafe3b4186f6b6457e09190a35050565b60408051808201909152600080825260208201527f00000000000000000000000000000000000000000000000000000000000000006001600160a01b031663ddc28c586040518060a001604052808863ffffffff168152602001611cfa8961155e565b8152602001878152602001868152602001851515815250306040518363ffffffff1660e01b8152600401611d2f929190612be1565b6040805180830381865afa158015611d4b573d6000803e3d6000fd5b505050506040513d601f19601f82011682018060405250810190611d6f9190612c76565b95945050505050565b60005b8151811015611e4f57611daa828281518110611d9957611d996128ab565b602002602001015160400151611e8a565b818181518110611dbc57611dbc6128ab565b60200260200101516040015160026000848481518110611dde57611dde6128ab565b60200260200101516000015163ffffffff1663ffffffff1681526020019081526020016000206000848481518110611e1857611e186128ab565b60200260200101516020015161ffff1661ffff1681526020019081526020016000209081611e469190612ce2565b50600101611d7b565b507fbe4864a8e820971c0247f5992e2da559595f7bf076a21cb5928d443d2a13b67481604051611e7f9190612da1565b60405180910390a150565b600281015161ffff811660031461085b5781604051639a6d49cd60e01b81526004016107d0919061251b565b6000611ec38260026128c1565b83511015611f0a5760405162461bcd60e51b8152602060048201526014602482015273746f55696e7431365f6f75744f66426f756e647360601b60448201526064016107d0565b50016002015190565b60606fffffffffffffffffffffffffffffffff821615611f6457604080516001600160801b0319608086811b8216602084015285901b16603082015201604051602081830303815290604052611f8e565b6040516001600160801b0319608085901b1660208201526030016040516020818303038152906040525b9392505050565b6060836003611fa5826000611eb6565b61ffff1614611fb957611af8816000611eb6565b846001611fc6855161210a565b611fd1906001612e1e565b8686604051602001611fe7959493929190612e39565b6040516020818303038152906040529150509392505050565b6000813414612024576040516304fb820960e51b81523460048201526024016107d0565b5090565b60007f00000000000000000000000000000000000000000000000000000000000000006001600160a01b031663e4fe1d946040518163ffffffff1660e01b8152600401602060405180830381865afa158015612088573d6000803e3d6000fd5b505050506040513d601f19601f820116820180604052508101906120ac9190612ea0565b90506001600160a01b0381166120d5576040516329b99a9560e11b815260040160405180910390fd5b61085b6001600160a01b038216337f000000000000000000000000000000000000000000000000000000000000000085612139565b600061ffff821115612024576040516306dfcc6560e41b815260106004820152602481018390526044016107d0565b604080516001600160a01b0385811660248301528416604482015260648082018490528251808303909101815260849091019091526020810180516001600160e01b03166323b872dd60e01b179052612193908590612199565b50505050565b600080602060008451602086016000885af1806121bc576040513d6000823e3d81fd5b50506000513d915081156121d45780600114156121e1565b6001600160a01b0384163b155b1561219357604051635274afe760e01b81526001600160a01b03851660048201526024016107d0565b60405180606001604052806000801916815260200160006001600160401b0316815260200161224c604051806040016040528060008152602001600081525090565b905290565b60006060828403121561226357600080fd5b50919050565b60008083601f84011261227b57600080fd5b5081356001600160401b0381111561229257600080fd5b6020830191508360208285010111156122aa57600080fd5b9250929050565b6001600160a01b03811681146108a157600080fd5b600080600080600080600060e0888a0312156122e157600080fd5b6122eb8989612251565b96506060880135955060808801356001600160401b038082111561230e57600080fd5b61231a8b838c01612269565b909750955060a08a0135915061232f826122b1565b90935060c0890135908082111561234557600080fd5b506123528a828b01612269565b989b979a50959850939692959293505050565b6001600160401b03811681146108a157600080fd5b60006020828403121561238c57600080fd5b8135611f8e81612365565b803563ffffffff811681146123ab57600080fd5b919050565b600080604083850312156123c357600080fd5b6123cc83612397565b946020939093013593505050565b6000602082840312156123ec57600080fd5b611f8e82612397565b600060a0820190508351825260208401516001600160401b03808216602085015260408601519150612434604085018380518252602090810151910152565b808516608085015250509392505050565b6000806020838503121561245857600080fd5b82356001600160401b0381111561246e57600080fd5b61247a85828601612269565b90969095509350505050565b803561ffff811681146123ab57600080fd5b600080604083850312156124ab57600080fd5b6124b483612397565b91506124c260208401612486565b90509250929050565b60005b838110156124e65781810151838201526020016124ce565b50506000910152565b600081518084526125078160208601602086016124cb565b601f01601f19169290920160200192915050565b602081526000611f8e60208301846124ef565b60006020828403121561254057600080fd5b5035919050565b60008060008060a0858703121561255d57600080fd5b6125678686612251565b935060608501356001600160401b0381111561258257600080fd5b61258e87828801612269565b90945092505060808501356125a2816122b1565b939692955090935050565b815181526020808301519082015260408101610d34565b60008083601f8401126125d657600080fd5b5081356001600160401b038111156125ed57600080fd5b6020830191508360208260051b85010111156122aa57600080fd5b6000806020838503121561261b57600080fd5b82356001600160401b0381111561263157600080fd5b61247a858286016125c4565b6000806000806060858703121561265357600080fd5b61265c85612397565b935061266a60208601612486565b925060408501356001600160401b0381111561268557600080fd5b61269187828801612269565b95989497509550505050565b6000602082840312156126af57600080fd5b8135611f8e816122b1565b6000606082840312156126cc57600080fd5b611f8e8383612251565b634e487b7160e01b600052604160045260246000fd5b606081018181106001600160401b038211171561270b5761270b6126d6565b60405250565b601f8201601f191681016001600160401b0381118282101715612736576127366126d6565b6040525050565b60006040828403121561274f57600080fd5b604051604081018181106001600160401b0382111715612771576127716126d6565b604052825181526020928301519281019290925250919050565b60006080828403121561279d57600080fd5b6040516127a9816126ec565b8091508251815260208301516127be81612365565b60208201526127d0846040850161273d565b60408201525092915050565b60008060a083850312156127ef57600080fd5b6127f9848461278b565b9150608083015161280981612365565b809150509250929050565b634e487b7160e01b600052601160045260246000fd5b60006001600160401b0380831681810361284657612846612814565b6001019392505050565b600181811c9082168061286457607f821691505b60208210810361226357634e487b7160e01b600052602260045260246000fd5b6001600160401b038181168382160190808211156128a4576128a4612814565b5092915050565b634e487b7160e01b600052603260045260246000fd5b80820180821115610d3457610d34612814565b600082516128e68184602087016124cb565b9190910192915050565b60006001600160401b038084111561290a5761290a6126d6565b8360051b60206040805161292083850182612711565b878152928601928281013685111561293757600080fd5b875b85811015612a15578035878111156129515760008081fd5b890160603682900312156129655760008081fd5b8451612970816126ec565b61297982612397565b8152612986878301612486565b87820152858201358981111561299c5760008081fd5b9190910190601f36818401126129b25760008081fd5b82358a8111156129c4576129c46126d6565b87516129d8828401601f19168b0182612711565b818152368a8387010111156129ef57600092508283fd5b818a86018b83013760009181018a01919091528288015250835250908401908401612939565b509098975050505050505050565b60008085851115612a3357600080fd5b83861115612a4057600080fd5b5050820193919092039150565b60008451612a5f8184602089016124cb565b8201838582376000930192835250909392505050565b60208152816020820152818360408301376000818301604090810191909152601f909201601f19160101919050565b60008060408385031215612ab757600080fd5b82356123cc81612365565b60008151808452602080850194506020840160005b83811015612af357815187529582019590820190600101612ad7565b509495945050505050565b602081526000611f8e6020830184612ac2565b604081526000612b246040830185612ac2565b90506001600160401b03831660208301529392505050565b600060033d1115612b555760046000803e5060005160e01c5b90565b600060443d1015612b665790565b6040516003193d81016004833e81513d6001600160401b038160248401118184111715612b9557505050505090565b8285019150815181811115612bad5750505050505090565b843d8701016020828501011115612bc75750505050505090565b612bd660208286010187612711565b509095945050505050565b6040815263ffffffff8351166040820152602083015160608201526000604084015160a06080840152612c1760e08401826124ef565b90506060850151603f198483030160a0850152612c3482826124ef565b60809690960151151560c08501525050506001600160a01b039190911660209091015290565b600060808284031215612c6c57600080fd5b611f8e838361278b565b600060408284031215612c8857600080fd5b611f8e838361273d565b601f82111561103d576000816000526020600020601f850160051c81016020861015612cbb5750805b601f850160051c820191505b81811015612cda57828155600101612cc7565b505050505050565b81516001600160401b03811115612cfb57612cfb6126d6565b612d0f81612d098454612850565b84612c92565b602080601f831160018114612d445760008415612d2c5750858301515b600019600386901b1c1916600185901b178555612cda565b600085815260208120601f198616915b82811015612d7357888601518255948401946001909101908401612d54565b5085821015612d915787850151600019600388901b60f8161c191681555b5050505050600190811b01905550565b600060208083018184528085518083526040925060408601915060408160051b87010184880160005b83811015612a1557888303603f190185528151805163ffffffff1684528781015161ffff16888501528601516060878501819052612e0a818601836124ef565b968901969450505090860190600101612dca565b61ffff8181168382160190808211156128a4576128a4612814565b60008651612e4b818460208b016124cb565b6001600160f81b031960f888811b82169285019283526001600160f01b031960f089901b16600184015286901b1660038201528351612e918160048401602088016124cb565b01600401979650505050505050565b600060208284031215612eb257600080fd5b8151611f8e816122b156fea2646970667358221220bf274373c07b6b8d0ff37abca306858b43a079aeb1b0a74ffa19d1a57a547b3964736f6c63430008160033",
  "devdoc": {
    "errors": {
      "OwnableInvalidOwner(address)": [
        {
          "details": "The owner is not a valid owner account. (eg. `address(0)`)"
        }
      ],
      "OwnableUnauthorizedAccount(address)": [
        {
          "details": "The caller account is not authorized to perform an operation."
        }
      ],
      "SafeCastOverflowedUintDowncast(uint8,uint256)": [
        {
          "details": "Value doesn't fit in an uint of `bits` size."
        }
      ],
      "SafeERC20FailedOperation(address)": [
        {
          "details": "An operation with an ERC-20 token failed."
        }
      ]
    },
    "kind": "dev",
    "methods": {
      "allowInitializePath((uint32,bytes32,uint64))": {
        "details": "This indicates to the endpoint that the OApp has enabled msgs for this particular path to be received.This defaults to assuming if a peer has been set, its initialized. Can be overridden by the OApp if there is other logic to determine this.",
        "params": {
          "origin": "The origin information containing the source endpoint and sender address."
        },
        "returns": {
          "_0": "Whether the path has been initialized."
        }
      },
      "checkRequestStatus(uint64)": {
        "details": "In LayerZero V2, retry is handled by the executor infrastructure      This function is for administrative purposes and monitoring",
        "params": {
          "requestId": "The request ID that may need attention"
        }
      },
      "cleanupExpiredRequests(uint64[])": {
        "details": "Clean up expired requests (anyone can call)",
        "params": {
          "requestIds": "Array of request IDs to clean up"
        }
      },
      "combineOptions(uint32,uint16,bytes)": {
        "details": "If there is an enforced lzReceive option: - {gasLimit: 200k, msg.value: 1 ether} AND a caller supplies a lzReceive option: {gasLimit: 100k, msg.value: 0.5 ether} - The resulting options will be {gasLimit: 300k, msg.value: 1.5 ether} when the message is executed on the remote lzReceive() function.This presence of duplicated options is handled off-chain in the verifier/executor.",
        "params": {
          "_eid": "The endpoint ID.",
          "_extraOptions": "Additional options passed by the caller.",
          "_msgType": "The OAPP message type."
        },
        "returns": {
          "_0": "options The combination of caller specified options AND enforced options."
        }
      },
      "getRandomWord(uint64)": {
        "params": {
          "requestId": "The request ID to query"
        },
        "returns": {
          "fulfilled": "Whether the request has been fulfilled",
          "randomWord": "The random word (0 if not fulfilled)"
        }
      },
      "isComposeMsgSender((uint32,bytes32,uint64),bytes,address)": {
        "details": "_origin The origin information containing the source endpoint and sender address.  - srcEid: The source chain endpoint ID.  - sender: The sender address on the src chain.  - nonce: The nonce of the message._message The lzReceive payload.Applications can optionally choose to implement separate composeMsg senders that are NOT the bridging layer.The default sender IS the OAppReceiver implementer.",
        "params": {
          "_sender": "The sender address."
        },
        "returns": {
          "_0": "isSender Is a valid sender."
        }
      },
      "lzReceive((uint32,bytes32,uint64),bytes32,bytes,address,bytes)": {
        "details": "Entry point for receiving messages or packets from the endpoint.Entry point for receiving msg/packet from the LayerZero endpoint.",
        "params": {
          "_executor": "The address of the executor for the received message.",
          "_extraData": "Additional arbitrary data provided by the corresponding executor.",
          "_guid": "The unique identifier for the received LayerZero message.",
          "_message": "The payload of the received message.",
          "_origin": "The origin information containing the source endpoint and sender address.  - srcEid: The source chain endpoint ID.  - sender: The sender address on the src chain.  - nonce: The nonce of the message."
        }
      },
      "nextNonce(uint32,bytes32)": {
        "details": "_srcEid The source endpoint ID._sender The sender address.The path nonce starts from 1. If 0 is returned it means that there is NO nonce ordered enforcement.Is required by the off-chain executor to determine the OApp expects msg execution is ordered.This is also enforced by the OApp.By default this is NOT enabled. ie. nextNonce is hardcoded to return 0.",
        "returns": {
          "nonce": "The next nonce."
        }
      },
      "oAppVersion()": {
        "returns": {
          "receiverVersion": "The version of the OAppReceiver.sol implementation.",
          "senderVersion": "The version of the OAppSender.sol implementation."
        }
      },
      "owner()": {
        "details": "Returns the address of the current owner."
      },
      "quote(bytes)": {
        "details": "Quote the fee for a random words request",
        "params": {
          "_options": "LayerZero options for the cross-chain message"
        }
      },
      "quoteSimple()": {
        "details": "Quote fee for simple request"
      },
      "quoteWithGas(uint32)": {
        "details": "Quote fee with custom gas limit",
        "params": {
          "_gasLimit": "Custom gas limit for the cross-chain execution"
        }
      },
      "registerMe()": {
        "details": "Register my contract on Sonic FeeM"
      },
      "renounceOwnership()": {
        "details": "Leaves the contract without owner. It will not be possible to call `onlyOwner` functions. Can only be called by the current owner. NOTE: Renouncing ownership will leave the contract without an owner, thereby disabling any functionality that is only available to the owner."
      },
      "requestRandomWords(bytes)": {
        "details": "Request random words from Arbitrum VRF Consumer",
        "params": {
          "_options": "LayerZero options for the cross-chain message"
        }
      },
      "requestRandomWordsSimple()": {
        "details": "Request random words with default options (now uses 690,420 gas) Updated to be more wallet-friendly"
      },
      "requestRandomWordsWithGas(uint32)": {
        "details": "Request random words with custom gas limit",
        "params": {
          "_gasLimit": "Custom gas limit for the cross-chain execution"
        }
      },
      "setDefaultGasLimit(uint32)": {
        "details": "Update default gas limit (owner only)"
      },
      "setDelegate(address)": {
        "details": "Only the owner/admin of the OApp can call this function.Provides the ability for a delegate to set configs, on behalf of the OApp, directly on the Endpoint contract.",
        "params": {
          "_delegate": "The address of the delegate to be set."
        }
      },
      "setEnforcedOptions((uint32,uint16,bytes)[])": {
        "details": "Sets the enforced options for specific endpoint and message type combinations.Only the owner/admin of the OApp can call this function.Provides a way for the OApp to enforce things like paying for PreCrime, AND/OR minimum dst lzReceive gas amounts etc.These enforced options can vary as the potential options/execution on the remote may differ as per the msgType. eg. Amount of lzReceive() gas necessary to deliver a lzCompose() message adds overhead you dont want to pay if you are only making a standard LayerZero message ie. lzReceive() WITHOUT sendCompose().",
        "params": {
          "_enforcedOptions": "An array of EnforcedOptionParam structures specifying enforced options."
        }
      },
      "setPeer(uint32,bytes32)": {
        "details": "Only the owner/admin of the OApp can call this function.Indicates that the peer is trusted to send LayerZero messages to this OApp.Set this to bytes32(0) to remove the peer address.Peer is a bytes32 to accommodate non-evm chains.",
        "params": {
          "_eid": "The endpoint ID.",
          "_peer": "The address of the peer to be associated with the corresponding endpoint."
        }
      },
      "setRequestTimeout(uint256)": {
        "details": "Update request timeout (owner only)"
      },
      "transferOwnership(address)": {
        "details": "Transfers ownership of the contract to a new account (`newOwner`). Can only be called by the current owner."
      },
      "withdraw()": {
        "details": "Emergency withdraw (owner only)"
      }
    },
    "title": "ChainlinkVRFIntegratorV2_5",
    "version": 1
  },
  "userdoc": {
    "kind": "user",
    "methods": {
      "allowInitializePath((uint32,bytes32,uint64))": {
        "notice": "Checks if the path initialization is allowed based on the provided origin."
      },
      "checkRequestStatus(uint64)": {
        "notice": "Manual retry for stuck LayerZero messages"
      },
      "combineOptions(uint32,uint16,bytes)": {
        "notice": "Combines options for a given endpoint and message type."
      },
      "endpoint()": {
        "notice": "Retrieves the LayerZero endpoint associated with the OApp."
      },
      "getRandomWord(uint64)": {
        "notice": "Get the random word for a fulfilled request"
      },
      "isComposeMsgSender((uint32,bytes32,uint64),bytes,address)": {
        "notice": "Indicates whether an address is an approved composeMsg sender to the Endpoint."
      },
      "nextNonce(uint32,bytes32)": {
        "notice": "Retrieves the next nonce for a given source endpoint and sender address."
      },
      "oAppVersion()": {
        "notice": "Retrieves the OApp version information."
      },
      "peers(uint32)": {
        "notice": "Retrieves the peer (OApp) associated with a corresponding endpoint."
      },
      "registerMe()": {
        "notice": "This function registers the contract with Sonic's fee management system"
      },
      "setDelegate(address)": {
        "notice": "Sets the delegate address for the OApp."
      },
      "setPeer(uint32,bytes32)": {
        "notice": "Sets the peer address (OApp instance) for a corresponding endpoint."
      }
    },
    "notice": "Resides on Sonic. Called by a provider to get random words from a peer on Arbitrum.",
    "version": 1
  },
  "storageLayout": {
    "storage": [
      {
        "astId": 3065,
        "contract": "contracts/ChainlinkVRFIntegratorV2_5.sol:ChainlinkVRFIntegratorV2_5",
        "label": "_owner",
        "offset": 0,
        "slot": "0",
        "type": "t_address"
      },
      {
        "astId": 1909,
        "contract": "contracts/ChainlinkVRFIntegratorV2_5.sol:ChainlinkVRFIntegratorV2_5",
        "label": "peers",
        "offset": 0,
        "slot": "1",
        "type": "t_mapping(t_uint32,t_bytes32)"
      },
      {
        "astId": 2505,
        "contract": "contracts/ChainlinkVRFIntegratorV2_5.sol:ChainlinkVRFIntegratorV2_5",
        "label": "enforcedOptions",
        "offset": 0,
        "slot": "2",
        "type": "t_mapping(t_uint32,t_mapping(t_uint16,t_bytes_storage))"
      },
      {
        "astId": 5679,
        "contract": "contracts/ChainlinkVRFIntegratorV2_5.sol:ChainlinkVRFIntegratorV2_5",
        "label": "requestCounter",
        "offset": 0,
        "slot": "3",
        "type": "t_uint64"
      },
      {
        "astId": 5682,
        "contract": "contracts/ChainlinkVRFIntegratorV2_5.sol:ChainlinkVRFIntegratorV2_5",
        "label": "defaultGasLimit",
        "offset": 8,
        "slot": "3",
        "type": "t_uint32"
      },
      {
        "astId": 5700,
        "contract": "contracts/ChainlinkVRFIntegratorV2_5.sol:ChainlinkVRFIntegratorV2_5",
        "label": "s_requests",
        "offset": 0,
        "slot": "4",
        "type": "t_mapping(t_uint64,t_struct(RequestStatus)5695_storage)"
      },
      {
        "astId": 5704,
        "contract": "contracts/ChainlinkVRFIntegratorV2_5.sol:ChainlinkVRFIntegratorV2_5",
        "label": "randomWordsProviders",
        "offset": 0,
        "slot": "5",
        "type": "t_mapping(t_uint64,t_address)"
      },
      {
        "astId": 5764,
        "contract": "contracts/ChainlinkVRFIntegratorV2_5.sol:ChainlinkVRFIntegratorV2_5",
        "label": "requestTimeout",
        "offset": 0,
        "slot": "6",
        "type": "t_uint256"
      }
    ],
    "types": {
      "t_address": {
        "encoding": "inplace",
        "label": "address",
        "numberOfBytes": "20"
      },
      "t_bool": {
        "encoding": "inplace",
        "label": "bool",
        "numberOfBytes": "1"
      },
      "t_bytes32": {
        "encoding": "inplace",
        "label": "bytes32",
        "numberOfBytes": "32"
      },
      "t_bytes_storage": {
        "encoding": "bytes",
        "label": "bytes",
        "numberOfBytes": "32"
      },
      "t_mapping(t_uint16,t_bytes_storage)": {
        "encoding": "mapping",
        "key": "t_uint16",
        "label": "mapping(uint16 => bytes)",
        "numberOfBytes": "32",
        "value": "t_bytes_storage"
      },
      "t_mapping(t_uint32,t_bytes32)": {
        "encoding": "mapping",
        "key": "t_uint32",
        "label": "mapping(uint32 => bytes32)",
        "numberOfBytes": "32",
        "value": "t_bytes32"
      },
      "t_mapping(t_uint32,t_mapping(t_uint16,t_bytes_storage))": {
        "encoding": "mapping",
        "key": "t_uint32",
        "label": "mapping(uint32 => mapping(uint16 => bytes))",
        "numberOfBytes": "32",
        "value": "t_mapping(t_uint16,t_bytes_storage)"
      },
      "t_mapping(t_uint64,t_address)": {
        "encoding": "mapping",
        "key": "t_uint64",
        "label": "mapping(uint64 => address)",
        "numberOfBytes": "32",
        "value": "t_address"
      },
      "t_mapping(t_uint64,t_struct(RequestStatus)5695_storage)": {
        "encoding": "mapping",
        "key": "t_uint64",
        "label": "mapping(uint64 => struct ChainlinkVRFIntegratorV2_5.RequestStatus)",
        "numberOfBytes": "32",
        "value": "t_struct(RequestStatus)5695_storage"
      },
      "t_struct(RequestStatus)5695_storage": {
        "encoding": "inplace",
        "label": "struct ChainlinkVRFIntegratorV2_5.RequestStatus",
        "members": [
          {
            "astId": 5684,
            "contract": "contracts/ChainlinkVRFIntegratorV2_5.sol:ChainlinkVRFIntegratorV2_5",
            "label": "fulfilled",
            "offset": 0,
            "slot": "0",
            "type": "t_bool"
          },
          {
            "astId": 5686,
            "contract": "contracts/ChainlinkVRFIntegratorV2_5.sol:ChainlinkVRFIntegratorV2_5",
            "label": "exists",
            "offset": 1,
            "slot": "0",
            "type": "t_bool"
          },
          {
            "astId": 5688,
            "contract": "contracts/ChainlinkVRFIntegratorV2_5.sol:ChainlinkVRFIntegratorV2_5",
            "label": "provider",
            "offset": 2,
            "slot": "0",
            "type": "t_address"
          },
          {
            "astId": 5690,
            "contract": "contracts/ChainlinkVRFIntegratorV2_5.sol:ChainlinkVRFIntegratorV2_5",
            "label": "randomWord",
            "offset": 0,
            "slot": "1",
            "type": "t_uint256"
          },
          {
            "astId": 5692,
            "contract": "contracts/ChainlinkVRFIntegratorV2_5.sol:ChainlinkVRFIntegratorV2_5",
            "label": "timestamp",
            "offset": 0,
            "slot": "2",
            "type": "t_uint256"
          },
          {
            "astId": 5694,
            "contract": "contracts/ChainlinkVRFIntegratorV2_5.sol:ChainlinkVRFIntegratorV2_5",
            "label": "isContract",
            "offset": 0,
            "slot": "3",
            "type": "t_bool"
          }
        ],
        "numberOfBytes": "128"
      },
      "t_uint16": {
        "encoding": "inplace",
        "label": "uint16",
        "numberOfBytes": "2"
      },
      "t_uint256": {
        "encoding": "inplace",
        "label": "uint256",
        "numberOfBytes": "32"
      },
      "t_uint32": {
        "encoding": "inplace",
        "label": "uint32",
        "numberOfBytes": "4"
      },
      "t_uint64": {
        "encoding": "inplace",
        "label": "uint64",
        "numberOfBytes": "8"
      }
    }
  }
}