{
  "address": "0x81515D6c0CC71811E64a1dF4ea68B7339b919C5D",
  "abi": [
    {
      "inputs": [
        {
          "internalType": "address",
          "name": "_vrfIntegrator",
          "type": "address"
        }
      ],
      "stateMutability": "nonpayable",
      "type": "constructor"
    },
    {
      "inputs": [
        {
          "internalType": "address",
          "name": "owner",
          "type": "address"
        }
      ],
      "name": "OwnableInvalidOwner",
      "type": "error"
    },
    {
      "inputs": [
        {
          "internalType": "address",
          "name": "account",
          "type": "address"
        }
      ],
      "name": "OwnableUnauthorizedAccount",
      "type": "error"
    },
    {
      "inputs": [],
      "name": "ReentrancyGuardReentrantCall",
      "type": "error"
    },
    {
      "anonymous": false,
      "inputs": [
        {
          "indexed": true,
          "internalType": "address",
          "name": "oldIntegrator",
          "type": "address"
        },
        {
          "indexed": true,
          "internalType": "address",
          "name": "newIntegrator",
          "type": "address"
        }
      ],
      "name": "ChainlinkVRFIntegratorUpdated",
      "type": "event"
    },
    {
      "anonymous": false,
      "inputs": [
        {
          "indexed": true,
          "internalType": "address",
          "name": "consumer",
          "type": "address"
        },
        {
          "indexed": false,
          "internalType": "bool",
          "name": "authorized",
          "type": "bool"
        }
      ],
      "name": "ConsumerAuthorized",
      "type": "event"
    },
    {
      "anonymous": false,
      "inputs": [
        {
          "indexed": true,
          "internalType": "uint256",
          "name": "randomnessId",
          "type": "uint256"
        },
        {
          "indexed": false,
          "internalType": "string",
          "name": "reason",
          "type": "string"
        }
      ],
      "name": "EmergencyFallbackUsed",
      "type": "event"
    },
    {
      "anonymous": false,
      "inputs": [
        {
          "indexed": false,
          "internalType": "uint256",
          "name": "vrfFee",
          "type": "uint256"
        },
        {
          "indexed": false,
          "internalType": "uint256",
          "name": "poolFee",
          "type": "uint256"
        },
        {
          "indexed": false,
          "internalType": "uint256",
          "name": "instantFee",
          "type": "uint256"
        }
      ],
      "name": "FeesUpdated",
      "type": "event"
    },
    {
      "anonymous": false,
      "inputs": [
        {
          "indexed": true,
          "internalType": "address",
          "name": "previousOwner",
          "type": "address"
        },
        {
          "indexed": true,
          "internalType": "address",
          "name": "newOwner",
          "type": "address"
        }
      ],
      "name": "OwnershipTransferred",
      "type": "event"
    },
    {
      "anonymous": false,
      "inputs": [
        {
          "indexed": true,
          "internalType": "uint256",
          "name": "requestId",
          "type": "uint256"
        },
        {
          "indexed": true,
          "internalType": "address",
          "name": "requester",
          "type": "address"
        },
        {
          "indexed": false,
          "internalType": "uint256",
          "name": "randomValue",
          "type": "uint256"
        }
      ],
      "name": "RandomnessDelivered",
      "type": "event"
    },
    {
      "anonymous": false,
      "inputs": [
        {
          "indexed": true,
          "internalType": "uint256",
          "name": "requestId",
          "type": "uint256"
        },
        {
          "indexed": true,
          "internalType": "address",
          "name": "requester",
          "type": "address"
        },
        {
          "indexed": false,
          "internalType": "string",
          "name": "reason",
          "type": "string"
        }
      ],
      "name": "RandomnessDeliveryFailed",
      "type": "event"
    },
    {
      "anonymous": false,
      "inputs": [
        {
          "indexed": true,
          "internalType": "uint256",
          "name": "randomnessId",
          "type": "uint256"
        },
        {
          "indexed": false,
          "internalType": "uint256",
          "name": "randomValue",
          "type": "uint256"
        },
        {
          "indexed": false,
          "internalType": "bool",
          "name": "fromVRF",
          "type": "bool"
        }
      ],
      "name": "RandomnessFulfilled",
      "type": "event"
    },
    {
      "anonymous": false,
      "inputs": [
        {
          "indexed": true,
          "internalType": "uint256",
          "name": "randomnessId",
          "type": "uint256"
        },
        {
          "indexed": true,
          "internalType": "address",
          "name": "requester",
          "type": "address"
        },
        {
          "indexed": false,
          "internalType": "enum OmniDragonRandomnessProvider.RequestType",
          "name": "requestType",
          "type": "uint8"
        },
        {
          "indexed": false,
          "internalType": "uint64",
          "name": "vrfSequence",
          "type": "uint64"
        }
      ],
      "name": "RandomnessRequested",
      "type": "event"
    },
    {
      "anonymous": false,
      "inputs": [
        {
          "indexed": true,
          "internalType": "uint256",
          "name": "randomnessId",
          "type": "uint256"
        },
        {
          "indexed": true,
          "internalType": "uint64",
          "name": "vrfSequence",
          "type": "uint64"
        },
        {
          "indexed": false,
          "internalType": "uint256",
          "name": "randomValue",
          "type": "uint256"
        }
      ],
      "name": "VRFCallbackReceived",
      "type": "event"
    },
    {
      "inputs": [
        {
          "internalType": "address",
          "name": "consumer",
          "type": "address"
        },
        {
          "internalType": "bool",
          "name": "authorized",
          "type": "bool"
        }
      ],
      "name": "authorizeConsumer",
      "outputs": [],
      "stateMutability": "nonpayable",
      "type": "function"
    },
    {
      "inputs": [
        {
          "internalType": "address",
          "name": "",
          "type": "address"
        }
      ],
      "name": "authorizedConsumers",
      "outputs": [
        {
          "internalType": "bool",
          "name": "",
          "type": "bool"
        }
      ],
      "stateMutability": "view",
      "type": "function"
    },
    {
      "inputs": [],
      "name": "chainlinkVRFEnabled",
      "outputs": [
        {
          "internalType": "bool",
          "name": "",
          "type": "bool"
        }
      ],
      "stateMutability": "view",
      "type": "function"
    },
    {
      "inputs": [],
      "name": "chainlinkVRFIntegrator",
      "outputs": [
        {
          "internalType": "contract IChainlinkVRFIntegratorV2_5",
          "name": "",
          "type": "address"
        }
      ],
      "stateMutability": "view",
      "type": "function"
    },
    {
      "inputs": [],
      "name": "checkFeeMStatus",
      "outputs": [
        {
          "internalType": "bool",
          "name": "isRegistered",
          "type": "bool"
        }
      ],
      "stateMutability": "view",
      "type": "function"
    },
    {
      "inputs": [
        {
          "internalType": "address",
          "name": "swapper",
          "type": "address"
        },
        {
          "internalType": "address",
          "name": "tokenA",
          "type": "address"
        },
        {
          "internalType": "address",
          "name": "tokenB",
          "type": "address"
        },
        {
          "internalType": "uint256",
          "name": "amountIn",
          "type": "uint256"
        },
        {
          "internalType": "uint256",
          "name": "amountOut",
          "type": "uint256"
        }
      ],
      "name": "drawUnpredictableFromPool",
      "outputs": [
        {
          "internalType": "uint256",
          "name": "randomness",
          "type": "uint256"
        }
      ],
      "stateMutability": "nonpayable",
      "type": "function"
    },
    {
      "inputs": [
        {
          "internalType": "uint256",
          "name": "randomnessId",
          "type": "uint256"
        },
        {
          "internalType": "uint256",
          "name": "randomValue",
          "type": "uint256"
        }
      ],
      "name": "emergencyFulfillRequest",
      "outputs": [],
      "stateMutability": "nonpayable",
      "type": "function"
    },
    {
      "inputs": [],
      "name": "getEstimatedFees",
      "outputs": [
        {
          "internalType": "uint256",
          "name": "poolFeeAmount",
          "type": "uint256"
        },
        {
          "internalType": "uint256",
          "name": "vrfFeeAmount",
          "type": "uint256"
        },
        {
          "internalType": "uint256",
          "name": "instantFeeAmount",
          "type": "uint256"
        }
      ],
      "stateMutability": "view",
      "type": "function"
    },
    {
      "inputs": [
        {
          "internalType": "uint256",
          "name": "randomnessId",
          "type": "uint256"
        }
      ],
      "name": "getRandomnessRequest",
      "outputs": [
        {
          "internalType": "address",
          "name": "requester",
          "type": "address"
        },
        {
          "internalType": "uint64",
          "name": "timestamp",
          "type": "uint64"
        },
        {
          "internalType": "bool",
          "name": "fulfilled",
          "type": "bool"
        },
        {
          "internalType": "uint256",
          "name": "randomValue",
          "type": "uint256"
        },
        {
          "internalType": "uint32",
          "name": "requestType",
          "type": "uint32"
        }
      ],
      "stateMutability": "view",
      "type": "function"
    },
    {
      "inputs": [],
      "name": "getStatistics",
      "outputs": [
        {
          "internalType": "uint256",
          "name": "totalVRF",
          "type": "uint256"
        },
        {
          "internalType": "uint256",
          "name": "totalPool",
          "type": "uint256"
        },
        {
          "internalType": "uint256",
          "name": "totalInstant",
          "type": "uint256"
        },
        {
          "internalType": "uint256",
          "name": "successfulCallbacks",
          "type": "uint256"
        },
        {
          "internalType": "uint256",
          "name": "pendingRequests",
          "type": "uint256"
        }
      ],
      "stateMutability": "view",
      "type": "function"
    },
    {
      "inputs": [],
      "name": "instantFee",
      "outputs": [
        {
          "internalType": "uint256",
          "name": "",
          "type": "uint256"
        }
      ],
      "stateMutability": "view",
      "type": "function"
    },
    {
      "inputs": [],
      "name": "isVRFEnabled",
      "outputs": [
        {
          "internalType": "bool",
          "name": "",
          "type": "bool"
        }
      ],
      "stateMutability": "view",
      "type": "function"
    },
    {
      "inputs": [],
      "name": "maxPendingRequests",
      "outputs": [
        {
          "internalType": "uint256",
          "name": "",
          "type": "uint256"
        }
      ],
      "stateMutability": "view",
      "type": "function"
    },
    {
      "inputs": [],
      "name": "nextRandomnessId",
      "outputs": [
        {
          "internalType": "uint256",
          "name": "",
          "type": "uint256"
        }
      ],
      "stateMutability": "view",
      "type": "function"
    },
    {
      "inputs": [],
      "name": "owner",
      "outputs": [
        {
          "internalType": "address",
          "name": "",
          "type": "address"
        }
      ],
      "stateMutability": "view",
      "type": "function"
    },
    {
      "inputs": [],
      "name": "poolFee",
      "outputs": [
        {
          "internalType": "uint256",
          "name": "",
          "type": "uint256"
        }
      ],
      "stateMutability": "view",
      "type": "function"
    },
    {
      "inputs": [
        {
          "internalType": "uint256",
          "name": "",
          "type": "uint256"
        }
      ],
      "name": "randomnessRequests",
      "outputs": [
        {
          "internalType": "address",
          "name": "requester",
          "type": "address"
        },
        {
          "internalType": "uint64",
          "name": "timestamp",
          "type": "uint64"
        },
        {
          "internalType": "bool",
          "name": "fulfilled",
          "type": "bool"
        },
        {
          "internalType": "uint256",
          "name": "randomValue",
          "type": "uint256"
        },
        {
          "internalType": "uint32",
          "name": "requestType",
          "type": "uint32"
        },
        {
          "internalType": "uint64",
          "name": "vrfSequence",
          "type": "uint64"
        }
      ],
      "stateMutability": "view",
      "type": "function"
    },
    {
      "inputs": [
        {
          "internalType": "uint256[]",
          "name": "randomWords",
          "type": "uint256[]"
        },
        {
          "internalType": "uint64",
          "name": "sequence",
          "type": "uint64"
        }
      ],
      "name": "receiveRandomWords",
      "outputs": [],
      "stateMutability": "nonpayable",
      "type": "function"
    },
    {
      "inputs": [],
      "name": "renounceOwnership",
      "outputs": [],
      "stateMutability": "nonpayable",
      "type": "function"
    },
    {
      "inputs": [],
      "name": "requestRandomnessFromChainlinkVRF",
      "outputs": [
        {
          "internalType": "uint256",
          "name": "",
          "type": "uint256"
        }
      ],
      "stateMutability": "payable",
      "type": "function"
    },
    {
      "inputs": [],
      "name": "requestRandomnessFromPool",
      "outputs": [
        {
          "internalType": "uint256",
          "name": "",
          "type": "uint256"
        }
      ],
      "stateMutability": "payable",
      "type": "function"
    },
    {
      "inputs": [
        {
          "internalType": "address",
          "name": "_integrator",
          "type": "address"
        }
      ],
      "name": "setChainlinkVRFIntegrator",
      "outputs": [],
      "stateMutability": "nonpayable",
      "type": "function"
    },
    {
      "inputs": [
        {
          "internalType": "uint256",
          "name": "_vrfFee",
          "type": "uint256"
        },
        {
          "internalType": "uint256",
          "name": "_poolFee",
          "type": "uint256"
        },
        {
          "internalType": "uint256",
          "name": "_instantFee",
          "type": "uint256"
        }
      ],
      "name": "setFees",
      "outputs": [],
      "stateMutability": "nonpayable",
      "type": "function"
    },
    {
      "inputs": [
        {
          "internalType": "uint256",
          "name": "_maxPendingRequests",
          "type": "uint256"
        }
      ],
      "name": "setMaxPendingRequests",
      "outputs": [],
      "stateMutability": "nonpayable",
      "type": "function"
    },
    {
      "inputs": [],
      "name": "successfulVRFCallbacks",
      "outputs": [
        {
          "internalType": "uint256",
          "name": "",
          "type": "uint256"
        }
      ],
      "stateMutability": "view",
      "type": "function"
    },
    {
      "inputs": [],
      "name": "totalInstantRequests",
      "outputs": [
        {
          "internalType": "uint256",
          "name": "",
          "type": "uint256"
        }
      ],
      "stateMutability": "view",
      "type": "function"
    },
    {
      "inputs": [],
      "name": "totalPoolRequests",
      "outputs": [
        {
          "internalType": "uint256",
          "name": "",
          "type": "uint256"
        }
      ],
      "stateMutability": "view",
      "type": "function"
    },
    {
      "inputs": [],
      "name": "totalVRFRequests",
      "outputs": [
        {
          "internalType": "uint256",
          "name": "",
          "type": "uint256"
        }
      ],
      "stateMutability": "view",
      "type": "function"
    },
    {
      "inputs": [
        {
          "internalType": "address",
          "name": "newOwner",
          "type": "address"
        }
      ],
      "name": "transferOwnership",
      "outputs": [],
      "stateMutability": "nonpayable",
      "type": "function"
    },
    {
      "inputs": [],
      "name": "vrfFee",
      "outputs": [
        {
          "internalType": "uint256",
          "name": "",
          "type": "uint256"
        }
      ],
      "stateMutability": "view",
      "type": "function"
    },
    {
      "inputs": [
        {
          "internalType": "uint64",
          "name": "",
          "type": "uint64"
        }
      ],
      "name": "vrfSequenceToRequestId",
      "outputs": [
        {
          "internalType": "uint256",
          "name": "",
          "type": "uint256"
        }
      ],
      "stateMutability": "view",
      "type": "function"
    },
    {
      "inputs": [],
      "name": "withdrawFees",
      "outputs": [],
      "stateMutability": "nonpayable",
      "type": "function"
    },
    {
      "stateMutability": "payable",
      "type": "receive"
    }
  ],
  "transactionHash": "0x38e159242a4619799494d5bfcaa97aa9a991d9a9681cae784e0d9c28dc8430f7",
  "args": [
    "0x3aB9Bf4C30F5995Ac27f09c487a32e97c87899E4"
  ],
  "numDeployments": 2,
  "solcInputHash": "163865cc55892e8ecff25c8dca601d8f",
  "bytecode": "0x60803461011a57601f611c0538819003918201601f19168301916001600160401b0383118484101761011f5780849260209460405283398101031261011a57516001600160a01b0381169081900361011a5733156101045760008054336001600160a01b0319821681178355604051939290916001600160a01b0316907f8be0079c531659141344cd1fd0a4f28419497f9722a3daafe3b4186f6b6457e09080a3600180556702c68af0bb14000060075566038d7ea4c6800060085560006009556064600a5580156100f157600580546001600160a81b031916909117600160a01b1790555b611acf90816101368239f35b506005805460ff60a01b191690556100e5565b631e4fbdf760e01b600052600060045260246000fd5b600080fd5b634e487b7160e01b600052604160045260246000fdfe608080604052600436101561001d575b50361561001b57600080fd5b005b60003560e01c908163020e3d0f1461120b5750806307055840146111cc578063089fe6aa146111ae5780630d584d691461112f5780630e60e1d014610f585780631017507d14610f3a57806324a8a56814610f085780632636106414610e65578063372d6b2714610e205780633b68135e14610e02578063476343ee14610d825780635349c04614610c3657806353fa683714610c185780635cb6dfff14610b9c5780636954414114610b5a578063715018a614610b0157806377fd2fdd14610ae35780637f3539d6146106415780638546212d1461061857806385fb45fb146105a05780638da5cb5b14610577578063a8393fad14610556578063a9b68b5f14610538578063b181ee851461048d578063c47d51be1461046f578063ce65ec1b14610453578063cec10c11146103df578063d585013c146103c1578063d5d5ca5d146103a3578063e2a21b461461023e578063f2fde38b146101b55763f5b413201461018a573861000f565b346101b05760003660031901126101b057602060ff60055460a01c166040519015158152f35b600080fd5b346101b05760203660031901126101b0576101ce611245565b6101d66115d2565b6001600160a01b0316801561022857600080546001600160a01b03198116831782556001600160a01b0316907f8be0079c531659141344cd1fd0a4f28419497f9722a3daafe3b4186f6b6457e09080a3005b631e4fbdf760e01b600052600060045260246000fd5b346101b05760403660031901126101b05760243560043561025d6115d2565b80600052600260205260406000209182549260ff8460e01c1661035e576001600160a01b03841615610320576040828261001b9686956001600080516020611a7a833981519152960155600160e01b9060ff60e01b1916179055837f15c2632244cf9e34a75944294454bc5f794e9db8223c72ba82f61a9895b6a7886060845160208152601e60208201527f456d657267656e63792066756c66696c6c6d656e74206279206f776e6572000086820152a2815190815260006020820152a261178f565b60405162461bcd60e51b815260206004820152601660248201527514995c5d595cdd08191bd95cc81b9bdd08195e1a5cdd60521b6044820152606490fd5b60405162461bcd60e51b815260206004820152601960248201527f5265717565737420616c72656164792066756c66696c6c6564000000000000006044820152606490fd5b346101b05760003660031901126101b0576020600a54604051908152f35b346101b05760003660031901126101b0576020600454604051908152f35b346101b05760603660031901126101b0577fcf8a1e1d5f09cf3c97dbb653cd9a4d7aace9292fbc1bb8211febf2d400febbdd60243560043561044e6044356104256115d2565b826007558360085580600955604051938493846040919493926060820195825260208201520152565b0390a1005b346101b05760003660031901126101b057602060405160008152f35b346101b05760003660031901126101b0576020600954604051908152f35b346101b05760203660031901126101b057600435600052600260205260a060406000206040516104bc8161125b565b815491600180851b0383169283835260ff6001600160401b0382871c169182602086015260e01c161515908160408501526002600184015493846060870152015493866001600160401b0363ffffffff87169687608085015260201c169101526040519485526020850152604084015260608301526080820152f35b346101b05760003660031901126101b0576020600c54604051908152f35b346101b05760203660031901126101b05761056f6115d2565b600435600a55005b346101b05760003660031901126101b0576000546040516001600160a01b039091168152602090f35b346101b05760203660031901126101b0576105b9611245565b6105c16115d2565b600580546001600160a81b031981166001600160a01b0393841690811781151560a01b60ff60a01b16179092559091167f6b86c9bf0982cc54eb344d63736017f271119dc502e2743fcb85f557625978a5600080a3005b346101b05760003660031901126101b0576005546040516001600160a01b039091168152602090f35b60003660031901126101b0576106556115fb565b60055460ff8160a01c1615610a9e576001600160a01b03168015610a60576007543410610a1b5760249061069361068a61161d565b600a5411611297565b60a0600454916106a2836112e3565b60045560405193848092631b1ae8b960e21b825261759e600483015234905af180610950575b6020925061083e57807f15c2632244cf9e34a75944294454bc5f794e9db8223c72ba82f61a9895b6a7886107096106fd61154a565b60405191829182611589565b0390a26040516107188161125b565b338152426001600160401b0316838201908152600060408084018281526060850183815260016080870190815260a08088018681528987526002808c529590962097518854975194516001600160e81b03199098166001600160a01b03919091161793901b67ffffffffffffffff60a01b169290921794151560e01b60ff60e01b1694909417855593919263ffffffff9290516001820155019251166bffffffffffffffff0000000083549251861b16916001600160601b0319161717905580600080516020611a7a83398151915260406107f333846116bd565b600084815260028088528382206001018390558582528752828120805460ff60e01b1916600160e01b179055825191825281870152a26108328161178f565b60018055604051908152f35b60405161084a8161125b565b338152426001600160401b0316838201908152600060408084018281526060850183815260016080870190815260a08088018681528987526002808c529590962097518854975194516001600160e81b03199098166001600160a01b03919091161793901b67ffffffffffffffff60a01b169290921794151560e01b60ff60e01b1694909417855593919263ffffffff9290516001820155019251166bffffffffffffffff0000000083549251861b16916001600160601b03191617179055610914600b546112e3565b600b5560405160018152600083820152817f1e03afcb3afb71ddf3e841b49655103be87ee23283ad593478277e0aa919a87360403393a3610832565b8260a03d60a011610a14575b6109668183611276565b8101039260a084126101b057608084126101b0576040519360608501908582106001600160401b038311176109fe576040918252825186526109aa60208401611536565b6020870152603f1901126101b0576040519360408501918583106001600160401b038411176109fe5760209560406080936109f8958252818401518352606084015189840152015201611536565b506106c8565b634e487b7160e01b600052604160045260246000fd5b503d61095c565b60405162461bcd60e51b815260206004820152601860248201527f496e73756666696369656e742066656520666f722056524600000000000000006044820152606490fd5b60405162461bcd60e51b8152602060048201526016602482015275159491881a5b9d1959dc985d1bdc881b9bdd081cd95d60521b6044820152606490fd5b60405162461bcd60e51b815260206004820152601960248201527f436861696e6c696e6b20565246206e6f7420656e61626c6564000000000000006044820152606490fd5b346101b05760003660031901126101b0576020600e54604051908152f35b346101b05760003660031901126101b057610b1a6115d2565b600080546001600160a01b0319811682556001600160a01b03167f8be0079c531659141344cd1fd0a4f28419497f9722a3daafe3b4186f6b6457e08280a3005b346101b05760003660031901126101b057602060055460ff8160a01c169081610b89575b506040519015158152f35b6001600160a01b03161515905082610b7e565b346101b05760203660031901126101b057600435600052600260205260c060406000206001600160401b03815491600260018201549101549060ff6040519460018060a01b0381168652848160a01c16602087015260e01c1615156040850152606084015263ffffffff8116608084015260201c1660a0820152f35b346101b05760003660031901126101b0576020600b54604051908152f35b346101b05760a03660031901126101b057610c4f611245565b602435906001600160a01b03821682036101b057604435916001600160a01b03831683036101b05733600052600660205260ff6040600020541615610d3d576020925a600d5491610c9f836112e3565b600d5560405193868501956001600160601b03199060601b1686526001600160601b03199060601b1660348501526001600160601b03199060601b166048840152606435605c840152608435607c84015242609c8401524460bc8401524160601b60dc8401523a60f08401526101108301523360601b6101308301526101448201526101448152610d3261016482611276565b519020604051908152f35b60405162461bcd60e51b815260206004820152601760248201527f4e6f7420617574686f72697a656420636f6e73756d65720000000000000000006044820152606490fd5b346101b05760003660031901126101b057610d9b6115d2565b478015610dc75760008080809360018060a01b0382541682f115610dbb57005b6040513d6000823e3d90fd5b60405162461bcd60e51b81526020600482015260136024820152724e6f206665657320746f20776974686472617760681b6044820152606490fd5b346101b05760003660031901126101b0576020600d54604051908152f35b346101b05760003660031901126101b05760a0600b54600c54600d54600e5490610e4861161d565b926040519485526020850152604084015260608301526080820152f35b346101b05760403660031901126101b0576004356001600160401b0381116101b057366023820112156101b0578060040135906001600160401b0382116109fe578160051b60405192610ebb6020830185611276565b835260246020840191830101913683116101b057602401905b828210610ef857836024356001600160401b03811681036101b05761001b91611308565b8135815260209182019101610ed4565b346101b05760003660031901126101b05760085460075460095460408051938452602084019290925290820152606090f35b346101b05760003660031901126101b0576020600754604051908152f35b60003660031901126101b057610f6c6115fb565b60085434106110f757610f8061068a61161d565b6020600454610f8e816112e3565b600455604051610f9d8161125b565b338152426001600160401b031683820190815260006040808401828152606085018381526080860184815260a08088018681528987526002808c529590962097518854975194516001600160e81b03199098166001600160a01b03919091161793901b67ffffffffffffffff60a01b169290921794151560e01b60ff60e01b1694909417855593919263ffffffff9290516001820155019251166bffffffffffffffff0000000083549251861b16916001600160601b03191617179055611065600c546112e3565b600c5580600080516020611a7a833981519152604080516000908181528187820152847f1e03afcb3afb71ddf3e841b49655103be87ee23283ad593478277e0aa919a873843393a36110b733856116bd565b84825260028088528383206001018290558583528752828220805460ff60e01b1916600160e01b179055825190815280870191909152a26108328161178f565b60405162461bcd60e51b815260206004820152601060248201526f496e73756666696369656e742066656560801b6044820152606490fd5b346101b05760403660031901126101b057611148611245565b602435908115158092036101b05760207f173a32dd6a1ebf7355312db11356615b9bc7fc754332e376edb18c783f55eef8916111826115d2565b60018060a01b0316928360005260068252604060002060ff1981541660ff8316179055604051908152a2005b346101b05760003660031901126101b0576020600854604051908152f35b346101b05760203660031901126101b0576001600160a01b036111ed611245565b166000526006602052602060ff604060002054166040519015158152f35b346101b05760203660031901126101b057600435906001600160401b0382168092036101b057602091600052600382526040600020548152f35b600435906001600160a01b03821682036101b057565b60c081019081106001600160401b038211176109fe57604052565b90601f801991011681019081106001600160401b038211176109fe57604052565b1561129e57565b60405162461bcd60e51b815260206004820152601960248201527f546f6f206d616e792070656e64696e67207265717565737473000000000000006044820152606490fd5b60001981146112f25760010190565b634e487b7160e01b600052601160045260246000fd5b6005549091906001600160a01b031633036114f1578151156114ac576001600160401b0316806000526003602052604060002054908115808015906114a4575b156114685781159081611460575b50611450575b811561144b57816000526002602052604060002090600163ffffffff6002840154161480159061143d575b611437578351156114215760408392600080516020611a7a83398151915292602061141f97015191826001820155600160e01b60ff60e01b198254161790556113d1600e546112e3565b600e55806000526003602052600083812055847ffd75d4660ebf9cf7ce55922f2e09981aec0f1aae23da93841ae796bea8cf725360208551858152a3815190815260016020820152a261178f565b565b634e487b7160e01b600052603260045260246000fd5b50505050565b5060ff825460e01c16611387565b505050565b905061145a61197f565b9061135c565b905038611356565b60405162461bcd60e51b8152602060048201526014602482015273556e6b6e6f776e205652462073657175656e636560601b6044820152606490fd5b508115611348565b60405162461bcd60e51b815260206004820152601860248201527f4e6f2072616e646f6d20776f7264732070726f766964656400000000000000006044820152606490fd5b60405162461bcd60e51b815260206004820152601c60248201527f4f6e6c792056524620696e7465677261746f722063616e2063616c6c000000006044820152606490fd5b51906001600160401b03821682036101b057565b3d15611584573d906001600160401b0382116109fe5760405191611578601f8201601f191660200184611276565b82523d6000602084013e565b606090565b91909160208152825180602083015260005b8181106115bc575060409293506000838284010152601f8019910116010190565b806020809287010151604082860101520161159b565b6000546001600160a01b031633036115e657565b63118cdaa760e01b6000523360045260246000fd5b60026001541461160c576002600155565b633ee5aeb560e01b60005260046000fd5b6000600454606481116000146116b75760631981018181116116a3575b81811061164657505090565b80600052600260205260ff60406000205460e01c161580611683575b61166f575b60010161163a565b9161167b6001916112e3565b929050611667565b506000818152600260205260409020546001600160a01b03161515611662565b634e487b7160e01b83526011600452602483fd5b8161163a565b5a47906040519260208401944286524460408601524160601b60608601526001600160601b03199060601b16607485015260888401523a60a884015260c883015260e882015260e8815261171361010882611276565b51902090565b600060443d1061177e576040513d600319016004823e8051913d60248401116001600160401b0384111761178957828201928351916001600160401b038311611781573d84016003190185840160200111611781575061177e92910160200190611276565b90565b949350505050565b92915050565b600081815260026020526040812080549091906001600160a01b0316803b1561194a5760018301908154813b1561194657839160448392604051948593849263210b9f0360e01b84528b600485015260248401525af19081611932575b506118f257506001908060033d116118e2575b6308c379a014611881575b50611813575050565b61181b61154a565b5060018060a01b03905416907f2bd49d9fd47fc0e1cdd0c97db18a3208b9211a864991f1ea6969071679b20912606060405160208152601a60208201527f4c6f772d6c6576656c2064656c6976657279206661696c7572650000000000006040820152a3565b611889611719565b9081611896575b5061180a565b83546040519193506001600160a01b03169185917f2bd49d9fd47fc0e1cdd0c97db18a3208b9211a864991f1ea6969071679b209129181906118d89082611589565b0390a33880611890565b50600481803e805160e01c6117ff565b915491546040519081526001600160a01b0390921692917fe84e678feda1cb3aa2465f715ad100c4cd51b7184ff516232675a8830ff7472d9150602090a3565b8361193f91949294611276565b91386117ec565b8380fd5b92917fe84e678feda1cb3aa2465f715ad100c4cd51b7184ff516232675a8830ff7472d915060016020910154604051908152a3565b600454600a811115611a715760091981018181116112f257905b8181116119a7575050600090565b60001981018181116112f25780600052600260205260406000206040516119cd8161125b565b60016002835493828060a01b03851684526001600160401b038560a01c16602085015260ff604085019560e01c161515855282810154606085015201546001600160401b0363ffffffff82169182608086015260201c1660a0840152149182611a67575b5081611a53575b50611a4d575080156112f25760001901611999565b91505090565b516001600160a01b03161515905038611a38565b5115915038611a31565b60009061199956fe9a0135f78541ba6bbfb2501db95cd4f3af86d31296088d8afb8c251876caf94da264697066735822122072e5ead6157219cd2bec68758c7062e585d5c90b5055cfdc1acffdeca945d42164736f6c634300081c0033",
  "devdoc": {
    "details": "Advanced randomness provider that wraps ChainlinkVRFIntegratorV2_5 with full cross-chain VRF integration  FEATURES: - Full Chainlink VRF integration via ChainlinkVRFIntegratorV2_5 (Sonic  Arbitrum  Chainlink) - Authorization system for consumers - Request mapping and callback handling - Fallback pseudo-randomness for instant decisions - Fee management and withdrawal - Comprehensive event logging https://x.com/sonicreddragon https://t.me/sonicreddragon",
    "errors": {
      "OwnableInvalidOwner(address)": [
        {
          "details": "The owner is not a valid owner account. (eg. `address(0)`)"
        }
      ],
      "OwnableUnauthorizedAccount(address)": [
        {
          "details": "The caller account is not authorized to perform an operation."
        }
      ],
      "ReentrancyGuardReentrantCall()": [
        {
          "details": "Unauthorized reentrant call."
        }
      ]
    },
    "kind": "dev",
    "methods": {
      "drawUnpredictableFromPool(address,address,address,uint256,uint256)": {
        "details": "Get instant randomness for per-swap lotteries (no fee, pseudo-random)",
        "params": {
          "amountIn": "The input amount",
          "amountOut": "The output amount",
          "swapper": "The address of the user making the swap",
          "tokenA": "The first token in the swap",
          "tokenB": "The second token in the swap  "
        },
        "returns": {
          "randomness": "The generated random value"
        }
      },
      "owner()": {
        "details": "Returns the address of the current owner."
      },
      "receiveRandomWords(uint256[],uint64)": {
        "details": "Receives random words from ChainlinkVRFIntegratorV2_5",
        "params": {
          "randomWords": "Array of random words from Chainlink VRF",
          "sequence": "The VRF sequence number from the integrator"
        }
      },
      "renounceOwnership()": {
        "details": "Leaves the contract without owner. It will not be possible to call `onlyOwner` functions. Can only be called by the current owner. NOTE: Renouncing ownership will leave the contract without an owner, thereby disabling any functionality that is only available to the owner."
      },
      "requestRandomnessFromChainlinkVRF()": {
        "details": "Request randomness from Chainlink VRF via cross-chain integrator",
        "returns": {
          "_0": "randomnessId The unique identifier for this randomness request"
        }
      },
      "requestRandomnessFromPool()": {
        "details": "Request randomness from pool (uses pseudo-randomness for now)",
        "returns": {
          "_0": "randomnessId The unique identifier for this randomness request"
        }
      },
      "transferOwnership(address)": {
        "details": "Transfers ownership of the contract to a new account (`newOwner`). Can only be called by the current owner."
      }
    },
    "title": "OmniDragonRandomnessProvider",
    "version": 1
  },
  "userdoc": {
    "kind": "user",
    "methods": {},
    "version": 1
  },
  "storageLayout": {
    "storage": [
      {
        "astId": 42109,
        "contract": "contracts/core/oracles/OmniDragonRandomnessProvider.sol:OmniDragonRandomnessProvider",
        "label": "_owner",
        "offset": 0,
        "slot": "0",
        "type": "t_address"
      },
      {
        "astId": 44492,
        "contract": "contracts/core/oracles/OmniDragonRandomnessProvider.sol:OmniDragonRandomnessProvider",
        "label": "_status",
        "offset": 0,
        "slot": "1",
        "type": "t_uint256"
      },
      {
        "astId": 18945,
        "contract": "contracts/core/oracles/OmniDragonRandomnessProvider.sol:OmniDragonRandomnessProvider",
        "label": "randomnessRequests",
        "offset": 0,
        "slot": "2",
        "type": "t_mapping(t_uint256,t_struct(RandomnessRequest)18936_storage)"
      },
      {
        "astId": 18949,
        "contract": "contracts/core/oracles/OmniDragonRandomnessProvider.sol:OmniDragonRandomnessProvider",
        "label": "vrfSequenceToRequestId",
        "offset": 0,
        "slot": "3",
        "type": "t_mapping(t_uint64,t_uint256)"
      },
      {
        "astId": 18951,
        "contract": "contracts/core/oracles/OmniDragonRandomnessProvider.sol:OmniDragonRandomnessProvider",
        "label": "nextRandomnessId",
        "offset": 0,
        "slot": "4",
        "type": "t_uint256"
      },
      {
        "astId": 18954,
        "contract": "contracts/core/oracles/OmniDragonRandomnessProvider.sol:OmniDragonRandomnessProvider",
        "label": "chainlinkVRFIntegrator",
        "offset": 0,
        "slot": "5",
        "type": "t_contract(IChainlinkVRFIntegratorV2_5)24415"
      },
      {
        "astId": 18956,
        "contract": "contracts/core/oracles/OmniDragonRandomnessProvider.sol:OmniDragonRandomnessProvider",
        "label": "chainlinkVRFEnabled",
        "offset": 20,
        "slot": "5",
        "type": "t_bool"
      },
      {
        "astId": 18960,
        "contract": "contracts/core/oracles/OmniDragonRandomnessProvider.sol:OmniDragonRandomnessProvider",
        "label": "authorizedConsumers",
        "offset": 0,
        "slot": "6",
        "type": "t_mapping(t_address,t_bool)"
      },
      {
        "astId": 18963,
        "contract": "contracts/core/oracles/OmniDragonRandomnessProvider.sol:OmniDragonRandomnessProvider",
        "label": "vrfFee",
        "offset": 0,
        "slot": "7",
        "type": "t_uint256"
      },
      {
        "astId": 18966,
        "contract": "contracts/core/oracles/OmniDragonRandomnessProvider.sol:OmniDragonRandomnessProvider",
        "label": "poolFee",
        "offset": 0,
        "slot": "8",
        "type": "t_uint256"
      },
      {
        "astId": 18969,
        "contract": "contracts/core/oracles/OmniDragonRandomnessProvider.sol:OmniDragonRandomnessProvider",
        "label": "instantFee",
        "offset": 0,
        "slot": "9",
        "type": "t_uint256"
      },
      {
        "astId": 18972,
        "contract": "contracts/core/oracles/OmniDragonRandomnessProvider.sol:OmniDragonRandomnessProvider",
        "label": "maxPendingRequests",
        "offset": 0,
        "slot": "10",
        "type": "t_uint256"
      },
      {
        "astId": 18974,
        "contract": "contracts/core/oracles/OmniDragonRandomnessProvider.sol:OmniDragonRandomnessProvider",
        "label": "totalVRFRequests",
        "offset": 0,
        "slot": "11",
        "type": "t_uint256"
      },
      {
        "astId": 18976,
        "contract": "contracts/core/oracles/OmniDragonRandomnessProvider.sol:OmniDragonRandomnessProvider",
        "label": "totalPoolRequests",
        "offset": 0,
        "slot": "12",
        "type": "t_uint256"
      },
      {
        "astId": 18978,
        "contract": "contracts/core/oracles/OmniDragonRandomnessProvider.sol:OmniDragonRandomnessProvider",
        "label": "totalInstantRequests",
        "offset": 0,
        "slot": "13",
        "type": "t_uint256"
      },
      {
        "astId": 18980,
        "contract": "contracts/core/oracles/OmniDragonRandomnessProvider.sol:OmniDragonRandomnessProvider",
        "label": "successfulVRFCallbacks",
        "offset": 0,
        "slot": "14",
        "type": "t_uint256"
      }
    ],
    "types": {
      "t_address": {
        "encoding": "inplace",
        "label": "address",
        "numberOfBytes": "20"
      },
      "t_bool": {
        "encoding": "inplace",
        "label": "bool",
        "numberOfBytes": "1"
      },
      "t_contract(IChainlinkVRFIntegratorV2_5)24415": {
        "encoding": "inplace",
        "label": "contract IChainlinkVRFIntegratorV2_5",
        "numberOfBytes": "20"
      },
      "t_mapping(t_address,t_bool)": {
        "encoding": "mapping",
        "key": "t_address",
        "label": "mapping(address => bool)",
        "numberOfBytes": "32",
        "value": "t_bool"
      },
      "t_mapping(t_uint256,t_struct(RandomnessRequest)18936_storage)": {
        "encoding": "mapping",
        "key": "t_uint256",
        "label": "mapping(uint256 => struct OmniDragonRandomnessProvider.RandomnessRequest)",
        "numberOfBytes": "32",
        "value": "t_struct(RandomnessRequest)18936_storage"
      },
      "t_mapping(t_uint64,t_uint256)": {
        "encoding": "mapping",
        "key": "t_uint64",
        "label": "mapping(uint64 => uint256)",
        "numberOfBytes": "32",
        "value": "t_uint256"
      },
      "t_struct(RandomnessRequest)18936_storage": {
        "encoding": "inplace",
        "label": "struct OmniDragonRandomnessProvider.RandomnessRequest",
        "members": [
          {
            "astId": 18925,
            "contract": "contracts/core/oracles/OmniDragonRandomnessProvider.sol:OmniDragonRandomnessProvider",
            "label": "requester",
            "offset": 0,
            "slot": "0",
            "type": "t_address"
          },
          {
            "astId": 18927,
            "contract": "contracts/core/oracles/OmniDragonRandomnessProvider.sol:OmniDragonRandomnessProvider",
            "label": "timestamp",
            "offset": 20,
            "slot": "0",
            "type": "t_uint64"
          },
          {
            "astId": 18929,
            "contract": "contracts/core/oracles/OmniDragonRandomnessProvider.sol:OmniDragonRandomnessProvider",
            "label": "fulfilled",
            "offset": 28,
            "slot": "0",
            "type": "t_bool"
          },
          {
            "astId": 18931,
            "contract": "contracts/core/oracles/OmniDragonRandomnessProvider.sol:OmniDragonRandomnessProvider",
            "label": "randomValue",
            "offset": 0,
            "slot": "1",
            "type": "t_uint256"
          },
          {
            "astId": 18933,
            "contract": "contracts/core/oracles/OmniDragonRandomnessProvider.sol:OmniDragonRandomnessProvider",
            "label": "requestType",
            "offset": 0,
            "slot": "2",
            "type": "t_uint32"
          },
          {
            "astId": 18935,
            "contract": "contracts/core/oracles/OmniDragonRandomnessProvider.sol:OmniDragonRandomnessProvider",
            "label": "vrfSequence",
            "offset": 4,
            "slot": "2",
            "type": "t_uint64"
          }
        ],
        "numberOfBytes": "96"
      },
      "t_uint256": {
        "encoding": "inplace",
        "label": "uint256",
        "numberOfBytes": "32"
      },
      "t_uint32": {
        "encoding": "inplace",
        "label": "uint32",
        "numberOfBytes": "4"
      },
      "t_uint64": {
        "encoding": "inplace",
        "label": "uint64",
        "numberOfBytes": "8"
      }
    }
  }
}